{"src/Roulette.sol":{"Roulette":{"abi":[{"inputs":[{"internalType":"address","name":"_accountManagerAddress","type":"address"}],"stateMutability":"nonpayable","type":"constructor"},{"anonymous":false,"inputs":[{"indexed":true,"internalType":"address","name":"player","type":"address"},{"indexed":false,"internalType":"uint256","name":"betId","type":"uint256"},{"indexed":false,"internalType":"enum Roulette.BetType","name":"betType","type":"uint8"},{"indexed":false,"internalType":"uint8[]","name":"choices","type":"uint8[]"},{"indexed":false,"internalType":"uint256","name":"amount","type":"uint256"}],"name":"BetPlaced","type":"event"},{"anonymous":false,"inputs":[{"indexed":false,"internalType":"string","name":"message","type":"string"},{"indexed":false,"internalType":"uint256","name":"value","type":"uint256"}],"name":"Debug","type":"event"},{"anonymous":false,"inputs":[{"indexed":false,"internalType":"string","name":"message","type":"string"},{"indexed":false,"internalType":"bool","name":"value","type":"bool"}],"name":"DebugBool","type":"event"},{"anonymous":false,"inputs":[{"indexed":true,"internalType":"address","name":"player","type":"address"},{"indexed":false,"internalType":"uint8","name":"result","type":"uint8"},{"indexed":false,"internalType":"uint256","name":"betAmount","type":"uint256"},{"indexed":false,"internalType":"uint256","name":"winAmount","type":"uint256"},{"indexed":false,"internalType":"bool","name":"isWin","type":"bool"},{"indexed":false,"internalType":"uint8[]","name":"choices","type":"uint8[]"}],"name":"GameResult","type":"event"},{"anonymous":false,"inputs":[{"indexed":true,"internalType":"address","name":"player","type":"address"},{"indexed":false,"internalType":"uint256","name":"amount","type":"uint256"}],"name":"Payout","type":"event"},{"anonymous":false,"inputs":[{"indexed":false,"internalType":"uint256","name":"spinId","type":"uint256"},{"indexed":false,"internalType":"uint8","name":"result","type":"uint8"}],"name":"SpinResult","type":"event"},{"stateMutability":"payable","type":"fallback"},{"inputs":[],"name":"accountManagerAddress","outputs":[{"internalType":"address","name":"","type":"address"}],"stateMutability":"view","type":"function"},{"inputs":[],"name":"betCounter","outputs":[{"internalType":"uint256","name":"","type":"uint256"}],"stateMutability":"view","type":"function"},{"inputs":[{"internalType":"uint256","name":"","type":"uint256"}],"name":"bets","outputs":[{"internalType":"address","name":"player","type":"address"},{"internalType":"uint256","name":"amount","type":"uint256"},{"internalType":"enum Roulette.BetType","name":"betType","type":"uint8"}],"stateMutability":"view","type":"function"},{"inputs":[{"internalType":"uint256","name":"betId","type":"uint256"},{"internalType":"uint256","name":"spinId","type":"uint256"}],"name":"calculatePayout","outputs":[],"stateMutability":"nonpayable","type":"function"},{"inputs":[],"name":"connectWallet","outputs":[],"stateMutability":"nonpayable","type":"function"},{"inputs":[{"internalType":"uint256","name":"betId","type":"uint256"}],"name":"getBet","outputs":[{"internalType":"uint256","name":"amount","type":"uint256"},{"internalType":"enum Roulette.BetType","name":"betType","type":"uint8"},{"internalType":"uint8[]","name":"choices","type":"uint8[]"}],"stateMutability":"view","type":"function"},{"inputs":[{"components":[{"internalType":"address","name":"player","type":"address"},{"internalType":"uint256","name":"amount","type":"uint256"},{"internalType":"enum Roulette.BetType","name":"betType","type":"uint8"},{"internalType":"uint8[]","name":"choices","type":"uint8[]"}],"internalType":"struct Roulette.Bet","name":"bet","type":"tuple"},{"internalType":"uint8","name":"result","type":"uint8"}],"name":"isWinningBet","outputs":[{"internalType":"bool","name":"","type":"bool"}],"stateMutability":"nonpayable","type":"function"},{"inputs":[{"internalType":"uint8[]","name":"choices","type":"uint8[]"}],"name":"placeBetAndSpin","outputs":[{"internalType":"uint8","name":"","type":"uint8"}],"stateMutability":"payable","type":"function"},{"inputs":[{"internalType":"address","name":"","type":"address"}],"name":"players","outputs":[{"internalType":"address","name":"wallet","type":"address"},{"internalType":"uint256","name":"balance","type":"uint256"}],"stateMutability":"view","type":"function"},{"inputs":[{"internalType":"address","name":"_accountManagerAddress","type":"address"}],"name":"setAccountManager","outputs":[],"stateMutability":"nonpayable","type":"function"},{"inputs":[{"internalType":"address","name":"","type":"address"}],"name":"specialBetTypes","outputs":[{"internalType":"enum Roulette.BetType","name":"","type":"uint8"}],"stateMutability":"view","type":"function"},{"inputs":[],"name":"spinCounter","outputs":[{"internalType":"uint256","name":"","type":"uint256"}],"stateMutability":"view","type":"function"},{"inputs":[{"internalType":"uint256","name":"","type":"uint256"}],"name":"spinResults","outputs":[{"internalType":"uint8","name":"","type":"uint8"}],"stateMutability":"view","type":"function"},{"inputs":[{"internalType":"uint256","name":"amount","type":"uint256"}],"name":"withdraw","outputs":[],"stateMutability":"nonpayable","type":"function"},{"stateMutability":"payable","type":"receive"}],"evm":{"bytecode":{"linkReferences":{},"object":"60806040523480156200001157600080fd5b50604051620050a1380380620050a18339818101604052810190620000379190620000e9565b80600560006101000a81548173ffffffffffffffffffffffffffffffffffffffff021916908373ffffffffffffffffffffffffffffffffffffffff160217905550506200011b565b600080fd5b600073ffffffffffffffffffffffffffffffffffffffff82169050919050565b6000620000b18262000084565b9050919050565b620000c381620000a4565b8114620000cf57600080fd5b50565b600081519050620000e381620000b8565b92915050565b6000602082840312156200010257620001016200007f565b5b60006200011284828501620000d2565b91505092915050565b614f76806200012b6000396000f3fe6080604052600436106100e15760003560e01c806383f4cb3b1161007f578063a416f5ab11610059578063a416f5ab1461033d578063d4bcc0e114610368578063e2eb41ff14610393578063e4f32206146103d15761011f565b806383f4cb3b146102ae5780638e4586af146102eb5780639dce5ff0146103145761011f565b80632d66f063116100bb5780632d66f063146102015780632e1a7d4d14610218578063608a84f4146102415780636dcd441a146102715761011f565b8063061e494f1461015857806322af00fa146101975780632c2fac12146101d65761011f565b3661011f577f3c5ad147104e56be34a9176a6692f7df8d2f4b29a5af06bc6b98970d329d6577346040516101159190612aeb565b60405180910390a1005b7f3c5ad147104e56be34a9176a6692f7df8d2f4b29a5af06bc6b98970d329d65773460405161014e9190612b65565b60405180910390a1005b34801561016457600080fd5b5061017f600480360381019061017a9190612bd3565b61040e565b60405161018e93929190612d42565b60405180910390f35b3480156101a357600080fd5b506101be60048036038101906101b99190612bd3565b6104cb565b6040516101cd93929190612dc1565b60405180910390f35b3480156101e257600080fd5b506101eb610522565b6040516101f89190612df8565b60405180910390f35b34801561020d57600080fd5b50610216610548565b005b34801561022457600080fd5b5061023f600480360381019061023a9190612bd3565b6106d8565b005b61025b60048036038101906102569190612f98565b6107fe565b6040516102689190612ff0565b60405180910390f35b34801561027d57600080fd5b50610298600480360381019061029391906130fa565b611603565b6040516102a59190613171565b60405180910390f35b3480156102ba57600080fd5b506102d560048036038101906102d0919061318c565b611d25565b6040516102e291906131b9565b60405180910390f35b3480156102f757600080fd5b50610312600480360381019061030d919061318c565b611d45565b005b34801561032057600080fd5b5061033b600480360381019061033691906131d4565b611e1a565b005b34801561034957600080fd5b50610352612432565b60405161035f9190613214565b60405180910390f35b34801561037457600080fd5b5061037d612438565b60405161038a9190613214565b60405180910390f35b34801561039f57600080fd5b506103ba60048036038101906103b5919061318c565b61243e565b6040516103c892919061322f565b60405180910390f35b3480156103dd57600080fd5b506103f860048036038101906103f39190612bd3565b612482565b6040516104059190612ff0565b60405180910390f35b6000806060600060016000868152602001908152602001600020905080600101548160020160009054906101000a900460ff1682600301808054806020026020016040519081016040528092919081815260200182805480156104b657602002820191906000526020600020906000905b82829054906101000a900460ff1660ff168152602001906001019060208260000104928301926001038202915080841161047f5790505b50505050509050935093509350509193909250565b60016020528060005260406000206000915090508060000160009054906101000a900473ffffffffffffffffffffffffffffffffffffffff16908060010154908060020160009054906101000a900460ff16905083565b600560009054906101000a900473ffffffffffffffffffffffffffffffffffffffff1681565b600073ffffffffffffffffffffffffffffffffffffffff166000803373ffffffffffffffffffffffffffffffffffffffff1673ffffffffffffffffffffffffffffffffffffffff16815260200190815260200160002060000160009054906101000a900473ffffffffffffffffffffffffffffffffffffffff1673ffffffffffffffffffffffffffffffffffffffff1614610618576040517f08c379a000000000000000000000000000000000000000000000000000000000815260040161060f906132a4565b60405180910390fd5b60405180604001604052803373ffffffffffffffffffffffffffffffffffffffff16815260200160008152506000803373ffffffffffffffffffffffffffffffffffffffff1673ffffffffffffffffffffffffffffffffffffffff16815260200190815260200160002060008201518160000160006101000a81548173ffffffffffffffffffffffffffffffffffffffff021916908373ffffffffffffffffffffffffffffffffffffffff16021790555060208201518160010155905050565b806000803373ffffffffffffffffffffffffffffffffffffffff1673ffffffffffffffffffffffffffffffffffffffff16815260200190815260200160002060010154101561075c576040517f08c379a000000000000000000000000000000000000000000000000000000000815260040161075390613310565b60405180910390fd5b806000803373ffffffffffffffffffffffffffffffffffffffff1673ffffffffffffffffffffffffffffffffffffffff16815260200190815260200160002060010160008282546107ad919061335f565b925050819055503373ffffffffffffffffffffffffffffffffffffffff166108fc829081150290604051600060405180830381858888f193505050501580156107fa573d6000803e3d6000fd5b5050565b6000803411610842576040517f08c379a000000000000000000000000000000000000000000000000000000000815260040161083990613405565b60405180910390fd5b6000825111610886576040517f08c379a000000000000000000000000000000000000000000000000000000000815260040161087d90613471565b60405180910390fd5b60006001835103610bcc577f3c5ad147104e56be34a9176a6692f7df8d2f4b29a5af06bc6b98970d329d6577836000815181106108c6576108c5613491565b5b60200260200101516040516108db9190613547565b60405180910390a16024836000815181106108f9576108f8613491565b5b602002602001015160ff161161095b57600090507f3c5ad147104e56be34a9176a6692f7df8d2f4b29a5af06bc6b98970d329d657781600a81111561094157610940612c00565b5b60405161094e91906135c1565b60405180910390a1610bc7565b60258360008151811061097157610970613491565b5b602002602001015160ff16036109c257600790507f3c5ad147104e56be34a9176a6692f7df8d2f4b29a5af06bc6b98970d329d657760016040516109b59190613676565b60405180910390a1610bc6565b6026836000815181106109d8576109d7613491565b5b602002602001015160ff1603610a2957600790507f3c5ad147104e56be34a9176a6692f7df8d2f4b29a5af06bc6b98970d329d65776000604051610a1c919061372b565b60405180910390a1610bc5565b602783600081518110610a3f57610a3e613491565b5b602002602001015160ff1603610a9057600890507f3c5ad147104e56be34a9176a6692f7df8d2f4b29a5af06bc6b98970d329d65776001604051610a8391906137a5565b60405180910390a1610bc4565b602883600081518110610aa657610aa5613491565b5b602002602001015160ff1603610af757600890507f3c5ad147104e56be34a9176a6692f7df8d2f4b29a5af06bc6b98970d329d65776000604051610aea919061381f565b60405180910390a1610bc3565b602983600081518110610b0d57610b0c613491565b5b602002602001015160ff1603610b5e57600990507f3c5ad147104e56be34a9176a6692f7df8d2f4b29a5af06bc6b98970d329d65776001604051610b519190613899565b60405180910390a1610bc2565b602a83600081518110610b7457610b73613491565b5b602002602001015160ff1603610bc157600990507f3c5ad147104e56be34a9176a6692f7df8d2f4b29a5af06bc6b98970d329d65776000604051610bb89190613913565b60405180910390a15b5b5b5b5b5b5b610c2d565b6002835103610bde5760019050610c2c565b6004835103610bf05760029050610c2b565b6040517f08c379a0000000000000000000000000000000000000000000000000000000008152600401610c229061398d565b60405180910390fd5b5b5b80600660003373ffffffffffffffffffffffffffffffffffffffff1673ffffffffffffffffffffffffffffffffffffffff16815260200190815260200160002060006101000a81548160ff0219169083600a811115610c8f57610c8e612c00565b5b02179055506000600560009054906101000a900473ffffffffffffffffffffffffffffffffffffffff1673ffffffffffffffffffffffffffffffffffffffff16343334604051602401610ce392919061322f565b6040516020818303038152906040527f91bb0a3b000000000000000000000000000000000000000000000000000000007bffffffffffffffffffffffffffffffffffffffffffffffffffffffff19166020820180517bffffffffffffffffffffffffffffffffffffffffffffffffffffffff8381831617835250505050604051610d6d9190613a1e565b60006040518083038185875af1925050503d8060008114610daa576040519150601f19603f3d011682016040523d82523d6000602084013e610daf565b606091505b5050905080610df3576040517f08c379a0000000000000000000000000000000000000000000000000000000008152600401610dea90613aa7565b60405180910390fd5b60405180608001604052803373ffffffffffffffffffffffffffffffffffffffff16815260200134815260200183600a811115610e3357610e32612c00565b5b81526020018581525060016000600454815260200190815260200160002060008201518160000160006101000a81548173ffffffffffffffffffffffffffffffffffffffff021916908373ffffffffffffffffffffffffffffffffffffffff1602179055506020820151816001015560408201518160020160006101000a81548160ff0219169083600a811115610ecd57610ecc612c00565b5b02179055506060820151816003019080519060200190610eee9291906129b1565b509050506000610efc6124a2565b90508060026000600354815260200190815260200160002060006101000a81548160ff021916908360ff16021790555060006110706001600060045481526020019081526020016000206040518060800160405290816000820160009054906101000a900473ffffffffffffffffffffffffffffffffffffffff1673ffffffffffffffffffffffffffffffffffffffff1673ffffffffffffffffffffffffffffffffffffffff168152602001600182015481526020016002820160009054906101000a900460ff16600a811115610fd657610fd5612c00565b5b600a811115610fe857610fe7612c00565b5b81526020016003820180548060200260200160405190810160405280929190818152602001828054801561106157602002820191906000526020600020906000905b82829054906101000a900460ff1660ff168152602001906001019060208260000104928301926001038202915080841161102a5790505b50505050508152505083611603565b90506000811561130e576111bb6001600060045481526020019081526020016000206040518060800160405290816000820160009054906101000a900473ffffffffffffffffffffffffffffffffffffffff1673ffffffffffffffffffffffffffffffffffffffff1673ffffffffffffffffffffffffffffffffffffffff168152602001600182015481526020016002820160009054906101000a900460ff16600a81111561112257611121612c00565b5b600a81111561113457611133612c00565b5b8152602001600382018054806020026020016040519081016040528092919081815260200182805480156111ad57602002820191906000526020600020906000905b82829054906101000a900460ff1660ff16815260200190600101906020826000010492830192600103820291508084116111765790505b5050505050815250506124fb565b9050600560009054906101000a900473ffffffffffffffffffffffffffffffffffffffff1673ffffffffffffffffffffffffffffffffffffffff166321e5383a33836040518363ffffffff1660e01b815260040161121a92919061322f565b600060405180830381600087803b15801561123457600080fd5b505af1925050508015611245575060015b611284576040517f08c379a000000000000000000000000000000000000000000000000000000000815260040161127b90613b13565b60405180910390fd5b7f3c5ad147104e56be34a9176a6692f7df8d2f4b29a5af06bc6b98970d329d6577816040516112b39190613b7f565b60405180910390a13373ffffffffffffffffffffffffffffffffffffffff167f5afeca38b2064c23a692c4cf353015d80ab3ecc417b4f893f372690c11fbd9a6826040516113019190613214565b60405180910390a261140d565b600560009054906101000a900473ffffffffffffffffffffffffffffffffffffffff1673ffffffffffffffffffffffffffffffffffffffff1663cfd4f18a33346040518363ffffffff1660e01b815260040161136b92919061322f565b600060405180830381600087803b15801561138557600080fd5b505af1925050508015611396575060015b6113d5576040517f08c379a00000000000000000000000000000000000000000000000000000000081526004016113cc90613bf9565b60405180910390fd5b7f3c5ad147104e56be34a9176a6692f7df8d2f4b29a5af06bc6b98970d329d6577346040516114049190613c65565b60405180910390a15b7f3c5ad147104e56be34a9176a6692f7df8d2f4b29a5af06bc6b98970d329d65778360405161143c9190613cdf565b60405180910390a17f3c5ad147104e56be34a9176a6692f7df8d2f4b29a5af06bc6b98970d329d657785600a81111561147857611477612c00565b5b6040516114859190613d59565b60405180910390a17f3c5ad147104e56be34a9176a6692f7df8d2f4b29a5af06bc6b98970d329d6577876000815181106114c2576114c1613491565b5b60200260200101516040516114d79190613dd3565b60405180910390a13373ffffffffffffffffffffffffffffffffffffffff167f164cd6fdc337108b0cf964c083e27ce6c44cb29596254995fcb9e212e34003ba600454878a3460405161152d9493929190613e01565b60405180910390a27f67aca3205b35c43df87036f2dc8e31c60461b3d7194a864b2a9c2ac724a0cd0260035484604051611568929190613e4d565b60405180910390a13373ffffffffffffffffffffffffffffffffffffffff167f95fb5d8fa6440389673bd6d8bda8fa944d2d764e1e1075502285085bd5158cef843484868c6040516115be959493929190613e76565b60405180910390a2600460008154809291906115d990613ed0565b9190505550600360008154809291906115f190613ed0565b91905055508295505050505050919050565b60007f3c5ad147104e56be34a9176a6692f7df8d2f4b29a5af06bc6b98970d329d657760006040516116359190613f64565b60405180910390a17f3c5ad147104e56be34a9176a6692f7df8d2f4b29a5af06bc6b98970d329d65778360400151600a81111561167557611674612c00565b5b6040516116829190613fde565b60405180910390a17f3c5ad147104e56be34a9176a6692f7df8d2f4b29a5af06bc6b98970d329d6577826040516116b99190614058565b60405180910390a160005b836060015151811015611739577f3c5ad147104e56be34a9176a6692f7df8d2f4b29a5af06bc6b98970d329d65778460600151828151811061170957611708613491565b5b602002602001015160405161171e9190613dd3565b60405180910390a1808061173190613ed0565b9150506116c4565b506007600a81111561174e5761174d612c00565b5b8360400151600a81111561176557611764612c00565b5b03611902576000611775836127e9565b905060006025856060015160008151811061179357611792613491565b5b602002602001015160ff161490507f3c5ad147104e56be34a9176a6692f7df8d2f4b29a5af06bc6b98970d329d6577846040516117d091906140d2565b60405180910390a17f3c5ad147104e56be34a9176a6692f7df8d2f4b29a5af06bc6b98970d329d657782611805576000611808565b60015b604051611815919061414c565b60405180910390a17f3c5ad147104e56be34a9176a6692f7df8d2f4b29a5af06bc6b98970d329d65778161184a57600061184d565b60015b60405161185a91906141c6565b60405180910390a160008215158215151490507f3c5ad147104e56be34a9176a6692f7df8d2f4b29a5af06bc6b98970d329d65778161189a57600061189d565b60015b6040516118aa9190614240565b60405180910390a17f3c5ad147104e56be34a9176a6692f7df8d2f4b29a5af06bc6b98970d329d6577816118df5760006118e2565b60015b6040516118ef91906142ba565b60405180910390a1809350505050611d1f565b6000600a81111561191657611915612c00565b5b8360400151600a81111561192d5761192c612c00565b5b036119ac5760008260ff1684606001516000815181106119505761194f613491565b5b602002602001015160ff161490507f3c5ad147104e56be34a9176a6692f7df8d2f4b29a5af06bc6b98970d329d65778161198b57600061198e565b60015b60405161199b9190614334565b60405180910390a180915050611d1f565b6008600a8111156119c0576119bf612c00565b5b8360400151600a8111156119d7576119d6612c00565b5b03611b4c5760008260ff16036119f05760009050611d1f565b600080600284611a009190614391565b60ff16149050600060278560600151600081518110611a2257611a21613491565b5b602002602001015160ff161490507f3c5ad147104e56be34a9176a6692f7df8d2f4b29a5af06bc6b98970d329d657784604051611a5f91906140d2565b60405180910390a17f3c5ad147104e56be34a9176a6692f7df8d2f4b29a5af06bc6b98970d329d657782611a94576000611a97565b60015b604051611aa4919061440e565b60405180910390a17f3c5ad147104e56be34a9176a6692f7df8d2f4b29a5af06bc6b98970d329d657781611ad9576000611adc565b60015b604051611ae99190614488565b60405180910390a160008215158215151490507f3c5ad147104e56be34a9176a6692f7df8d2f4b29a5af06bc6b98970d329d657781611b29576000611b2c565b60015b604051611b399190614502565b60405180910390a1809350505050611d1f565b6009600a811115611b6057611b5f612c00565b5b8360400151600a811115611b7757611b76612c00565b5b03611ce25760008260ff1603611b905760009050611d1f565b600060128360ff1611159050600060298560600151600081518110611bb857611bb7613491565b5b602002602001015160ff161490507f3c5ad147104e56be34a9176a6692f7df8d2f4b29a5af06bc6b98970d329d657784604051611bf591906140d2565b60405180910390a17f3c5ad147104e56be34a9176a6692f7df8d2f4b29a5af06bc6b98970d329d657782611c2a576000611c2d565b60015b604051611c3a919061457c565b60405180910390a17f3c5ad147104e56be34a9176a6692f7df8d2f4b29a5af06bc6b98970d329d657781611c6f576000611c72565b60015b604051611c7f91906145f6565b60405180910390a160008215158215151490507f3c5ad147104e56be34a9176a6692f7df8d2f4b29a5af06bc6b98970d329d657781611cbf576000611cc2565b60015b604051611ccf9190614670565b60405180910390a1809350505050611d1f565b7f3c5ad147104e56be34a9176a6692f7df8d2f4b29a5af06bc6b98970d329d65776000604051611d129190614710565b60405180910390a1600090505b92915050565b60066020528060005260406000206000915054906101000a900460ff1681565b600073ffffffffffffffffffffffffffffffffffffffff16600560009054906101000a900473ffffffffffffffffffffffffffffffffffffffff1673ffffffffffffffffffffffffffffffffffffffff1614611dd6576040517f08c379a0000000000000000000000000000000000000000000000000000000008152600401611dcd9061478a565b60405180910390fd5b80600560006101000a81548173ffffffffffffffffffffffffffffffffffffffff021916908373ffffffffffffffffffffffffffffffffffffffff16021790555050565b60006002600083815260200190815260200160002060009054906101000a900460ff169050600080600160008681526020019081526020016000206040518060800160405290816000820160009054906101000a900473ffffffffffffffffffffffffffffffffffffffff1673ffffffffffffffffffffffffffffffffffffffff1673ffffffffffffffffffffffffffffffffffffffff168152602001600182015481526020016002820160009054906101000a900460ff16600a811115611ee557611ee4612c00565b5b600a811115611ef757611ef6612c00565b5b815260200160038201805480602002602001604051908101604052809291908181526020018280548015611f7057602002820191906000526020600020906000905b82829054906101000a900460ff1660ff1681526020019060010190602082600001049283019260010382029150808411611f395790505b50505050508152505090507f3c5ad147104e56be34a9176a6692f7df8d2f4b29a5af06bc6b98970d329d657785604051611faa91906147f6565b60405180910390a17f3c5ad147104e56be34a9176a6692f7df8d2f4b29a5af06bc6b98970d329d657784604051611fe19190614870565b60405180910390a17f3c5ad147104e56be34a9176a6692f7df8d2f4b29a5af06bc6b98970d329d6577836040516120189190614058565b60405180910390a17f3c5ad147104e56be34a9176a6692f7df8d2f4b29a5af06bc6b98970d329d6577816020015160405161205391906148ea565b60405180910390a160008160200151116120a2576040517f08c379a000000000000000000000000000000000000000000000000000000000815260040161209990614964565b60405180910390fd5b3373ffffffffffffffffffffffffffffffffffffffff16816000015173ffffffffffffffffffffffffffffffffffffffff1614612114576040517f08c379a000000000000000000000000000000000000000000000000000000000815260040161210b906149d0565b60405180910390fd5b61211e8184611603565b1561242b5761212c816124fb565b91507f3c5ad147104e56be34a9176a6692f7df8d2f4b29a5af06bc6b98970d329d65778260405161215d9190614a3c565b60405180910390a1600082111561242a576000600560009054906101000a900473ffffffffffffffffffffffffffffffffffffffff1673ffffffffffffffffffffffffffffffffffffffff16836040516121b690614a90565b60006040518083038185875af1925050503d80600081146121f3576040519150601f19603f3d011682016040523d82523d6000602084013e6121f8565b606091505b505090508061223c576040517f08c379a000000000000000000000000000000000000000000000000000000000815260040161223390614b17565b60405180910390fd5b6000600560009054906101000a900473ffffffffffffffffffffffffffffffffffffffff1673ffffffffffffffffffffffffffffffffffffffff1683600001518560405160240161228e92919061322f565b6040516020818303038152906040527f3285d9e6000000000000000000000000000000000000000000000000000000007bffffffffffffffffffffffffffffffffffffffffffffffffffffffff19166020820180517bffffffffffffffffffffffffffffffffffffffffffffffffffffffff83818316178352505050506040516123189190613a1e565b6000604051808303816000865af19150503d8060008114612355576040519150601f19603f3d011682016040523d82523d6000602084013e61235a565b606091505b505090508061239e576040517f08c379a000000000000000000000000000000000000000000000000000000000815260040161239590614ba9565b60405180910390fd5b826000015173ffffffffffffffffffffffffffffffffffffffff167f5afeca38b2064c23a692c4cf353015d80ab3ecc417b4f893f372690c11fbd9a6856040516123e89190613214565b60405180910390a27f3c5ad147104e56be34a9176a6692f7df8d2f4b29a5af06bc6b98970d329d65778460405161241f9190614c15565b60405180910390a150505b5b5050505050565b60045481565b60035481565b60006020528060005260406000206000915090508060000160009054906101000a900473ffffffffffffffffffffffffffffffffffffffff16908060010154905082565b60026020528060005260406000206000915054906101000a900460ff1681565b6000806001436124b2919061335f565b404233306003546040516020016124cd959493929190614cd7565b6040516020818303038152906040528051906020012060001c90506025816124f59190614d36565b91505090565b60006007600a81111561251157612510612c00565b5b8260400151600a81111561252857612527612c00565b5b148061255c57506008600a81111561254357612542612c00565b5b8260400151600a81111561255a57612559612c00565b5b145b8061258f57506009600a81111561257657612575612c00565b5b8260400151600a81111561258d5761258c612c00565b5b145b156125a057816020015190506127e4565b6000600a8111156125b4576125b3612c00565b5b8260400151600a8111156125cb576125ca612c00565b5b036125e857602382602001516125e19190614d67565b90506127e4565b6001600a8111156125fc576125fb612c00565b5b8260400151600a81111561261357612612612c00565b5b0361263057601182602001516126299190614d67565b90506127e4565b6002600a81111561264457612643612c00565b5b8260400151600a81111561265b5761265a612c00565b5b0361267857600882602001516126719190614d67565b90506127e4565b6003600a81111561268c5761268b612c00565b5b8260400151600a8111156126a3576126a2612c00565b5b036126c057600b82602001516126b99190614d67565b90506127e4565b6004600a8111156126d4576126d3612c00565b5b8260400151600a8111156126eb576126ea612c00565b5b0361270857600582602001516127019190614d67565b90506127e4565b6005600a81111561271c5761271b612c00565b5b8260400151600a81111561273357612732612c00565b5b0361275057600282602001516127499190614d67565b90506127e4565b6006600a81111561276457612763612c00565b5b8260400151600a81111561277b5761277a612c00565b5b0361279857600282602001516127919190614d67565b90506127e4565b600a808111156127ab576127aa612c00565b5b8260400151600a8111156127c2576127c1612c00565b5b036127df57600282602001516127d89190614d67565b90506127e4565b600090505b919050565b600080604051806102400160405280600160ff168152602001600360ff168152602001600560ff168152602001600760ff168152602001600960ff168152602001600c60ff168152602001600e60ff168152602001601060ff168152602001601260ff168152602001601360ff168152602001601560ff168152602001601760ff168152602001601960ff168152602001601b60ff168152602001601e60ff168152602001602060ff168152602001602260ff168152602001602460ff1681525090507f3c5ad147104e56be34a9176a6692f7df8d2f4b29a5af06bc6b98970d329d6577836040516128db9190614df5565b60405180910390a160005b60128160ff16101561296e578360ff16828260ff166012811061290c5761290b613491565b5b602002015160ff160361295b577f3c5ad147104e56be34a9176a6692f7df8d2f4b29a5af06bc6b98970d329d6577846040516129489190614e6f565b60405180910390a16001925050506129ac565b808061296690614e9d565b9150506128e6565b507f3c5ad147104e56be34a9176a6692f7df8d2f4b29a5af06bc6b98970d329d65778360405161299e9190614f12565b60405180910390a160009150505b919050565b82805482825590600052602060002090601f01602090048101928215612a475791602002820160005b83821115612a1857835183826101000a81548160ff021916908360ff16021790555092602001926001016020816000010492830192600103026129da565b8015612a455782816101000a81549060ff0219169055600101602081600001049283019260010302612a18565b505b509050612a549190612a58565b5090565b5b80821115612a71576000816000905550600101612a59565b5090565b600082825260208201905092915050565b7f5265636569766564204554480000000000000000000000000000000000000000600082015250565b6000612abc600c83612a75565b9150612ac782612a86565b602082019050919050565b6000819050919050565b612ae581612ad2565b82525050565b60006040820190508181036000830152612b0481612aaf565b9050612b136020830184612adc565b92915050565b7f46616c6c6261636b2063616c6c65642077697468204554480000000000000000600082015250565b6000612b4f601883612a75565b9150612b5a82612b19565b602082019050919050565b60006040820190508181036000830152612b7e81612b42565b9050612b8d6020830184612adc565b92915050565b6000604051905090565b600080fd5b600080fd5b612bb081612ad2565b8114612bbb57600080fd5b50565b600081359050612bcd81612ba7565b92915050565b600060208284031215612be957612be8612b9d565b5b6000612bf784828501612bbe565b91505092915050565b7f4e487b7100000000000000000000000000000000000000000000000000000000600052602160045260246000fd5b600b8110612c4057612c3f612c00565b5b50565b6000819050612c5182612c2f565b919050565b6000612c6182612c43565b9050919050565b612c7181612c56565b82525050565b600081519050919050565b600082825260208201905092915050565b6000819050602082019050919050565b600060ff82169050919050565b612cb981612ca3565b82525050565b6000612ccb8383612cb0565b60208301905092915050565b6000602082019050919050565b6000612cef82612c77565b612cf98185612c82565b9350612d0483612c93565b8060005b83811015612d35578151612d1c8882612cbf565b9750612d2783612cd7565b925050600181019050612d08565b5085935050505092915050565b6000606082019050612d576000830186612adc565b612d646020830185612c68565b8181036040830152612d768184612ce4565b9050949350505050565b600073ffffffffffffffffffffffffffffffffffffffff82169050919050565b6000612dab82612d80565b9050919050565b612dbb81612da0565b82525050565b6000606082019050612dd66000830186612db2565b612de36020830185612adc565b612df06040830184612c68565b949350505050565b6000602082019050612e0d6000830184612db2565b92915050565b600080fd5b6000601f19601f8301169050919050565b7f4e487b7100000000000000000000000000000000000000000000000000000000600052604160045260246000fd5b612e6182612e18565b810181811067ffffffffffffffff82111715612e8057612e7f612e29565b5b80604052505050565b6000612e93612b93565b9050612e9f8282612e58565b919050565b600067ffffffffffffffff821115612ebf57612ebe612e29565b5b602082029050602081019050919050565b600080fd5b612ede81612ca3565b8114612ee957600080fd5b50565b600081359050612efb81612ed5565b92915050565b6000612f14612f0f84612ea4565b612e89565b90508083825260208201905060208402830185811115612f3757612f36612ed0565b5b835b81811015612f605780612f4c8882612eec565b845260208401935050602081019050612f39565b5050509392505050565b600082601f830112612f7f57612f7e612e13565b5b8135612f8f848260208601612f01565b91505092915050565b600060208284031215612fae57612fad612b9d565b5b600082013567ffffffffffffffff811115612fcc57612fcb612ba2565b5b612fd884828501612f6a565b91505092915050565b612fea81612ca3565b82525050565b60006020820190506130056000830184612fe1565b92915050565b600080fd5b600080fd5b61301e81612da0565b811461302957600080fd5b50565b60008135905061303b81613015565b92915050565b600b811061304e57600080fd5b50565b60008135905061306081613041565b92915050565b60006080828403121561307c5761307b61300b565b5b6130866080612e89565b905060006130968482850161302c565b60008301525060206130aa84828501612bbe565b60208301525060406130be84828501613051565b604083015250606082013567ffffffffffffffff8111156130e2576130e1613010565b5b6130ee84828501612f6a565b60608301525092915050565b6000806040838503121561311157613110612b9d565b5b600083013567ffffffffffffffff81111561312f5761312e612ba2565b5b61313b85828601613066565b925050602061314c85828601612eec565b9150509250929050565b60008115159050919050565b61316b81613156565b82525050565b60006020820190506131866000830184613162565b92915050565b6000602082840312156131a2576131a1612b9d565b5b60006131b08482850161302c565b91505092915050565b60006020820190506131ce6000830184612c68565b92915050565b600080604083850312156131eb576131ea612b9d565b5b60006131f985828601612bbe565b925050602061320a85828601612bbe565b9150509250929050565b60006020820190506132296000830184612adc565b92915050565b60006040820190506132446000830185612db2565b6132516020830184612adc565b9392505050565b7f57616c6c657420616c726561647920636f6e6e65637465640000000000000000600082015250565b600061328e601883612a75565b915061329982613258565b602082019050919050565b600060208201905081810360008301526132bd81613281565b9050919050565b7f496e73756666696369656e742062616c616e6365000000000000000000000000600082015250565b60006132fa601483612a75565b9150613305826132c4565b602082019050919050565b60006020820190508181036000830152613329816132ed565b9050919050565b7f4e487b7100000000000000000000000000000000000000000000000000000000600052601160045260246000fd5b600061336a82612ad2565b915061337583612ad2565b925082820390508181111561338d5761338c613330565b5b92915050565b7f42657420616d6f756e74206d7573742062652067726561746572207468616e2060008201527f3000000000000000000000000000000000000000000000000000000000000000602082015250565b60006133ef602183612a75565b91506133fa82613393565b604082019050919050565b6000602082019050818103600083015261341e816133e2565b9050919050565b7f4d7573742073706563696679206265742063686f696365730000000000000000600082015250565b600061345b601883612a75565b915061346682613425565b602082019050919050565b6000602082019050818103600083015261348a8161344e565b9050919050565b7f4e487b7100000000000000000000000000000000000000000000000000000000600052603260045260246000fd5b7f53696e676c652063686f6963652076616c756500000000000000000000000000600082015250565b60006134f6601383612a75565b9150613501826134c0565b602082019050919050565b6000819050919050565b600061353161352c61352784612ca3565b61350c565b612ad2565b9050919050565b61354181613516565b82525050565b60006040820190508181036000830152613560816134e9565b905061356f6020830184613538565b92915050565b7f53657420626574207479706520746f2053696e676c6500000000000000000000600082015250565b60006135ab601683612a75565b91506135b682613575565b602082019050919050565b600060408201905081810360008301526135da8161359e565b90506135e96020830184612adc565b92915050565b7f53657420626574207479706520746f20526564426c61636b2028526564290000600082015250565b6000613625601e83612a75565b9150613630826135ef565b602082019050919050565b6000819050919050565b600061366061365b6136568461363b565b61350c565b612ad2565b9050919050565b61367081613645565b82525050565b6000604082019050818103600083015261368f81613618565b905061369e6020830184613667565b92915050565b7f53657420626574207479706520746f20526564426c61636b2028426c61636b29600082015250565b60006136da602083612a75565b91506136e5826136a4565b602082019050919050565b6000819050919050565b600061371561371061370b846136f0565b61350c565b612ad2565b9050919050565b613725816136fa565b82525050565b60006040820190508181036000830152613744816136cd565b9050613753602083018461371c565b92915050565b7f53657420626574207479706520746f204576656e4f646420284576656e290000600082015250565b600061378f601e83612a75565b915061379a82613759565b602082019050919050565b600060408201905081810360008301526137be81613782565b90506137cd6020830184613667565b92915050565b7f53657420626574207479706520746f204576656e4f646420284f646429000000600082015250565b6000613809601d83612a75565b9150613814826137d3565b602082019050919050565b60006040820190508181036000830152613838816137fc565b9050613847602083018461371c565b92915050565b7f53657420626574207479706520746f204c6f774869676820284c6f7729000000600082015250565b6000613883601d83612a75565b915061388e8261384d565b602082019050919050565b600060408201905081810360008301526138b281613876565b90506138c16020830184613667565b92915050565b7f53657420626574207479706520746f204c6f7748696768202848696768290000600082015250565b60006138fd601e83612a75565b9150613908826138c7565b602082019050919050565b6000604082019050818103600083015261392c816138f0565b905061393b602083018461371c565b92915050565b7f496e76616c6964206e756d626572206f662063686f6963657300000000000000600082015250565b6000613977601983612a75565b915061398282613941565b602082019050919050565b600060208201905081810360008301526139a68161396a565b9050919050565b600081519050919050565b600081905092915050565b60005b838110156139e15780820151818401526020810190506139c6565b60008484015250505050565b60006139f8826139ad565b613a0281856139b8565b9350613a128185602086016139c3565b80840191505092915050565b6000613a2a82846139ed565b915081905092915050565b7f4661696c656420746f2068616e646c65206265742077697468204163636f756e60008201527f744d616e61676572000000000000000000000000000000000000000000000000602082015250565b6000613a91602883612a75565b9150613a9c82613a35565b604082019050919050565b60006020820190508181036000830152613ac081613a84565b9050919050565b7f4661696c656420746f207570646174652077696e6e65722062616c616e636500600082015250565b6000613afd601f83612a75565b9150613b0882613ac7565b602082019050919050565b60006020820190508181036000830152613b2c81613af0565b9050919050565b7f57696e20616d6f756e7420616464656400000000000000000000000000000000600082015250565b6000613b69601083612a75565b9150613b7482613b33565b602082019050919050565b60006040820190508181036000830152613b9881613b5c565b9050613ba76020830184612adc565b92915050565b7f4661696c656420746f2073756274726163742062657420616d6f756e74000000600082015250565b6000613be3601d83612a75565b9150613bee82613bad565b602082019050919050565b60006020820190508181036000830152613c1281613bd6565b9050919050565b7f42657420616d6f756e7420737562747261637465640000000000000000000000600082015250565b6000613c4f601583612a75565b9150613c5a82613c19565b602082019050919050565b60006040820190508181036000830152613c7e81613c42565b9050613c8d6020830184612adc565b92915050565b7f47656e65726174656420726573756c7400000000000000000000000000000000600082015250565b6000613cc9601083612a75565b9150613cd482613c93565b602082019050919050565b60006040820190508181036000830152613cf881613cbc565b9050613d076020830184613538565b92915050565b7f46696e616c206265742074797065000000000000000000000000000000000000600082015250565b6000613d43600e83612a75565b9150613d4e82613d0d565b602082019050919050565b60006040820190508181036000830152613d7281613d36565b9050613d816020830184612adc565b92915050565b7f506c617965722063686f69636500000000000000000000000000000000000000600082015250565b6000613dbd600d83612a75565b9150613dc882613d87565b602082019050919050565b60006040820190508181036000830152613dec81613db0565b9050613dfb6020830184613538565b92915050565b6000608082019050613e166000830187612adc565b613e236020830186612c68565b8181036040830152613e358185612ce4565b9050613e446060830184612adc565b95945050505050565b6000604082019050613e626000830185612adc565b613e6f6020830184612fe1565b9392505050565b600060a082019050613e8b6000830188612fe1565b613e986020830187612adc565b613ea56040830186612adc565b613eb26060830185613162565b8181036080830152613ec48184612ce4565b90509695505050505050565b6000613edb82612ad2565b91507fffffffffffffffffffffffffffffffffffffffffffffffffffffffffffffffff8203613f0d57613f0c613330565b5b600182019050919050565b7f3d3d3d2057494e20434845434b205354415254203d3d3d000000000000000000600082015250565b6000613f4e601783612a75565b9150613f5982613f18565b602082019050919050565b60006040820190508181036000830152613f7d81613f41565b9050613f8c602083018461371c565b92915050565b7f4265742074797065000000000000000000000000000000000000000000000000600082015250565b6000613fc8600883612a75565b9150613fd382613f92565b602082019050919050565b60006040820190508181036000830152613ff781613fbb565b90506140066020830184612adc565b92915050565b7f5370696e20726573756c74000000000000000000000000000000000000000000600082015250565b6000614042600b83612a75565b915061404d8261400c565b602082019050919050565b6000604082019050818103600083015261407181614035565b90506140806020830184613538565b92915050565b7f526573756c74206e756d62657200000000000000000000000000000000000000600082015250565b60006140bc600d83612a75565b91506140c782614086565b602082019050919050565b600060408201905081810360008301526140eb816140af565b90506140fa6020830184613538565b92915050565b7f497320726573756c74207265643f000000000000000000000000000000000000600082015250565b6000614136600e83612a75565b915061414182614100565b602082019050919050565b6000604082019050818103600083015261416581614129565b90506141746020830184613538565b92915050565b7f44696420706c617965722063686f6f7365207265643f00000000000000000000600082015250565b60006141b0601683612a75565b91506141bb8261417a565b602082019050919050565b600060408201905081810360008301526141df816141a3565b90506141ee6020830184613538565b92915050565b7f5265642f426c61636b2077696e20636865636b00000000000000000000000000600082015250565b600061422a601383612a75565b9150614235826141f4565b602082019050919050565b600060408201905081810360008301526142598161421d565b90506142686020830184613538565b92915050565b7f3d3d3d2057494e20434845434b20454e44203d3d3d0000000000000000000000600082015250565b60006142a4601583612a75565b91506142af8261426e565b602082019050919050565b600060408201905081810360008301526142d381614297565b90506142e26020830184613538565b92915050565b7f53696e676c65206e756d62657220636f6d70617269736f6e0000000000000000600082015250565b600061431e601883612a75565b9150614329826142e8565b602082019050919050565b6000604082019050818103600083015261434d81614311565b905061435c6020830184613538565b92915050565b7f4e487b7100000000000000000000000000000000000000000000000000000000600052601260045260246000fd5b600061439c82612ca3565b91506143a783612ca3565b9250826143b7576143b6614362565b5b828206905092915050565b7f497320726573756c74206576656e3f0000000000000000000000000000000000600082015250565b60006143f8600f83612a75565b9150614403826143c2565b602082019050919050565b60006040820190508181036000830152614427816143eb565b90506144366020830184613538565b92915050565b7f44696420706c617965722063686f6f7365206576656e3f000000000000000000600082015250565b6000614472601783612a75565b915061447d8261443c565b602082019050919050565b600060408201905081810360008301526144a181614465565b90506144b06020830184613538565b92915050565b7f4576656e2f4f64642077696e20636865636b0000000000000000000000000000600082015250565b60006144ec601283612a75565b91506144f7826144b6565b602082019050919050565b6000604082019050818103600083015261451b816144df565b905061452a6020830184613538565b92915050565b7f497320726573756c74206c6f772028312d3138293f0000000000000000000000600082015250565b6000614566601583612a75565b915061457182614530565b602082019050919050565b6000604082019050818103600083015261459581614559565b90506145a46020830184613538565b92915050565b7f44696420706c617965722063686f6f7365206c6f773f00000000000000000000600082015250565b60006145e0601683612a75565b91506145eb826145aa565b602082019050919050565b6000604082019050818103600083015261460f816145d3565b905061461e6020830184613538565b92915050565b7f486967682f4c6f772077696e20636865636b0000000000000000000000000000600082015250565b600061465a601283612a75565b915061466582614624565b602082019050919050565b600060408201905081810360008301526146898161464d565b90506146986020830184613538565b92915050565b7f3d3d3d2057494e20434845434b20454e442028556e6b6e6f776e20626574207460008201527f79706529203d3d3d000000000000000000000000000000000000000000000000602082015250565b60006146fa602883612a75565b91506147058261469e565b604082019050919050565b60006040820190508181036000830152614729816146ed565b9050614738602083018461371c565b92915050565b7f4163636f756e744d616e6167657220616c726561647920736574000000000000600082015250565b6000614774601a83612a75565b915061477f8261473e565b602082019050919050565b600060208201905081810360008301526147a381614767565b9050919050565b7f50726f63657373696e6720626574204944000000000000000000000000000000600082015250565b60006147e0601183612a75565b91506147eb826147aa565b602082019050919050565b6000604082019050818103600083015261480f816147d3565b905061481e6020830184612adc565b92915050565b7f50726f63657373696e67207370696e2049440000000000000000000000000000600082015250565b600061485a601283612a75565b915061486582614824565b602082019050919050565b600060408201905081810360008301526148898161484d565b90506148986020830184612adc565b92915050565b7f42657420616d6f756e7400000000000000000000000000000000000000000000600082015250565b60006148d4600a83612a75565b91506148df8261489e565b602082019050919050565b60006040820190508181036000830152614903816148c7565b90506149126020830184612adc565b92915050565b7f4e6f2062657420666f756e6420666f7220746869732049440000000000000000600082015250565b600061494e601883612a75565b915061495982614918565b602082019050919050565b6000602082019050818103600083015261497d81614941565b9050919050565b7f4e6f7420796f7572206265740000000000000000000000000000000000000000600082015250565b60006149ba600c83612a75565b91506149c582614984565b602082019050919050565b600060208201905081810360008301526149e9816149ad565b9050919050565b7f57696e20616d6f756e742063616c63756c617465640000000000000000000000600082015250565b6000614a26601583612a75565b9150614a31826149f0565b602082019050919050565b60006040820190508181036000830152614a5581614a19565b9050614a646020830184612adc565b92915050565b50565b6000614a7a6000836139b8565b9150614a8582614a6a565b600082019050919050565b6000614a9b82614a6d565b9150819050919050565b7f4661696c656420746f207472616e736665722045544820746f204163636f756e60008201527f744d616e61676572000000000000000000000000000000000000000000000000602082015250565b6000614b01602883612a75565b9150614b0c82614aa5565b604082019050919050565b60006020820190508181036000830152614b3081614af4565b9050919050565b7f4661696c656420746f2070726f636573732077696e6e696e672077697468204160008201527f63636f756e744d616e6167657200000000000000000000000000000000000000602082015250565b6000614b93602d83612a75565b9150614b9e82614b37565b604082019050919050565b60006020820190508181036000830152614bc281614b86565b9050919050565b7f546f74616c207061796f75742070726f63657373656400000000000000000000600082015250565b6000614bff601683612a75565b9150614c0a82614bc9565b602082019050919050565b60006040820190508181036000830152614c2e81614bf2565b9050614c3d6020830184612adc565b92915050565b6000819050919050565b6000819050919050565b614c68614c6382614c43565b614c4d565b82525050565b6000819050919050565b614c89614c8482612ad2565b614c6e565b82525050565b60008160601b9050919050565b6000614ca782614c8f565b9050919050565b6000614cb982614c9c565b9050919050565b614cd1614ccc82612da0565b614cae565b82525050565b6000614ce38288614c57565b602082019150614cf38287614c78565b602082019150614d038286614cc0565b601482019150614d138285614cc0565b601482019150614d238284614c78565b6020820191508190509695505050505050565b6000614d4182612ad2565b9150614d4c83612ad2565b925082614d5c57614d5b614362565b5b828206905092915050565b6000614d7282612ad2565b9150614d7d83612ad2565b9250828202614d8b81612ad2565b91508282048414831517614da257614da1613330565b5b5092915050565b7f436865636b696e67206966206e756d6265722069732072656400000000000000600082015250565b6000614ddf601983612a75565b9150614dea82614da9565b602082019050919050565b60006040820190508181036000830152614e0e81614dd2565b9050614e1d6020830184613538565b92915050565b7f466f756e64206e756d62657220696e20726564206e756d626572730000000000600082015250565b6000614e59601b83612a75565b9150614e6482614e23565b602082019050919050565b60006040820190508181036000830152614e8881614e4c565b9050614e976020830184613538565b92915050565b6000614ea882612ca3565b915060ff8203614ebb57614eba613330565b5b600182019050919050565b7f4e756d626572206973206e6f7420726564000000000000000000000000000000600082015250565b6000614efc601183612a75565b9150614f0782614ec6565b602082019050919050565b60006040820190508181036000830152614f2b81614eef565b9050614f3a6020830184613538565b9291505056fea2646970667358221220c0558f92e4d32c4c1e4ce894177be48d99d5838a6c638c3be6c947c4da2e866764736f6c63430008130033","opcodes":"PUSH1 0x80 PUSH1 0x40 MSTORE CALLVALUE DUP1 ISZERO PUSH3 0x11 JUMPI PUSH1 0x0 DUP1 REVERT JUMPDEST POP PUSH1 0x40 MLOAD PUSH3 0x50A1 CODESIZE SUB DUP1 PUSH3 0x50A1 DUP4 CODECOPY DUP2 DUP2 ADD PUSH1 0x40 MSTORE DUP2 ADD SWAP1 PUSH3 0x37 SWAP2 SWAP1 PUSH3 0xE9 JUMP JUMPDEST DUP1 PUSH1 0x5 PUSH1 0x0 PUSH2 0x100 EXP DUP2 SLOAD DUP2 PUSH20 0xFFFFFFFFFFFFFFFFFFFFFFFFFFFFFFFFFFFFFFFF MUL NOT AND SWAP1 DUP4 PUSH20 0xFFFFFFFFFFFFFFFFFFFFFFFFFFFFFFFFFFFFFFFF AND MUL OR SWAP1 SSTORE POP POP PUSH3 0x11B JUMP JUMPDEST PUSH1 0x0 DUP1 REVERT JUMPDEST PUSH1 0x0 PUSH20 0xFFFFFFFFFFFFFFFFFFFFFFFFFFFFFFFFFFFFFFFF DUP3 AND SWAP1 POP SWAP2 SWAP1 POP JUMP JUMPDEST PUSH1 0x0 PUSH3 0xB1 DUP3 PUSH3 0x84 JUMP JUMPDEST SWAP1 POP SWAP2 SWAP1 POP JUMP JUMPDEST PUSH3 0xC3 DUP2 PUSH3 0xA4 JUMP JUMPDEST DUP2 EQ PUSH3 0xCF JUMPI PUSH1 0x0 DUP1 REVERT JUMPDEST POP JUMP JUMPDEST PUSH1 0x0 DUP2 MLOAD SWAP1 POP PUSH3 0xE3 DUP2 PUSH3 0xB8 JUMP JUMPDEST SWAP3 SWAP2 POP POP JUMP JUMPDEST PUSH1 0x0 PUSH1 0x20 DUP3 DUP5 SUB SLT ISZERO PUSH3 0x102 JUMPI PUSH3 0x101 PUSH3 0x7F JUMP JUMPDEST JUMPDEST PUSH1 0x0 PUSH3 0x112 DUP5 DUP3 DUP6 ADD PUSH3 0xD2 JUMP JUMPDEST SWAP2 POP POP SWAP3 SWAP2 POP POP JUMP JUMPDEST PUSH2 0x4F76 DUP1 PUSH3 0x12B PUSH1 0x0 CODECOPY PUSH1 0x0 RETURN INVALID PUSH1 0x80 PUSH1 0x40 MSTORE PUSH1 0x4 CALLDATASIZE LT PUSH2 0xE1 JUMPI PUSH1 0x0 CALLDATALOAD PUSH1 0xE0 SHR DUP1 PUSH4 0x83F4CB3B GT PUSH2 0x7F JUMPI DUP1 PUSH4 0xA416F5AB GT PUSH2 0x59 JUMPI DUP1 PUSH4 0xA416F5AB EQ PUSH2 0x33D JUMPI DUP1 PUSH4 0xD4BCC0E1 EQ PUSH2 0x368 JUMPI DUP1 PUSH4 0xE2EB41FF EQ PUSH2 0x393 JUMPI DUP1 PUSH4 0xE4F32206 EQ PUSH2 0x3D1 JUMPI PUSH2 0x11F JUMP JUMPDEST DUP1 PUSH4 0x83F4CB3B EQ PUSH2 0x2AE JUMPI DUP1 PUSH4 0x8E4586AF EQ PUSH2 0x2EB JUMPI DUP1 PUSH4 0x9DCE5FF0 EQ PUSH2 0x314 JUMPI PUSH2 0x11F JUMP JUMPDEST DUP1 PUSH4 0x2D66F063 GT PUSH2 0xBB JUMPI DUP1 PUSH4 0x2D66F063 EQ PUSH2 0x201 JUMPI DUP1 PUSH4 0x2E1A7D4D EQ PUSH2 0x218 JUMPI DUP1 PUSH4 0x608A84F4 EQ PUSH2 0x241 JUMPI DUP1 PUSH4 0x6DCD441A EQ PUSH2 0x271 JUMPI PUSH2 0x11F JUMP JUMPDEST DUP1 PUSH4 0x61E494F EQ PUSH2 0x158 JUMPI DUP1 PUSH4 0x22AF00FA EQ PUSH2 0x197 JUMPI DUP1 PUSH4 0x2C2FAC12 EQ PUSH2 0x1D6 JUMPI PUSH2 0x11F JUMP JUMPDEST CALLDATASIZE PUSH2 0x11F JUMPI PUSH32 0x3C5AD147104E56BE34A9176A6692F7DF8D2F4B29A5AF06BC6B98970D329D6577 CALLVALUE PUSH1 0x40 MLOAD PUSH2 0x115 SWAP2 SWAP1 PUSH2 0x2AEB JUMP JUMPDEST PUSH1 0x40 MLOAD DUP1 SWAP2 SUB SWAP1 LOG1 STOP JUMPDEST PUSH32 0x3C5AD147104E56BE34A9176A6692F7DF8D2F4B29A5AF06BC6B98970D329D6577 CALLVALUE PUSH1 0x40 MLOAD PUSH2 0x14E SWAP2 SWAP1 PUSH2 0x2B65 JUMP JUMPDEST PUSH1 0x40 MLOAD DUP1 SWAP2 SUB SWAP1 LOG1 STOP JUMPDEST CALLVALUE DUP1 ISZERO PUSH2 0x164 JUMPI PUSH1 0x0 DUP1 REVERT JUMPDEST POP PUSH2 0x17F PUSH1 0x4 DUP1 CALLDATASIZE SUB DUP2 ADD SWAP1 PUSH2 0x17A SWAP2 SWAP1 PUSH2 0x2BD3 JUMP JUMPDEST PUSH2 0x40E JUMP JUMPDEST PUSH1 0x40 MLOAD PUSH2 0x18E SWAP4 SWAP3 SWAP2 SWAP1 PUSH2 0x2D42 JUMP JUMPDEST PUSH1 0x40 MLOAD DUP1 SWAP2 SUB SWAP1 RETURN JUMPDEST CALLVALUE DUP1 ISZERO PUSH2 0x1A3 JUMPI PUSH1 0x0 DUP1 REVERT JUMPDEST POP PUSH2 0x1BE PUSH1 0x4 DUP1 CALLDATASIZE SUB DUP2 ADD SWAP1 PUSH2 0x1B9 SWAP2 SWAP1 PUSH2 0x2BD3 JUMP JUMPDEST PUSH2 0x4CB JUMP JUMPDEST PUSH1 0x40 MLOAD PUSH2 0x1CD SWAP4 SWAP3 SWAP2 SWAP1 PUSH2 0x2DC1 JUMP JUMPDEST PUSH1 0x40 MLOAD DUP1 SWAP2 SUB SWAP1 RETURN JUMPDEST CALLVALUE DUP1 ISZERO PUSH2 0x1E2 JUMPI PUSH1 0x0 DUP1 REVERT JUMPDEST POP PUSH2 0x1EB PUSH2 0x522 JUMP JUMPDEST PUSH1 0x40 MLOAD PUSH2 0x1F8 SWAP2 SWAP1 PUSH2 0x2DF8 JUMP JUMPDEST PUSH1 0x40 MLOAD DUP1 SWAP2 SUB SWAP1 RETURN JUMPDEST CALLVALUE DUP1 ISZERO PUSH2 0x20D JUMPI PUSH1 0x0 DUP1 REVERT JUMPDEST POP PUSH2 0x216 PUSH2 0x548 JUMP JUMPDEST STOP JUMPDEST CALLVALUE DUP1 ISZERO PUSH2 0x224 JUMPI PUSH1 0x0 DUP1 REVERT JUMPDEST POP PUSH2 0x23F PUSH1 0x4 DUP1 CALLDATASIZE SUB DUP2 ADD SWAP1 PUSH2 0x23A SWAP2 SWAP1 PUSH2 0x2BD3 JUMP JUMPDEST PUSH2 0x6D8 JUMP JUMPDEST STOP JUMPDEST PUSH2 0x25B PUSH1 0x4 DUP1 CALLDATASIZE SUB DUP2 ADD SWAP1 PUSH2 0x256 SWAP2 SWAP1 PUSH2 0x2F98 JUMP JUMPDEST PUSH2 0x7FE JUMP JUMPDEST PUSH1 0x40 MLOAD PUSH2 0x268 SWAP2 SWAP1 PUSH2 0x2FF0 JUMP JUMPDEST PUSH1 0x40 MLOAD DUP1 SWAP2 SUB SWAP1 RETURN JUMPDEST CALLVALUE DUP1 ISZERO PUSH2 0x27D JUMPI PUSH1 0x0 DUP1 REVERT JUMPDEST POP PUSH2 0x298 PUSH1 0x4 DUP1 CALLDATASIZE SUB DUP2 ADD SWAP1 PUSH2 0x293 SWAP2 SWAP1 PUSH2 0x30FA JUMP JUMPDEST PUSH2 0x1603 JUMP JUMPDEST PUSH1 0x40 MLOAD PUSH2 0x2A5 SWAP2 SWAP1 PUSH2 0x3171 JUMP JUMPDEST PUSH1 0x40 MLOAD DUP1 SWAP2 SUB SWAP1 RETURN JUMPDEST CALLVALUE DUP1 ISZERO PUSH2 0x2BA JUMPI PUSH1 0x0 DUP1 REVERT JUMPDEST POP PUSH2 0x2D5 PUSH1 0x4 DUP1 CALLDATASIZE SUB DUP2 ADD SWAP1 PUSH2 0x2D0 SWAP2 SWAP1 PUSH2 0x318C JUMP JUMPDEST PUSH2 0x1D25 JUMP JUMPDEST PUSH1 0x40 MLOAD PUSH2 0x2E2 SWAP2 SWAP1 PUSH2 0x31B9 JUMP JUMPDEST PUSH1 0x40 MLOAD DUP1 SWAP2 SUB SWAP1 RETURN JUMPDEST CALLVALUE DUP1 ISZERO PUSH2 0x2F7 JUMPI PUSH1 0x0 DUP1 REVERT JUMPDEST POP PUSH2 0x312 PUSH1 0x4 DUP1 CALLDATASIZE SUB DUP2 ADD SWAP1 PUSH2 0x30D SWAP2 SWAP1 PUSH2 0x318C JUMP JUMPDEST PUSH2 0x1D45 JUMP JUMPDEST STOP JUMPDEST CALLVALUE DUP1 ISZERO PUSH2 0x320 JUMPI PUSH1 0x0 DUP1 REVERT JUMPDEST POP PUSH2 0x33B PUSH1 0x4 DUP1 CALLDATASIZE SUB DUP2 ADD SWAP1 PUSH2 0x336 SWAP2 SWAP1 PUSH2 0x31D4 JUMP JUMPDEST PUSH2 0x1E1A JUMP JUMPDEST STOP JUMPDEST CALLVALUE DUP1 ISZERO PUSH2 0x349 JUMPI PUSH1 0x0 DUP1 REVERT JUMPDEST POP PUSH2 0x352 PUSH2 0x2432 JUMP JUMPDEST PUSH1 0x40 MLOAD PUSH2 0x35F SWAP2 SWAP1 PUSH2 0x3214 JUMP JUMPDEST PUSH1 0x40 MLOAD DUP1 SWAP2 SUB SWAP1 RETURN JUMPDEST CALLVALUE DUP1 ISZERO PUSH2 0x374 JUMPI PUSH1 0x0 DUP1 REVERT JUMPDEST POP PUSH2 0x37D PUSH2 0x2438 JUMP JUMPDEST PUSH1 0x40 MLOAD PUSH2 0x38A SWAP2 SWAP1 PUSH2 0x3214 JUMP JUMPDEST PUSH1 0x40 MLOAD DUP1 SWAP2 SUB SWAP1 RETURN JUMPDEST CALLVALUE DUP1 ISZERO PUSH2 0x39F JUMPI PUSH1 0x0 DUP1 REVERT JUMPDEST POP PUSH2 0x3BA PUSH1 0x4 DUP1 CALLDATASIZE SUB DUP2 ADD SWAP1 PUSH2 0x3B5 SWAP2 SWAP1 PUSH2 0x318C JUMP JUMPDEST PUSH2 0x243E JUMP JUMPDEST PUSH1 0x40 MLOAD PUSH2 0x3C8 SWAP3 SWAP2 SWAP1 PUSH2 0x322F JUMP JUMPDEST PUSH1 0x40 MLOAD DUP1 SWAP2 SUB SWAP1 RETURN JUMPDEST CALLVALUE DUP1 ISZERO PUSH2 0x3DD JUMPI PUSH1 0x0 DUP1 REVERT JUMPDEST POP PUSH2 0x3F8 PUSH1 0x4 DUP1 CALLDATASIZE SUB DUP2 ADD SWAP1 PUSH2 0x3F3 SWAP2 SWAP1 PUSH2 0x2BD3 JUMP JUMPDEST PUSH2 0x2482 JUMP JUMPDEST PUSH1 0x40 MLOAD PUSH2 0x405 SWAP2 SWAP1 PUSH2 0x2FF0 JUMP JUMPDEST PUSH1 0x40 MLOAD DUP1 SWAP2 SUB SWAP1 RETURN JUMPDEST PUSH1 0x0 DUP1 PUSH1 0x60 PUSH1 0x0 PUSH1 0x1 PUSH1 0x0 DUP7 DUP2 MSTORE PUSH1 0x20 ADD SWAP1 DUP2 MSTORE PUSH1 0x20 ADD PUSH1 0x0 KECCAK256 SWAP1 POP DUP1 PUSH1 0x1 ADD SLOAD DUP2 PUSH1 0x2 ADD PUSH1 0x0 SWAP1 SLOAD SWAP1 PUSH2 0x100 EXP SWAP1 DIV PUSH1 0xFF AND DUP3 PUSH1 0x3 ADD DUP1 DUP1 SLOAD DUP1 PUSH1 0x20 MUL PUSH1 0x20 ADD PUSH1 0x40 MLOAD SWAP1 DUP2 ADD PUSH1 0x40 MSTORE DUP1 SWAP3 SWAP2 SWAP1 DUP2 DUP2 MSTORE PUSH1 0x20 ADD DUP3 DUP1 SLOAD DUP1 ISZERO PUSH2 0x4B6 JUMPI PUSH1 0x20 MUL DUP3 ADD SWAP2 SWAP1 PUSH1 0x0 MSTORE PUSH1 0x20 PUSH1 0x0 KECCAK256 SWAP1 PUSH1 0x0 SWAP1 JUMPDEST DUP3 DUP3 SWAP1 SLOAD SWAP1 PUSH2 0x100 EXP SWAP1 DIV PUSH1 0xFF AND PUSH1 0xFF AND DUP2 MSTORE PUSH1 0x20 ADD SWAP1 PUSH1 0x1 ADD SWAP1 PUSH1 0x20 DUP3 PUSH1 0x0 ADD DIV SWAP3 DUP4 ADD SWAP3 PUSH1 0x1 SUB DUP3 MUL SWAP2 POP DUP1 DUP5 GT PUSH2 0x47F JUMPI SWAP1 POP JUMPDEST POP POP POP POP POP SWAP1 POP SWAP4 POP SWAP4 POP SWAP4 POP POP SWAP2 SWAP4 SWAP1 SWAP3 POP JUMP JUMPDEST PUSH1 0x1 PUSH1 0x20 MSTORE DUP1 PUSH1 0x0 MSTORE PUSH1 0x40 PUSH1 0x0 KECCAK256 PUSH1 0x0 SWAP2 POP SWAP1 POP DUP1 PUSH1 0x0 ADD PUSH1 0x0 SWAP1 SLOAD SWAP1 PUSH2 0x100 EXP SWAP1 DIV PUSH20 0xFFFFFFFFFFFFFFFFFFFFFFFFFFFFFFFFFFFFFFFF AND SWAP1 DUP1 PUSH1 0x1 ADD SLOAD SWAP1 DUP1 PUSH1 0x2 ADD PUSH1 0x0 SWAP1 SLOAD SWAP1 PUSH2 0x100 EXP SWAP1 DIV PUSH1 0xFF AND SWAP1 POP DUP4 JUMP JUMPDEST PUSH1 0x5 PUSH1 0x0 SWAP1 SLOAD SWAP1 PUSH2 0x100 EXP SWAP1 DIV PUSH20 0xFFFFFFFFFFFFFFFFFFFFFFFFFFFFFFFFFFFFFFFF AND DUP2 JUMP JUMPDEST PUSH1 0x0 PUSH20 0xFFFFFFFFFFFFFFFFFFFFFFFFFFFFFFFFFFFFFFFF AND PUSH1 0x0 DUP1 CALLER PUSH20 0xFFFFFFFFFFFFFFFFFFFFFFFFFFFFFFFFFFFFFFFF AND PUSH20 0xFFFFFFFFFFFFFFFFFFFFFFFFFFFFFFFFFFFFFFFF AND DUP2 MSTORE PUSH1 0x20 ADD SWAP1 DUP2 MSTORE PUSH1 0x20 ADD PUSH1 0x0 KECCAK256 PUSH1 0x0 ADD PUSH1 0x0 SWAP1 SLOAD SWAP1 PUSH2 0x100 EXP SWAP1 DIV PUSH20 0xFFFFFFFFFFFFFFFFFFFFFFFFFFFFFFFFFFFFFFFF AND PUSH20 0xFFFFFFFFFFFFFFFFFFFFFFFFFFFFFFFFFFFFFFFF AND EQ PUSH2 0x618 JUMPI PUSH1 0x40 MLOAD PUSH32 0x8C379A000000000000000000000000000000000000000000000000000000000 DUP2 MSTORE PUSH1 0x4 ADD PUSH2 0x60F SWAP1 PUSH2 0x32A4 JUMP JUMPDEST PUSH1 0x40 MLOAD DUP1 SWAP2 SUB SWAP1 REVERT JUMPDEST PUSH1 0x40 MLOAD DUP1 PUSH1 0x40 ADD PUSH1 0x40 MSTORE DUP1 CALLER PUSH20 0xFFFFFFFFFFFFFFFFFFFFFFFFFFFFFFFFFFFFFFFF AND DUP2 MSTORE PUSH1 0x20 ADD PUSH1 0x0 DUP2 MSTORE POP PUSH1 0x0 DUP1 CALLER PUSH20 0xFFFFFFFFFFFFFFFFFFFFFFFFFFFFFFFFFFFFFFFF AND PUSH20 0xFFFFFFFFFFFFFFFFFFFFFFFFFFFFFFFFFFFFFFFF AND DUP2 MSTORE PUSH1 0x20 ADD SWAP1 DUP2 MSTORE PUSH1 0x20 ADD PUSH1 0x0 KECCAK256 PUSH1 0x0 DUP3 ADD MLOAD DUP2 PUSH1 0x0 ADD PUSH1 0x0 PUSH2 0x100 EXP DUP2 SLOAD DUP2 PUSH20 0xFFFFFFFFFFFFFFFFFFFFFFFFFFFFFFFFFFFFFFFF MUL NOT AND SWAP1 DUP4 PUSH20 0xFFFFFFFFFFFFFFFFFFFFFFFFFFFFFFFFFFFFFFFF AND MUL OR SWAP1 SSTORE POP PUSH1 0x20 DUP3 ADD MLOAD DUP2 PUSH1 0x1 ADD SSTORE SWAP1 POP POP JUMP JUMPDEST DUP1 PUSH1 0x0 DUP1 CALLER PUSH20 0xFFFFFFFFFFFFFFFFFFFFFFFFFFFFFFFFFFFFFFFF AND PUSH20 0xFFFFFFFFFFFFFFFFFFFFFFFFFFFFFFFFFFFFFFFF AND DUP2 MSTORE PUSH1 0x20 ADD SWAP1 DUP2 MSTORE PUSH1 0x20 ADD PUSH1 0x0 KECCAK256 PUSH1 0x1 ADD SLOAD LT ISZERO PUSH2 0x75C JUMPI PUSH1 0x40 MLOAD PUSH32 0x8C379A000000000000000000000000000000000000000000000000000000000 DUP2 MSTORE PUSH1 0x4 ADD PUSH2 0x753 SWAP1 PUSH2 0x3310 JUMP JUMPDEST PUSH1 0x40 MLOAD DUP1 SWAP2 SUB SWAP1 REVERT JUMPDEST DUP1 PUSH1 0x0 DUP1 CALLER PUSH20 0xFFFFFFFFFFFFFFFFFFFFFFFFFFFFFFFFFFFFFFFF AND PUSH20 0xFFFFFFFFFFFFFFFFFFFFFFFFFFFFFFFFFFFFFFFF AND DUP2 MSTORE PUSH1 0x20 ADD SWAP1 DUP2 MSTORE PUSH1 0x20 ADD PUSH1 0x0 KECCAK256 PUSH1 0x1 ADD PUSH1 0x0 DUP3 DUP3 SLOAD PUSH2 0x7AD SWAP2 SWAP1 PUSH2 0x335F JUMP JUMPDEST SWAP3 POP POP DUP2 SWAP1 SSTORE POP CALLER PUSH20 0xFFFFFFFFFFFFFFFFFFFFFFFFFFFFFFFFFFFFFFFF AND PUSH2 0x8FC DUP3 SWAP1 DUP2 ISZERO MUL SWAP1 PUSH1 0x40 MLOAD PUSH1 0x0 PUSH1 0x40 MLOAD DUP1 DUP4 SUB DUP2 DUP6 DUP9 DUP9 CALL SWAP4 POP POP POP POP ISZERO DUP1 ISZERO PUSH2 0x7FA JUMPI RETURNDATASIZE PUSH1 0x0 DUP1 RETURNDATACOPY RETURNDATASIZE PUSH1 0x0 REVERT JUMPDEST POP POP JUMP JUMPDEST PUSH1 0x0 DUP1 CALLVALUE GT PUSH2 0x842 JUMPI PUSH1 0x40 MLOAD PUSH32 0x8C379A000000000000000000000000000000000000000000000000000000000 DUP2 MSTORE PUSH1 0x4 ADD PUSH2 0x839 SWAP1 PUSH2 0x3405 JUMP JUMPDEST PUSH1 0x40 MLOAD DUP1 SWAP2 SUB SWAP1 REVERT JUMPDEST PUSH1 0x0 DUP3 MLOAD GT PUSH2 0x886 JUMPI PUSH1 0x40 MLOAD PUSH32 0x8C379A000000000000000000000000000000000000000000000000000000000 DUP2 MSTORE PUSH1 0x4 ADD PUSH2 0x87D SWAP1 PUSH2 0x3471 JUMP JUMPDEST PUSH1 0x40 MLOAD DUP1 SWAP2 SUB SWAP1 REVERT JUMPDEST PUSH1 0x0 PUSH1 0x1 DUP4 MLOAD SUB PUSH2 0xBCC JUMPI PUSH32 0x3C5AD147104E56BE34A9176A6692F7DF8D2F4B29A5AF06BC6B98970D329D6577 DUP4 PUSH1 0x0 DUP2 MLOAD DUP2 LT PUSH2 0x8C6 JUMPI PUSH2 0x8C5 PUSH2 0x3491 JUMP JUMPDEST JUMPDEST PUSH1 0x20 MUL PUSH1 0x20 ADD ADD MLOAD PUSH1 0x40 MLOAD PUSH2 0x8DB SWAP2 SWAP1 PUSH2 0x3547 JUMP JUMPDEST PUSH1 0x40 MLOAD DUP1 SWAP2 SUB SWAP1 LOG1 PUSH1 0x24 DUP4 PUSH1 0x0 DUP2 MLOAD DUP2 LT PUSH2 0x8F9 JUMPI PUSH2 0x8F8 PUSH2 0x3491 JUMP JUMPDEST JUMPDEST PUSH1 0x20 MUL PUSH1 0x20 ADD ADD MLOAD PUSH1 0xFF AND GT PUSH2 0x95B JUMPI PUSH1 0x0 SWAP1 POP PUSH32 0x3C5AD147104E56BE34A9176A6692F7DF8D2F4B29A5AF06BC6B98970D329D6577 DUP2 PUSH1 0xA DUP2 GT ISZERO PUSH2 0x941 JUMPI PUSH2 0x940 PUSH2 0x2C00 JUMP JUMPDEST JUMPDEST PUSH1 0x40 MLOAD PUSH2 0x94E SWAP2 SWAP1 PUSH2 0x35C1 JUMP JUMPDEST PUSH1 0x40 MLOAD DUP1 SWAP2 SUB SWAP1 LOG1 PUSH2 0xBC7 JUMP JUMPDEST PUSH1 0x25 DUP4 PUSH1 0x0 DUP2 MLOAD DUP2 LT PUSH2 0x971 JUMPI PUSH2 0x970 PUSH2 0x3491 JUMP JUMPDEST JUMPDEST PUSH1 0x20 MUL PUSH1 0x20 ADD ADD MLOAD PUSH1 0xFF AND SUB PUSH2 0x9C2 JUMPI PUSH1 0x7 SWAP1 POP PUSH32 0x3C5AD147104E56BE34A9176A6692F7DF8D2F4B29A5AF06BC6B98970D329D6577 PUSH1 0x1 PUSH1 0x40 MLOAD PUSH2 0x9B5 SWAP2 SWAP1 PUSH2 0x3676 JUMP JUMPDEST PUSH1 0x40 MLOAD DUP1 SWAP2 SUB SWAP1 LOG1 PUSH2 0xBC6 JUMP JUMPDEST PUSH1 0x26 DUP4 PUSH1 0x0 DUP2 MLOAD DUP2 LT PUSH2 0x9D8 JUMPI PUSH2 0x9D7 PUSH2 0x3491 JUMP JUMPDEST JUMPDEST PUSH1 0x20 MUL PUSH1 0x20 ADD ADD MLOAD PUSH1 0xFF AND SUB PUSH2 0xA29 JUMPI PUSH1 0x7 SWAP1 POP PUSH32 0x3C5AD147104E56BE34A9176A6692F7DF8D2F4B29A5AF06BC6B98970D329D6577 PUSH1 0x0 PUSH1 0x40 MLOAD PUSH2 0xA1C SWAP2 SWAP1 PUSH2 0x372B JUMP JUMPDEST PUSH1 0x40 MLOAD DUP1 SWAP2 SUB SWAP1 LOG1 PUSH2 0xBC5 JUMP JUMPDEST PUSH1 0x27 DUP4 PUSH1 0x0 DUP2 MLOAD DUP2 LT PUSH2 0xA3F JUMPI PUSH2 0xA3E PUSH2 0x3491 JUMP JUMPDEST JUMPDEST PUSH1 0x20 MUL PUSH1 0x20 ADD ADD MLOAD PUSH1 0xFF AND SUB PUSH2 0xA90 JUMPI PUSH1 0x8 SWAP1 POP PUSH32 0x3C5AD147104E56BE34A9176A6692F7DF8D2F4B29A5AF06BC6B98970D329D6577 PUSH1 0x1 PUSH1 0x40 MLOAD PUSH2 0xA83 SWAP2 SWAP1 PUSH2 0x37A5 JUMP JUMPDEST PUSH1 0x40 MLOAD DUP1 SWAP2 SUB SWAP1 LOG1 PUSH2 0xBC4 JUMP JUMPDEST PUSH1 0x28 DUP4 PUSH1 0x0 DUP2 MLOAD DUP2 LT PUSH2 0xAA6 JUMPI PUSH2 0xAA5 PUSH2 0x3491 JUMP JUMPDEST JUMPDEST PUSH1 0x20 MUL PUSH1 0x20 ADD ADD MLOAD PUSH1 0xFF AND SUB PUSH2 0xAF7 JUMPI PUSH1 0x8 SWAP1 POP PUSH32 0x3C5AD147104E56BE34A9176A6692F7DF8D2F4B29A5AF06BC6B98970D329D6577 PUSH1 0x0 PUSH1 0x40 MLOAD PUSH2 0xAEA SWAP2 SWAP1 PUSH2 0x381F JUMP JUMPDEST PUSH1 0x40 MLOAD DUP1 SWAP2 SUB SWAP1 LOG1 PUSH2 0xBC3 JUMP JUMPDEST PUSH1 0x29 DUP4 PUSH1 0x0 DUP2 MLOAD DUP2 LT PUSH2 0xB0D JUMPI PUSH2 0xB0C PUSH2 0x3491 JUMP JUMPDEST JUMPDEST PUSH1 0x20 MUL PUSH1 0x20 ADD ADD MLOAD PUSH1 0xFF AND SUB PUSH2 0xB5E JUMPI PUSH1 0x9 SWAP1 POP PUSH32 0x3C5AD147104E56BE34A9176A6692F7DF8D2F4B29A5AF06BC6B98970D329D6577 PUSH1 0x1 PUSH1 0x40 MLOAD PUSH2 0xB51 SWAP2 SWAP1 PUSH2 0x3899 JUMP JUMPDEST PUSH1 0x40 MLOAD DUP1 SWAP2 SUB SWAP1 LOG1 PUSH2 0xBC2 JUMP JUMPDEST PUSH1 0x2A DUP4 PUSH1 0x0 DUP2 MLOAD DUP2 LT PUSH2 0xB74 JUMPI PUSH2 0xB73 PUSH2 0x3491 JUMP JUMPDEST JUMPDEST PUSH1 0x20 MUL PUSH1 0x20 ADD ADD MLOAD PUSH1 0xFF AND SUB PUSH2 0xBC1 JUMPI PUSH1 0x9 SWAP1 POP PUSH32 0x3C5AD147104E56BE34A9176A6692F7DF8D2F4B29A5AF06BC6B98970D329D6577 PUSH1 0x0 PUSH1 0x40 MLOAD PUSH2 0xBB8 SWAP2 SWAP1 PUSH2 0x3913 JUMP JUMPDEST PUSH1 0x40 MLOAD DUP1 SWAP2 SUB SWAP1 LOG1 JUMPDEST JUMPDEST JUMPDEST JUMPDEST JUMPDEST JUMPDEST JUMPDEST PUSH2 0xC2D JUMP JUMPDEST PUSH1 0x2 DUP4 MLOAD SUB PUSH2 0xBDE JUMPI PUSH1 0x1 SWAP1 POP PUSH2 0xC2C JUMP JUMPDEST PUSH1 0x4 DUP4 MLOAD SUB PUSH2 0xBF0 JUMPI PUSH1 0x2 SWAP1 POP PUSH2 0xC2B JUMP JUMPDEST PUSH1 0x40 MLOAD PUSH32 0x8C379A000000000000000000000000000000000000000000000000000000000 DUP2 MSTORE PUSH1 0x4 ADD PUSH2 0xC22 SWAP1 PUSH2 0x398D JUMP JUMPDEST PUSH1 0x40 MLOAD DUP1 SWAP2 SUB SWAP1 REVERT JUMPDEST JUMPDEST JUMPDEST DUP1 PUSH1 0x6 PUSH1 0x0 CALLER PUSH20 0xFFFFFFFFFFFFFFFFFFFFFFFFFFFFFFFFFFFFFFFF AND PUSH20 0xFFFFFFFFFFFFFFFFFFFFFFFFFFFFFFFFFFFFFFFF AND DUP2 MSTORE PUSH1 0x20 ADD SWAP1 DUP2 MSTORE PUSH1 0x20 ADD PUSH1 0x0 KECCAK256 PUSH1 0x0 PUSH2 0x100 EXP DUP2 SLOAD DUP2 PUSH1 0xFF MUL NOT AND SWAP1 DUP4 PUSH1 0xA DUP2 GT ISZERO PUSH2 0xC8F JUMPI PUSH2 0xC8E PUSH2 0x2C00 JUMP JUMPDEST JUMPDEST MUL OR SWAP1 SSTORE POP PUSH1 0x0 PUSH1 0x5 PUSH1 0x0 SWAP1 SLOAD SWAP1 PUSH2 0x100 EXP SWAP1 DIV PUSH20 0xFFFFFFFFFFFFFFFFFFFFFFFFFFFFFFFFFFFFFFFF AND PUSH20 0xFFFFFFFFFFFFFFFFFFFFFFFFFFFFFFFFFFFFFFFF AND CALLVALUE CALLER CALLVALUE PUSH1 0x40 MLOAD PUSH1 0x24 ADD PUSH2 0xCE3 SWAP3 SWAP2 SWAP1 PUSH2 0x322F JUMP JUMPDEST PUSH1 0x40 MLOAD PUSH1 0x20 DUP2 DUP4 SUB SUB DUP2 MSTORE SWAP1 PUSH1 0x40 MSTORE PUSH32 0x91BB0A3B00000000000000000000000000000000000000000000000000000000 PUSH28 0xFFFFFFFFFFFFFFFFFFFFFFFFFFFFFFFFFFFFFFFFFFFFFFFFFFFFFFFF NOT AND PUSH1 0x20 DUP3 ADD DUP1 MLOAD PUSH28 0xFFFFFFFFFFFFFFFFFFFFFFFFFFFFFFFFFFFFFFFFFFFFFFFFFFFFFFFF DUP4 DUP2 DUP4 AND OR DUP4 MSTORE POP POP POP POP PUSH1 0x40 MLOAD PUSH2 0xD6D SWAP2 SWAP1 PUSH2 0x3A1E JUMP JUMPDEST PUSH1 0x0 PUSH1 0x40 MLOAD DUP1 DUP4 SUB DUP2 DUP6 DUP8 GAS CALL SWAP3 POP POP POP RETURNDATASIZE DUP1 PUSH1 0x0 DUP2 EQ PUSH2 0xDAA JUMPI PUSH1 0x40 MLOAD SWAP2 POP PUSH1 0x1F NOT PUSH1 0x3F RETURNDATASIZE ADD AND DUP3 ADD PUSH1 0x40 MSTORE RETURNDATASIZE DUP3 MSTORE RETURNDATASIZE PUSH1 0x0 PUSH1 0x20 DUP5 ADD RETURNDATACOPY PUSH2 0xDAF JUMP JUMPDEST PUSH1 0x60 SWAP2 POP JUMPDEST POP POP SWAP1 POP DUP1 PUSH2 0xDF3 JUMPI PUSH1 0x40 MLOAD PUSH32 0x8C379A000000000000000000000000000000000000000000000000000000000 DUP2 MSTORE PUSH1 0x4 ADD PUSH2 0xDEA SWAP1 PUSH2 0x3AA7 JUMP JUMPDEST PUSH1 0x40 MLOAD DUP1 SWAP2 SUB SWAP1 REVERT JUMPDEST PUSH1 0x40 MLOAD DUP1 PUSH1 0x80 ADD PUSH1 0x40 MSTORE DUP1 CALLER PUSH20 0xFFFFFFFFFFFFFFFFFFFFFFFFFFFFFFFFFFFFFFFF AND DUP2 MSTORE PUSH1 0x20 ADD CALLVALUE DUP2 MSTORE PUSH1 0x20 ADD DUP4 PUSH1 0xA DUP2 GT ISZERO PUSH2 0xE33 JUMPI PUSH2 0xE32 PUSH2 0x2C00 JUMP JUMPDEST JUMPDEST DUP2 MSTORE PUSH1 0x20 ADD DUP6 DUP2 MSTORE POP PUSH1 0x1 PUSH1 0x0 PUSH1 0x4 SLOAD DUP2 MSTORE PUSH1 0x20 ADD SWAP1 DUP2 MSTORE PUSH1 0x20 ADD PUSH1 0x0 KECCAK256 PUSH1 0x0 DUP3 ADD MLOAD DUP2 PUSH1 0x0 ADD PUSH1 0x0 PUSH2 0x100 EXP DUP2 SLOAD DUP2 PUSH20 0xFFFFFFFFFFFFFFFFFFFFFFFFFFFFFFFFFFFFFFFF MUL NOT AND SWAP1 DUP4 PUSH20 0xFFFFFFFFFFFFFFFFFFFFFFFFFFFFFFFFFFFFFFFF AND MUL OR SWAP1 SSTORE POP PUSH1 0x20 DUP3 ADD MLOAD DUP2 PUSH1 0x1 ADD SSTORE PUSH1 0x40 DUP3 ADD MLOAD DUP2 PUSH1 0x2 ADD PUSH1 0x0 PUSH2 0x100 EXP DUP2 SLOAD DUP2 PUSH1 0xFF MUL NOT AND SWAP1 DUP4 PUSH1 0xA DUP2 GT ISZERO PUSH2 0xECD JUMPI PUSH2 0xECC PUSH2 0x2C00 JUMP JUMPDEST JUMPDEST MUL OR SWAP1 SSTORE POP PUSH1 0x60 DUP3 ADD MLOAD DUP2 PUSH1 0x3 ADD SWAP1 DUP1 MLOAD SWAP1 PUSH1 0x20 ADD SWAP1 PUSH2 0xEEE SWAP3 SWAP2 SWAP1 PUSH2 0x29B1 JUMP JUMPDEST POP SWAP1 POP POP PUSH1 0x0 PUSH2 0xEFC PUSH2 0x24A2 JUMP JUMPDEST SWAP1 POP DUP1 PUSH1 0x2 PUSH1 0x0 PUSH1 0x3 SLOAD DUP2 MSTORE PUSH1 0x20 ADD SWAP1 DUP2 MSTORE PUSH1 0x20 ADD PUSH1 0x0 KECCAK256 PUSH1 0x0 PUSH2 0x100 EXP DUP2 SLOAD DUP2 PUSH1 0xFF MUL NOT AND SWAP1 DUP4 PUSH1 0xFF AND MUL OR SWAP1 SSTORE POP PUSH1 0x0 PUSH2 0x1070 PUSH1 0x1 PUSH1 0x0 PUSH1 0x4 SLOAD DUP2 MSTORE PUSH1 0x20 ADD SWAP1 DUP2 MSTORE PUSH1 0x20 ADD PUSH1 0x0 KECCAK256 PUSH1 0x40 MLOAD DUP1 PUSH1 0x80 ADD PUSH1 0x40 MSTORE SWAP1 DUP2 PUSH1 0x0 DUP3 ADD PUSH1 0x0 SWAP1 SLOAD SWAP1 PUSH2 0x100 EXP SWAP1 DIV PUSH20 0xFFFFFFFFFFFFFFFFFFFFFFFFFFFFFFFFFFFFFFFF AND PUSH20 0xFFFFFFFFFFFFFFFFFFFFFFFFFFFFFFFFFFFFFFFF AND PUSH20 0xFFFFFFFFFFFFFFFFFFFFFFFFFFFFFFFFFFFFFFFF AND DUP2 MSTORE PUSH1 0x20 ADD PUSH1 0x1 DUP3 ADD SLOAD DUP2 MSTORE PUSH1 0x20 ADD PUSH1 0x2 DUP3 ADD PUSH1 0x0 SWAP1 SLOAD SWAP1 PUSH2 0x100 EXP SWAP1 DIV PUSH1 0xFF AND PUSH1 0xA DUP2 GT ISZERO PUSH2 0xFD6 JUMPI PUSH2 0xFD5 PUSH2 0x2C00 JUMP JUMPDEST JUMPDEST PUSH1 0xA DUP2 GT ISZERO PUSH2 0xFE8 JUMPI PUSH2 0xFE7 PUSH2 0x2C00 JUMP JUMPDEST JUMPDEST DUP2 MSTORE PUSH1 0x20 ADD PUSH1 0x3 DUP3 ADD DUP1 SLOAD DUP1 PUSH1 0x20 MUL PUSH1 0x20 ADD PUSH1 0x40 MLOAD SWAP1 DUP2 ADD PUSH1 0x40 MSTORE DUP1 SWAP3 SWAP2 SWAP1 DUP2 DUP2 MSTORE PUSH1 0x20 ADD DUP3 DUP1 SLOAD DUP1 ISZERO PUSH2 0x1061 JUMPI PUSH1 0x20 MUL DUP3 ADD SWAP2 SWAP1 PUSH1 0x0 MSTORE PUSH1 0x20 PUSH1 0x0 KECCAK256 SWAP1 PUSH1 0x0 SWAP1 JUMPDEST DUP3 DUP3 SWAP1 SLOAD SWAP1 PUSH2 0x100 EXP SWAP1 DIV PUSH1 0xFF AND PUSH1 0xFF AND DUP2 MSTORE PUSH1 0x20 ADD SWAP1 PUSH1 0x1 ADD SWAP1 PUSH1 0x20 DUP3 PUSH1 0x0 ADD DIV SWAP3 DUP4 ADD SWAP3 PUSH1 0x1 SUB DUP3 MUL SWAP2 POP DUP1 DUP5 GT PUSH2 0x102A JUMPI SWAP1 POP JUMPDEST POP POP POP POP POP DUP2 MSTORE POP POP DUP4 PUSH2 0x1603 JUMP JUMPDEST SWAP1 POP PUSH1 0x0 DUP2 ISZERO PUSH2 0x130E JUMPI PUSH2 0x11BB PUSH1 0x1 PUSH1 0x0 PUSH1 0x4 SLOAD DUP2 MSTORE PUSH1 0x20 ADD SWAP1 DUP2 MSTORE PUSH1 0x20 ADD PUSH1 0x0 KECCAK256 PUSH1 0x40 MLOAD DUP1 PUSH1 0x80 ADD PUSH1 0x40 MSTORE SWAP1 DUP2 PUSH1 0x0 DUP3 ADD PUSH1 0x0 SWAP1 SLOAD SWAP1 PUSH2 0x100 EXP SWAP1 DIV PUSH20 0xFFFFFFFFFFFFFFFFFFFFFFFFFFFFFFFFFFFFFFFF AND PUSH20 0xFFFFFFFFFFFFFFFFFFFFFFFFFFFFFFFFFFFFFFFF AND PUSH20 0xFFFFFFFFFFFFFFFFFFFFFFFFFFFFFFFFFFFFFFFF AND DUP2 MSTORE PUSH1 0x20 ADD PUSH1 0x1 DUP3 ADD SLOAD DUP2 MSTORE PUSH1 0x20 ADD PUSH1 0x2 DUP3 ADD PUSH1 0x0 SWAP1 SLOAD SWAP1 PUSH2 0x100 EXP SWAP1 DIV PUSH1 0xFF AND PUSH1 0xA DUP2 GT ISZERO PUSH2 0x1122 JUMPI PUSH2 0x1121 PUSH2 0x2C00 JUMP JUMPDEST JUMPDEST PUSH1 0xA DUP2 GT ISZERO PUSH2 0x1134 JUMPI PUSH2 0x1133 PUSH2 0x2C00 JUMP JUMPDEST JUMPDEST DUP2 MSTORE PUSH1 0x20 ADD PUSH1 0x3 DUP3 ADD DUP1 SLOAD DUP1 PUSH1 0x20 MUL PUSH1 0x20 ADD PUSH1 0x40 MLOAD SWAP1 DUP2 ADD PUSH1 0x40 MSTORE DUP1 SWAP3 SWAP2 SWAP1 DUP2 DUP2 MSTORE PUSH1 0x20 ADD DUP3 DUP1 SLOAD DUP1 ISZERO PUSH2 0x11AD JUMPI PUSH1 0x20 MUL DUP3 ADD SWAP2 SWAP1 PUSH1 0x0 MSTORE PUSH1 0x20 PUSH1 0x0 KECCAK256 SWAP1 PUSH1 0x0 SWAP1 JUMPDEST DUP3 DUP3 SWAP1 SLOAD SWAP1 PUSH2 0x100 EXP SWAP1 DIV PUSH1 0xFF AND PUSH1 0xFF AND DUP2 MSTORE PUSH1 0x20 ADD SWAP1 PUSH1 0x1 ADD SWAP1 PUSH1 0x20 DUP3 PUSH1 0x0 ADD DIV SWAP3 DUP4 ADD SWAP3 PUSH1 0x1 SUB DUP3 MUL SWAP2 POP DUP1 DUP5 GT PUSH2 0x1176 JUMPI SWAP1 POP JUMPDEST POP POP POP POP POP DUP2 MSTORE POP POP PUSH2 0x24FB JUMP JUMPDEST SWAP1 POP PUSH1 0x5 PUSH1 0x0 SWAP1 SLOAD SWAP1 PUSH2 0x100 EXP SWAP1 DIV PUSH20 0xFFFFFFFFFFFFFFFFFFFFFFFFFFFFFFFFFFFFFFFF AND PUSH20 0xFFFFFFFFFFFFFFFFFFFFFFFFFFFFFFFFFFFFFFFF AND PUSH4 0x21E5383A CALLER DUP4 PUSH1 0x40 MLOAD DUP4 PUSH4 0xFFFFFFFF AND PUSH1 0xE0 SHL DUP2 MSTORE PUSH1 0x4 ADD PUSH2 0x121A SWAP3 SWAP2 SWAP1 PUSH2 0x322F JUMP JUMPDEST PUSH1 0x0 PUSH1 0x40 MLOAD DUP1 DUP4 SUB DUP2 PUSH1 0x0 DUP8 DUP1 EXTCODESIZE ISZERO DUP1 ISZERO PUSH2 0x1234 JUMPI PUSH1 0x0 DUP1 REVERT JUMPDEST POP GAS CALL SWAP3 POP POP POP DUP1 ISZERO PUSH2 0x1245 JUMPI POP PUSH1 0x1 JUMPDEST PUSH2 0x1284 JUMPI PUSH1 0x40 MLOAD PUSH32 0x8C379A000000000000000000000000000000000000000000000000000000000 DUP2 MSTORE PUSH1 0x4 ADD PUSH2 0x127B SWAP1 PUSH2 0x3B13 JUMP JUMPDEST PUSH1 0x40 MLOAD DUP1 SWAP2 SUB SWAP1 REVERT JUMPDEST PUSH32 0x3C5AD147104E56BE34A9176A6692F7DF8D2F4B29A5AF06BC6B98970D329D6577 DUP2 PUSH1 0x40 MLOAD PUSH2 0x12B3 SWAP2 SWAP1 PUSH2 0x3B7F JUMP JUMPDEST PUSH1 0x40 MLOAD DUP1 SWAP2 SUB SWAP1 LOG1 CALLER PUSH20 0xFFFFFFFFFFFFFFFFFFFFFFFFFFFFFFFFFFFFFFFF AND PUSH32 0x5AFECA38B2064C23A692C4CF353015D80AB3ECC417B4F893F372690C11FBD9A6 DUP3 PUSH1 0x40 MLOAD PUSH2 0x1301 SWAP2 SWAP1 PUSH2 0x3214 JUMP JUMPDEST PUSH1 0x40 MLOAD DUP1 SWAP2 SUB SWAP1 LOG2 PUSH2 0x140D JUMP JUMPDEST PUSH1 0x5 PUSH1 0x0 SWAP1 SLOAD SWAP1 PUSH2 0x100 EXP SWAP1 DIV PUSH20 0xFFFFFFFFFFFFFFFFFFFFFFFFFFFFFFFFFFFFFFFF AND PUSH20 0xFFFFFFFFFFFFFFFFFFFFFFFFFFFFFFFFFFFFFFFF AND PUSH4 0xCFD4F18A CALLER CALLVALUE PUSH1 0x40 MLOAD DUP4 PUSH4 0xFFFFFFFF AND PUSH1 0xE0 SHL DUP2 MSTORE PUSH1 0x4 ADD PUSH2 0x136B SWAP3 SWAP2 SWAP1 PUSH2 0x322F JUMP JUMPDEST PUSH1 0x0 PUSH1 0x40 MLOAD DUP1 DUP4 SUB DUP2 PUSH1 0x0 DUP8 DUP1 EXTCODESIZE ISZERO DUP1 ISZERO PUSH2 0x1385 JUMPI PUSH1 0x0 DUP1 REVERT JUMPDEST POP GAS CALL SWAP3 POP POP POP DUP1 ISZERO PUSH2 0x1396 JUMPI POP PUSH1 0x1 JUMPDEST PUSH2 0x13D5 JUMPI PUSH1 0x40 MLOAD PUSH32 0x8C379A000000000000000000000000000000000000000000000000000000000 DUP2 MSTORE PUSH1 0x4 ADD PUSH2 0x13CC SWAP1 PUSH2 0x3BF9 JUMP JUMPDEST PUSH1 0x40 MLOAD DUP1 SWAP2 SUB SWAP1 REVERT JUMPDEST PUSH32 0x3C5AD147104E56BE34A9176A6692F7DF8D2F4B29A5AF06BC6B98970D329D6577 CALLVALUE PUSH1 0x40 MLOAD PUSH2 0x1404 SWAP2 SWAP1 PUSH2 0x3C65 JUMP JUMPDEST PUSH1 0x40 MLOAD DUP1 SWAP2 SUB SWAP1 LOG1 JUMPDEST PUSH32 0x3C5AD147104E56BE34A9176A6692F7DF8D2F4B29A5AF06BC6B98970D329D6577 DUP4 PUSH1 0x40 MLOAD PUSH2 0x143C SWAP2 SWAP1 PUSH2 0x3CDF JUMP JUMPDEST PUSH1 0x40 MLOAD DUP1 SWAP2 SUB SWAP1 LOG1 PUSH32 0x3C5AD147104E56BE34A9176A6692F7DF8D2F4B29A5AF06BC6B98970D329D6577 DUP6 PUSH1 0xA DUP2 GT ISZERO PUSH2 0x1478 JUMPI PUSH2 0x1477 PUSH2 0x2C00 JUMP JUMPDEST JUMPDEST PUSH1 0x40 MLOAD PUSH2 0x1485 SWAP2 SWAP1 PUSH2 0x3D59 JUMP JUMPDEST PUSH1 0x40 MLOAD DUP1 SWAP2 SUB SWAP1 LOG1 PUSH32 0x3C5AD147104E56BE34A9176A6692F7DF8D2F4B29A5AF06BC6B98970D329D6577 DUP8 PUSH1 0x0 DUP2 MLOAD DUP2 LT PUSH2 0x14C2 JUMPI PUSH2 0x14C1 PUSH2 0x3491 JUMP JUMPDEST JUMPDEST PUSH1 0x20 MUL PUSH1 0x20 ADD ADD MLOAD PUSH1 0x40 MLOAD PUSH2 0x14D7 SWAP2 SWAP1 PUSH2 0x3DD3 JUMP JUMPDEST PUSH1 0x40 MLOAD DUP1 SWAP2 SUB SWAP1 LOG1 CALLER PUSH20 0xFFFFFFFFFFFFFFFFFFFFFFFFFFFFFFFFFFFFFFFF AND PUSH32 0x164CD6FDC337108B0CF964C083E27CE6C44CB29596254995FCB9E212E34003BA PUSH1 0x4 SLOAD DUP8 DUP11 CALLVALUE PUSH1 0x40 MLOAD PUSH2 0x152D SWAP5 SWAP4 SWAP3 SWAP2 SWAP1 PUSH2 0x3E01 JUMP JUMPDEST PUSH1 0x40 MLOAD DUP1 SWAP2 SUB SWAP1 LOG2 PUSH32 0x67ACA3205B35C43DF87036F2DC8E31C60461B3D7194A864B2A9C2AC724A0CD02 PUSH1 0x3 SLOAD DUP5 PUSH1 0x40 MLOAD PUSH2 0x1568 SWAP3 SWAP2 SWAP1 PUSH2 0x3E4D JUMP JUMPDEST PUSH1 0x40 MLOAD DUP1 SWAP2 SUB SWAP1 LOG1 CALLER PUSH20 0xFFFFFFFFFFFFFFFFFFFFFFFFFFFFFFFFFFFFFFFF AND PUSH32 0x95FB5D8FA6440389673BD6D8BDA8FA944D2D764E1E1075502285085BD5158CEF DUP5 CALLVALUE DUP5 DUP7 DUP13 PUSH1 0x40 MLOAD PUSH2 0x15BE SWAP6 SWAP5 SWAP4 SWAP3 SWAP2 SWAP1 PUSH2 0x3E76 JUMP JUMPDEST PUSH1 0x40 MLOAD DUP1 SWAP2 SUB SWAP1 LOG2 PUSH1 0x4 PUSH1 0x0 DUP2 SLOAD DUP1 SWAP3 SWAP2 SWAP1 PUSH2 0x15D9 SWAP1 PUSH2 0x3ED0 JUMP JUMPDEST SWAP2 SWAP1 POP SSTORE POP PUSH1 0x3 PUSH1 0x0 DUP2 SLOAD DUP1 SWAP3 SWAP2 SWAP1 PUSH2 0x15F1 SWAP1 PUSH2 0x3ED0 JUMP JUMPDEST SWAP2 SWAP1 POP SSTORE POP DUP3 SWAP6 POP POP POP POP POP POP SWAP2 SWAP1 POP JUMP JUMPDEST PUSH1 0x0 PUSH32 0x3C5AD147104E56BE34A9176A6692F7DF8D2F4B29A5AF06BC6B98970D329D6577 PUSH1 0x0 PUSH1 0x40 MLOAD PUSH2 0x1635 SWAP2 SWAP1 PUSH2 0x3F64 JUMP JUMPDEST PUSH1 0x40 MLOAD DUP1 SWAP2 SUB SWAP1 LOG1 PUSH32 0x3C5AD147104E56BE34A9176A6692F7DF8D2F4B29A5AF06BC6B98970D329D6577 DUP4 PUSH1 0x40 ADD MLOAD PUSH1 0xA DUP2 GT ISZERO PUSH2 0x1675 JUMPI PUSH2 0x1674 PUSH2 0x2C00 JUMP JUMPDEST JUMPDEST PUSH1 0x40 MLOAD PUSH2 0x1682 SWAP2 SWAP1 PUSH2 0x3FDE JUMP JUMPDEST PUSH1 0x40 MLOAD DUP1 SWAP2 SUB SWAP1 LOG1 PUSH32 0x3C5AD147104E56BE34A9176A6692F7DF8D2F4B29A5AF06BC6B98970D329D6577 DUP3 PUSH1 0x40 MLOAD PUSH2 0x16B9 SWAP2 SWAP1 PUSH2 0x4058 JUMP JUMPDEST PUSH1 0x40 MLOAD DUP1 SWAP2 SUB SWAP1 LOG1 PUSH1 0x0 JUMPDEST DUP4 PUSH1 0x60 ADD MLOAD MLOAD DUP2 LT ISZERO PUSH2 0x1739 JUMPI PUSH32 0x3C5AD147104E56BE34A9176A6692F7DF8D2F4B29A5AF06BC6B98970D329D6577 DUP5 PUSH1 0x60 ADD MLOAD DUP3 DUP2 MLOAD DUP2 LT PUSH2 0x1709 JUMPI PUSH2 0x1708 PUSH2 0x3491 JUMP JUMPDEST JUMPDEST PUSH1 0x20 MUL PUSH1 0x20 ADD ADD MLOAD PUSH1 0x40 MLOAD PUSH2 0x171E SWAP2 SWAP1 PUSH2 0x3DD3 JUMP JUMPDEST PUSH1 0x40 MLOAD DUP1 SWAP2 SUB SWAP1 LOG1 DUP1 DUP1 PUSH2 0x1731 SWAP1 PUSH2 0x3ED0 JUMP JUMPDEST SWAP2 POP POP PUSH2 0x16C4 JUMP JUMPDEST POP PUSH1 0x7 PUSH1 0xA DUP2 GT ISZERO PUSH2 0x174E JUMPI PUSH2 0x174D PUSH2 0x2C00 JUMP JUMPDEST JUMPDEST DUP4 PUSH1 0x40 ADD MLOAD PUSH1 0xA DUP2 GT ISZERO PUSH2 0x1765 JUMPI PUSH2 0x1764 PUSH2 0x2C00 JUMP JUMPDEST JUMPDEST SUB PUSH2 0x1902 JUMPI PUSH1 0x0 PUSH2 0x1775 DUP4 PUSH2 0x27E9 JUMP JUMPDEST SWAP1 POP PUSH1 0x0 PUSH1 0x25 DUP6 PUSH1 0x60 ADD MLOAD PUSH1 0x0 DUP2 MLOAD DUP2 LT PUSH2 0x1793 JUMPI PUSH2 0x1792 PUSH2 0x3491 JUMP JUMPDEST JUMPDEST PUSH1 0x20 MUL PUSH1 0x20 ADD ADD MLOAD PUSH1 0xFF AND EQ SWAP1 POP PUSH32 0x3C5AD147104E56BE34A9176A6692F7DF8D2F4B29A5AF06BC6B98970D329D6577 DUP5 PUSH1 0x40 MLOAD PUSH2 0x17D0 SWAP2 SWAP1 PUSH2 0x40D2 JUMP JUMPDEST PUSH1 0x40 MLOAD DUP1 SWAP2 SUB SWAP1 LOG1 PUSH32 0x3C5AD147104E56BE34A9176A6692F7DF8D2F4B29A5AF06BC6B98970D329D6577 DUP3 PUSH2 0x1805 JUMPI PUSH1 0x0 PUSH2 0x1808 JUMP JUMPDEST PUSH1 0x1 JUMPDEST PUSH1 0x40 MLOAD PUSH2 0x1815 SWAP2 SWAP1 PUSH2 0x414C JUMP JUMPDEST PUSH1 0x40 MLOAD DUP1 SWAP2 SUB SWAP1 LOG1 PUSH32 0x3C5AD147104E56BE34A9176A6692F7DF8D2F4B29A5AF06BC6B98970D329D6577 DUP2 PUSH2 0x184A JUMPI PUSH1 0x0 PUSH2 0x184D JUMP JUMPDEST PUSH1 0x1 JUMPDEST PUSH1 0x40 MLOAD PUSH2 0x185A SWAP2 SWAP1 PUSH2 0x41C6 JUMP JUMPDEST PUSH1 0x40 MLOAD DUP1 SWAP2 SUB SWAP1 LOG1 PUSH1 0x0 DUP3 ISZERO ISZERO DUP3 ISZERO ISZERO EQ SWAP1 POP PUSH32 0x3C5AD147104E56BE34A9176A6692F7DF8D2F4B29A5AF06BC6B98970D329D6577 DUP2 PUSH2 0x189A JUMPI PUSH1 0x0 PUSH2 0x189D JUMP JUMPDEST PUSH1 0x1 JUMPDEST PUSH1 0x40 MLOAD PUSH2 0x18AA SWAP2 SWAP1 PUSH2 0x4240 JUMP JUMPDEST PUSH1 0x40 MLOAD DUP1 SWAP2 SUB SWAP1 LOG1 PUSH32 0x3C5AD147104E56BE34A9176A6692F7DF8D2F4B29A5AF06BC6B98970D329D6577 DUP2 PUSH2 0x18DF JUMPI PUSH1 0x0 PUSH2 0x18E2 JUMP JUMPDEST PUSH1 0x1 JUMPDEST PUSH1 0x40 MLOAD PUSH2 0x18EF SWAP2 SWAP1 PUSH2 0x42BA JUMP JUMPDEST PUSH1 0x40 MLOAD DUP1 SWAP2 SUB SWAP1 LOG1 DUP1 SWAP4 POP POP POP POP PUSH2 0x1D1F JUMP JUMPDEST PUSH1 0x0 PUSH1 0xA DUP2 GT ISZERO PUSH2 0x1916 JUMPI PUSH2 0x1915 PUSH2 0x2C00 JUMP JUMPDEST JUMPDEST DUP4 PUSH1 0x40 ADD MLOAD PUSH1 0xA DUP2 GT ISZERO PUSH2 0x192D JUMPI PUSH2 0x192C PUSH2 0x2C00 JUMP JUMPDEST JUMPDEST SUB PUSH2 0x19AC JUMPI PUSH1 0x0 DUP3 PUSH1 0xFF AND DUP5 PUSH1 0x60 ADD MLOAD PUSH1 0x0 DUP2 MLOAD DUP2 LT PUSH2 0x1950 JUMPI PUSH2 0x194F PUSH2 0x3491 JUMP JUMPDEST JUMPDEST PUSH1 0x20 MUL PUSH1 0x20 ADD ADD MLOAD PUSH1 0xFF AND EQ SWAP1 POP PUSH32 0x3C5AD147104E56BE34A9176A6692F7DF8D2F4B29A5AF06BC6B98970D329D6577 DUP2 PUSH2 0x198B JUMPI PUSH1 0x0 PUSH2 0x198E JUMP JUMPDEST PUSH1 0x1 JUMPDEST PUSH1 0x40 MLOAD PUSH2 0x199B SWAP2 SWAP1 PUSH2 0x4334 JUMP JUMPDEST PUSH1 0x40 MLOAD DUP1 SWAP2 SUB SWAP1 LOG1 DUP1 SWAP2 POP POP PUSH2 0x1D1F JUMP JUMPDEST PUSH1 0x8 PUSH1 0xA DUP2 GT ISZERO PUSH2 0x19C0 JUMPI PUSH2 0x19BF PUSH2 0x2C00 JUMP JUMPDEST JUMPDEST DUP4 PUSH1 0x40 ADD MLOAD PUSH1 0xA DUP2 GT ISZERO PUSH2 0x19D7 JUMPI PUSH2 0x19D6 PUSH2 0x2C00 JUMP JUMPDEST JUMPDEST SUB PUSH2 0x1B4C JUMPI PUSH1 0x0 DUP3 PUSH1 0xFF AND SUB PUSH2 0x19F0 JUMPI PUSH1 0x0 SWAP1 POP PUSH2 0x1D1F JUMP JUMPDEST PUSH1 0x0 DUP1 PUSH1 0x2 DUP5 PUSH2 0x1A00 SWAP2 SWAP1 PUSH2 0x4391 JUMP JUMPDEST PUSH1 0xFF AND EQ SWAP1 POP PUSH1 0x0 PUSH1 0x27 DUP6 PUSH1 0x60 ADD MLOAD PUSH1 0x0 DUP2 MLOAD DUP2 LT PUSH2 0x1A22 JUMPI PUSH2 0x1A21 PUSH2 0x3491 JUMP JUMPDEST JUMPDEST PUSH1 0x20 MUL PUSH1 0x20 ADD ADD MLOAD PUSH1 0xFF AND EQ SWAP1 POP PUSH32 0x3C5AD147104E56BE34A9176A6692F7DF8D2F4B29A5AF06BC6B98970D329D6577 DUP5 PUSH1 0x40 MLOAD PUSH2 0x1A5F SWAP2 SWAP1 PUSH2 0x40D2 JUMP JUMPDEST PUSH1 0x40 MLOAD DUP1 SWAP2 SUB SWAP1 LOG1 PUSH32 0x3C5AD147104E56BE34A9176A6692F7DF8D2F4B29A5AF06BC6B98970D329D6577 DUP3 PUSH2 0x1A94 JUMPI PUSH1 0x0 PUSH2 0x1A97 JUMP JUMPDEST PUSH1 0x1 JUMPDEST PUSH1 0x40 MLOAD PUSH2 0x1AA4 SWAP2 SWAP1 PUSH2 0x440E JUMP JUMPDEST PUSH1 0x40 MLOAD DUP1 SWAP2 SUB SWAP1 LOG1 PUSH32 0x3C5AD147104E56BE34A9176A6692F7DF8D2F4B29A5AF06BC6B98970D329D6577 DUP2 PUSH2 0x1AD9 JUMPI PUSH1 0x0 PUSH2 0x1ADC JUMP JUMPDEST PUSH1 0x1 JUMPDEST PUSH1 0x40 MLOAD PUSH2 0x1AE9 SWAP2 SWAP1 PUSH2 0x4488 JUMP JUMPDEST PUSH1 0x40 MLOAD DUP1 SWAP2 SUB SWAP1 LOG1 PUSH1 0x0 DUP3 ISZERO ISZERO DUP3 ISZERO ISZERO EQ SWAP1 POP PUSH32 0x3C5AD147104E56BE34A9176A6692F7DF8D2F4B29A5AF06BC6B98970D329D6577 DUP2 PUSH2 0x1B29 JUMPI PUSH1 0x0 PUSH2 0x1B2C JUMP JUMPDEST PUSH1 0x1 JUMPDEST PUSH1 0x40 MLOAD PUSH2 0x1B39 SWAP2 SWAP1 PUSH2 0x4502 JUMP JUMPDEST PUSH1 0x40 MLOAD DUP1 SWAP2 SUB SWAP1 LOG1 DUP1 SWAP4 POP POP POP POP PUSH2 0x1D1F JUMP JUMPDEST PUSH1 0x9 PUSH1 0xA DUP2 GT ISZERO PUSH2 0x1B60 JUMPI PUSH2 0x1B5F PUSH2 0x2C00 JUMP JUMPDEST JUMPDEST DUP4 PUSH1 0x40 ADD MLOAD PUSH1 0xA DUP2 GT ISZERO PUSH2 0x1B77 JUMPI PUSH2 0x1B76 PUSH2 0x2C00 JUMP JUMPDEST JUMPDEST SUB PUSH2 0x1CE2 JUMPI PUSH1 0x0 DUP3 PUSH1 0xFF AND SUB PUSH2 0x1B90 JUMPI PUSH1 0x0 SWAP1 POP PUSH2 0x1D1F JUMP JUMPDEST PUSH1 0x0 PUSH1 0x12 DUP4 PUSH1 0xFF AND GT ISZERO SWAP1 POP PUSH1 0x0 PUSH1 0x29 DUP6 PUSH1 0x60 ADD MLOAD PUSH1 0x0 DUP2 MLOAD DUP2 LT PUSH2 0x1BB8 JUMPI PUSH2 0x1BB7 PUSH2 0x3491 JUMP JUMPDEST JUMPDEST PUSH1 0x20 MUL PUSH1 0x20 ADD ADD MLOAD PUSH1 0xFF AND EQ SWAP1 POP PUSH32 0x3C5AD147104E56BE34A9176A6692F7DF8D2F4B29A5AF06BC6B98970D329D6577 DUP5 PUSH1 0x40 MLOAD PUSH2 0x1BF5 SWAP2 SWAP1 PUSH2 0x40D2 JUMP JUMPDEST PUSH1 0x40 MLOAD DUP1 SWAP2 SUB SWAP1 LOG1 PUSH32 0x3C5AD147104E56BE34A9176A6692F7DF8D2F4B29A5AF06BC6B98970D329D6577 DUP3 PUSH2 0x1C2A JUMPI PUSH1 0x0 PUSH2 0x1C2D JUMP JUMPDEST PUSH1 0x1 JUMPDEST PUSH1 0x40 MLOAD PUSH2 0x1C3A SWAP2 SWAP1 PUSH2 0x457C JUMP JUMPDEST PUSH1 0x40 MLOAD DUP1 SWAP2 SUB SWAP1 LOG1 PUSH32 0x3C5AD147104E56BE34A9176A6692F7DF8D2F4B29A5AF06BC6B98970D329D6577 DUP2 PUSH2 0x1C6F JUMPI PUSH1 0x0 PUSH2 0x1C72 JUMP JUMPDEST PUSH1 0x1 JUMPDEST PUSH1 0x40 MLOAD PUSH2 0x1C7F SWAP2 SWAP1 PUSH2 0x45F6 JUMP JUMPDEST PUSH1 0x40 MLOAD DUP1 SWAP2 SUB SWAP1 LOG1 PUSH1 0x0 DUP3 ISZERO ISZERO DUP3 ISZERO ISZERO EQ SWAP1 POP PUSH32 0x3C5AD147104E56BE34A9176A6692F7DF8D2F4B29A5AF06BC6B98970D329D6577 DUP2 PUSH2 0x1CBF JUMPI PUSH1 0x0 PUSH2 0x1CC2 JUMP JUMPDEST PUSH1 0x1 JUMPDEST PUSH1 0x40 MLOAD PUSH2 0x1CCF SWAP2 SWAP1 PUSH2 0x4670 JUMP JUMPDEST PUSH1 0x40 MLOAD DUP1 SWAP2 SUB SWAP1 LOG1 DUP1 SWAP4 POP POP POP POP PUSH2 0x1D1F JUMP JUMPDEST PUSH32 0x3C5AD147104E56BE34A9176A6692F7DF8D2F4B29A5AF06BC6B98970D329D6577 PUSH1 0x0 PUSH1 0x40 MLOAD PUSH2 0x1D12 SWAP2 SWAP1 PUSH2 0x4710 JUMP JUMPDEST PUSH1 0x40 MLOAD DUP1 SWAP2 SUB SWAP1 LOG1 PUSH1 0x0 SWAP1 POP JUMPDEST SWAP3 SWAP2 POP POP JUMP JUMPDEST PUSH1 0x6 PUSH1 0x20 MSTORE DUP1 PUSH1 0x0 MSTORE PUSH1 0x40 PUSH1 0x0 KECCAK256 PUSH1 0x0 SWAP2 POP SLOAD SWAP1 PUSH2 0x100 EXP SWAP1 DIV PUSH1 0xFF AND DUP2 JUMP JUMPDEST PUSH1 0x0 PUSH20 0xFFFFFFFFFFFFFFFFFFFFFFFFFFFFFFFFFFFFFFFF AND PUSH1 0x5 PUSH1 0x0 SWAP1 SLOAD SWAP1 PUSH2 0x100 EXP SWAP1 DIV PUSH20 0xFFFFFFFFFFFFFFFFFFFFFFFFFFFFFFFFFFFFFFFF AND PUSH20 0xFFFFFFFFFFFFFFFFFFFFFFFFFFFFFFFFFFFFFFFF AND EQ PUSH2 0x1DD6 JUMPI PUSH1 0x40 MLOAD PUSH32 0x8C379A000000000000000000000000000000000000000000000000000000000 DUP2 MSTORE PUSH1 0x4 ADD PUSH2 0x1DCD SWAP1 PUSH2 0x478A JUMP JUMPDEST PUSH1 0x40 MLOAD DUP1 SWAP2 SUB SWAP1 REVERT JUMPDEST DUP1 PUSH1 0x5 PUSH1 0x0 PUSH2 0x100 EXP DUP2 SLOAD DUP2 PUSH20 0xFFFFFFFFFFFFFFFFFFFFFFFFFFFFFFFFFFFFFFFF MUL NOT AND SWAP1 DUP4 PUSH20 0xFFFFFFFFFFFFFFFFFFFFFFFFFFFFFFFFFFFFFFFF AND MUL OR SWAP1 SSTORE POP POP JUMP JUMPDEST PUSH1 0x0 PUSH1 0x2 PUSH1 0x0 DUP4 DUP2 MSTORE PUSH1 0x20 ADD SWAP1 DUP2 MSTORE PUSH1 0x20 ADD PUSH1 0x0 KECCAK256 PUSH1 0x0 SWAP1 SLOAD SWAP1 PUSH2 0x100 EXP SWAP1 DIV PUSH1 0xFF AND SWAP1 POP PUSH1 0x0 DUP1 PUSH1 0x1 PUSH1 0x0 DUP7 DUP2 MSTORE PUSH1 0x20 ADD SWAP1 DUP2 MSTORE PUSH1 0x20 ADD PUSH1 0x0 KECCAK256 PUSH1 0x40 MLOAD DUP1 PUSH1 0x80 ADD PUSH1 0x40 MSTORE SWAP1 DUP2 PUSH1 0x0 DUP3 ADD PUSH1 0x0 SWAP1 SLOAD SWAP1 PUSH2 0x100 EXP SWAP1 DIV PUSH20 0xFFFFFFFFFFFFFFFFFFFFFFFFFFFFFFFFFFFFFFFF AND PUSH20 0xFFFFFFFFFFFFFFFFFFFFFFFFFFFFFFFFFFFFFFFF AND PUSH20 0xFFFFFFFFFFFFFFFFFFFFFFFFFFFFFFFFFFFFFFFF AND DUP2 MSTORE PUSH1 0x20 ADD PUSH1 0x1 DUP3 ADD SLOAD DUP2 MSTORE PUSH1 0x20 ADD PUSH1 0x2 DUP3 ADD PUSH1 0x0 SWAP1 SLOAD SWAP1 PUSH2 0x100 EXP SWAP1 DIV PUSH1 0xFF AND PUSH1 0xA DUP2 GT ISZERO PUSH2 0x1EE5 JUMPI PUSH2 0x1EE4 PUSH2 0x2C00 JUMP JUMPDEST JUMPDEST PUSH1 0xA DUP2 GT ISZERO PUSH2 0x1EF7 JUMPI PUSH2 0x1EF6 PUSH2 0x2C00 JUMP JUMPDEST JUMPDEST DUP2 MSTORE PUSH1 0x20 ADD PUSH1 0x3 DUP3 ADD DUP1 SLOAD DUP1 PUSH1 0x20 MUL PUSH1 0x20 ADD PUSH1 0x40 MLOAD SWAP1 DUP2 ADD PUSH1 0x40 MSTORE DUP1 SWAP3 SWAP2 SWAP1 DUP2 DUP2 MSTORE PUSH1 0x20 ADD DUP3 DUP1 SLOAD DUP1 ISZERO PUSH2 0x1F70 JUMPI PUSH1 0x20 MUL DUP3 ADD SWAP2 SWAP1 PUSH1 0x0 MSTORE PUSH1 0x20 PUSH1 0x0 KECCAK256 SWAP1 PUSH1 0x0 SWAP1 JUMPDEST DUP3 DUP3 SWAP1 SLOAD SWAP1 PUSH2 0x100 EXP SWAP1 DIV PUSH1 0xFF AND PUSH1 0xFF AND DUP2 MSTORE PUSH1 0x20 ADD SWAP1 PUSH1 0x1 ADD SWAP1 PUSH1 0x20 DUP3 PUSH1 0x0 ADD DIV SWAP3 DUP4 ADD SWAP3 PUSH1 0x1 SUB DUP3 MUL SWAP2 POP DUP1 DUP5 GT PUSH2 0x1F39 JUMPI SWAP1 POP JUMPDEST POP POP POP POP POP DUP2 MSTORE POP POP SWAP1 POP PUSH32 0x3C5AD147104E56BE34A9176A6692F7DF8D2F4B29A5AF06BC6B98970D329D6577 DUP6 PUSH1 0x40 MLOAD PUSH2 0x1FAA SWAP2 SWAP1 PUSH2 0x47F6 JUMP JUMPDEST PUSH1 0x40 MLOAD DUP1 SWAP2 SUB SWAP1 LOG1 PUSH32 0x3C5AD147104E56BE34A9176A6692F7DF8D2F4B29A5AF06BC6B98970D329D6577 DUP5 PUSH1 0x40 MLOAD PUSH2 0x1FE1 SWAP2 SWAP1 PUSH2 0x4870 JUMP JUMPDEST PUSH1 0x40 MLOAD DUP1 SWAP2 SUB SWAP1 LOG1 PUSH32 0x3C5AD147104E56BE34A9176A6692F7DF8D2F4B29A5AF06BC6B98970D329D6577 DUP4 PUSH1 0x40 MLOAD PUSH2 0x2018 SWAP2 SWAP1 PUSH2 0x4058 JUMP JUMPDEST PUSH1 0x40 MLOAD DUP1 SWAP2 SUB SWAP1 LOG1 PUSH32 0x3C5AD147104E56BE34A9176A6692F7DF8D2F4B29A5AF06BC6B98970D329D6577 DUP2 PUSH1 0x20 ADD MLOAD PUSH1 0x40 MLOAD PUSH2 0x2053 SWAP2 SWAP1 PUSH2 0x48EA JUMP JUMPDEST PUSH1 0x40 MLOAD DUP1 SWAP2 SUB SWAP1 LOG1 PUSH1 0x0 DUP2 PUSH1 0x20 ADD MLOAD GT PUSH2 0x20A2 JUMPI PUSH1 0x40 MLOAD PUSH32 0x8C379A000000000000000000000000000000000000000000000000000000000 DUP2 MSTORE PUSH1 0x4 ADD PUSH2 0x2099 SWAP1 PUSH2 0x4964 JUMP JUMPDEST PUSH1 0x40 MLOAD DUP1 SWAP2 SUB SWAP1 REVERT JUMPDEST CALLER PUSH20 0xFFFFFFFFFFFFFFFFFFFFFFFFFFFFFFFFFFFFFFFF AND DUP2 PUSH1 0x0 ADD MLOAD PUSH20 0xFFFFFFFFFFFFFFFFFFFFFFFFFFFFFFFFFFFFFFFF AND EQ PUSH2 0x2114 JUMPI PUSH1 0x40 MLOAD PUSH32 0x8C379A000000000000000000000000000000000000000000000000000000000 DUP2 MSTORE PUSH1 0x4 ADD PUSH2 0x210B SWAP1 PUSH2 0x49D0 JUMP JUMPDEST PUSH1 0x40 MLOAD DUP1 SWAP2 SUB SWAP1 REVERT JUMPDEST PUSH2 0x211E DUP2 DUP5 PUSH2 0x1603 JUMP JUMPDEST ISZERO PUSH2 0x242B JUMPI PUSH2 0x212C DUP2 PUSH2 0x24FB JUMP JUMPDEST SWAP2 POP PUSH32 0x3C5AD147104E56BE34A9176A6692F7DF8D2F4B29A5AF06BC6B98970D329D6577 DUP3 PUSH1 0x40 MLOAD PUSH2 0x215D SWAP2 SWAP1 PUSH2 0x4A3C JUMP JUMPDEST PUSH1 0x40 MLOAD DUP1 SWAP2 SUB SWAP1 LOG1 PUSH1 0x0 DUP3 GT ISZERO PUSH2 0x242A JUMPI PUSH1 0x0 PUSH1 0x5 PUSH1 0x0 SWAP1 SLOAD SWAP1 PUSH2 0x100 EXP SWAP1 DIV PUSH20 0xFFFFFFFFFFFFFFFFFFFFFFFFFFFFFFFFFFFFFFFF AND PUSH20 0xFFFFFFFFFFFFFFFFFFFFFFFFFFFFFFFFFFFFFFFF AND DUP4 PUSH1 0x40 MLOAD PUSH2 0x21B6 SWAP1 PUSH2 0x4A90 JUMP JUMPDEST PUSH1 0x0 PUSH1 0x40 MLOAD DUP1 DUP4 SUB DUP2 DUP6 DUP8 GAS CALL SWAP3 POP POP POP RETURNDATASIZE DUP1 PUSH1 0x0 DUP2 EQ PUSH2 0x21F3 JUMPI PUSH1 0x40 MLOAD SWAP2 POP PUSH1 0x1F NOT PUSH1 0x3F RETURNDATASIZE ADD AND DUP3 ADD PUSH1 0x40 MSTORE RETURNDATASIZE DUP3 MSTORE RETURNDATASIZE PUSH1 0x0 PUSH1 0x20 DUP5 ADD RETURNDATACOPY PUSH2 0x21F8 JUMP JUMPDEST PUSH1 0x60 SWAP2 POP JUMPDEST POP POP SWAP1 POP DUP1 PUSH2 0x223C JUMPI PUSH1 0x40 MLOAD PUSH32 0x8C379A000000000000000000000000000000000000000000000000000000000 DUP2 MSTORE PUSH1 0x4 ADD PUSH2 0x2233 SWAP1 PUSH2 0x4B17 JUMP JUMPDEST PUSH1 0x40 MLOAD DUP1 SWAP2 SUB SWAP1 REVERT JUMPDEST PUSH1 0x0 PUSH1 0x5 PUSH1 0x0 SWAP1 SLOAD SWAP1 PUSH2 0x100 EXP SWAP1 DIV PUSH20 0xFFFFFFFFFFFFFFFFFFFFFFFFFFFFFFFFFFFFFFFF AND PUSH20 0xFFFFFFFFFFFFFFFFFFFFFFFFFFFFFFFFFFFFFFFF AND DUP4 PUSH1 0x0 ADD MLOAD DUP6 PUSH1 0x40 MLOAD PUSH1 0x24 ADD PUSH2 0x228E SWAP3 SWAP2 SWAP1 PUSH2 0x322F JUMP JUMPDEST PUSH1 0x40 MLOAD PUSH1 0x20 DUP2 DUP4 SUB SUB DUP2 MSTORE SWAP1 PUSH1 0x40 MSTORE PUSH32 0x3285D9E600000000000000000000000000000000000000000000000000000000 PUSH28 0xFFFFFFFFFFFFFFFFFFFFFFFFFFFFFFFFFFFFFFFFFFFFFFFFFFFFFFFF NOT AND PUSH1 0x20 DUP3 ADD DUP1 MLOAD PUSH28 0xFFFFFFFFFFFFFFFFFFFFFFFFFFFFFFFFFFFFFFFFFFFFFFFFFFFFFFFF DUP4 DUP2 DUP4 AND OR DUP4 MSTORE POP POP POP POP PUSH1 0x40 MLOAD PUSH2 0x2318 SWAP2 SWAP1 PUSH2 0x3A1E JUMP JUMPDEST PUSH1 0x0 PUSH1 0x40 MLOAD DUP1 DUP4 SUB DUP2 PUSH1 0x0 DUP7 GAS CALL SWAP2 POP POP RETURNDATASIZE DUP1 PUSH1 0x0 DUP2 EQ PUSH2 0x2355 JUMPI PUSH1 0x40 MLOAD SWAP2 POP PUSH1 0x1F NOT PUSH1 0x3F RETURNDATASIZE ADD AND DUP3 ADD PUSH1 0x40 MSTORE RETURNDATASIZE DUP3 MSTORE RETURNDATASIZE PUSH1 0x0 PUSH1 0x20 DUP5 ADD RETURNDATACOPY PUSH2 0x235A JUMP JUMPDEST PUSH1 0x60 SWAP2 POP JUMPDEST POP POP SWAP1 POP DUP1 PUSH2 0x239E JUMPI PUSH1 0x40 MLOAD PUSH32 0x8C379A000000000000000000000000000000000000000000000000000000000 DUP2 MSTORE PUSH1 0x4 ADD PUSH2 0x2395 SWAP1 PUSH2 0x4BA9 JUMP JUMPDEST PUSH1 0x40 MLOAD DUP1 SWAP2 SUB SWAP1 REVERT JUMPDEST DUP3 PUSH1 0x0 ADD MLOAD PUSH20 0xFFFFFFFFFFFFFFFFFFFFFFFFFFFFFFFFFFFFFFFF AND PUSH32 0x5AFECA38B2064C23A692C4CF353015D80AB3ECC417B4F893F372690C11FBD9A6 DUP6 PUSH1 0x40 MLOAD PUSH2 0x23E8 SWAP2 SWAP1 PUSH2 0x3214 JUMP JUMPDEST PUSH1 0x40 MLOAD DUP1 SWAP2 SUB SWAP1 LOG2 PUSH32 0x3C5AD147104E56BE34A9176A6692F7DF8D2F4B29A5AF06BC6B98970D329D6577 DUP5 PUSH1 0x40 MLOAD PUSH2 0x241F SWAP2 SWAP1 PUSH2 0x4C15 JUMP JUMPDEST PUSH1 0x40 MLOAD DUP1 SWAP2 SUB SWAP1 LOG1 POP POP JUMPDEST JUMPDEST POP POP POP POP POP JUMP JUMPDEST PUSH1 0x4 SLOAD DUP2 JUMP JUMPDEST PUSH1 0x3 SLOAD DUP2 JUMP JUMPDEST PUSH1 0x0 PUSH1 0x20 MSTORE DUP1 PUSH1 0x0 MSTORE PUSH1 0x40 PUSH1 0x0 KECCAK256 PUSH1 0x0 SWAP2 POP SWAP1 POP DUP1 PUSH1 0x0 ADD PUSH1 0x0 SWAP1 SLOAD SWAP1 PUSH2 0x100 EXP SWAP1 DIV PUSH20 0xFFFFFFFFFFFFFFFFFFFFFFFFFFFFFFFFFFFFFFFF AND SWAP1 DUP1 PUSH1 0x1 ADD SLOAD SWAP1 POP DUP3 JUMP JUMPDEST PUSH1 0x2 PUSH1 0x20 MSTORE DUP1 PUSH1 0x0 MSTORE PUSH1 0x40 PUSH1 0x0 KECCAK256 PUSH1 0x0 SWAP2 POP SLOAD SWAP1 PUSH2 0x100 EXP SWAP1 DIV PUSH1 0xFF AND DUP2 JUMP JUMPDEST PUSH1 0x0 DUP1 PUSH1 0x1 NUMBER PUSH2 0x24B2 SWAP2 SWAP1 PUSH2 0x335F JUMP JUMPDEST BLOCKHASH TIMESTAMP CALLER ADDRESS PUSH1 0x3 SLOAD PUSH1 0x40 MLOAD PUSH1 0x20 ADD PUSH2 0x24CD SWAP6 SWAP5 SWAP4 SWAP3 SWAP2 SWAP1 PUSH2 0x4CD7 JUMP JUMPDEST PUSH1 0x40 MLOAD PUSH1 0x20 DUP2 DUP4 SUB SUB DUP2 MSTORE SWAP1 PUSH1 0x40 MSTORE DUP1 MLOAD SWAP1 PUSH1 0x20 ADD KECCAK256 PUSH1 0x0 SHR SWAP1 POP PUSH1 0x25 DUP2 PUSH2 0x24F5 SWAP2 SWAP1 PUSH2 0x4D36 JUMP JUMPDEST SWAP2 POP POP SWAP1 JUMP JUMPDEST PUSH1 0x0 PUSH1 0x7 PUSH1 0xA DUP2 GT ISZERO PUSH2 0x2511 JUMPI PUSH2 0x2510 PUSH2 0x2C00 JUMP JUMPDEST JUMPDEST DUP3 PUSH1 0x40 ADD MLOAD PUSH1 0xA DUP2 GT ISZERO PUSH2 0x2528 JUMPI PUSH2 0x2527 PUSH2 0x2C00 JUMP JUMPDEST JUMPDEST EQ DUP1 PUSH2 0x255C JUMPI POP PUSH1 0x8 PUSH1 0xA DUP2 GT ISZERO PUSH2 0x2543 JUMPI PUSH2 0x2542 PUSH2 0x2C00 JUMP JUMPDEST JUMPDEST DUP3 PUSH1 0x40 ADD MLOAD PUSH1 0xA DUP2 GT ISZERO PUSH2 0x255A JUMPI PUSH2 0x2559 PUSH2 0x2C00 JUMP JUMPDEST JUMPDEST EQ JUMPDEST DUP1 PUSH2 0x258F JUMPI POP PUSH1 0x9 PUSH1 0xA DUP2 GT ISZERO PUSH2 0x2576 JUMPI PUSH2 0x2575 PUSH2 0x2C00 JUMP JUMPDEST JUMPDEST DUP3 PUSH1 0x40 ADD MLOAD PUSH1 0xA DUP2 GT ISZERO PUSH2 0x258D JUMPI PUSH2 0x258C PUSH2 0x2C00 JUMP JUMPDEST JUMPDEST EQ JUMPDEST ISZERO PUSH2 0x25A0 JUMPI DUP2 PUSH1 0x20 ADD MLOAD SWAP1 POP PUSH2 0x27E4 JUMP JUMPDEST PUSH1 0x0 PUSH1 0xA DUP2 GT ISZERO PUSH2 0x25B4 JUMPI PUSH2 0x25B3 PUSH2 0x2C00 JUMP JUMPDEST JUMPDEST DUP3 PUSH1 0x40 ADD MLOAD PUSH1 0xA DUP2 GT ISZERO PUSH2 0x25CB JUMPI PUSH2 0x25CA PUSH2 0x2C00 JUMP JUMPDEST JUMPDEST SUB PUSH2 0x25E8 JUMPI PUSH1 0x23 DUP3 PUSH1 0x20 ADD MLOAD PUSH2 0x25E1 SWAP2 SWAP1 PUSH2 0x4D67 JUMP JUMPDEST SWAP1 POP PUSH2 0x27E4 JUMP JUMPDEST PUSH1 0x1 PUSH1 0xA DUP2 GT ISZERO PUSH2 0x25FC JUMPI PUSH2 0x25FB PUSH2 0x2C00 JUMP JUMPDEST JUMPDEST DUP3 PUSH1 0x40 ADD MLOAD PUSH1 0xA DUP2 GT ISZERO PUSH2 0x2613 JUMPI PUSH2 0x2612 PUSH2 0x2C00 JUMP JUMPDEST JUMPDEST SUB PUSH2 0x2630 JUMPI PUSH1 0x11 DUP3 PUSH1 0x20 ADD MLOAD PUSH2 0x2629 SWAP2 SWAP1 PUSH2 0x4D67 JUMP JUMPDEST SWAP1 POP PUSH2 0x27E4 JUMP JUMPDEST PUSH1 0x2 PUSH1 0xA DUP2 GT ISZERO PUSH2 0x2644 JUMPI PUSH2 0x2643 PUSH2 0x2C00 JUMP JUMPDEST JUMPDEST DUP3 PUSH1 0x40 ADD MLOAD PUSH1 0xA DUP2 GT ISZERO PUSH2 0x265B JUMPI PUSH2 0x265A PUSH2 0x2C00 JUMP JUMPDEST JUMPDEST SUB PUSH2 0x2678 JUMPI PUSH1 0x8 DUP3 PUSH1 0x20 ADD MLOAD PUSH2 0x2671 SWAP2 SWAP1 PUSH2 0x4D67 JUMP JUMPDEST SWAP1 POP PUSH2 0x27E4 JUMP JUMPDEST PUSH1 0x3 PUSH1 0xA DUP2 GT ISZERO PUSH2 0x268C JUMPI PUSH2 0x268B PUSH2 0x2C00 JUMP JUMPDEST JUMPDEST DUP3 PUSH1 0x40 ADD MLOAD PUSH1 0xA DUP2 GT ISZERO PUSH2 0x26A3 JUMPI PUSH2 0x26A2 PUSH2 0x2C00 JUMP JUMPDEST JUMPDEST SUB PUSH2 0x26C0 JUMPI PUSH1 0xB DUP3 PUSH1 0x20 ADD MLOAD PUSH2 0x26B9 SWAP2 SWAP1 PUSH2 0x4D67 JUMP JUMPDEST SWAP1 POP PUSH2 0x27E4 JUMP JUMPDEST PUSH1 0x4 PUSH1 0xA DUP2 GT ISZERO PUSH2 0x26D4 JUMPI PUSH2 0x26D3 PUSH2 0x2C00 JUMP JUMPDEST JUMPDEST DUP3 PUSH1 0x40 ADD MLOAD PUSH1 0xA DUP2 GT ISZERO PUSH2 0x26EB JUMPI PUSH2 0x26EA PUSH2 0x2C00 JUMP JUMPDEST JUMPDEST SUB PUSH2 0x2708 JUMPI PUSH1 0x5 DUP3 PUSH1 0x20 ADD MLOAD PUSH2 0x2701 SWAP2 SWAP1 PUSH2 0x4D67 JUMP JUMPDEST SWAP1 POP PUSH2 0x27E4 JUMP JUMPDEST PUSH1 0x5 PUSH1 0xA DUP2 GT ISZERO PUSH2 0x271C JUMPI PUSH2 0x271B PUSH2 0x2C00 JUMP JUMPDEST JUMPDEST DUP3 PUSH1 0x40 ADD MLOAD PUSH1 0xA DUP2 GT ISZERO PUSH2 0x2733 JUMPI PUSH2 0x2732 PUSH2 0x2C00 JUMP JUMPDEST JUMPDEST SUB PUSH2 0x2750 JUMPI PUSH1 0x2 DUP3 PUSH1 0x20 ADD MLOAD PUSH2 0x2749 SWAP2 SWAP1 PUSH2 0x4D67 JUMP JUMPDEST SWAP1 POP PUSH2 0x27E4 JUMP JUMPDEST PUSH1 0x6 PUSH1 0xA DUP2 GT ISZERO PUSH2 0x2764 JUMPI PUSH2 0x2763 PUSH2 0x2C00 JUMP JUMPDEST JUMPDEST DUP3 PUSH1 0x40 ADD MLOAD PUSH1 0xA DUP2 GT ISZERO PUSH2 0x277B JUMPI PUSH2 0x277A PUSH2 0x2C00 JUMP JUMPDEST JUMPDEST SUB PUSH2 0x2798 JUMPI PUSH1 0x2 DUP3 PUSH1 0x20 ADD MLOAD PUSH2 0x2791 SWAP2 SWAP1 PUSH2 0x4D67 JUMP JUMPDEST SWAP1 POP PUSH2 0x27E4 JUMP JUMPDEST PUSH1 0xA DUP1 DUP2 GT ISZERO PUSH2 0x27AB JUMPI PUSH2 0x27AA PUSH2 0x2C00 JUMP JUMPDEST JUMPDEST DUP3 PUSH1 0x40 ADD MLOAD PUSH1 0xA DUP2 GT ISZERO PUSH2 0x27C2 JUMPI PUSH2 0x27C1 PUSH2 0x2C00 JUMP JUMPDEST JUMPDEST SUB PUSH2 0x27DF JUMPI PUSH1 0x2 DUP3 PUSH1 0x20 ADD MLOAD PUSH2 0x27D8 SWAP2 SWAP1 PUSH2 0x4D67 JUMP JUMPDEST SWAP1 POP PUSH2 0x27E4 JUMP JUMPDEST PUSH1 0x0 SWAP1 POP JUMPDEST SWAP2 SWAP1 POP JUMP JUMPDEST PUSH1 0x0 DUP1 PUSH1 0x40 MLOAD DUP1 PUSH2 0x240 ADD PUSH1 0x40 MSTORE DUP1 PUSH1 0x1 PUSH1 0xFF AND DUP2 MSTORE PUSH1 0x20 ADD PUSH1 0x3 PUSH1 0xFF AND DUP2 MSTORE PUSH1 0x20 ADD PUSH1 0x5 PUSH1 0xFF AND DUP2 MSTORE PUSH1 0x20 ADD PUSH1 0x7 PUSH1 0xFF AND DUP2 MSTORE PUSH1 0x20 ADD PUSH1 0x9 PUSH1 0xFF AND DUP2 MSTORE PUSH1 0x20 ADD PUSH1 0xC PUSH1 0xFF AND DUP2 MSTORE PUSH1 0x20 ADD PUSH1 0xE PUSH1 0xFF AND DUP2 MSTORE PUSH1 0x20 ADD PUSH1 0x10 PUSH1 0xFF AND DUP2 MSTORE PUSH1 0x20 ADD PUSH1 0x12 PUSH1 0xFF AND DUP2 MSTORE PUSH1 0x20 ADD PUSH1 0x13 PUSH1 0xFF AND DUP2 MSTORE PUSH1 0x20 ADD PUSH1 0x15 PUSH1 0xFF AND DUP2 MSTORE PUSH1 0x20 ADD PUSH1 0x17 PUSH1 0xFF AND DUP2 MSTORE PUSH1 0x20 ADD PUSH1 0x19 PUSH1 0xFF AND DUP2 MSTORE PUSH1 0x20 ADD PUSH1 0x1B PUSH1 0xFF AND DUP2 MSTORE PUSH1 0x20 ADD PUSH1 0x1E PUSH1 0xFF AND DUP2 MSTORE PUSH1 0x20 ADD PUSH1 0x20 PUSH1 0xFF AND DUP2 MSTORE PUSH1 0x20 ADD PUSH1 0x22 PUSH1 0xFF AND DUP2 MSTORE PUSH1 0x20 ADD PUSH1 0x24 PUSH1 0xFF AND DUP2 MSTORE POP SWAP1 POP PUSH32 0x3C5AD147104E56BE34A9176A6692F7DF8D2F4B29A5AF06BC6B98970D329D6577 DUP4 PUSH1 0x40 MLOAD PUSH2 0x28DB SWAP2 SWAP1 PUSH2 0x4DF5 JUMP JUMPDEST PUSH1 0x40 MLOAD DUP1 SWAP2 SUB SWAP1 LOG1 PUSH1 0x0 JUMPDEST PUSH1 0x12 DUP2 PUSH1 0xFF AND LT ISZERO PUSH2 0x296E JUMPI DUP4 PUSH1 0xFF AND DUP3 DUP3 PUSH1 0xFF AND PUSH1 0x12 DUP2 LT PUSH2 0x290C JUMPI PUSH2 0x290B PUSH2 0x3491 JUMP JUMPDEST JUMPDEST PUSH1 0x20 MUL ADD MLOAD PUSH1 0xFF AND SUB PUSH2 0x295B JUMPI PUSH32 0x3C5AD147104E56BE34A9176A6692F7DF8D2F4B29A5AF06BC6B98970D329D6577 DUP5 PUSH1 0x40 MLOAD PUSH2 0x2948 SWAP2 SWAP1 PUSH2 0x4E6F JUMP JUMPDEST PUSH1 0x40 MLOAD DUP1 SWAP2 SUB SWAP1 LOG1 PUSH1 0x1 SWAP3 POP POP POP PUSH2 0x29AC JUMP JUMPDEST DUP1 DUP1 PUSH2 0x2966 SWAP1 PUSH2 0x4E9D JUMP JUMPDEST SWAP2 POP POP PUSH2 0x28E6 JUMP JUMPDEST POP PUSH32 0x3C5AD147104E56BE34A9176A6692F7DF8D2F4B29A5AF06BC6B98970D329D6577 DUP4 PUSH1 0x40 MLOAD PUSH2 0x299E SWAP2 SWAP1 PUSH2 0x4F12 JUMP JUMPDEST PUSH1 0x40 MLOAD DUP1 SWAP2 SUB SWAP1 LOG1 PUSH1 0x0 SWAP2 POP POP JUMPDEST SWAP2 SWAP1 POP JUMP JUMPDEST DUP3 DUP1 SLOAD DUP3 DUP3 SSTORE SWAP1 PUSH1 0x0 MSTORE PUSH1 0x20 PUSH1 0x0 KECCAK256 SWAP1 PUSH1 0x1F ADD PUSH1 0x20 SWAP1 DIV DUP2 ADD SWAP3 DUP3 ISZERO PUSH2 0x2A47 JUMPI SWAP2 PUSH1 0x20 MUL DUP3 ADD PUSH1 0x0 JUMPDEST DUP4 DUP3 GT ISZERO PUSH2 0x2A18 JUMPI DUP4 MLOAD DUP4 DUP3 PUSH2 0x100 EXP DUP2 SLOAD DUP2 PUSH1 0xFF MUL NOT AND SWAP1 DUP4 PUSH1 0xFF AND MUL OR SWAP1 SSTORE POP SWAP3 PUSH1 0x20 ADD SWAP3 PUSH1 0x1 ADD PUSH1 0x20 DUP2 PUSH1 0x0 ADD DIV SWAP3 DUP4 ADD SWAP3 PUSH1 0x1 SUB MUL PUSH2 0x29DA JUMP JUMPDEST DUP1 ISZERO PUSH2 0x2A45 JUMPI DUP3 DUP2 PUSH2 0x100 EXP DUP2 SLOAD SWAP1 PUSH1 0xFF MUL NOT AND SWAP1 SSTORE PUSH1 0x1 ADD PUSH1 0x20 DUP2 PUSH1 0x0 ADD DIV SWAP3 DUP4 ADD SWAP3 PUSH1 0x1 SUB MUL PUSH2 0x2A18 JUMP JUMPDEST POP JUMPDEST POP SWAP1 POP PUSH2 0x2A54 SWAP2 SWAP1 PUSH2 0x2A58 JUMP JUMPDEST POP SWAP1 JUMP JUMPDEST JUMPDEST DUP1 DUP3 GT ISZERO PUSH2 0x2A71 JUMPI PUSH1 0x0 DUP2 PUSH1 0x0 SWAP1 SSTORE POP PUSH1 0x1 ADD PUSH2 0x2A59 JUMP JUMPDEST POP SWAP1 JUMP JUMPDEST PUSH1 0x0 DUP3 DUP3 MSTORE PUSH1 0x20 DUP3 ADD SWAP1 POP SWAP3 SWAP2 POP POP JUMP JUMPDEST PUSH32 0x5265636569766564204554480000000000000000000000000000000000000000 PUSH1 0x0 DUP3 ADD MSTORE POP JUMP JUMPDEST PUSH1 0x0 PUSH2 0x2ABC PUSH1 0xC DUP4 PUSH2 0x2A75 JUMP JUMPDEST SWAP2 POP PUSH2 0x2AC7 DUP3 PUSH2 0x2A86 JUMP JUMPDEST PUSH1 0x20 DUP3 ADD SWAP1 POP SWAP2 SWAP1 POP JUMP JUMPDEST PUSH1 0x0 DUP2 SWAP1 POP SWAP2 SWAP1 POP JUMP JUMPDEST PUSH2 0x2AE5 DUP2 PUSH2 0x2AD2 JUMP JUMPDEST DUP3 MSTORE POP POP JUMP JUMPDEST PUSH1 0x0 PUSH1 0x40 DUP3 ADD SWAP1 POP DUP2 DUP2 SUB PUSH1 0x0 DUP4 ADD MSTORE PUSH2 0x2B04 DUP2 PUSH2 0x2AAF JUMP JUMPDEST SWAP1 POP PUSH2 0x2B13 PUSH1 0x20 DUP4 ADD DUP5 PUSH2 0x2ADC JUMP JUMPDEST SWAP3 SWAP2 POP POP JUMP JUMPDEST PUSH32 0x46616C6C6261636B2063616C6C65642077697468204554480000000000000000 PUSH1 0x0 DUP3 ADD MSTORE POP JUMP JUMPDEST PUSH1 0x0 PUSH2 0x2B4F PUSH1 0x18 DUP4 PUSH2 0x2A75 JUMP JUMPDEST SWAP2 POP PUSH2 0x2B5A DUP3 PUSH2 0x2B19 JUMP JUMPDEST PUSH1 0x20 DUP3 ADD SWAP1 POP SWAP2 SWAP1 POP JUMP JUMPDEST PUSH1 0x0 PUSH1 0x40 DUP3 ADD SWAP1 POP DUP2 DUP2 SUB PUSH1 0x0 DUP4 ADD MSTORE PUSH2 0x2B7E DUP2 PUSH2 0x2B42 JUMP JUMPDEST SWAP1 POP PUSH2 0x2B8D PUSH1 0x20 DUP4 ADD DUP5 PUSH2 0x2ADC JUMP JUMPDEST SWAP3 SWAP2 POP POP JUMP JUMPDEST PUSH1 0x0 PUSH1 0x40 MLOAD SWAP1 POP SWAP1 JUMP JUMPDEST PUSH1 0x0 DUP1 REVERT JUMPDEST PUSH1 0x0 DUP1 REVERT JUMPDEST PUSH2 0x2BB0 DUP2 PUSH2 0x2AD2 JUMP JUMPDEST DUP2 EQ PUSH2 0x2BBB JUMPI PUSH1 0x0 DUP1 REVERT JUMPDEST POP JUMP JUMPDEST PUSH1 0x0 DUP2 CALLDATALOAD SWAP1 POP PUSH2 0x2BCD DUP2 PUSH2 0x2BA7 JUMP JUMPDEST SWAP3 SWAP2 POP POP JUMP JUMPDEST PUSH1 0x0 PUSH1 0x20 DUP3 DUP5 SUB SLT ISZERO PUSH2 0x2BE9 JUMPI PUSH2 0x2BE8 PUSH2 0x2B9D JUMP JUMPDEST JUMPDEST PUSH1 0x0 PUSH2 0x2BF7 DUP5 DUP3 DUP6 ADD PUSH2 0x2BBE JUMP JUMPDEST SWAP2 POP POP SWAP3 SWAP2 POP POP JUMP JUMPDEST PUSH32 0x4E487B7100000000000000000000000000000000000000000000000000000000 PUSH1 0x0 MSTORE PUSH1 0x21 PUSH1 0x4 MSTORE PUSH1 0x24 PUSH1 0x0 REVERT JUMPDEST PUSH1 0xB DUP2 LT PUSH2 0x2C40 JUMPI PUSH2 0x2C3F PUSH2 0x2C00 JUMP JUMPDEST JUMPDEST POP JUMP JUMPDEST PUSH1 0x0 DUP2 SWAP1 POP PUSH2 0x2C51 DUP3 PUSH2 0x2C2F JUMP JUMPDEST SWAP2 SWAP1 POP JUMP JUMPDEST PUSH1 0x0 PUSH2 0x2C61 DUP3 PUSH2 0x2C43 JUMP JUMPDEST SWAP1 POP SWAP2 SWAP1 POP JUMP JUMPDEST PUSH2 0x2C71 DUP2 PUSH2 0x2C56 JUMP JUMPDEST DUP3 MSTORE POP POP JUMP JUMPDEST PUSH1 0x0 DUP2 MLOAD SWAP1 POP SWAP2 SWAP1 POP JUMP JUMPDEST PUSH1 0x0 DUP3 DUP3 MSTORE PUSH1 0x20 DUP3 ADD SWAP1 POP SWAP3 SWAP2 POP POP JUMP JUMPDEST PUSH1 0x0 DUP2 SWAP1 POP PUSH1 0x20 DUP3 ADD SWAP1 POP SWAP2 SWAP1 POP JUMP JUMPDEST PUSH1 0x0 PUSH1 0xFF DUP3 AND SWAP1 POP SWAP2 SWAP1 POP JUMP JUMPDEST PUSH2 0x2CB9 DUP2 PUSH2 0x2CA3 JUMP JUMPDEST DUP3 MSTORE POP POP JUMP JUMPDEST PUSH1 0x0 PUSH2 0x2CCB DUP4 DUP4 PUSH2 0x2CB0 JUMP JUMPDEST PUSH1 0x20 DUP4 ADD SWAP1 POP SWAP3 SWAP2 POP POP JUMP JUMPDEST PUSH1 0x0 PUSH1 0x20 DUP3 ADD SWAP1 POP SWAP2 SWAP1 POP JUMP JUMPDEST PUSH1 0x0 PUSH2 0x2CEF DUP3 PUSH2 0x2C77 JUMP JUMPDEST PUSH2 0x2CF9 DUP2 DUP6 PUSH2 0x2C82 JUMP JUMPDEST SWAP4 POP PUSH2 0x2D04 DUP4 PUSH2 0x2C93 JUMP JUMPDEST DUP1 PUSH1 0x0 JUMPDEST DUP4 DUP2 LT ISZERO PUSH2 0x2D35 JUMPI DUP2 MLOAD PUSH2 0x2D1C DUP9 DUP3 PUSH2 0x2CBF JUMP JUMPDEST SWAP8 POP PUSH2 0x2D27 DUP4 PUSH2 0x2CD7 JUMP JUMPDEST SWAP3 POP POP PUSH1 0x1 DUP2 ADD SWAP1 POP PUSH2 0x2D08 JUMP JUMPDEST POP DUP6 SWAP4 POP POP POP POP SWAP3 SWAP2 POP POP JUMP JUMPDEST PUSH1 0x0 PUSH1 0x60 DUP3 ADD SWAP1 POP PUSH2 0x2D57 PUSH1 0x0 DUP4 ADD DUP7 PUSH2 0x2ADC JUMP JUMPDEST PUSH2 0x2D64 PUSH1 0x20 DUP4 ADD DUP6 PUSH2 0x2C68 JUMP JUMPDEST DUP2 DUP2 SUB PUSH1 0x40 DUP4 ADD MSTORE PUSH2 0x2D76 DUP2 DUP5 PUSH2 0x2CE4 JUMP JUMPDEST SWAP1 POP SWAP5 SWAP4 POP POP POP POP JUMP JUMPDEST PUSH1 0x0 PUSH20 0xFFFFFFFFFFFFFFFFFFFFFFFFFFFFFFFFFFFFFFFF DUP3 AND SWAP1 POP SWAP2 SWAP1 POP JUMP JUMPDEST PUSH1 0x0 PUSH2 0x2DAB DUP3 PUSH2 0x2D80 JUMP JUMPDEST SWAP1 POP SWAP2 SWAP1 POP JUMP JUMPDEST PUSH2 0x2DBB DUP2 PUSH2 0x2DA0 JUMP JUMPDEST DUP3 MSTORE POP POP JUMP JUMPDEST PUSH1 0x0 PUSH1 0x60 DUP3 ADD SWAP1 POP PUSH2 0x2DD6 PUSH1 0x0 DUP4 ADD DUP7 PUSH2 0x2DB2 JUMP JUMPDEST PUSH2 0x2DE3 PUSH1 0x20 DUP4 ADD DUP6 PUSH2 0x2ADC JUMP JUMPDEST PUSH2 0x2DF0 PUSH1 0x40 DUP4 ADD DUP5 PUSH2 0x2C68 JUMP JUMPDEST SWAP5 SWAP4 POP POP POP POP JUMP JUMPDEST PUSH1 0x0 PUSH1 0x20 DUP3 ADD SWAP1 POP PUSH2 0x2E0D PUSH1 0x0 DUP4 ADD DUP5 PUSH2 0x2DB2 JUMP JUMPDEST SWAP3 SWAP2 POP POP JUMP JUMPDEST PUSH1 0x0 DUP1 REVERT JUMPDEST PUSH1 0x0 PUSH1 0x1F NOT PUSH1 0x1F DUP4 ADD AND SWAP1 POP SWAP2 SWAP1 POP JUMP JUMPDEST PUSH32 0x4E487B7100000000000000000000000000000000000000000000000000000000 PUSH1 0x0 MSTORE PUSH1 0x41 PUSH1 0x4 MSTORE PUSH1 0x24 PUSH1 0x0 REVERT JUMPDEST PUSH2 0x2E61 DUP3 PUSH2 0x2E18 JUMP JUMPDEST DUP2 ADD DUP2 DUP2 LT PUSH8 0xFFFFFFFFFFFFFFFF DUP3 GT OR ISZERO PUSH2 0x2E80 JUMPI PUSH2 0x2E7F PUSH2 0x2E29 JUMP JUMPDEST JUMPDEST DUP1 PUSH1 0x40 MSTORE POP POP POP JUMP JUMPDEST PUSH1 0x0 PUSH2 0x2E93 PUSH2 0x2B93 JUMP JUMPDEST SWAP1 POP PUSH2 0x2E9F DUP3 DUP3 PUSH2 0x2E58 JUMP JUMPDEST SWAP2 SWAP1 POP JUMP JUMPDEST PUSH1 0x0 PUSH8 0xFFFFFFFFFFFFFFFF DUP3 GT ISZERO PUSH2 0x2EBF JUMPI PUSH2 0x2EBE PUSH2 0x2E29 JUMP JUMPDEST JUMPDEST PUSH1 0x20 DUP3 MUL SWAP1 POP PUSH1 0x20 DUP2 ADD SWAP1 POP SWAP2 SWAP1 POP JUMP JUMPDEST PUSH1 0x0 DUP1 REVERT JUMPDEST PUSH2 0x2EDE DUP2 PUSH2 0x2CA3 JUMP JUMPDEST DUP2 EQ PUSH2 0x2EE9 JUMPI PUSH1 0x0 DUP1 REVERT JUMPDEST POP JUMP JUMPDEST PUSH1 0x0 DUP2 CALLDATALOAD SWAP1 POP PUSH2 0x2EFB DUP2 PUSH2 0x2ED5 JUMP JUMPDEST SWAP3 SWAP2 POP POP JUMP JUMPDEST PUSH1 0x0 PUSH2 0x2F14 PUSH2 0x2F0F DUP5 PUSH2 0x2EA4 JUMP JUMPDEST PUSH2 0x2E89 JUMP JUMPDEST SWAP1 POP DUP1 DUP4 DUP3 MSTORE PUSH1 0x20 DUP3 ADD SWAP1 POP PUSH1 0x20 DUP5 MUL DUP4 ADD DUP6 DUP2 GT ISZERO PUSH2 0x2F37 JUMPI PUSH2 0x2F36 PUSH2 0x2ED0 JUMP JUMPDEST JUMPDEST DUP4 JUMPDEST DUP2 DUP2 LT ISZERO PUSH2 0x2F60 JUMPI DUP1 PUSH2 0x2F4C DUP9 DUP3 PUSH2 0x2EEC JUMP JUMPDEST DUP5 MSTORE PUSH1 0x20 DUP5 ADD SWAP4 POP POP PUSH1 0x20 DUP2 ADD SWAP1 POP PUSH2 0x2F39 JUMP JUMPDEST POP POP POP SWAP4 SWAP3 POP POP POP JUMP JUMPDEST PUSH1 0x0 DUP3 PUSH1 0x1F DUP4 ADD SLT PUSH2 0x2F7F JUMPI PUSH2 0x2F7E PUSH2 0x2E13 JUMP JUMPDEST JUMPDEST DUP2 CALLDATALOAD PUSH2 0x2F8F DUP5 DUP3 PUSH1 0x20 DUP7 ADD PUSH2 0x2F01 JUMP JUMPDEST SWAP2 POP POP SWAP3 SWAP2 POP POP JUMP JUMPDEST PUSH1 0x0 PUSH1 0x20 DUP3 DUP5 SUB SLT ISZERO PUSH2 0x2FAE JUMPI PUSH2 0x2FAD PUSH2 0x2B9D JUMP JUMPDEST JUMPDEST PUSH1 0x0 DUP3 ADD CALLDATALOAD PUSH8 0xFFFFFFFFFFFFFFFF DUP2 GT ISZERO PUSH2 0x2FCC JUMPI PUSH2 0x2FCB PUSH2 0x2BA2 JUMP JUMPDEST JUMPDEST PUSH2 0x2FD8 DUP5 DUP3 DUP6 ADD PUSH2 0x2F6A JUMP JUMPDEST SWAP2 POP POP SWAP3 SWAP2 POP POP JUMP JUMPDEST PUSH2 0x2FEA DUP2 PUSH2 0x2CA3 JUMP JUMPDEST DUP3 MSTORE POP POP JUMP JUMPDEST PUSH1 0x0 PUSH1 0x20 DUP3 ADD SWAP1 POP PUSH2 0x3005 PUSH1 0x0 DUP4 ADD DUP5 PUSH2 0x2FE1 JUMP JUMPDEST SWAP3 SWAP2 POP POP JUMP JUMPDEST PUSH1 0x0 DUP1 REVERT JUMPDEST PUSH1 0x0 DUP1 REVERT JUMPDEST PUSH2 0x301E DUP2 PUSH2 0x2DA0 JUMP JUMPDEST DUP2 EQ PUSH2 0x3029 JUMPI PUSH1 0x0 DUP1 REVERT JUMPDEST POP JUMP JUMPDEST PUSH1 0x0 DUP2 CALLDATALOAD SWAP1 POP PUSH2 0x303B DUP2 PUSH2 0x3015 JUMP JUMPDEST SWAP3 SWAP2 POP POP JUMP JUMPDEST PUSH1 0xB DUP2 LT PUSH2 0x304E JUMPI PUSH1 0x0 DUP1 REVERT JUMPDEST POP JUMP JUMPDEST PUSH1 0x0 DUP2 CALLDATALOAD SWAP1 POP PUSH2 0x3060 DUP2 PUSH2 0x3041 JUMP JUMPDEST SWAP3 SWAP2 POP POP JUMP JUMPDEST PUSH1 0x0 PUSH1 0x80 DUP3 DUP5 SUB SLT ISZERO PUSH2 0x307C JUMPI PUSH2 0x307B PUSH2 0x300B JUMP JUMPDEST JUMPDEST PUSH2 0x3086 PUSH1 0x80 PUSH2 0x2E89 JUMP JUMPDEST SWAP1 POP PUSH1 0x0 PUSH2 0x3096 DUP5 DUP3 DUP6 ADD PUSH2 0x302C JUMP JUMPDEST PUSH1 0x0 DUP4 ADD MSTORE POP PUSH1 0x20 PUSH2 0x30AA DUP5 DUP3 DUP6 ADD PUSH2 0x2BBE JUMP JUMPDEST PUSH1 0x20 DUP4 ADD MSTORE POP PUSH1 0x40 PUSH2 0x30BE DUP5 DUP3 DUP6 ADD PUSH2 0x3051 JUMP JUMPDEST PUSH1 0x40 DUP4 ADD MSTORE POP PUSH1 0x60 DUP3 ADD CALLDATALOAD PUSH8 0xFFFFFFFFFFFFFFFF DUP2 GT ISZERO PUSH2 0x30E2 JUMPI PUSH2 0x30E1 PUSH2 0x3010 JUMP JUMPDEST JUMPDEST PUSH2 0x30EE DUP5 DUP3 DUP6 ADD PUSH2 0x2F6A JUMP JUMPDEST PUSH1 0x60 DUP4 ADD MSTORE POP SWAP3 SWAP2 POP POP JUMP JUMPDEST PUSH1 0x0 DUP1 PUSH1 0x40 DUP4 DUP6 SUB SLT ISZERO PUSH2 0x3111 JUMPI PUSH2 0x3110 PUSH2 0x2B9D JUMP JUMPDEST JUMPDEST PUSH1 0x0 DUP4 ADD CALLDATALOAD PUSH8 0xFFFFFFFFFFFFFFFF DUP2 GT ISZERO PUSH2 0x312F JUMPI PUSH2 0x312E PUSH2 0x2BA2 JUMP JUMPDEST JUMPDEST PUSH2 0x313B DUP6 DUP3 DUP7 ADD PUSH2 0x3066 JUMP JUMPDEST SWAP3 POP POP PUSH1 0x20 PUSH2 0x314C DUP6 DUP3 DUP7 ADD PUSH2 0x2EEC JUMP JUMPDEST SWAP2 POP POP SWAP3 POP SWAP3 SWAP1 POP JUMP JUMPDEST PUSH1 0x0 DUP2 ISZERO ISZERO SWAP1 POP SWAP2 SWAP1 POP JUMP JUMPDEST PUSH2 0x316B DUP2 PUSH2 0x3156 JUMP JUMPDEST DUP3 MSTORE POP POP JUMP JUMPDEST PUSH1 0x0 PUSH1 0x20 DUP3 ADD SWAP1 POP PUSH2 0x3186 PUSH1 0x0 DUP4 ADD DUP5 PUSH2 0x3162 JUMP JUMPDEST SWAP3 SWAP2 POP POP JUMP JUMPDEST PUSH1 0x0 PUSH1 0x20 DUP3 DUP5 SUB SLT ISZERO PUSH2 0x31A2 JUMPI PUSH2 0x31A1 PUSH2 0x2B9D JUMP JUMPDEST JUMPDEST PUSH1 0x0 PUSH2 0x31B0 DUP5 DUP3 DUP6 ADD PUSH2 0x302C JUMP JUMPDEST SWAP2 POP POP SWAP3 SWAP2 POP POP JUMP JUMPDEST PUSH1 0x0 PUSH1 0x20 DUP3 ADD SWAP1 POP PUSH2 0x31CE PUSH1 0x0 DUP4 ADD DUP5 PUSH2 0x2C68 JUMP JUMPDEST SWAP3 SWAP2 POP POP JUMP JUMPDEST PUSH1 0x0 DUP1 PUSH1 0x40 DUP4 DUP6 SUB SLT ISZERO PUSH2 0x31EB JUMPI PUSH2 0x31EA PUSH2 0x2B9D JUMP JUMPDEST JUMPDEST PUSH1 0x0 PUSH2 0x31F9 DUP6 DUP3 DUP7 ADD PUSH2 0x2BBE JUMP JUMPDEST SWAP3 POP POP PUSH1 0x20 PUSH2 0x320A DUP6 DUP3 DUP7 ADD PUSH2 0x2BBE JUMP JUMPDEST SWAP2 POP POP SWAP3 POP SWAP3 SWAP1 POP JUMP JUMPDEST PUSH1 0x0 PUSH1 0x20 DUP3 ADD SWAP1 POP PUSH2 0x3229 PUSH1 0x0 DUP4 ADD DUP5 PUSH2 0x2ADC JUMP JUMPDEST SWAP3 SWAP2 POP POP JUMP JUMPDEST PUSH1 0x0 PUSH1 0x40 DUP3 ADD SWAP1 POP PUSH2 0x3244 PUSH1 0x0 DUP4 ADD DUP6 PUSH2 0x2DB2 JUMP JUMPDEST PUSH2 0x3251 PUSH1 0x20 DUP4 ADD DUP5 PUSH2 0x2ADC JUMP JUMPDEST SWAP4 SWAP3 POP POP POP JUMP JUMPDEST PUSH32 0x57616C6C657420616C726561647920636F6E6E65637465640000000000000000 PUSH1 0x0 DUP3 ADD MSTORE POP JUMP JUMPDEST PUSH1 0x0 PUSH2 0x328E PUSH1 0x18 DUP4 PUSH2 0x2A75 JUMP JUMPDEST SWAP2 POP PUSH2 0x3299 DUP3 PUSH2 0x3258 JUMP JUMPDEST PUSH1 0x20 DUP3 ADD SWAP1 POP SWAP2 SWAP1 POP JUMP JUMPDEST PUSH1 0x0 PUSH1 0x20 DUP3 ADD SWAP1 POP DUP2 DUP2 SUB PUSH1 0x0 DUP4 ADD MSTORE PUSH2 0x32BD DUP2 PUSH2 0x3281 JUMP JUMPDEST SWAP1 POP SWAP2 SWAP1 POP JUMP JUMPDEST PUSH32 0x496E73756666696369656E742062616C616E6365000000000000000000000000 PUSH1 0x0 DUP3 ADD MSTORE POP JUMP JUMPDEST PUSH1 0x0 PUSH2 0x32FA PUSH1 0x14 DUP4 PUSH2 0x2A75 JUMP JUMPDEST SWAP2 POP PUSH2 0x3305 DUP3 PUSH2 0x32C4 JUMP JUMPDEST PUSH1 0x20 DUP3 ADD SWAP1 POP SWAP2 SWAP1 POP JUMP JUMPDEST PUSH1 0x0 PUSH1 0x20 DUP3 ADD SWAP1 POP DUP2 DUP2 SUB PUSH1 0x0 DUP4 ADD MSTORE PUSH2 0x3329 DUP2 PUSH2 0x32ED JUMP JUMPDEST SWAP1 POP SWAP2 SWAP1 POP JUMP JUMPDEST PUSH32 0x4E487B7100000000000000000000000000000000000000000000000000000000 PUSH1 0x0 MSTORE PUSH1 0x11 PUSH1 0x4 MSTORE PUSH1 0x24 PUSH1 0x0 REVERT JUMPDEST PUSH1 0x0 PUSH2 0x336A DUP3 PUSH2 0x2AD2 JUMP JUMPDEST SWAP2 POP PUSH2 0x3375 DUP4 PUSH2 0x2AD2 JUMP JUMPDEST SWAP3 POP DUP3 DUP3 SUB SWAP1 POP DUP2 DUP2 GT ISZERO PUSH2 0x338D JUMPI PUSH2 0x338C PUSH2 0x3330 JUMP JUMPDEST JUMPDEST SWAP3 SWAP2 POP POP JUMP JUMPDEST PUSH32 0x42657420616D6F756E74206D7573742062652067726561746572207468616E20 PUSH1 0x0 DUP3 ADD MSTORE PUSH32 0x3000000000000000000000000000000000000000000000000000000000000000 PUSH1 0x20 DUP3 ADD MSTORE POP JUMP JUMPDEST PUSH1 0x0 PUSH2 0x33EF PUSH1 0x21 DUP4 PUSH2 0x2A75 JUMP JUMPDEST SWAP2 POP PUSH2 0x33FA DUP3 PUSH2 0x3393 JUMP JUMPDEST PUSH1 0x40 DUP3 ADD SWAP1 POP SWAP2 SWAP1 POP JUMP JUMPDEST PUSH1 0x0 PUSH1 0x20 DUP3 ADD SWAP1 POP DUP2 DUP2 SUB PUSH1 0x0 DUP4 ADD MSTORE PUSH2 0x341E DUP2 PUSH2 0x33E2 JUMP JUMPDEST SWAP1 POP SWAP2 SWAP1 POP JUMP JUMPDEST PUSH32 0x4D7573742073706563696679206265742063686F696365730000000000000000 PUSH1 0x0 DUP3 ADD MSTORE POP JUMP JUMPDEST PUSH1 0x0 PUSH2 0x345B PUSH1 0x18 DUP4 PUSH2 0x2A75 JUMP JUMPDEST SWAP2 POP PUSH2 0x3466 DUP3 PUSH2 0x3425 JUMP JUMPDEST PUSH1 0x20 DUP3 ADD SWAP1 POP SWAP2 SWAP1 POP JUMP JUMPDEST PUSH1 0x0 PUSH1 0x20 DUP3 ADD SWAP1 POP DUP2 DUP2 SUB PUSH1 0x0 DUP4 ADD MSTORE PUSH2 0x348A DUP2 PUSH2 0x344E JUMP JUMPDEST SWAP1 POP SWAP2 SWAP1 POP JUMP JUMPDEST PUSH32 0x4E487B7100000000000000000000000000000000000000000000000000000000 PUSH1 0x0 MSTORE PUSH1 0x32 PUSH1 0x4 MSTORE PUSH1 0x24 PUSH1 0x0 REVERT JUMPDEST PUSH32 0x53696E676C652063686F6963652076616C756500000000000000000000000000 PUSH1 0x0 DUP3 ADD MSTORE POP JUMP JUMPDEST PUSH1 0x0 PUSH2 0x34F6 PUSH1 0x13 DUP4 PUSH2 0x2A75 JUMP JUMPDEST SWAP2 POP PUSH2 0x3501 DUP3 PUSH2 0x34C0 JUMP JUMPDEST PUSH1 0x20 DUP3 ADD SWAP1 POP SWAP2 SWAP1 POP JUMP JUMPDEST PUSH1 0x0 DUP2 SWAP1 POP SWAP2 SWAP1 POP JUMP JUMPDEST PUSH1 0x0 PUSH2 0x3531 PUSH2 0x352C PUSH2 0x3527 DUP5 PUSH2 0x2CA3 JUMP JUMPDEST PUSH2 0x350C JUMP JUMPDEST PUSH2 0x2AD2 JUMP JUMPDEST SWAP1 POP SWAP2 SWAP1 POP JUMP JUMPDEST PUSH2 0x3541 DUP2 PUSH2 0x3516 JUMP JUMPDEST DUP3 MSTORE POP POP JUMP JUMPDEST PUSH1 0x0 PUSH1 0x40 DUP3 ADD SWAP1 POP DUP2 DUP2 SUB PUSH1 0x0 DUP4 ADD MSTORE PUSH2 0x3560 DUP2 PUSH2 0x34E9 JUMP JUMPDEST SWAP1 POP PUSH2 0x356F PUSH1 0x20 DUP4 ADD DUP5 PUSH2 0x3538 JUMP JUMPDEST SWAP3 SWAP2 POP POP JUMP JUMPDEST PUSH32 0x53657420626574207479706520746F2053696E676C6500000000000000000000 PUSH1 0x0 DUP3 ADD MSTORE POP JUMP JUMPDEST PUSH1 0x0 PUSH2 0x35AB PUSH1 0x16 DUP4 PUSH2 0x2A75 JUMP JUMPDEST SWAP2 POP PUSH2 0x35B6 DUP3 PUSH2 0x3575 JUMP JUMPDEST PUSH1 0x20 DUP3 ADD SWAP1 POP SWAP2 SWAP1 POP JUMP JUMPDEST PUSH1 0x0 PUSH1 0x40 DUP3 ADD SWAP1 POP DUP2 DUP2 SUB PUSH1 0x0 DUP4 ADD MSTORE PUSH2 0x35DA DUP2 PUSH2 0x359E JUMP JUMPDEST SWAP1 POP PUSH2 0x35E9 PUSH1 0x20 DUP4 ADD DUP5 PUSH2 0x2ADC JUMP JUMPDEST SWAP3 SWAP2 POP POP JUMP JUMPDEST PUSH32 0x53657420626574207479706520746F20526564426C61636B2028526564290000 PUSH1 0x0 DUP3 ADD MSTORE POP JUMP JUMPDEST PUSH1 0x0 PUSH2 0x3625 PUSH1 0x1E DUP4 PUSH2 0x2A75 JUMP JUMPDEST SWAP2 POP PUSH2 0x3630 DUP3 PUSH2 0x35EF JUMP JUMPDEST PUSH1 0x20 DUP3 ADD SWAP1 POP SWAP2 SWAP1 POP JUMP JUMPDEST PUSH1 0x0 DUP2 SWAP1 POP SWAP2 SWAP1 POP JUMP JUMPDEST PUSH1 0x0 PUSH2 0x3660 PUSH2 0x365B PUSH2 0x3656 DUP5 PUSH2 0x363B JUMP JUMPDEST PUSH2 0x350C JUMP JUMPDEST PUSH2 0x2AD2 JUMP JUMPDEST SWAP1 POP SWAP2 SWAP1 POP JUMP JUMPDEST PUSH2 0x3670 DUP2 PUSH2 0x3645 JUMP JUMPDEST DUP3 MSTORE POP POP JUMP JUMPDEST PUSH1 0x0 PUSH1 0x40 DUP3 ADD SWAP1 POP DUP2 DUP2 SUB PUSH1 0x0 DUP4 ADD MSTORE PUSH2 0x368F DUP2 PUSH2 0x3618 JUMP JUMPDEST SWAP1 POP PUSH2 0x369E PUSH1 0x20 DUP4 ADD DUP5 PUSH2 0x3667 JUMP JUMPDEST SWAP3 SWAP2 POP POP JUMP JUMPDEST PUSH32 0x53657420626574207479706520746F20526564426C61636B2028426C61636B29 PUSH1 0x0 DUP3 ADD MSTORE POP JUMP JUMPDEST PUSH1 0x0 PUSH2 0x36DA PUSH1 0x20 DUP4 PUSH2 0x2A75 JUMP JUMPDEST SWAP2 POP PUSH2 0x36E5 DUP3 PUSH2 0x36A4 JUMP JUMPDEST PUSH1 0x20 DUP3 ADD SWAP1 POP SWAP2 SWAP1 POP JUMP JUMPDEST PUSH1 0x0 DUP2 SWAP1 POP SWAP2 SWAP1 POP JUMP JUMPDEST PUSH1 0x0 PUSH2 0x3715 PUSH2 0x3710 PUSH2 0x370B DUP5 PUSH2 0x36F0 JUMP JUMPDEST PUSH2 0x350C JUMP JUMPDEST PUSH2 0x2AD2 JUMP JUMPDEST SWAP1 POP SWAP2 SWAP1 POP JUMP JUMPDEST PUSH2 0x3725 DUP2 PUSH2 0x36FA JUMP JUMPDEST DUP3 MSTORE POP POP JUMP JUMPDEST PUSH1 0x0 PUSH1 0x40 DUP3 ADD SWAP1 POP DUP2 DUP2 SUB PUSH1 0x0 DUP4 ADD MSTORE PUSH2 0x3744 DUP2 PUSH2 0x36CD JUMP JUMPDEST SWAP1 POP PUSH2 0x3753 PUSH1 0x20 DUP4 ADD DUP5 PUSH2 0x371C JUMP JUMPDEST SWAP3 SWAP2 POP POP JUMP JUMPDEST PUSH32 0x53657420626574207479706520746F204576656E4F646420284576656E290000 PUSH1 0x0 DUP3 ADD MSTORE POP JUMP JUMPDEST PUSH1 0x0 PUSH2 0x378F PUSH1 0x1E DUP4 PUSH2 0x2A75 JUMP JUMPDEST SWAP2 POP PUSH2 0x379A DUP3 PUSH2 0x3759 JUMP JUMPDEST PUSH1 0x20 DUP3 ADD SWAP1 POP SWAP2 SWAP1 POP JUMP JUMPDEST PUSH1 0x0 PUSH1 0x40 DUP3 ADD SWAP1 POP DUP2 DUP2 SUB PUSH1 0x0 DUP4 ADD MSTORE PUSH2 0x37BE DUP2 PUSH2 0x3782 JUMP JUMPDEST SWAP1 POP PUSH2 0x37CD PUSH1 0x20 DUP4 ADD DUP5 PUSH2 0x3667 JUMP JUMPDEST SWAP3 SWAP2 POP POP JUMP JUMPDEST PUSH32 0x53657420626574207479706520746F204576656E4F646420284F646429000000 PUSH1 0x0 DUP3 ADD MSTORE POP JUMP JUMPDEST PUSH1 0x0 PUSH2 0x3809 PUSH1 0x1D DUP4 PUSH2 0x2A75 JUMP JUMPDEST SWAP2 POP PUSH2 0x3814 DUP3 PUSH2 0x37D3 JUMP JUMPDEST PUSH1 0x20 DUP3 ADD SWAP1 POP SWAP2 SWAP1 POP JUMP JUMPDEST PUSH1 0x0 PUSH1 0x40 DUP3 ADD SWAP1 POP DUP2 DUP2 SUB PUSH1 0x0 DUP4 ADD MSTORE PUSH2 0x3838 DUP2 PUSH2 0x37FC JUMP JUMPDEST SWAP1 POP PUSH2 0x3847 PUSH1 0x20 DUP4 ADD DUP5 PUSH2 0x371C JUMP JUMPDEST SWAP3 SWAP2 POP POP JUMP JUMPDEST PUSH32 0x53657420626574207479706520746F204C6F774869676820284C6F7729000000 PUSH1 0x0 DUP3 ADD MSTORE POP JUMP JUMPDEST PUSH1 0x0 PUSH2 0x3883 PUSH1 0x1D DUP4 PUSH2 0x2A75 JUMP JUMPDEST SWAP2 POP PUSH2 0x388E DUP3 PUSH2 0x384D JUMP JUMPDEST PUSH1 0x20 DUP3 ADD SWAP1 POP SWAP2 SWAP1 POP JUMP JUMPDEST PUSH1 0x0 PUSH1 0x40 DUP3 ADD SWAP1 POP DUP2 DUP2 SUB PUSH1 0x0 DUP4 ADD MSTORE PUSH2 0x38B2 DUP2 PUSH2 0x3876 JUMP JUMPDEST SWAP1 POP PUSH2 0x38C1 PUSH1 0x20 DUP4 ADD DUP5 PUSH2 0x3667 JUMP JUMPDEST SWAP3 SWAP2 POP POP JUMP JUMPDEST PUSH32 0x53657420626574207479706520746F204C6F7748696768202848696768290000 PUSH1 0x0 DUP3 ADD MSTORE POP JUMP JUMPDEST PUSH1 0x0 PUSH2 0x38FD PUSH1 0x1E DUP4 PUSH2 0x2A75 JUMP JUMPDEST SWAP2 POP PUSH2 0x3908 DUP3 PUSH2 0x38C7 JUMP JUMPDEST PUSH1 0x20 DUP3 ADD SWAP1 POP SWAP2 SWAP1 POP JUMP JUMPDEST PUSH1 0x0 PUSH1 0x40 DUP3 ADD SWAP1 POP DUP2 DUP2 SUB PUSH1 0x0 DUP4 ADD MSTORE PUSH2 0x392C DUP2 PUSH2 0x38F0 JUMP JUMPDEST SWAP1 POP PUSH2 0x393B PUSH1 0x20 DUP4 ADD DUP5 PUSH2 0x371C JUMP JUMPDEST SWAP3 SWAP2 POP POP JUMP JUMPDEST PUSH32 0x496E76616C6964206E756D626572206F662063686F6963657300000000000000 PUSH1 0x0 DUP3 ADD MSTORE POP JUMP JUMPDEST PUSH1 0x0 PUSH2 0x3977 PUSH1 0x19 DUP4 PUSH2 0x2A75 JUMP JUMPDEST SWAP2 POP PUSH2 0x3982 DUP3 PUSH2 0x3941 JUMP JUMPDEST PUSH1 0x20 DUP3 ADD SWAP1 POP SWAP2 SWAP1 POP JUMP JUMPDEST PUSH1 0x0 PUSH1 0x20 DUP3 ADD SWAP1 POP DUP2 DUP2 SUB PUSH1 0x0 DUP4 ADD MSTORE PUSH2 0x39A6 DUP2 PUSH2 0x396A JUMP JUMPDEST SWAP1 POP SWAP2 SWAP1 POP JUMP JUMPDEST PUSH1 0x0 DUP2 MLOAD SWAP1 POP SWAP2 SWAP1 POP JUMP JUMPDEST PUSH1 0x0 DUP2 SWAP1 POP SWAP3 SWAP2 POP POP JUMP JUMPDEST PUSH1 0x0 JUMPDEST DUP4 DUP2 LT ISZERO PUSH2 0x39E1 JUMPI DUP1 DUP3 ADD MLOAD DUP2 DUP5 ADD MSTORE PUSH1 0x20 DUP2 ADD SWAP1 POP PUSH2 0x39C6 JUMP JUMPDEST PUSH1 0x0 DUP5 DUP5 ADD MSTORE POP POP POP POP JUMP JUMPDEST PUSH1 0x0 PUSH2 0x39F8 DUP3 PUSH2 0x39AD JUMP JUMPDEST PUSH2 0x3A02 DUP2 DUP6 PUSH2 0x39B8 JUMP JUMPDEST SWAP4 POP PUSH2 0x3A12 DUP2 DUP6 PUSH1 0x20 DUP7 ADD PUSH2 0x39C3 JUMP JUMPDEST DUP1 DUP5 ADD SWAP2 POP POP SWAP3 SWAP2 POP POP JUMP JUMPDEST PUSH1 0x0 PUSH2 0x3A2A DUP3 DUP5 PUSH2 0x39ED JUMP JUMPDEST SWAP2 POP DUP2 SWAP1 POP SWAP3 SWAP2 POP POP JUMP JUMPDEST PUSH32 0x4661696C656420746F2068616E646C65206265742077697468204163636F756E PUSH1 0x0 DUP3 ADD MSTORE PUSH32 0x744D616E61676572000000000000000000000000000000000000000000000000 PUSH1 0x20 DUP3 ADD MSTORE POP JUMP JUMPDEST PUSH1 0x0 PUSH2 0x3A91 PUSH1 0x28 DUP4 PUSH2 0x2A75 JUMP JUMPDEST SWAP2 POP PUSH2 0x3A9C DUP3 PUSH2 0x3A35 JUMP JUMPDEST PUSH1 0x40 DUP3 ADD SWAP1 POP SWAP2 SWAP1 POP JUMP JUMPDEST PUSH1 0x0 PUSH1 0x20 DUP3 ADD SWAP1 POP DUP2 DUP2 SUB PUSH1 0x0 DUP4 ADD MSTORE PUSH2 0x3AC0 DUP2 PUSH2 0x3A84 JUMP JUMPDEST SWAP1 POP SWAP2 SWAP1 POP JUMP JUMPDEST PUSH32 0x4661696C656420746F207570646174652077696E6E65722062616C616E636500 PUSH1 0x0 DUP3 ADD MSTORE POP JUMP JUMPDEST PUSH1 0x0 PUSH2 0x3AFD PUSH1 0x1F DUP4 PUSH2 0x2A75 JUMP JUMPDEST SWAP2 POP PUSH2 0x3B08 DUP3 PUSH2 0x3AC7 JUMP JUMPDEST PUSH1 0x20 DUP3 ADD SWAP1 POP SWAP2 SWAP1 POP JUMP JUMPDEST PUSH1 0x0 PUSH1 0x20 DUP3 ADD SWAP1 POP DUP2 DUP2 SUB PUSH1 0x0 DUP4 ADD MSTORE PUSH2 0x3B2C DUP2 PUSH2 0x3AF0 JUMP JUMPDEST SWAP1 POP SWAP2 SWAP1 POP JUMP JUMPDEST PUSH32 0x57696E20616D6F756E7420616464656400000000000000000000000000000000 PUSH1 0x0 DUP3 ADD MSTORE POP JUMP JUMPDEST PUSH1 0x0 PUSH2 0x3B69 PUSH1 0x10 DUP4 PUSH2 0x2A75 JUMP JUMPDEST SWAP2 POP PUSH2 0x3B74 DUP3 PUSH2 0x3B33 JUMP JUMPDEST PUSH1 0x20 DUP3 ADD SWAP1 POP SWAP2 SWAP1 POP JUMP JUMPDEST PUSH1 0x0 PUSH1 0x40 DUP3 ADD SWAP1 POP DUP2 DUP2 SUB PUSH1 0x0 DUP4 ADD MSTORE PUSH2 0x3B98 DUP2 PUSH2 0x3B5C JUMP JUMPDEST SWAP1 POP PUSH2 0x3BA7 PUSH1 0x20 DUP4 ADD DUP5 PUSH2 0x2ADC JUMP JUMPDEST SWAP3 SWAP2 POP POP JUMP JUMPDEST PUSH32 0x4661696C656420746F2073756274726163742062657420616D6F756E74000000 PUSH1 0x0 DUP3 ADD MSTORE POP JUMP JUMPDEST PUSH1 0x0 PUSH2 0x3BE3 PUSH1 0x1D DUP4 PUSH2 0x2A75 JUMP JUMPDEST SWAP2 POP PUSH2 0x3BEE DUP3 PUSH2 0x3BAD JUMP JUMPDEST PUSH1 0x20 DUP3 ADD SWAP1 POP SWAP2 SWAP1 POP JUMP JUMPDEST PUSH1 0x0 PUSH1 0x20 DUP3 ADD SWAP1 POP DUP2 DUP2 SUB PUSH1 0x0 DUP4 ADD MSTORE PUSH2 0x3C12 DUP2 PUSH2 0x3BD6 JUMP JUMPDEST SWAP1 POP SWAP2 SWAP1 POP JUMP JUMPDEST PUSH32 0x42657420616D6F756E7420737562747261637465640000000000000000000000 PUSH1 0x0 DUP3 ADD MSTORE POP JUMP JUMPDEST PUSH1 0x0 PUSH2 0x3C4F PUSH1 0x15 DUP4 PUSH2 0x2A75 JUMP JUMPDEST SWAP2 POP PUSH2 0x3C5A DUP3 PUSH2 0x3C19 JUMP JUMPDEST PUSH1 0x20 DUP3 ADD SWAP1 POP SWAP2 SWAP1 POP JUMP JUMPDEST PUSH1 0x0 PUSH1 0x40 DUP3 ADD SWAP1 POP DUP2 DUP2 SUB PUSH1 0x0 DUP4 ADD MSTORE PUSH2 0x3C7E DUP2 PUSH2 0x3C42 JUMP JUMPDEST SWAP1 POP PUSH2 0x3C8D PUSH1 0x20 DUP4 ADD DUP5 PUSH2 0x2ADC JUMP JUMPDEST SWAP3 SWAP2 POP POP JUMP JUMPDEST PUSH32 0x47656E65726174656420726573756C7400000000000000000000000000000000 PUSH1 0x0 DUP3 ADD MSTORE POP JUMP JUMPDEST PUSH1 0x0 PUSH2 0x3CC9 PUSH1 0x10 DUP4 PUSH2 0x2A75 JUMP JUMPDEST SWAP2 POP PUSH2 0x3CD4 DUP3 PUSH2 0x3C93 JUMP JUMPDEST PUSH1 0x20 DUP3 ADD SWAP1 POP SWAP2 SWAP1 POP JUMP JUMPDEST PUSH1 0x0 PUSH1 0x40 DUP3 ADD SWAP1 POP DUP2 DUP2 SUB PUSH1 0x0 DUP4 ADD MSTORE PUSH2 0x3CF8 DUP2 PUSH2 0x3CBC JUMP JUMPDEST SWAP1 POP PUSH2 0x3D07 PUSH1 0x20 DUP4 ADD DUP5 PUSH2 0x3538 JUMP JUMPDEST SWAP3 SWAP2 POP POP JUMP JUMPDEST PUSH32 0x46696E616C206265742074797065000000000000000000000000000000000000 PUSH1 0x0 DUP3 ADD MSTORE POP JUMP JUMPDEST PUSH1 0x0 PUSH2 0x3D43 PUSH1 0xE DUP4 PUSH2 0x2A75 JUMP JUMPDEST SWAP2 POP PUSH2 0x3D4E DUP3 PUSH2 0x3D0D JUMP JUMPDEST PUSH1 0x20 DUP3 ADD SWAP1 POP SWAP2 SWAP1 POP JUMP JUMPDEST PUSH1 0x0 PUSH1 0x40 DUP3 ADD SWAP1 POP DUP2 DUP2 SUB PUSH1 0x0 DUP4 ADD MSTORE PUSH2 0x3D72 DUP2 PUSH2 0x3D36 JUMP JUMPDEST SWAP1 POP PUSH2 0x3D81 PUSH1 0x20 DUP4 ADD DUP5 PUSH2 0x2ADC JUMP JUMPDEST SWAP3 SWAP2 POP POP JUMP JUMPDEST PUSH32 0x506C617965722063686F69636500000000000000000000000000000000000000 PUSH1 0x0 DUP3 ADD MSTORE POP JUMP JUMPDEST PUSH1 0x0 PUSH2 0x3DBD PUSH1 0xD DUP4 PUSH2 0x2A75 JUMP JUMPDEST SWAP2 POP PUSH2 0x3DC8 DUP3 PUSH2 0x3D87 JUMP JUMPDEST PUSH1 0x20 DUP3 ADD SWAP1 POP SWAP2 SWAP1 POP JUMP JUMPDEST PUSH1 0x0 PUSH1 0x40 DUP3 ADD SWAP1 POP DUP2 DUP2 SUB PUSH1 0x0 DUP4 ADD MSTORE PUSH2 0x3DEC DUP2 PUSH2 0x3DB0 JUMP JUMPDEST SWAP1 POP PUSH2 0x3DFB PUSH1 0x20 DUP4 ADD DUP5 PUSH2 0x3538 JUMP JUMPDEST SWAP3 SWAP2 POP POP JUMP JUMPDEST PUSH1 0x0 PUSH1 0x80 DUP3 ADD SWAP1 POP PUSH2 0x3E16 PUSH1 0x0 DUP4 ADD DUP8 PUSH2 0x2ADC JUMP JUMPDEST PUSH2 0x3E23 PUSH1 0x20 DUP4 ADD DUP7 PUSH2 0x2C68 JUMP JUMPDEST DUP2 DUP2 SUB PUSH1 0x40 DUP4 ADD MSTORE PUSH2 0x3E35 DUP2 DUP6 PUSH2 0x2CE4 JUMP JUMPDEST SWAP1 POP PUSH2 0x3E44 PUSH1 0x60 DUP4 ADD DUP5 PUSH2 0x2ADC JUMP JUMPDEST SWAP6 SWAP5 POP POP POP POP POP JUMP JUMPDEST PUSH1 0x0 PUSH1 0x40 DUP3 ADD SWAP1 POP PUSH2 0x3E62 PUSH1 0x0 DUP4 ADD DUP6 PUSH2 0x2ADC JUMP JUMPDEST PUSH2 0x3E6F PUSH1 0x20 DUP4 ADD DUP5 PUSH2 0x2FE1 JUMP JUMPDEST SWAP4 SWAP3 POP POP POP JUMP JUMPDEST PUSH1 0x0 PUSH1 0xA0 DUP3 ADD SWAP1 POP PUSH2 0x3E8B PUSH1 0x0 DUP4 ADD DUP9 PUSH2 0x2FE1 JUMP JUMPDEST PUSH2 0x3E98 PUSH1 0x20 DUP4 ADD DUP8 PUSH2 0x2ADC JUMP JUMPDEST PUSH2 0x3EA5 PUSH1 0x40 DUP4 ADD DUP7 PUSH2 0x2ADC JUMP JUMPDEST PUSH2 0x3EB2 PUSH1 0x60 DUP4 ADD DUP6 PUSH2 0x3162 JUMP JUMPDEST DUP2 DUP2 SUB PUSH1 0x80 DUP4 ADD MSTORE PUSH2 0x3EC4 DUP2 DUP5 PUSH2 0x2CE4 JUMP JUMPDEST SWAP1 POP SWAP7 SWAP6 POP POP POP POP POP POP JUMP JUMPDEST PUSH1 0x0 PUSH2 0x3EDB DUP3 PUSH2 0x2AD2 JUMP JUMPDEST SWAP2 POP PUSH32 0xFFFFFFFFFFFFFFFFFFFFFFFFFFFFFFFFFFFFFFFFFFFFFFFFFFFFFFFFFFFFFFFF DUP3 SUB PUSH2 0x3F0D JUMPI PUSH2 0x3F0C PUSH2 0x3330 JUMP JUMPDEST JUMPDEST PUSH1 0x1 DUP3 ADD SWAP1 POP SWAP2 SWAP1 POP JUMP JUMPDEST PUSH32 0x3D3D3D2057494E20434845434B205354415254203D3D3D000000000000000000 PUSH1 0x0 DUP3 ADD MSTORE POP JUMP JUMPDEST PUSH1 0x0 PUSH2 0x3F4E PUSH1 0x17 DUP4 PUSH2 0x2A75 JUMP JUMPDEST SWAP2 POP PUSH2 0x3F59 DUP3 PUSH2 0x3F18 JUMP JUMPDEST PUSH1 0x20 DUP3 ADD SWAP1 POP SWAP2 SWAP1 POP JUMP JUMPDEST PUSH1 0x0 PUSH1 0x40 DUP3 ADD SWAP1 POP DUP2 DUP2 SUB PUSH1 0x0 DUP4 ADD MSTORE PUSH2 0x3F7D DUP2 PUSH2 0x3F41 JUMP JUMPDEST SWAP1 POP PUSH2 0x3F8C PUSH1 0x20 DUP4 ADD DUP5 PUSH2 0x371C JUMP JUMPDEST SWAP3 SWAP2 POP POP JUMP JUMPDEST PUSH32 0x4265742074797065000000000000000000000000000000000000000000000000 PUSH1 0x0 DUP3 ADD MSTORE POP JUMP JUMPDEST PUSH1 0x0 PUSH2 0x3FC8 PUSH1 0x8 DUP4 PUSH2 0x2A75 JUMP JUMPDEST SWAP2 POP PUSH2 0x3FD3 DUP3 PUSH2 0x3F92 JUMP JUMPDEST PUSH1 0x20 DUP3 ADD SWAP1 POP SWAP2 SWAP1 POP JUMP JUMPDEST PUSH1 0x0 PUSH1 0x40 DUP3 ADD SWAP1 POP DUP2 DUP2 SUB PUSH1 0x0 DUP4 ADD MSTORE PUSH2 0x3FF7 DUP2 PUSH2 0x3FBB JUMP JUMPDEST SWAP1 POP PUSH2 0x4006 PUSH1 0x20 DUP4 ADD DUP5 PUSH2 0x2ADC JUMP JUMPDEST SWAP3 SWAP2 POP POP JUMP JUMPDEST PUSH32 0x5370696E20726573756C74000000000000000000000000000000000000000000 PUSH1 0x0 DUP3 ADD MSTORE POP JUMP JUMPDEST PUSH1 0x0 PUSH2 0x4042 PUSH1 0xB DUP4 PUSH2 0x2A75 JUMP JUMPDEST SWAP2 POP PUSH2 0x404D DUP3 PUSH2 0x400C JUMP JUMPDEST PUSH1 0x20 DUP3 ADD SWAP1 POP SWAP2 SWAP1 POP JUMP JUMPDEST PUSH1 0x0 PUSH1 0x40 DUP3 ADD SWAP1 POP DUP2 DUP2 SUB PUSH1 0x0 DUP4 ADD MSTORE PUSH2 0x4071 DUP2 PUSH2 0x4035 JUMP JUMPDEST SWAP1 POP PUSH2 0x4080 PUSH1 0x20 DUP4 ADD DUP5 PUSH2 0x3538 JUMP JUMPDEST SWAP3 SWAP2 POP POP JUMP JUMPDEST PUSH32 0x526573756C74206E756D62657200000000000000000000000000000000000000 PUSH1 0x0 DUP3 ADD MSTORE POP JUMP JUMPDEST PUSH1 0x0 PUSH2 0x40BC PUSH1 0xD DUP4 PUSH2 0x2A75 JUMP JUMPDEST SWAP2 POP PUSH2 0x40C7 DUP3 PUSH2 0x4086 JUMP JUMPDEST PUSH1 0x20 DUP3 ADD SWAP1 POP SWAP2 SWAP1 POP JUMP JUMPDEST PUSH1 0x0 PUSH1 0x40 DUP3 ADD SWAP1 POP DUP2 DUP2 SUB PUSH1 0x0 DUP4 ADD MSTORE PUSH2 0x40EB DUP2 PUSH2 0x40AF JUMP JUMPDEST SWAP1 POP PUSH2 0x40FA PUSH1 0x20 DUP4 ADD DUP5 PUSH2 0x3538 JUMP JUMPDEST SWAP3 SWAP2 POP POP JUMP JUMPDEST PUSH32 0x497320726573756C74207265643F000000000000000000000000000000000000 PUSH1 0x0 DUP3 ADD MSTORE POP JUMP JUMPDEST PUSH1 0x0 PUSH2 0x4136 PUSH1 0xE DUP4 PUSH2 0x2A75 JUMP JUMPDEST SWAP2 POP PUSH2 0x4141 DUP3 PUSH2 0x4100 JUMP JUMPDEST PUSH1 0x20 DUP3 ADD SWAP1 POP SWAP2 SWAP1 POP JUMP JUMPDEST PUSH1 0x0 PUSH1 0x40 DUP3 ADD SWAP1 POP DUP2 DUP2 SUB PUSH1 0x0 DUP4 ADD MSTORE PUSH2 0x4165 DUP2 PUSH2 0x4129 JUMP JUMPDEST SWAP1 POP PUSH2 0x4174 PUSH1 0x20 DUP4 ADD DUP5 PUSH2 0x3538 JUMP JUMPDEST SWAP3 SWAP2 POP POP JUMP JUMPDEST PUSH32 0x44696420706C617965722063686F6F7365207265643F00000000000000000000 PUSH1 0x0 DUP3 ADD MSTORE POP JUMP JUMPDEST PUSH1 0x0 PUSH2 0x41B0 PUSH1 0x16 DUP4 PUSH2 0x2A75 JUMP JUMPDEST SWAP2 POP PUSH2 0x41BB DUP3 PUSH2 0x417A JUMP JUMPDEST PUSH1 0x20 DUP3 ADD SWAP1 POP SWAP2 SWAP1 POP JUMP JUMPDEST PUSH1 0x0 PUSH1 0x40 DUP3 ADD SWAP1 POP DUP2 DUP2 SUB PUSH1 0x0 DUP4 ADD MSTORE PUSH2 0x41DF DUP2 PUSH2 0x41A3 JUMP JUMPDEST SWAP1 POP PUSH2 0x41EE PUSH1 0x20 DUP4 ADD DUP5 PUSH2 0x3538 JUMP JUMPDEST SWAP3 SWAP2 POP POP JUMP JUMPDEST PUSH32 0x5265642F426C61636B2077696E20636865636B00000000000000000000000000 PUSH1 0x0 DUP3 ADD MSTORE POP JUMP JUMPDEST PUSH1 0x0 PUSH2 0x422A PUSH1 0x13 DUP4 PUSH2 0x2A75 JUMP JUMPDEST SWAP2 POP PUSH2 0x4235 DUP3 PUSH2 0x41F4 JUMP JUMPDEST PUSH1 0x20 DUP3 ADD SWAP1 POP SWAP2 SWAP1 POP JUMP JUMPDEST PUSH1 0x0 PUSH1 0x40 DUP3 ADD SWAP1 POP DUP2 DUP2 SUB PUSH1 0x0 DUP4 ADD MSTORE PUSH2 0x4259 DUP2 PUSH2 0x421D JUMP JUMPDEST SWAP1 POP PUSH2 0x4268 PUSH1 0x20 DUP4 ADD DUP5 PUSH2 0x3538 JUMP JUMPDEST SWAP3 SWAP2 POP POP JUMP JUMPDEST PUSH32 0x3D3D3D2057494E20434845434B20454E44203D3D3D0000000000000000000000 PUSH1 0x0 DUP3 ADD MSTORE POP JUMP JUMPDEST PUSH1 0x0 PUSH2 0x42A4 PUSH1 0x15 DUP4 PUSH2 0x2A75 JUMP JUMPDEST SWAP2 POP PUSH2 0x42AF DUP3 PUSH2 0x426E JUMP JUMPDEST PUSH1 0x20 DUP3 ADD SWAP1 POP SWAP2 SWAP1 POP JUMP JUMPDEST PUSH1 0x0 PUSH1 0x40 DUP3 ADD SWAP1 POP DUP2 DUP2 SUB PUSH1 0x0 DUP4 ADD MSTORE PUSH2 0x42D3 DUP2 PUSH2 0x4297 JUMP JUMPDEST SWAP1 POP PUSH2 0x42E2 PUSH1 0x20 DUP4 ADD DUP5 PUSH2 0x3538 JUMP JUMPDEST SWAP3 SWAP2 POP POP JUMP JUMPDEST PUSH32 0x53696E676C65206E756D62657220636F6D70617269736F6E0000000000000000 PUSH1 0x0 DUP3 ADD MSTORE POP JUMP JUMPDEST PUSH1 0x0 PUSH2 0x431E PUSH1 0x18 DUP4 PUSH2 0x2A75 JUMP JUMPDEST SWAP2 POP PUSH2 0x4329 DUP3 PUSH2 0x42E8 JUMP JUMPDEST PUSH1 0x20 DUP3 ADD SWAP1 POP SWAP2 SWAP1 POP JUMP JUMPDEST PUSH1 0x0 PUSH1 0x40 DUP3 ADD SWAP1 POP DUP2 DUP2 SUB PUSH1 0x0 DUP4 ADD MSTORE PUSH2 0x434D DUP2 PUSH2 0x4311 JUMP JUMPDEST SWAP1 POP PUSH2 0x435C PUSH1 0x20 DUP4 ADD DUP5 PUSH2 0x3538 JUMP JUMPDEST SWAP3 SWAP2 POP POP JUMP JUMPDEST PUSH32 0x4E487B7100000000000000000000000000000000000000000000000000000000 PUSH1 0x0 MSTORE PUSH1 0x12 PUSH1 0x4 MSTORE PUSH1 0x24 PUSH1 0x0 REVERT JUMPDEST PUSH1 0x0 PUSH2 0x439C DUP3 PUSH2 0x2CA3 JUMP JUMPDEST SWAP2 POP PUSH2 0x43A7 DUP4 PUSH2 0x2CA3 JUMP JUMPDEST SWAP3 POP DUP3 PUSH2 0x43B7 JUMPI PUSH2 0x43B6 PUSH2 0x4362 JUMP JUMPDEST JUMPDEST DUP3 DUP3 MOD SWAP1 POP SWAP3 SWAP2 POP POP JUMP JUMPDEST PUSH32 0x497320726573756C74206576656E3F0000000000000000000000000000000000 PUSH1 0x0 DUP3 ADD MSTORE POP JUMP JUMPDEST PUSH1 0x0 PUSH2 0x43F8 PUSH1 0xF DUP4 PUSH2 0x2A75 JUMP JUMPDEST SWAP2 POP PUSH2 0x4403 DUP3 PUSH2 0x43C2 JUMP JUMPDEST PUSH1 0x20 DUP3 ADD SWAP1 POP SWAP2 SWAP1 POP JUMP JUMPDEST PUSH1 0x0 PUSH1 0x40 DUP3 ADD SWAP1 POP DUP2 DUP2 SUB PUSH1 0x0 DUP4 ADD MSTORE PUSH2 0x4427 DUP2 PUSH2 0x43EB JUMP JUMPDEST SWAP1 POP PUSH2 0x4436 PUSH1 0x20 DUP4 ADD DUP5 PUSH2 0x3538 JUMP JUMPDEST SWAP3 SWAP2 POP POP JUMP JUMPDEST PUSH32 0x44696420706C617965722063686F6F7365206576656E3F000000000000000000 PUSH1 0x0 DUP3 ADD MSTORE POP JUMP JUMPDEST PUSH1 0x0 PUSH2 0x4472 PUSH1 0x17 DUP4 PUSH2 0x2A75 JUMP JUMPDEST SWAP2 POP PUSH2 0x447D DUP3 PUSH2 0x443C JUMP JUMPDEST PUSH1 0x20 DUP3 ADD SWAP1 POP SWAP2 SWAP1 POP JUMP JUMPDEST PUSH1 0x0 PUSH1 0x40 DUP3 ADD SWAP1 POP DUP2 DUP2 SUB PUSH1 0x0 DUP4 ADD MSTORE PUSH2 0x44A1 DUP2 PUSH2 0x4465 JUMP JUMPDEST SWAP1 POP PUSH2 0x44B0 PUSH1 0x20 DUP4 ADD DUP5 PUSH2 0x3538 JUMP JUMPDEST SWAP3 SWAP2 POP POP JUMP JUMPDEST PUSH32 0x4576656E2F4F64642077696E20636865636B0000000000000000000000000000 PUSH1 0x0 DUP3 ADD MSTORE POP JUMP JUMPDEST PUSH1 0x0 PUSH2 0x44EC PUSH1 0x12 DUP4 PUSH2 0x2A75 JUMP JUMPDEST SWAP2 POP PUSH2 0x44F7 DUP3 PUSH2 0x44B6 JUMP JUMPDEST PUSH1 0x20 DUP3 ADD SWAP1 POP SWAP2 SWAP1 POP JUMP JUMPDEST PUSH1 0x0 PUSH1 0x40 DUP3 ADD SWAP1 POP DUP2 DUP2 SUB PUSH1 0x0 DUP4 ADD MSTORE PUSH2 0x451B DUP2 PUSH2 0x44DF JUMP JUMPDEST SWAP1 POP PUSH2 0x452A PUSH1 0x20 DUP4 ADD DUP5 PUSH2 0x3538 JUMP JUMPDEST SWAP3 SWAP2 POP POP JUMP JUMPDEST PUSH32 0x497320726573756C74206C6F772028312D3138293F0000000000000000000000 PUSH1 0x0 DUP3 ADD MSTORE POP JUMP JUMPDEST PUSH1 0x0 PUSH2 0x4566 PUSH1 0x15 DUP4 PUSH2 0x2A75 JUMP JUMPDEST SWAP2 POP PUSH2 0x4571 DUP3 PUSH2 0x4530 JUMP JUMPDEST PUSH1 0x20 DUP3 ADD SWAP1 POP SWAP2 SWAP1 POP JUMP JUMPDEST PUSH1 0x0 PUSH1 0x40 DUP3 ADD SWAP1 POP DUP2 DUP2 SUB PUSH1 0x0 DUP4 ADD MSTORE PUSH2 0x4595 DUP2 PUSH2 0x4559 JUMP JUMPDEST SWAP1 POP PUSH2 0x45A4 PUSH1 0x20 DUP4 ADD DUP5 PUSH2 0x3538 JUMP JUMPDEST SWAP3 SWAP2 POP POP JUMP JUMPDEST PUSH32 0x44696420706C617965722063686F6F7365206C6F773F00000000000000000000 PUSH1 0x0 DUP3 ADD MSTORE POP JUMP JUMPDEST PUSH1 0x0 PUSH2 0x45E0 PUSH1 0x16 DUP4 PUSH2 0x2A75 JUMP JUMPDEST SWAP2 POP PUSH2 0x45EB DUP3 PUSH2 0x45AA JUMP JUMPDEST PUSH1 0x20 DUP3 ADD SWAP1 POP SWAP2 SWAP1 POP JUMP JUMPDEST PUSH1 0x0 PUSH1 0x40 DUP3 ADD SWAP1 POP DUP2 DUP2 SUB PUSH1 0x0 DUP4 ADD MSTORE PUSH2 0x460F DUP2 PUSH2 0x45D3 JUMP JUMPDEST SWAP1 POP PUSH2 0x461E PUSH1 0x20 DUP4 ADD DUP5 PUSH2 0x3538 JUMP JUMPDEST SWAP3 SWAP2 POP POP JUMP JUMPDEST PUSH32 0x486967682F4C6F772077696E20636865636B0000000000000000000000000000 PUSH1 0x0 DUP3 ADD MSTORE POP JUMP JUMPDEST PUSH1 0x0 PUSH2 0x465A PUSH1 0x12 DUP4 PUSH2 0x2A75 JUMP JUMPDEST SWAP2 POP PUSH2 0x4665 DUP3 PUSH2 0x4624 JUMP JUMPDEST PUSH1 0x20 DUP3 ADD SWAP1 POP SWAP2 SWAP1 POP JUMP JUMPDEST PUSH1 0x0 PUSH1 0x40 DUP3 ADD SWAP1 POP DUP2 DUP2 SUB PUSH1 0x0 DUP4 ADD MSTORE PUSH2 0x4689 DUP2 PUSH2 0x464D JUMP JUMPDEST SWAP1 POP PUSH2 0x4698 PUSH1 0x20 DUP4 ADD DUP5 PUSH2 0x3538 JUMP JUMPDEST SWAP3 SWAP2 POP POP JUMP JUMPDEST PUSH32 0x3D3D3D2057494E20434845434B20454E442028556E6B6E6F776E206265742074 PUSH1 0x0 DUP3 ADD MSTORE PUSH32 0x79706529203D3D3D000000000000000000000000000000000000000000000000 PUSH1 0x20 DUP3 ADD MSTORE POP JUMP JUMPDEST PUSH1 0x0 PUSH2 0x46FA PUSH1 0x28 DUP4 PUSH2 0x2A75 JUMP JUMPDEST SWAP2 POP PUSH2 0x4705 DUP3 PUSH2 0x469E JUMP JUMPDEST PUSH1 0x40 DUP3 ADD SWAP1 POP SWAP2 SWAP1 POP JUMP JUMPDEST PUSH1 0x0 PUSH1 0x40 DUP3 ADD SWAP1 POP DUP2 DUP2 SUB PUSH1 0x0 DUP4 ADD MSTORE PUSH2 0x4729 DUP2 PUSH2 0x46ED JUMP JUMPDEST SWAP1 POP PUSH2 0x4738 PUSH1 0x20 DUP4 ADD DUP5 PUSH2 0x371C JUMP JUMPDEST SWAP3 SWAP2 POP POP JUMP JUMPDEST PUSH32 0x4163636F756E744D616E6167657220616C726561647920736574000000000000 PUSH1 0x0 DUP3 ADD MSTORE POP JUMP JUMPDEST PUSH1 0x0 PUSH2 0x4774 PUSH1 0x1A DUP4 PUSH2 0x2A75 JUMP JUMPDEST SWAP2 POP PUSH2 0x477F DUP3 PUSH2 0x473E JUMP JUMPDEST PUSH1 0x20 DUP3 ADD SWAP1 POP SWAP2 SWAP1 POP JUMP JUMPDEST PUSH1 0x0 PUSH1 0x20 DUP3 ADD SWAP1 POP DUP2 DUP2 SUB PUSH1 0x0 DUP4 ADD MSTORE PUSH2 0x47A3 DUP2 PUSH2 0x4767 JUMP JUMPDEST SWAP1 POP SWAP2 SWAP1 POP JUMP JUMPDEST PUSH32 0x50726F63657373696E6720626574204944000000000000000000000000000000 PUSH1 0x0 DUP3 ADD MSTORE POP JUMP JUMPDEST PUSH1 0x0 PUSH2 0x47E0 PUSH1 0x11 DUP4 PUSH2 0x2A75 JUMP JUMPDEST SWAP2 POP PUSH2 0x47EB DUP3 PUSH2 0x47AA JUMP JUMPDEST PUSH1 0x20 DUP3 ADD SWAP1 POP SWAP2 SWAP1 POP JUMP JUMPDEST PUSH1 0x0 PUSH1 0x40 DUP3 ADD SWAP1 POP DUP2 DUP2 SUB PUSH1 0x0 DUP4 ADD MSTORE PUSH2 0x480F DUP2 PUSH2 0x47D3 JUMP JUMPDEST SWAP1 POP PUSH2 0x481E PUSH1 0x20 DUP4 ADD DUP5 PUSH2 0x2ADC JUMP JUMPDEST SWAP3 SWAP2 POP POP JUMP JUMPDEST PUSH32 0x50726F63657373696E67207370696E2049440000000000000000000000000000 PUSH1 0x0 DUP3 ADD MSTORE POP JUMP JUMPDEST PUSH1 0x0 PUSH2 0x485A PUSH1 0x12 DUP4 PUSH2 0x2A75 JUMP JUMPDEST SWAP2 POP PUSH2 0x4865 DUP3 PUSH2 0x4824 JUMP JUMPDEST PUSH1 0x20 DUP3 ADD SWAP1 POP SWAP2 SWAP1 POP JUMP JUMPDEST PUSH1 0x0 PUSH1 0x40 DUP3 ADD SWAP1 POP DUP2 DUP2 SUB PUSH1 0x0 DUP4 ADD MSTORE PUSH2 0x4889 DUP2 PUSH2 0x484D JUMP JUMPDEST SWAP1 POP PUSH2 0x4898 PUSH1 0x20 DUP4 ADD DUP5 PUSH2 0x2ADC JUMP JUMPDEST SWAP3 SWAP2 POP POP JUMP JUMPDEST PUSH32 0x42657420616D6F756E7400000000000000000000000000000000000000000000 PUSH1 0x0 DUP3 ADD MSTORE POP JUMP JUMPDEST PUSH1 0x0 PUSH2 0x48D4 PUSH1 0xA DUP4 PUSH2 0x2A75 JUMP JUMPDEST SWAP2 POP PUSH2 0x48DF DUP3 PUSH2 0x489E JUMP JUMPDEST PUSH1 0x20 DUP3 ADD SWAP1 POP SWAP2 SWAP1 POP JUMP JUMPDEST PUSH1 0x0 PUSH1 0x40 DUP3 ADD SWAP1 POP DUP2 DUP2 SUB PUSH1 0x0 DUP4 ADD MSTORE PUSH2 0x4903 DUP2 PUSH2 0x48C7 JUMP JUMPDEST SWAP1 POP PUSH2 0x4912 PUSH1 0x20 DUP4 ADD DUP5 PUSH2 0x2ADC JUMP JUMPDEST SWAP3 SWAP2 POP POP JUMP JUMPDEST PUSH32 0x4E6F2062657420666F756E6420666F7220746869732049440000000000000000 PUSH1 0x0 DUP3 ADD MSTORE POP JUMP JUMPDEST PUSH1 0x0 PUSH2 0x494E PUSH1 0x18 DUP4 PUSH2 0x2A75 JUMP JUMPDEST SWAP2 POP PUSH2 0x4959 DUP3 PUSH2 0x4918 JUMP JUMPDEST PUSH1 0x20 DUP3 ADD SWAP1 POP SWAP2 SWAP1 POP JUMP JUMPDEST PUSH1 0x0 PUSH1 0x20 DUP3 ADD SWAP1 POP DUP2 DUP2 SUB PUSH1 0x0 DUP4 ADD MSTORE PUSH2 0x497D DUP2 PUSH2 0x4941 JUMP JUMPDEST SWAP1 POP SWAP2 SWAP1 POP JUMP JUMPDEST PUSH32 0x4E6F7420796F7572206265740000000000000000000000000000000000000000 PUSH1 0x0 DUP3 ADD MSTORE POP JUMP JUMPDEST PUSH1 0x0 PUSH2 0x49BA PUSH1 0xC DUP4 PUSH2 0x2A75 JUMP JUMPDEST SWAP2 POP PUSH2 0x49C5 DUP3 PUSH2 0x4984 JUMP JUMPDEST PUSH1 0x20 DUP3 ADD SWAP1 POP SWAP2 SWAP1 POP JUMP JUMPDEST PUSH1 0x0 PUSH1 0x20 DUP3 ADD SWAP1 POP DUP2 DUP2 SUB PUSH1 0x0 DUP4 ADD MSTORE PUSH2 0x49E9 DUP2 PUSH2 0x49AD JUMP JUMPDEST SWAP1 POP SWAP2 SWAP1 POP JUMP JUMPDEST PUSH32 0x57696E20616D6F756E742063616C63756C617465640000000000000000000000 PUSH1 0x0 DUP3 ADD MSTORE POP JUMP JUMPDEST PUSH1 0x0 PUSH2 0x4A26 PUSH1 0x15 DUP4 PUSH2 0x2A75 JUMP JUMPDEST SWAP2 POP PUSH2 0x4A31 DUP3 PUSH2 0x49F0 JUMP JUMPDEST PUSH1 0x20 DUP3 ADD SWAP1 POP SWAP2 SWAP1 POP JUMP JUMPDEST PUSH1 0x0 PUSH1 0x40 DUP3 ADD SWAP1 POP DUP2 DUP2 SUB PUSH1 0x0 DUP4 ADD MSTORE PUSH2 0x4A55 DUP2 PUSH2 0x4A19 JUMP JUMPDEST SWAP1 POP PUSH2 0x4A64 PUSH1 0x20 DUP4 ADD DUP5 PUSH2 0x2ADC JUMP JUMPDEST SWAP3 SWAP2 POP POP JUMP JUMPDEST POP JUMP JUMPDEST PUSH1 0x0 PUSH2 0x4A7A PUSH1 0x0 DUP4 PUSH2 0x39B8 JUMP JUMPDEST SWAP2 POP PUSH2 0x4A85 DUP3 PUSH2 0x4A6A JUMP JUMPDEST PUSH1 0x0 DUP3 ADD SWAP1 POP SWAP2 SWAP1 POP JUMP JUMPDEST PUSH1 0x0 PUSH2 0x4A9B DUP3 PUSH2 0x4A6D JUMP JUMPDEST SWAP2 POP DUP2 SWAP1 POP SWAP2 SWAP1 POP JUMP JUMPDEST PUSH32 0x4661696C656420746F207472616E736665722045544820746F204163636F756E PUSH1 0x0 DUP3 ADD MSTORE PUSH32 0x744D616E61676572000000000000000000000000000000000000000000000000 PUSH1 0x20 DUP3 ADD MSTORE POP JUMP JUMPDEST PUSH1 0x0 PUSH2 0x4B01 PUSH1 0x28 DUP4 PUSH2 0x2A75 JUMP JUMPDEST SWAP2 POP PUSH2 0x4B0C DUP3 PUSH2 0x4AA5 JUMP JUMPDEST PUSH1 0x40 DUP3 ADD SWAP1 POP SWAP2 SWAP1 POP JUMP JUMPDEST PUSH1 0x0 PUSH1 0x20 DUP3 ADD SWAP1 POP DUP2 DUP2 SUB PUSH1 0x0 DUP4 ADD MSTORE PUSH2 0x4B30 DUP2 PUSH2 0x4AF4 JUMP JUMPDEST SWAP1 POP SWAP2 SWAP1 POP JUMP JUMPDEST PUSH32 0x4661696C656420746F2070726F636573732077696E6E696E6720776974682041 PUSH1 0x0 DUP3 ADD MSTORE PUSH32 0x63636F756E744D616E6167657200000000000000000000000000000000000000 PUSH1 0x20 DUP3 ADD MSTORE POP JUMP JUMPDEST PUSH1 0x0 PUSH2 0x4B93 PUSH1 0x2D DUP4 PUSH2 0x2A75 JUMP JUMPDEST SWAP2 POP PUSH2 0x4B9E DUP3 PUSH2 0x4B37 JUMP JUMPDEST PUSH1 0x40 DUP3 ADD SWAP1 POP SWAP2 SWAP1 POP JUMP JUMPDEST PUSH1 0x0 PUSH1 0x20 DUP3 ADD SWAP1 POP DUP2 DUP2 SUB PUSH1 0x0 DUP4 ADD MSTORE PUSH2 0x4BC2 DUP2 PUSH2 0x4B86 JUMP JUMPDEST SWAP1 POP SWAP2 SWAP1 POP JUMP JUMPDEST PUSH32 0x546F74616C207061796F75742070726F63657373656400000000000000000000 PUSH1 0x0 DUP3 ADD MSTORE POP JUMP JUMPDEST PUSH1 0x0 PUSH2 0x4BFF PUSH1 0x16 DUP4 PUSH2 0x2A75 JUMP JUMPDEST SWAP2 POP PUSH2 0x4C0A DUP3 PUSH2 0x4BC9 JUMP JUMPDEST PUSH1 0x20 DUP3 ADD SWAP1 POP SWAP2 SWAP1 POP JUMP JUMPDEST PUSH1 0x0 PUSH1 0x40 DUP3 ADD SWAP1 POP DUP2 DUP2 SUB PUSH1 0x0 DUP4 ADD MSTORE PUSH2 0x4C2E DUP2 PUSH2 0x4BF2 JUMP JUMPDEST SWAP1 POP PUSH2 0x4C3D PUSH1 0x20 DUP4 ADD DUP5 PUSH2 0x2ADC JUMP JUMPDEST SWAP3 SWAP2 POP POP JUMP JUMPDEST PUSH1 0x0 DUP2 SWAP1 POP SWAP2 SWAP1 POP JUMP JUMPDEST PUSH1 0x0 DUP2 SWAP1 POP SWAP2 SWAP1 POP JUMP JUMPDEST PUSH2 0x4C68 PUSH2 0x4C63 DUP3 PUSH2 0x4C43 JUMP JUMPDEST PUSH2 0x4C4D JUMP JUMPDEST DUP3 MSTORE POP POP JUMP JUMPDEST PUSH1 0x0 DUP2 SWAP1 POP SWAP2 SWAP1 POP JUMP JUMPDEST PUSH2 0x4C89 PUSH2 0x4C84 DUP3 PUSH2 0x2AD2 JUMP JUMPDEST PUSH2 0x4C6E JUMP JUMPDEST DUP3 MSTORE POP POP JUMP JUMPDEST PUSH1 0x0 DUP2 PUSH1 0x60 SHL SWAP1 POP SWAP2 SWAP1 POP JUMP JUMPDEST PUSH1 0x0 PUSH2 0x4CA7 DUP3 PUSH2 0x4C8F JUMP JUMPDEST SWAP1 POP SWAP2 SWAP1 POP JUMP JUMPDEST PUSH1 0x0 PUSH2 0x4CB9 DUP3 PUSH2 0x4C9C JUMP JUMPDEST SWAP1 POP SWAP2 SWAP1 POP JUMP JUMPDEST PUSH2 0x4CD1 PUSH2 0x4CCC DUP3 PUSH2 0x2DA0 JUMP JUMPDEST PUSH2 0x4CAE JUMP JUMPDEST DUP3 MSTORE POP POP JUMP JUMPDEST PUSH1 0x0 PUSH2 0x4CE3 DUP3 DUP9 PUSH2 0x4C57 JUMP JUMPDEST PUSH1 0x20 DUP3 ADD SWAP2 POP PUSH2 0x4CF3 DUP3 DUP8 PUSH2 0x4C78 JUMP JUMPDEST PUSH1 0x20 DUP3 ADD SWAP2 POP PUSH2 0x4D03 DUP3 DUP7 PUSH2 0x4CC0 JUMP JUMPDEST PUSH1 0x14 DUP3 ADD SWAP2 POP PUSH2 0x4D13 DUP3 DUP6 PUSH2 0x4CC0 JUMP JUMPDEST PUSH1 0x14 DUP3 ADD SWAP2 POP PUSH2 0x4D23 DUP3 DUP5 PUSH2 0x4C78 JUMP JUMPDEST PUSH1 0x20 DUP3 ADD SWAP2 POP DUP2 SWAP1 POP SWAP7 SWAP6 POP POP POP POP POP POP JUMP JUMPDEST PUSH1 0x0 PUSH2 0x4D41 DUP3 PUSH2 0x2AD2 JUMP JUMPDEST SWAP2 POP PUSH2 0x4D4C DUP4 PUSH2 0x2AD2 JUMP JUMPDEST SWAP3 POP DUP3 PUSH2 0x4D5C JUMPI PUSH2 0x4D5B PUSH2 0x4362 JUMP JUMPDEST JUMPDEST DUP3 DUP3 MOD SWAP1 POP SWAP3 SWAP2 POP POP JUMP JUMPDEST PUSH1 0x0 PUSH2 0x4D72 DUP3 PUSH2 0x2AD2 JUMP JUMPDEST SWAP2 POP PUSH2 0x4D7D DUP4 PUSH2 0x2AD2 JUMP JUMPDEST SWAP3 POP DUP3 DUP3 MUL PUSH2 0x4D8B DUP2 PUSH2 0x2AD2 JUMP JUMPDEST SWAP2 POP DUP3 DUP3 DIV DUP5 EQ DUP4 ISZERO OR PUSH2 0x4DA2 JUMPI PUSH2 0x4DA1 PUSH2 0x3330 JUMP JUMPDEST JUMPDEST POP SWAP3 SWAP2 POP POP JUMP JUMPDEST PUSH32 0x436865636B696E67206966206E756D6265722069732072656400000000000000 PUSH1 0x0 DUP3 ADD MSTORE POP JUMP JUMPDEST PUSH1 0x0 PUSH2 0x4DDF PUSH1 0x19 DUP4 PUSH2 0x2A75 JUMP JUMPDEST SWAP2 POP PUSH2 0x4DEA DUP3 PUSH2 0x4DA9 JUMP JUMPDEST PUSH1 0x20 DUP3 ADD SWAP1 POP SWAP2 SWAP1 POP JUMP JUMPDEST PUSH1 0x0 PUSH1 0x40 DUP3 ADD SWAP1 POP DUP2 DUP2 SUB PUSH1 0x0 DUP4 ADD MSTORE PUSH2 0x4E0E DUP2 PUSH2 0x4DD2 JUMP JUMPDEST SWAP1 POP PUSH2 0x4E1D PUSH1 0x20 DUP4 ADD DUP5 PUSH2 0x3538 JUMP JUMPDEST SWAP3 SWAP2 POP POP JUMP JUMPDEST PUSH32 0x466F756E64206E756D62657220696E20726564206E756D626572730000000000 PUSH1 0x0 DUP3 ADD MSTORE POP JUMP JUMPDEST PUSH1 0x0 PUSH2 0x4E59 PUSH1 0x1B DUP4 PUSH2 0x2A75 JUMP JUMPDEST SWAP2 POP PUSH2 0x4E64 DUP3 PUSH2 0x4E23 JUMP JUMPDEST PUSH1 0x20 DUP3 ADD SWAP1 POP SWAP2 SWAP1 POP JUMP JUMPDEST PUSH1 0x0 PUSH1 0x40 DUP3 ADD SWAP1 POP DUP2 DUP2 SUB PUSH1 0x0 DUP4 ADD MSTORE PUSH2 0x4E88 DUP2 PUSH2 0x4E4C JUMP JUMPDEST SWAP1 POP PUSH2 0x4E97 PUSH1 0x20 DUP4 ADD DUP5 PUSH2 0x3538 JUMP JUMPDEST SWAP3 SWAP2 POP POP JUMP JUMPDEST PUSH1 0x0 PUSH2 0x4EA8 DUP3 PUSH2 0x2CA3 JUMP JUMPDEST SWAP2 POP PUSH1 0xFF DUP3 SUB PUSH2 0x4EBB JUMPI PUSH2 0x4EBA PUSH2 0x3330 JUMP JUMPDEST JUMPDEST PUSH1 0x1 DUP3 ADD SWAP1 POP SWAP2 SWAP1 POP JUMP JUMPDEST PUSH32 0x4E756D626572206973206E6F7420726564000000000000000000000000000000 PUSH1 0x0 DUP3 ADD MSTORE POP JUMP JUMPDEST PUSH1 0x0 PUSH2 0x4EFC PUSH1 0x11 DUP4 PUSH2 0x2A75 JUMP JUMPDEST SWAP2 POP PUSH2 0x4F07 DUP3 PUSH2 0x4EC6 JUMP JUMPDEST PUSH1 0x20 DUP3 ADD SWAP1 POP SWAP2 SWAP1 POP JUMP JUMPDEST PUSH1 0x0 PUSH1 0x40 DUP3 ADD SWAP1 POP DUP2 DUP2 SUB PUSH1 0x0 DUP4 ADD MSTORE PUSH2 0x4F2B DUP2 PUSH2 0x4EEF JUMP JUMPDEST SWAP1 POP PUSH2 0x4F3A PUSH1 0x20 DUP4 ADD DUP5 PUSH2 0x3538 JUMP JUMPDEST SWAP3 SWAP2 POP POP JUMP INVALID LOG2 PUSH5 0x6970667358 0x22 SLT KECCAK256 0xC0 SSTORE DUP16 SWAP3 0xE4 0xD3 0x2C 0x4C 0x1E 0x4C 0xE8 SWAP5 OR PUSH28 0xE48D99D5838A6C638C3BE6C947C4DA2E866764736F6C634300081300 CALLER "},"methodIdentifiers":{"accountManagerAddress()":"2c2fac12","betCounter()":"a416f5ab","bets(uint256)":"22af00fa","calculatePayout(uint256,uint256)":"9dce5ff0","connectWallet()":"2d66f063","getBet(uint256)":"061e494f","isWinningBet((address,uint256,uint8,uint8[]),uint8)":"6dcd441a","placeBetAndSpin(uint8[])":"608a84f4","players(address)":"e2eb41ff","setAccountManager(address)":"8e4586af","specialBetTypes(address)":"83f4cb3b","spinCounter()":"d4bcc0e1","spinResults(uint256)":"e4f32206","withdraw(uint256)":"2e1a7d4d"}}}}}