{"src/Roulette.sol":{"Roulette":{"abi":[{"anonymous":false,"inputs":[{"indexed":true,"internalType":"address","name":"player","type":"address"},{"indexed":false,"internalType":"uint256","name":"betId","type":"uint256"},{"indexed":false,"internalType":"enum Roulette.BetType","name":"betType","type":"uint8"},{"indexed":false,"internalType":"uint8[]","name":"choices","type":"uint8[]"},{"indexed":false,"internalType":"uint256","name":"amount","type":"uint256"}],"name":"BetPlaced","type":"event"},{"anonymous":false,"inputs":[{"indexed":true,"internalType":"address","name":"player","type":"address"},{"indexed":false,"internalType":"uint256","name":"amount","type":"uint256"}],"name":"Payout","type":"event"},{"anonymous":false,"inputs":[{"indexed":false,"internalType":"uint256","name":"spinId","type":"uint256"},{"indexed":false,"internalType":"uint8","name":"result","type":"uint8"}],"name":"SpinResult","type":"event"},{"stateMutability":"payable","type":"fallback"},{"inputs":[],"name":"betCounter","outputs":[{"internalType":"uint256","name":"","type":"uint256"}],"stateMutability":"view","type":"function"},{"inputs":[{"internalType":"uint256","name":"","type":"uint256"}],"name":"bets","outputs":[{"internalType":"uint256","name":"amount","type":"uint256"},{"internalType":"enum Roulette.BetType","name":"betType","type":"uint8"}],"stateMutability":"view","type":"function"},{"inputs":[{"internalType":"uint256","name":"spinId","type":"uint256"}],"name":"calculatePayout","outputs":[],"stateMutability":"nonpayable","type":"function"},{"inputs":[],"name":"connectWallet","outputs":[],"stateMutability":"nonpayable","type":"function"},{"inputs":[{"internalType":"uint256","name":"betId","type":"uint256"}],"name":"getBet","outputs":[{"internalType":"uint256","name":"amount","type":"uint256"},{"internalType":"enum Roulette.BetType","name":"betType","type":"uint8"},{"internalType":"uint8[]","name":"choices","type":"uint8[]"}],"stateMutability":"view","type":"function"},{"inputs":[{"internalType":"enum Roulette.BetType","name":"betType","type":"uint8"},{"internalType":"uint8[]","name":"choices","type":"uint8[]"}],"name":"placeBet","outputs":[],"stateMutability":"payable","type":"function"},{"inputs":[{"internalType":"address","name":"","type":"address"}],"name":"players","outputs":[{"internalType":"address","name":"wallet","type":"address"},{"internalType":"uint256","name":"balance","type":"uint256"}],"stateMutability":"view","type":"function"},{"inputs":[],"name":"spinCounter","outputs":[{"internalType":"uint256","name":"","type":"uint256"}],"stateMutability":"view","type":"function"},{"inputs":[{"internalType":"uint256","name":"","type":"uint256"}],"name":"spinResults","outputs":[{"internalType":"uint8","name":"","type":"uint8"}],"stateMutability":"view","type":"function"},{"inputs":[],"name":"spinWheel","outputs":[],"stateMutability":"nonpayable","type":"function"},{"inputs":[{"internalType":"uint256","name":"amount","type":"uint256"}],"name":"withdraw","outputs":[],"stateMutability":"nonpayable","type":"function"},{"stateMutability":"payable","type":"receive"}],"evm":{"bytecode":{"linkReferences":{},"object":"608060405234801561001057600080fd5b50612aed806100206000396000f3fe6080604052600436106100a05760003560e01c80633bb91c77116100645780633bb91c771461017d57806372e52a9a146101a6578063a416f5ab146101c2578063d4bcc0e1146101ed578063e2eb41ff14610218578063e4f3220614610256576100a7565b8063061e494f146100a957806315ecef92146100e857806322af00fa146100ff5780632d66f0631461013d5780632e1a7d4d14610154576100a7565b366100a757005b005b3480156100b557600080fd5b506100d060048036038101906100cb9190611c15565b610293565b6040516100df93929190611d93565b60405180910390f35b3480156100f457600080fd5b506100fd610350565b005b34801561010b57600080fd5b5061012660048036038101906101219190611c15565b61041c565b604051610134929190611dd1565b60405180910390f35b34801561014957600080fd5b5061015261044d565b005b34801561016057600080fd5b5061017b60048036038101906101769190611c15565b6105dd565b005b34801561018957600080fd5b506101a4600480360381019061019f9190611c15565b610703565b005b6101c060048036038101906101bb9190611fa4565b61094a565b005b3480156101ce57600080fd5b506101d7611007565b6040516101e49190612000565b60405180910390f35b3480156101f957600080fd5b5061020261100d565b60405161020f9190612000565b60405180910390f35b34801561022457600080fd5b5061023f600480360381019061023a9190612079565b611013565b60405161024d9291906120b5565b60405180910390f35b34801561026257600080fd5b5061027d60048036038101906102789190611c15565b611057565b60405161028a91906120ed565b60405180910390f35b6000806060600060016000868152602001908152602001600020905080600001548160010160009054906101000a900460ff16826002018080548060200260200160405190810160405280929190818152602001828054801561033b57602002820191906000526020600020906000905b82829054906101000a900460ff1660ff16815260200190600101906020826000010492830192600103820291508084116103045790505b50505050509050935093509350509193909250565b600060254244604051602001610367929190612129565b6040516020818303038152906040528051906020012060001c61038a9190612184565b90508060026000600354815260200190815260200160002060006101000a81548160ff021916908360ff160217905550600360008154809291906103cd906121e4565b91905055507f67aca3205b35c43df87036f2dc8e31c60461b3d7194a864b2a9c2ac724a0cd026001600354610402919061222c565b82604051610411929190612260565b60405180910390a150565b60016020528060005260406000206000915090508060000154908060010160009054906101000a900460ff16905082565b600073ffffffffffffffffffffffffffffffffffffffff166000803373ffffffffffffffffffffffffffffffffffffffff1673ffffffffffffffffffffffffffffffffffffffff16815260200190815260200160002060000160009054906101000a900473ffffffffffffffffffffffffffffffffffffffff1673ffffffffffffffffffffffffffffffffffffffff161461051d576040517f08c379a0000000000000000000000000000000000000000000000000000000008152600401610514906122e6565b60405180910390fd5b60405180604001604052803373ffffffffffffffffffffffffffffffffffffffff16815260200160008152506000803373ffffffffffffffffffffffffffffffffffffffff1673ffffffffffffffffffffffffffffffffffffffff16815260200190815260200160002060008201518160000160006101000a81548173ffffffffffffffffffffffffffffffffffffffff021916908373ffffffffffffffffffffffffffffffffffffffff16021790555060208201518160010155905050565b806000803373ffffffffffffffffffffffffffffffffffffffff1673ffffffffffffffffffffffffffffffffffffffff168152602001908152602001600020600101541015610661576040517f08c379a000000000000000000000000000000000000000000000000000000000815260040161065890612352565b60405180910390fd5b806000803373ffffffffffffffffffffffffffffffffffffffff1673ffffffffffffffffffffffffffffffffffffffff16815260200190815260200160002060010160008282546106b2919061222c565b925050819055503373ffffffffffffffffffffffffffffffffffffffff166108fc829081150290604051600060405180830381858888f193505050501580156106ff573d6000803e3d6000fd5b5050565b6003548110610747576040517f08c379a000000000000000000000000000000000000000000000000000000000815260040161073e906123be565b60405180910390fd5b60006002600083815260200190815260200160002060009054906101000a900460ff16905060005b60045481101561094557600060016000838152602001908152602001600020604051806060016040529081600082015481526020016001820160009054906101000a900460ff16600a8111156107c8576107c7611c51565b5b600a8111156107da576107d9611c51565b5b81526020016002820180548060200260200160405190810160405280929190818152602001828054801561085357602002820191906000526020600020906000905b82829054906101000a900460ff1660ff168152602001906001019060208260000104928301926001038202915080841161081c5790505b50505050508152505090506108688184611077565b156109315760006108788261180e565b905081600001518161088a919061222c565b6000803373ffffffffffffffffffffffffffffffffffffffff1673ffffffffffffffffffffffffffffffffffffffff16815260200190815260200160002060010160008282546108da91906123de565b925050819055503373ffffffffffffffffffffffffffffffffffffffff167f5afeca38b2064c23a692c4cf353015d80ab3ecc417b4f893f372690c11fbd9a6826040516109279190612000565b60405180910390a2505b50808061093d906121e4565b91505061076f565b505050565b600073ffffffffffffffffffffffffffffffffffffffff166000803373ffffffffffffffffffffffffffffffffffffffff1673ffffffffffffffffffffffffffffffffffffffff16815260200190815260200160002060000160009054906101000a900473ffffffffffffffffffffffffffffffffffffffff1673ffffffffffffffffffffffffffffffffffffffff1603610a1a576040517f08c379a0000000000000000000000000000000000000000000000000000000008152600401610a119061245e565b60405180910390fd5b60003411610a5d576040517f08c379a0000000000000000000000000000000000000000000000000000000008152600401610a54906124f0565b60405180910390fd5b6000600a811115610a7157610a70611c51565b5b82600a811115610a8457610a83611c51565b5b03610ad2576001815114610acd576040517f08c379a0000000000000000000000000000000000000000000000000000000008152600401610ac490612582565b60405180910390fd5b610e95565b6001600a811115610ae657610ae5611c51565b5b82600a811115610af957610af8611c51565b5b03610b47576002815114610b42576040517f08c379a0000000000000000000000000000000000000000000000000000000008152600401610b3990612614565b60405180910390fd5b610e94565b6002600a811115610b5b57610b5a611c51565b5b82600a811115610b6e57610b6d611c51565b5b03610bbc576004815114610bb7576040517f08c379a0000000000000000000000000000000000000000000000000000000008152600401610bae906126a6565b60405180910390fd5b610e93565b6003600a811115610bd057610bcf611c51565b5b82600a811115610be357610be2611c51565b5b03610c31576003815114610c2c576040517f08c379a0000000000000000000000000000000000000000000000000000000008152600401610c2390612738565b60405180910390fd5b610e92565b6004600a811115610c4557610c44611c51565b5b82600a811115610c5857610c57611c51565b5b03610ca6576006815114610ca1576040517f08c379a0000000000000000000000000000000000000000000000000000000008152600401610c98906127ca565b60405180910390fd5b610e91565b6005600a811115610cba57610cb9611c51565b5b82600a811115610ccd57610ccc611c51565b5b03610d1b576001815114610d16576040517f08c379a0000000000000000000000000000000000000000000000000000000008152600401610d0d9061285c565b60405180910390fd5b610e90565b6006600a811115610d2f57610d2e611c51565b5b82600a811115610d4257610d41611c51565b5b03610d9057600c815114610d8b576040517f08c379a0000000000000000000000000000000000000000000000000000000008152600401610d82906128ee565b60405180910390fd5b610e8f565b6007600a811115610da457610da3611c51565b5b82600a811115610db757610db6611c51565b5b1480610de757506008600a811115610dd257610dd1611c51565b5b82600a811115610de557610de4611c51565b5b145b80610e1657506009600a811115610e0157610e00611c51565b5b82600a811115610e1457610e13611c51565b5b145b80610e445750600a80811115610e2f57610e2e611c51565b5b82600a811115610e4257610e41611c51565b5b145b15610e8e576001815114610e8d576040517f08c379a0000000000000000000000000000000000000000000000000000000008152600401610e8490612980565b60405180910390fd5b5b5b5b5b5b5b5b5b604051806060016040528034815260200183600a811115610eb957610eb8611c51565b5b8152602001828152506001600060045481526020019081526020016000206000820151816000015560208201518160010160006101000a81548160ff0219169083600a811115610f0c57610f0b611c51565b5b02179055506040820151816002019080519060200190610f2d929190611b07565b50905050346000803373ffffffffffffffffffffffffffffffffffffffff1673ffffffffffffffffffffffffffffffffffffffff1681526020019081526020016000206001016000828254610f8291906123de565b9250508190555060046000815480929190610f9c906121e4565b91905055503373ffffffffffffffffffffffffffffffffffffffff167f164cd6fdc337108b0cf964c083e27ce6c44cb29596254995fcb9e212e34003ba6001600454610fe8919061222c565b848434604051610ffb94939291906129a0565b60405180910390a25050565b60045481565b60035481565b60006020528060005260406000206000915090508060000160009054906101000a900473ffffffffffffffffffffffffffffffffffffffff16908060010154905082565b60026020528060005260406000206000915054906101000a900460ff1681565b600080600a81111561108c5761108b611c51565b5b8360200151600a8111156110a3576110a2611c51565b5b036110d7578160ff1683604001516000815181106110c4576110c36129ec565b5b602002602001015160ff16149050611808565b6001600a8111156110eb576110ea611c51565b5b8360200151600a81111561110257611101611c51565b5b03611165578160ff168360400151600081518110611123576111226129ec565b5b602002602001015160ff16148061115e57508160ff168360400151600181518110611151576111506129ec565b5b602002602001015160ff16145b9050611808565b6002600a81111561117957611178611c51565b5b8360200151600a8111156111905761118f611c51565b5b036111f55760005b60048160ff1610156111ef578260ff1684604001518260ff16815181106111c2576111c16129ec565b5b602002602001015160ff16036111dc576001915050611808565b80806111e790612a1b565b915050611198565b50611803565b6003600a81111561120957611208611c51565b5b8360200151600a8111156112205761121f611c51565b5b036112855760005b60038160ff16101561127f578260ff1684604001518260ff1681518110611252576112516129ec565b5b602002602001015160ff160361126c576001915050611808565b808061127790612a1b565b915050611228565b50611802565b6004600a81111561129957611298611c51565b5b8360200151600a8111156112b0576112af611c51565b5b036113155760005b60068160ff16101561130f578260ff1684604001518260ff16815181106112e2576112e16129ec565b5b602002602001015160ff16036112fc576001915050611808565b808061130790612a1b565b9150506112b8565b50611801565b6005600a81111561132957611328611c51565b5b8360200151600a8111156113405761133f611c51565b5b03611411576000836040015160008151811061135f5761135e6129ec565b5b6020026020010151905060018160ff16148015611380575060018360ff1610155b80156113905750600c8360ff1611155b1561139f576001915050611808565b60028160ff161480156113b65750600d8360ff1610155b80156113c6575060188360ff1611155b156113d5576001915050611808565b60038160ff161480156113ec575060198360ff1610155b80156113fc575060248360ff1611155b1561140b576001915050611808565b50611800565b6006600a81111561142557611424611c51565b5b8360200151600a81111561143c5761143b611c51565b5b036114a15760005b600c8160ff16101561149b578260ff1684604001518260ff168151811061146e5761146d6129ec565b5b602002602001015160ff1603611488576001915050611808565b808061149390612a1b565b915050611444565b506117ff565b6007600a8111156114b5576114b4611c51565b5b8360200151600a8111156114cc576114cb611c51565b5b0361160457600060016002846114e29190612a44565b60ff161480156114f65750600a8360ff1611155b806115305750600060028461150b9190612a44565b60ff1614801561151f5750600b8360ff1610155b801561152f575060128360ff1611155b5b8061156a575060016002846115459190612a44565b60ff16148015611559575060138360ff1610155b80156115695750601c8360ff1611155b5b806115945750600060028461157f9190612a44565b60ff161480156115935750601d8360ff1610155b5b9050600184604001516000815181106115b0576115af6129ec565b5b602002602001015160ff161480156115c55750805b806115fc5750600084604001516000815181106115e5576115e46129ec565b5b602002602001015160ff161480156115fb575080155b5b915050611808565b6008600a81111561161857611617611c51565b5b8360200151600a81111561162f5761162e611c51565b5b036116c4576001836040015160008151811061164e5761164d6129ec565b5b602002602001015160ff16148015611675575060006002836116709190612a44565b60ff16145b806116bd575060008360400151600081518110611695576116946129ec565b5b602002602001015160ff161480156116bc575060016002836116b79190612a44565b60ff16145b5b9050611808565b6009600a8111156116d8576116d7611c51565b5b8360200151600a8111156116ef576116ee611c51565b5b0361178e576001836040015160008151811061170e5761170d6129ec565b5b602002602001015160ff1614801561172a575060018260ff1610155b801561173a575060128260ff1611155b8061178757506000836040015160008151811061175a576117596129ec565b5b602002602001015160ff16148015611776575060138260ff1610155b8015611786575060248260ff1611155b5b9050611808565b600a808111156117a1576117a0611c51565b5b8360200151600a8111156117b8576117b7611c51565b5b036117fe5760006003836117cc9190612a44565b90508060ff1684604001516000815181106117ea576117e96129ec565b5b602002602001015160ff1614915050611808565b5b5b5b5b5b600090505b92915050565b600080600a81111561182357611822611c51565b5b8260200151600a81111561183a57611839611c51565b5b0361185757602482600001516118509190612a75565b9050611b02565b6001600a81111561186b5761186a611c51565b5b8260200151600a81111561188257611881611c51565b5b0361189f57601282600001516118989190612a75565b9050611b02565b6002600a8111156118b3576118b2611c51565b5b8260200151600a8111156118ca576118c9611c51565b5b036118e757600982600001516118e09190612a75565b9050611b02565b6003600a8111156118fb576118fa611c51565b5b8260200151600a81111561191257611911611c51565b5b0361192f57600c82600001516119289190612a75565b9050611b02565b6004600a81111561194357611942611c51565b5b8260200151600a81111561195a57611959611c51565b5b0361197757600682600001516119709190612a75565b9050611b02565b6005600a81111561198b5761198a611c51565b5b8260200151600a8111156119a2576119a1611c51565b5b036119bf57600382600001516119b89190612a75565b9050611b02565b6006600a8111156119d3576119d2611c51565b5b8260200151600a8111156119ea576119e9611c51565b5b03611a075760038260000151611a009190612a75565b9050611b02565b6007600a811115611a1b57611a1a611c51565b5b8260200151600a811115611a3257611a31611c51565b5b1480611a6657506008600a811115611a4d57611a4c611c51565b5b8260200151600a811115611a6457611a63611c51565b5b145b80611a9957506009600a811115611a8057611a7f611c51565b5b8260200151600a811115611a9757611a96611c51565b5b145b15611ab65760028260000151611aaf9190612a75565b9050611b02565b600a80811115611ac957611ac8611c51565b5b8260200151600a811115611ae057611adf611c51565b5b03611afd5760038260000151611af69190612a75565b9050611b02565b600090505b919050565b82805482825590600052602060002090601f01602090048101928215611b9d5791602002820160005b83821115611b6e57835183826101000a81548160ff021916908360ff1602179055509260200192600101602081600001049283019260010302611b30565b8015611b9b5782816101000a81549060ff0219169055600101602081600001049283019260010302611b6e565b505b509050611baa9190611bae565b5090565b5b80821115611bc7576000816000905550600101611baf565b5090565b6000604051905090565b600080fd5b600080fd5b6000819050919050565b611bf281611bdf565b8114611bfd57600080fd5b50565b600081359050611c0f81611be9565b92915050565b600060208284031215611c2b57611c2a611bd5565b5b6000611c3984828501611c00565b91505092915050565b611c4b81611bdf565b82525050565b7f4e487b7100000000000000000000000000000000000000000000000000000000600052602160045260246000fd5b600b8110611c9157611c90611c51565b5b50565b6000819050611ca282611c80565b919050565b6000611cb282611c94565b9050919050565b611cc281611ca7565b82525050565b600081519050919050565b600082825260208201905092915050565b6000819050602082019050919050565b600060ff82169050919050565b611d0a81611cf4565b82525050565b6000611d1c8383611d01565b60208301905092915050565b6000602082019050919050565b6000611d4082611cc8565b611d4a8185611cd3565b9350611d5583611ce4565b8060005b83811015611d86578151611d6d8882611d10565b9750611d7883611d28565b925050600181019050611d59565b5085935050505092915050565b6000606082019050611da86000830186611c42565b611db56020830185611cb9565b8181036040830152611dc78184611d35565b9050949350505050565b6000604082019050611de66000830185611c42565b611df36020830184611cb9565b9392505050565b600b8110611e0757600080fd5b50565b600081359050611e1981611dfa565b92915050565b600080fd5b6000601f19601f8301169050919050565b7f4e487b7100000000000000000000000000000000000000000000000000000000600052604160045260246000fd5b611e6d82611e24565b810181811067ffffffffffffffff82111715611e8c57611e8b611e35565b5b80604052505050565b6000611e9f611bcb565b9050611eab8282611e64565b919050565b600067ffffffffffffffff821115611ecb57611eca611e35565b5b602082029050602081019050919050565b600080fd5b611eea81611cf4565b8114611ef557600080fd5b50565b600081359050611f0781611ee1565b92915050565b6000611f20611f1b84611eb0565b611e95565b90508083825260208201905060208402830185811115611f4357611f42611edc565b5b835b81811015611f6c5780611f588882611ef8565b845260208401935050602081019050611f45565b5050509392505050565b600082601f830112611f8b57611f8a611e1f565b5b8135611f9b848260208601611f0d565b91505092915050565b60008060408385031215611fbb57611fba611bd5565b5b6000611fc985828601611e0a565b925050602083013567ffffffffffffffff811115611fea57611fe9611bda565b5b611ff685828601611f76565b9150509250929050565b60006020820190506120156000830184611c42565b92915050565b600073ffffffffffffffffffffffffffffffffffffffff82169050919050565b60006120468261201b565b9050919050565b6120568161203b565b811461206157600080fd5b50565b6000813590506120738161204d565b92915050565b60006020828403121561208f5761208e611bd5565b5b600061209d84828501612064565b91505092915050565b6120af8161203b565b82525050565b60006040820190506120ca60008301856120a6565b6120d76020830184611c42565b9392505050565b6120e781611cf4565b82525050565b600060208201905061210260008301846120de565b92915050565b6000819050919050565b61212361211e82611bdf565b612108565b82525050565b60006121358285612112565b6020820191506121458284612112565b6020820191508190509392505050565b7f4e487b7100000000000000000000000000000000000000000000000000000000600052601260045260246000fd5b600061218f82611bdf565b915061219a83611bdf565b9250826121aa576121a9612155565b5b828206905092915050565b7f4e487b7100000000000000000000000000000000000000000000000000000000600052601160045260246000fd5b60006121ef82611bdf565b91507fffffffffffffffffffffffffffffffffffffffffffffffffffffffffffffffff8203612221576122206121b5565b5b600182019050919050565b600061223782611bdf565b915061224283611bdf565b925082820390508181111561225a576122596121b5565b5b92915050565b60006040820190506122756000830185611c42565b61228260208301846120de565b9392505050565b600082825260208201905092915050565b7f57616c6c657420616c726561647920636f6e6e65637465640000000000000000600082015250565b60006122d0601883612289565b91506122db8261229a565b602082019050919050565b600060208201905081810360008301526122ff816122c3565b9050919050565b7f496e73756666696369656e742062616c616e6365000000000000000000000000600082015250565b600061233c601483612289565b915061234782612306565b602082019050919050565b6000602082019050818103600083015261236b8161232f565b9050919050565b7f496e76616c6964207370696e2049440000000000000000000000000000000000600082015250565b60006123a8600f83612289565b91506123b382612372565b602082019050919050565b600060208201905081810360008301526123d78161239b565b9050919050565b60006123e982611bdf565b91506123f483611bdf565b925082820190508082111561240c5761240b6121b5565b5b92915050565b7f57616c6c6574206e6f7420636f6e6e6563746564000000000000000000000000600082015250565b6000612448601483612289565b915061245382612412565b602082019050919050565b600060208201905081810360008301526124778161243b565b9050919050565b7f42657420616d6f756e74206d7573742062652067726561746572207468616e2060008201527f3000000000000000000000000000000000000000000000000000000000000000602082015250565b60006124da602183612289565b91506124e58261247e565b604082019050919050565b60006020820190508181036000830152612509816124cd565b9050919050565b7f53696e676c65206265742072657175697265732065786163746c79203120636860008201527f6f69636500000000000000000000000000000000000000000000000000000000602082015250565b600061256c602483612289565b915061257782612510565b604082019050919050565b6000602082019050818103600083015261259b8161255f565b9050919050565b7f446f75626c65206265742072657175697265732065786163746c79203220636860008201527f6f69636573000000000000000000000000000000000000000000000000000000602082015250565b60006125fe602583612289565b9150612609826125a2565b604082019050919050565b6000602082019050818103600083015261262d816125f1565b9050919050565b7f537175617265206265742072657175697265732065786163746c79203420636860008201527f6f69636573000000000000000000000000000000000000000000000000000000602082015250565b6000612690602583612289565b915061269b82612634565b604082019050919050565b600060208201905081810360008301526126bf81612683565b9050919050565b7f526f77206265742072657175697265732065786163746c7920332063686f696360008201527f6573000000000000000000000000000000000000000000000000000000000000602082015250565b6000612722602283612289565b915061272d826126c6565b604082019050919050565b6000602082019050818103600083015261275181612715565b9050919050565b7f446f75626c6520726f77206265742072657175697265732065786163746c792060008201527f362063686f696365730000000000000000000000000000000000000000000000602082015250565b60006127b4602983612289565b91506127bf82612758565b604082019050919050565b600060208201905081810360008301526127e3816127a7565b9050919050565b7f41726561206265742072657175697265732065786163746c7920312063686f6960008201527f6365000000000000000000000000000000000000000000000000000000000000602082015250565b6000612846602283612289565b9150612851826127ea565b604082019050919050565b6000602082019050818103600083015261287581612839565b9050919050565b7f436f6c756d6e206265742072657175697265732065786163746c79203132206360008201527f686f696365730000000000000000000000000000000000000000000000000000602082015250565b60006128d8602683612289565b91506128e38261287c565b604082019050919050565b60006020820190508181036000830152612907816128cb565b9050919050565b7f5370656369616c206265742072657175697265732065786163746c792031206360008201527f686f696365000000000000000000000000000000000000000000000000000000602082015250565b600061296a602583612289565b91506129758261290e565b604082019050919050565b600060208201905081810360008301526129998161295d565b9050919050565b60006080820190506129b56000830187611c42565b6129c26020830186611cb9565b81810360408301526129d48185611d35565b90506129e36060830184611c42565b95945050505050565b7f4e487b7100000000000000000000000000000000000000000000000000000000600052603260045260246000fd5b6000612a2682611cf4565b915060ff8203612a3957612a386121b5565b5b600182019050919050565b6000612a4f82611cf4565b9150612a5a83611cf4565b925082612a6a57612a69612155565b5b828206905092915050565b6000612a8082611bdf565b9150612a8b83611bdf565b9250828202612a9981611bdf565b91508282048414831517612ab057612aaf6121b5565b5b509291505056fea2646970667358221220aa16ce4a030eeee818062388969ec9d7ddfdf2a1a97525497eceb6286dda144a64736f6c63430008130033","opcodes":"PUSH1 0x80 PUSH1 0x40 MSTORE CALLVALUE DUP1 ISZERO PUSH2 0x10 JUMPI PUSH1 0x0 DUP1 REVERT JUMPDEST POP PUSH2 0x2AED DUP1 PUSH2 0x20 PUSH1 0x0 CODECOPY PUSH1 0x0 RETURN INVALID PUSH1 0x80 PUSH1 0x40 MSTORE PUSH1 0x4 CALLDATASIZE LT PUSH2 0xA0 JUMPI PUSH1 0x0 CALLDATALOAD PUSH1 0xE0 SHR DUP1 PUSH4 0x3BB91C77 GT PUSH2 0x64 JUMPI DUP1 PUSH4 0x3BB91C77 EQ PUSH2 0x17D JUMPI DUP1 PUSH4 0x72E52A9A EQ PUSH2 0x1A6 JUMPI DUP1 PUSH4 0xA416F5AB EQ PUSH2 0x1C2 JUMPI DUP1 PUSH4 0xD4BCC0E1 EQ PUSH2 0x1ED JUMPI DUP1 PUSH4 0xE2EB41FF EQ PUSH2 0x218 JUMPI DUP1 PUSH4 0xE4F32206 EQ PUSH2 0x256 JUMPI PUSH2 0xA7 JUMP JUMPDEST DUP1 PUSH4 0x61E494F EQ PUSH2 0xA9 JUMPI DUP1 PUSH4 0x15ECEF92 EQ PUSH2 0xE8 JUMPI DUP1 PUSH4 0x22AF00FA EQ PUSH2 0xFF JUMPI DUP1 PUSH4 0x2D66F063 EQ PUSH2 0x13D JUMPI DUP1 PUSH4 0x2E1A7D4D EQ PUSH2 0x154 JUMPI PUSH2 0xA7 JUMP JUMPDEST CALLDATASIZE PUSH2 0xA7 JUMPI STOP JUMPDEST STOP JUMPDEST CALLVALUE DUP1 ISZERO PUSH2 0xB5 JUMPI PUSH1 0x0 DUP1 REVERT JUMPDEST POP PUSH2 0xD0 PUSH1 0x4 DUP1 CALLDATASIZE SUB DUP2 ADD SWAP1 PUSH2 0xCB SWAP2 SWAP1 PUSH2 0x1C15 JUMP JUMPDEST PUSH2 0x293 JUMP JUMPDEST PUSH1 0x40 MLOAD PUSH2 0xDF SWAP4 SWAP3 SWAP2 SWAP1 PUSH2 0x1D93 JUMP JUMPDEST PUSH1 0x40 MLOAD DUP1 SWAP2 SUB SWAP1 RETURN JUMPDEST CALLVALUE DUP1 ISZERO PUSH2 0xF4 JUMPI PUSH1 0x0 DUP1 REVERT JUMPDEST POP PUSH2 0xFD PUSH2 0x350 JUMP JUMPDEST STOP JUMPDEST CALLVALUE DUP1 ISZERO PUSH2 0x10B JUMPI PUSH1 0x0 DUP1 REVERT JUMPDEST POP PUSH2 0x126 PUSH1 0x4 DUP1 CALLDATASIZE SUB DUP2 ADD SWAP1 PUSH2 0x121 SWAP2 SWAP1 PUSH2 0x1C15 JUMP JUMPDEST PUSH2 0x41C JUMP JUMPDEST PUSH1 0x40 MLOAD PUSH2 0x134 SWAP3 SWAP2 SWAP1 PUSH2 0x1DD1 JUMP JUMPDEST PUSH1 0x40 MLOAD DUP1 SWAP2 SUB SWAP1 RETURN JUMPDEST CALLVALUE DUP1 ISZERO PUSH2 0x149 JUMPI PUSH1 0x0 DUP1 REVERT JUMPDEST POP PUSH2 0x152 PUSH2 0x44D JUMP JUMPDEST STOP JUMPDEST CALLVALUE DUP1 ISZERO PUSH2 0x160 JUMPI PUSH1 0x0 DUP1 REVERT JUMPDEST POP PUSH2 0x17B PUSH1 0x4 DUP1 CALLDATASIZE SUB DUP2 ADD SWAP1 PUSH2 0x176 SWAP2 SWAP1 PUSH2 0x1C15 JUMP JUMPDEST PUSH2 0x5DD JUMP JUMPDEST STOP JUMPDEST CALLVALUE DUP1 ISZERO PUSH2 0x189 JUMPI PUSH1 0x0 DUP1 REVERT JUMPDEST POP PUSH2 0x1A4 PUSH1 0x4 DUP1 CALLDATASIZE SUB DUP2 ADD SWAP1 PUSH2 0x19F SWAP2 SWAP1 PUSH2 0x1C15 JUMP JUMPDEST PUSH2 0x703 JUMP JUMPDEST STOP JUMPDEST PUSH2 0x1C0 PUSH1 0x4 DUP1 CALLDATASIZE SUB DUP2 ADD SWAP1 PUSH2 0x1BB SWAP2 SWAP1 PUSH2 0x1FA4 JUMP JUMPDEST PUSH2 0x94A JUMP JUMPDEST STOP JUMPDEST CALLVALUE DUP1 ISZERO PUSH2 0x1CE JUMPI PUSH1 0x0 DUP1 REVERT JUMPDEST POP PUSH2 0x1D7 PUSH2 0x1007 JUMP JUMPDEST PUSH1 0x40 MLOAD PUSH2 0x1E4 SWAP2 SWAP1 PUSH2 0x2000 JUMP JUMPDEST PUSH1 0x40 MLOAD DUP1 SWAP2 SUB SWAP1 RETURN JUMPDEST CALLVALUE DUP1 ISZERO PUSH2 0x1F9 JUMPI PUSH1 0x0 DUP1 REVERT JUMPDEST POP PUSH2 0x202 PUSH2 0x100D JUMP JUMPDEST PUSH1 0x40 MLOAD PUSH2 0x20F SWAP2 SWAP1 PUSH2 0x2000 JUMP JUMPDEST PUSH1 0x40 MLOAD DUP1 SWAP2 SUB SWAP1 RETURN JUMPDEST CALLVALUE DUP1 ISZERO PUSH2 0x224 JUMPI PUSH1 0x0 DUP1 REVERT JUMPDEST POP PUSH2 0x23F PUSH1 0x4 DUP1 CALLDATASIZE SUB DUP2 ADD SWAP1 PUSH2 0x23A SWAP2 SWAP1 PUSH2 0x2079 JUMP JUMPDEST PUSH2 0x1013 JUMP JUMPDEST PUSH1 0x40 MLOAD PUSH2 0x24D SWAP3 SWAP2 SWAP1 PUSH2 0x20B5 JUMP JUMPDEST PUSH1 0x40 MLOAD DUP1 SWAP2 SUB SWAP1 RETURN JUMPDEST CALLVALUE DUP1 ISZERO PUSH2 0x262 JUMPI PUSH1 0x0 DUP1 REVERT JUMPDEST POP PUSH2 0x27D PUSH1 0x4 DUP1 CALLDATASIZE SUB DUP2 ADD SWAP1 PUSH2 0x278 SWAP2 SWAP1 PUSH2 0x1C15 JUMP JUMPDEST PUSH2 0x1057 JUMP JUMPDEST PUSH1 0x40 MLOAD PUSH2 0x28A SWAP2 SWAP1 PUSH2 0x20ED JUMP JUMPDEST PUSH1 0x40 MLOAD DUP1 SWAP2 SUB SWAP1 RETURN JUMPDEST PUSH1 0x0 DUP1 PUSH1 0x60 PUSH1 0x0 PUSH1 0x1 PUSH1 0x0 DUP7 DUP2 MSTORE PUSH1 0x20 ADD SWAP1 DUP2 MSTORE PUSH1 0x20 ADD PUSH1 0x0 KECCAK256 SWAP1 POP DUP1 PUSH1 0x0 ADD SLOAD DUP2 PUSH1 0x1 ADD PUSH1 0x0 SWAP1 SLOAD SWAP1 PUSH2 0x100 EXP SWAP1 DIV PUSH1 0xFF AND DUP3 PUSH1 0x2 ADD DUP1 DUP1 SLOAD DUP1 PUSH1 0x20 MUL PUSH1 0x20 ADD PUSH1 0x40 MLOAD SWAP1 DUP2 ADD PUSH1 0x40 MSTORE DUP1 SWAP3 SWAP2 SWAP1 DUP2 DUP2 MSTORE PUSH1 0x20 ADD DUP3 DUP1 SLOAD DUP1 ISZERO PUSH2 0x33B JUMPI PUSH1 0x20 MUL DUP3 ADD SWAP2 SWAP1 PUSH1 0x0 MSTORE PUSH1 0x20 PUSH1 0x0 KECCAK256 SWAP1 PUSH1 0x0 SWAP1 JUMPDEST DUP3 DUP3 SWAP1 SLOAD SWAP1 PUSH2 0x100 EXP SWAP1 DIV PUSH1 0xFF AND PUSH1 0xFF AND DUP2 MSTORE PUSH1 0x20 ADD SWAP1 PUSH1 0x1 ADD SWAP1 PUSH1 0x20 DUP3 PUSH1 0x0 ADD DIV SWAP3 DUP4 ADD SWAP3 PUSH1 0x1 SUB DUP3 MUL SWAP2 POP DUP1 DUP5 GT PUSH2 0x304 JUMPI SWAP1 POP JUMPDEST POP POP POP POP POP SWAP1 POP SWAP4 POP SWAP4 POP SWAP4 POP POP SWAP2 SWAP4 SWAP1 SWAP3 POP JUMP JUMPDEST PUSH1 0x0 PUSH1 0x25 TIMESTAMP PREVRANDAO PUSH1 0x40 MLOAD PUSH1 0x20 ADD PUSH2 0x367 SWAP3 SWAP2 SWAP1 PUSH2 0x2129 JUMP JUMPDEST PUSH1 0x40 MLOAD PUSH1 0x20 DUP2 DUP4 SUB SUB DUP2 MSTORE SWAP1 PUSH1 0x40 MSTORE DUP1 MLOAD SWAP1 PUSH1 0x20 ADD KECCAK256 PUSH1 0x0 SHR PUSH2 0x38A SWAP2 SWAP1 PUSH2 0x2184 JUMP JUMPDEST SWAP1 POP DUP1 PUSH1 0x2 PUSH1 0x0 PUSH1 0x3 SLOAD DUP2 MSTORE PUSH1 0x20 ADD SWAP1 DUP2 MSTORE PUSH1 0x20 ADD PUSH1 0x0 KECCAK256 PUSH1 0x0 PUSH2 0x100 EXP DUP2 SLOAD DUP2 PUSH1 0xFF MUL NOT AND SWAP1 DUP4 PUSH1 0xFF AND MUL OR SWAP1 SSTORE POP PUSH1 0x3 PUSH1 0x0 DUP2 SLOAD DUP1 SWAP3 SWAP2 SWAP1 PUSH2 0x3CD SWAP1 PUSH2 0x21E4 JUMP JUMPDEST SWAP2 SWAP1 POP SSTORE POP PUSH32 0x67ACA3205B35C43DF87036F2DC8E31C60461B3D7194A864B2A9C2AC724A0CD02 PUSH1 0x1 PUSH1 0x3 SLOAD PUSH2 0x402 SWAP2 SWAP1 PUSH2 0x222C JUMP JUMPDEST DUP3 PUSH1 0x40 MLOAD PUSH2 0x411 SWAP3 SWAP2 SWAP1 PUSH2 0x2260 JUMP JUMPDEST PUSH1 0x40 MLOAD DUP1 SWAP2 SUB SWAP1 LOG1 POP JUMP JUMPDEST PUSH1 0x1 PUSH1 0x20 MSTORE DUP1 PUSH1 0x0 MSTORE PUSH1 0x40 PUSH1 0x0 KECCAK256 PUSH1 0x0 SWAP2 POP SWAP1 POP DUP1 PUSH1 0x0 ADD SLOAD SWAP1 DUP1 PUSH1 0x1 ADD PUSH1 0x0 SWAP1 SLOAD SWAP1 PUSH2 0x100 EXP SWAP1 DIV PUSH1 0xFF AND SWAP1 POP DUP3 JUMP JUMPDEST PUSH1 0x0 PUSH20 0xFFFFFFFFFFFFFFFFFFFFFFFFFFFFFFFFFFFFFFFF AND PUSH1 0x0 DUP1 CALLER PUSH20 0xFFFFFFFFFFFFFFFFFFFFFFFFFFFFFFFFFFFFFFFF AND PUSH20 0xFFFFFFFFFFFFFFFFFFFFFFFFFFFFFFFFFFFFFFFF AND DUP2 MSTORE PUSH1 0x20 ADD SWAP1 DUP2 MSTORE PUSH1 0x20 ADD PUSH1 0x0 KECCAK256 PUSH1 0x0 ADD PUSH1 0x0 SWAP1 SLOAD SWAP1 PUSH2 0x100 EXP SWAP1 DIV PUSH20 0xFFFFFFFFFFFFFFFFFFFFFFFFFFFFFFFFFFFFFFFF AND PUSH20 0xFFFFFFFFFFFFFFFFFFFFFFFFFFFFFFFFFFFFFFFF AND EQ PUSH2 0x51D JUMPI PUSH1 0x40 MLOAD PUSH32 0x8C379A000000000000000000000000000000000000000000000000000000000 DUP2 MSTORE PUSH1 0x4 ADD PUSH2 0x514 SWAP1 PUSH2 0x22E6 JUMP JUMPDEST PUSH1 0x40 MLOAD DUP1 SWAP2 SUB SWAP1 REVERT JUMPDEST PUSH1 0x40 MLOAD DUP1 PUSH1 0x40 ADD PUSH1 0x40 MSTORE DUP1 CALLER PUSH20 0xFFFFFFFFFFFFFFFFFFFFFFFFFFFFFFFFFFFFFFFF AND DUP2 MSTORE PUSH1 0x20 ADD PUSH1 0x0 DUP2 MSTORE POP PUSH1 0x0 DUP1 CALLER PUSH20 0xFFFFFFFFFFFFFFFFFFFFFFFFFFFFFFFFFFFFFFFF AND PUSH20 0xFFFFFFFFFFFFFFFFFFFFFFFFFFFFFFFFFFFFFFFF AND DUP2 MSTORE PUSH1 0x20 ADD SWAP1 DUP2 MSTORE PUSH1 0x20 ADD PUSH1 0x0 KECCAK256 PUSH1 0x0 DUP3 ADD MLOAD DUP2 PUSH1 0x0 ADD PUSH1 0x0 PUSH2 0x100 EXP DUP2 SLOAD DUP2 PUSH20 0xFFFFFFFFFFFFFFFFFFFFFFFFFFFFFFFFFFFFFFFF MUL NOT AND SWAP1 DUP4 PUSH20 0xFFFFFFFFFFFFFFFFFFFFFFFFFFFFFFFFFFFFFFFF AND MUL OR SWAP1 SSTORE POP PUSH1 0x20 DUP3 ADD MLOAD DUP2 PUSH1 0x1 ADD SSTORE SWAP1 POP POP JUMP JUMPDEST DUP1 PUSH1 0x0 DUP1 CALLER PUSH20 0xFFFFFFFFFFFFFFFFFFFFFFFFFFFFFFFFFFFFFFFF AND PUSH20 0xFFFFFFFFFFFFFFFFFFFFFFFFFFFFFFFFFFFFFFFF AND DUP2 MSTORE PUSH1 0x20 ADD SWAP1 DUP2 MSTORE PUSH1 0x20 ADD PUSH1 0x0 KECCAK256 PUSH1 0x1 ADD SLOAD LT ISZERO PUSH2 0x661 JUMPI PUSH1 0x40 MLOAD PUSH32 0x8C379A000000000000000000000000000000000000000000000000000000000 DUP2 MSTORE PUSH1 0x4 ADD PUSH2 0x658 SWAP1 PUSH2 0x2352 JUMP JUMPDEST PUSH1 0x40 MLOAD DUP1 SWAP2 SUB SWAP1 REVERT JUMPDEST DUP1 PUSH1 0x0 DUP1 CALLER PUSH20 0xFFFFFFFFFFFFFFFFFFFFFFFFFFFFFFFFFFFFFFFF AND PUSH20 0xFFFFFFFFFFFFFFFFFFFFFFFFFFFFFFFFFFFFFFFF AND DUP2 MSTORE PUSH1 0x20 ADD SWAP1 DUP2 MSTORE PUSH1 0x20 ADD PUSH1 0x0 KECCAK256 PUSH1 0x1 ADD PUSH1 0x0 DUP3 DUP3 SLOAD PUSH2 0x6B2 SWAP2 SWAP1 PUSH2 0x222C JUMP JUMPDEST SWAP3 POP POP DUP2 SWAP1 SSTORE POP CALLER PUSH20 0xFFFFFFFFFFFFFFFFFFFFFFFFFFFFFFFFFFFFFFFF AND PUSH2 0x8FC DUP3 SWAP1 DUP2 ISZERO MUL SWAP1 PUSH1 0x40 MLOAD PUSH1 0x0 PUSH1 0x40 MLOAD DUP1 DUP4 SUB DUP2 DUP6 DUP9 DUP9 CALL SWAP4 POP POP POP POP ISZERO DUP1 ISZERO PUSH2 0x6FF JUMPI RETURNDATASIZE PUSH1 0x0 DUP1 RETURNDATACOPY RETURNDATASIZE PUSH1 0x0 REVERT JUMPDEST POP POP JUMP JUMPDEST PUSH1 0x3 SLOAD DUP2 LT PUSH2 0x747 JUMPI PUSH1 0x40 MLOAD PUSH32 0x8C379A000000000000000000000000000000000000000000000000000000000 DUP2 MSTORE PUSH1 0x4 ADD PUSH2 0x73E SWAP1 PUSH2 0x23BE JUMP JUMPDEST PUSH1 0x40 MLOAD DUP1 SWAP2 SUB SWAP1 REVERT JUMPDEST PUSH1 0x0 PUSH1 0x2 PUSH1 0x0 DUP4 DUP2 MSTORE PUSH1 0x20 ADD SWAP1 DUP2 MSTORE PUSH1 0x20 ADD PUSH1 0x0 KECCAK256 PUSH1 0x0 SWAP1 SLOAD SWAP1 PUSH2 0x100 EXP SWAP1 DIV PUSH1 0xFF AND SWAP1 POP PUSH1 0x0 JUMPDEST PUSH1 0x4 SLOAD DUP2 LT ISZERO PUSH2 0x945 JUMPI PUSH1 0x0 PUSH1 0x1 PUSH1 0x0 DUP4 DUP2 MSTORE PUSH1 0x20 ADD SWAP1 DUP2 MSTORE PUSH1 0x20 ADD PUSH1 0x0 KECCAK256 PUSH1 0x40 MLOAD DUP1 PUSH1 0x60 ADD PUSH1 0x40 MSTORE SWAP1 DUP2 PUSH1 0x0 DUP3 ADD SLOAD DUP2 MSTORE PUSH1 0x20 ADD PUSH1 0x1 DUP3 ADD PUSH1 0x0 SWAP1 SLOAD SWAP1 PUSH2 0x100 EXP SWAP1 DIV PUSH1 0xFF AND PUSH1 0xA DUP2 GT ISZERO PUSH2 0x7C8 JUMPI PUSH2 0x7C7 PUSH2 0x1C51 JUMP JUMPDEST JUMPDEST PUSH1 0xA DUP2 GT ISZERO PUSH2 0x7DA JUMPI PUSH2 0x7D9 PUSH2 0x1C51 JUMP JUMPDEST JUMPDEST DUP2 MSTORE PUSH1 0x20 ADD PUSH1 0x2 DUP3 ADD DUP1 SLOAD DUP1 PUSH1 0x20 MUL PUSH1 0x20 ADD PUSH1 0x40 MLOAD SWAP1 DUP2 ADD PUSH1 0x40 MSTORE DUP1 SWAP3 SWAP2 SWAP1 DUP2 DUP2 MSTORE PUSH1 0x20 ADD DUP3 DUP1 SLOAD DUP1 ISZERO PUSH2 0x853 JUMPI PUSH1 0x20 MUL DUP3 ADD SWAP2 SWAP1 PUSH1 0x0 MSTORE PUSH1 0x20 PUSH1 0x0 KECCAK256 SWAP1 PUSH1 0x0 SWAP1 JUMPDEST DUP3 DUP3 SWAP1 SLOAD SWAP1 PUSH2 0x100 EXP SWAP1 DIV PUSH1 0xFF AND PUSH1 0xFF AND DUP2 MSTORE PUSH1 0x20 ADD SWAP1 PUSH1 0x1 ADD SWAP1 PUSH1 0x20 DUP3 PUSH1 0x0 ADD DIV SWAP3 DUP4 ADD SWAP3 PUSH1 0x1 SUB DUP3 MUL SWAP2 POP DUP1 DUP5 GT PUSH2 0x81C JUMPI SWAP1 POP JUMPDEST POP POP POP POP POP DUP2 MSTORE POP POP SWAP1 POP PUSH2 0x868 DUP2 DUP5 PUSH2 0x1077 JUMP JUMPDEST ISZERO PUSH2 0x931 JUMPI PUSH1 0x0 PUSH2 0x878 DUP3 PUSH2 0x180E JUMP JUMPDEST SWAP1 POP DUP2 PUSH1 0x0 ADD MLOAD DUP2 PUSH2 0x88A SWAP2 SWAP1 PUSH2 0x222C JUMP JUMPDEST PUSH1 0x0 DUP1 CALLER PUSH20 0xFFFFFFFFFFFFFFFFFFFFFFFFFFFFFFFFFFFFFFFF AND PUSH20 0xFFFFFFFFFFFFFFFFFFFFFFFFFFFFFFFFFFFFFFFF AND DUP2 MSTORE PUSH1 0x20 ADD SWAP1 DUP2 MSTORE PUSH1 0x20 ADD PUSH1 0x0 KECCAK256 PUSH1 0x1 ADD PUSH1 0x0 DUP3 DUP3 SLOAD PUSH2 0x8DA SWAP2 SWAP1 PUSH2 0x23DE JUMP JUMPDEST SWAP3 POP POP DUP2 SWAP1 SSTORE POP CALLER PUSH20 0xFFFFFFFFFFFFFFFFFFFFFFFFFFFFFFFFFFFFFFFF AND PUSH32 0x5AFECA38B2064C23A692C4CF353015D80AB3ECC417B4F893F372690C11FBD9A6 DUP3 PUSH1 0x40 MLOAD PUSH2 0x927 SWAP2 SWAP1 PUSH2 0x2000 JUMP JUMPDEST PUSH1 0x40 MLOAD DUP1 SWAP2 SUB SWAP1 LOG2 POP JUMPDEST POP DUP1 DUP1 PUSH2 0x93D SWAP1 PUSH2 0x21E4 JUMP JUMPDEST SWAP2 POP POP PUSH2 0x76F JUMP JUMPDEST POP POP POP JUMP JUMPDEST PUSH1 0x0 PUSH20 0xFFFFFFFFFFFFFFFFFFFFFFFFFFFFFFFFFFFFFFFF AND PUSH1 0x0 DUP1 CALLER PUSH20 0xFFFFFFFFFFFFFFFFFFFFFFFFFFFFFFFFFFFFFFFF AND PUSH20 0xFFFFFFFFFFFFFFFFFFFFFFFFFFFFFFFFFFFFFFFF AND DUP2 MSTORE PUSH1 0x20 ADD SWAP1 DUP2 MSTORE PUSH1 0x20 ADD PUSH1 0x0 KECCAK256 PUSH1 0x0 ADD PUSH1 0x0 SWAP1 SLOAD SWAP1 PUSH2 0x100 EXP SWAP1 DIV PUSH20 0xFFFFFFFFFFFFFFFFFFFFFFFFFFFFFFFFFFFFFFFF AND PUSH20 0xFFFFFFFFFFFFFFFFFFFFFFFFFFFFFFFFFFFFFFFF AND SUB PUSH2 0xA1A JUMPI PUSH1 0x40 MLOAD PUSH32 0x8C379A000000000000000000000000000000000000000000000000000000000 DUP2 MSTORE PUSH1 0x4 ADD PUSH2 0xA11 SWAP1 PUSH2 0x245E JUMP JUMPDEST PUSH1 0x40 MLOAD DUP1 SWAP2 SUB SWAP1 REVERT JUMPDEST PUSH1 0x0 CALLVALUE GT PUSH2 0xA5D JUMPI PUSH1 0x40 MLOAD PUSH32 0x8C379A000000000000000000000000000000000000000000000000000000000 DUP2 MSTORE PUSH1 0x4 ADD PUSH2 0xA54 SWAP1 PUSH2 0x24F0 JUMP JUMPDEST PUSH1 0x40 MLOAD DUP1 SWAP2 SUB SWAP1 REVERT JUMPDEST PUSH1 0x0 PUSH1 0xA DUP2 GT ISZERO PUSH2 0xA71 JUMPI PUSH2 0xA70 PUSH2 0x1C51 JUMP JUMPDEST JUMPDEST DUP3 PUSH1 0xA DUP2 GT ISZERO PUSH2 0xA84 JUMPI PUSH2 0xA83 PUSH2 0x1C51 JUMP JUMPDEST JUMPDEST SUB PUSH2 0xAD2 JUMPI PUSH1 0x1 DUP2 MLOAD EQ PUSH2 0xACD JUMPI PUSH1 0x40 MLOAD PUSH32 0x8C379A000000000000000000000000000000000000000000000000000000000 DUP2 MSTORE PUSH1 0x4 ADD PUSH2 0xAC4 SWAP1 PUSH2 0x2582 JUMP JUMPDEST PUSH1 0x40 MLOAD DUP1 SWAP2 SUB SWAP1 REVERT JUMPDEST PUSH2 0xE95 JUMP JUMPDEST PUSH1 0x1 PUSH1 0xA DUP2 GT ISZERO PUSH2 0xAE6 JUMPI PUSH2 0xAE5 PUSH2 0x1C51 JUMP JUMPDEST JUMPDEST DUP3 PUSH1 0xA DUP2 GT ISZERO PUSH2 0xAF9 JUMPI PUSH2 0xAF8 PUSH2 0x1C51 JUMP JUMPDEST JUMPDEST SUB PUSH2 0xB47 JUMPI PUSH1 0x2 DUP2 MLOAD EQ PUSH2 0xB42 JUMPI PUSH1 0x40 MLOAD PUSH32 0x8C379A000000000000000000000000000000000000000000000000000000000 DUP2 MSTORE PUSH1 0x4 ADD PUSH2 0xB39 SWAP1 PUSH2 0x2614 JUMP JUMPDEST PUSH1 0x40 MLOAD DUP1 SWAP2 SUB SWAP1 REVERT JUMPDEST PUSH2 0xE94 JUMP JUMPDEST PUSH1 0x2 PUSH1 0xA DUP2 GT ISZERO PUSH2 0xB5B JUMPI PUSH2 0xB5A PUSH2 0x1C51 JUMP JUMPDEST JUMPDEST DUP3 PUSH1 0xA DUP2 GT ISZERO PUSH2 0xB6E JUMPI PUSH2 0xB6D PUSH2 0x1C51 JUMP JUMPDEST JUMPDEST SUB PUSH2 0xBBC JUMPI PUSH1 0x4 DUP2 MLOAD EQ PUSH2 0xBB7 JUMPI PUSH1 0x40 MLOAD PUSH32 0x8C379A000000000000000000000000000000000000000000000000000000000 DUP2 MSTORE PUSH1 0x4 ADD PUSH2 0xBAE SWAP1 PUSH2 0x26A6 JUMP JUMPDEST PUSH1 0x40 MLOAD DUP1 SWAP2 SUB SWAP1 REVERT JUMPDEST PUSH2 0xE93 JUMP JUMPDEST PUSH1 0x3 PUSH1 0xA DUP2 GT ISZERO PUSH2 0xBD0 JUMPI PUSH2 0xBCF PUSH2 0x1C51 JUMP JUMPDEST JUMPDEST DUP3 PUSH1 0xA DUP2 GT ISZERO PUSH2 0xBE3 JUMPI PUSH2 0xBE2 PUSH2 0x1C51 JUMP JUMPDEST JUMPDEST SUB PUSH2 0xC31 JUMPI PUSH1 0x3 DUP2 MLOAD EQ PUSH2 0xC2C JUMPI PUSH1 0x40 MLOAD PUSH32 0x8C379A000000000000000000000000000000000000000000000000000000000 DUP2 MSTORE PUSH1 0x4 ADD PUSH2 0xC23 SWAP1 PUSH2 0x2738 JUMP JUMPDEST PUSH1 0x40 MLOAD DUP1 SWAP2 SUB SWAP1 REVERT JUMPDEST PUSH2 0xE92 JUMP JUMPDEST PUSH1 0x4 PUSH1 0xA DUP2 GT ISZERO PUSH2 0xC45 JUMPI PUSH2 0xC44 PUSH2 0x1C51 JUMP JUMPDEST JUMPDEST DUP3 PUSH1 0xA DUP2 GT ISZERO PUSH2 0xC58 JUMPI PUSH2 0xC57 PUSH2 0x1C51 JUMP JUMPDEST JUMPDEST SUB PUSH2 0xCA6 JUMPI PUSH1 0x6 DUP2 MLOAD EQ PUSH2 0xCA1 JUMPI PUSH1 0x40 MLOAD PUSH32 0x8C379A000000000000000000000000000000000000000000000000000000000 DUP2 MSTORE PUSH1 0x4 ADD PUSH2 0xC98 SWAP1 PUSH2 0x27CA JUMP JUMPDEST PUSH1 0x40 MLOAD DUP1 SWAP2 SUB SWAP1 REVERT JUMPDEST PUSH2 0xE91 JUMP JUMPDEST PUSH1 0x5 PUSH1 0xA DUP2 GT ISZERO PUSH2 0xCBA JUMPI PUSH2 0xCB9 PUSH2 0x1C51 JUMP JUMPDEST JUMPDEST DUP3 PUSH1 0xA DUP2 GT ISZERO PUSH2 0xCCD JUMPI PUSH2 0xCCC PUSH2 0x1C51 JUMP JUMPDEST JUMPDEST SUB PUSH2 0xD1B JUMPI PUSH1 0x1 DUP2 MLOAD EQ PUSH2 0xD16 JUMPI PUSH1 0x40 MLOAD PUSH32 0x8C379A000000000000000000000000000000000000000000000000000000000 DUP2 MSTORE PUSH1 0x4 ADD PUSH2 0xD0D SWAP1 PUSH2 0x285C JUMP JUMPDEST PUSH1 0x40 MLOAD DUP1 SWAP2 SUB SWAP1 REVERT JUMPDEST PUSH2 0xE90 JUMP JUMPDEST PUSH1 0x6 PUSH1 0xA DUP2 GT ISZERO PUSH2 0xD2F JUMPI PUSH2 0xD2E PUSH2 0x1C51 JUMP JUMPDEST JUMPDEST DUP3 PUSH1 0xA DUP2 GT ISZERO PUSH2 0xD42 JUMPI PUSH2 0xD41 PUSH2 0x1C51 JUMP JUMPDEST JUMPDEST SUB PUSH2 0xD90 JUMPI PUSH1 0xC DUP2 MLOAD EQ PUSH2 0xD8B JUMPI PUSH1 0x40 MLOAD PUSH32 0x8C379A000000000000000000000000000000000000000000000000000000000 DUP2 MSTORE PUSH1 0x4 ADD PUSH2 0xD82 SWAP1 PUSH2 0x28EE JUMP JUMPDEST PUSH1 0x40 MLOAD DUP1 SWAP2 SUB SWAP1 REVERT JUMPDEST PUSH2 0xE8F JUMP JUMPDEST PUSH1 0x7 PUSH1 0xA DUP2 GT ISZERO PUSH2 0xDA4 JUMPI PUSH2 0xDA3 PUSH2 0x1C51 JUMP JUMPDEST JUMPDEST DUP3 PUSH1 0xA DUP2 GT ISZERO PUSH2 0xDB7 JUMPI PUSH2 0xDB6 PUSH2 0x1C51 JUMP JUMPDEST JUMPDEST EQ DUP1 PUSH2 0xDE7 JUMPI POP PUSH1 0x8 PUSH1 0xA DUP2 GT ISZERO PUSH2 0xDD2 JUMPI PUSH2 0xDD1 PUSH2 0x1C51 JUMP JUMPDEST JUMPDEST DUP3 PUSH1 0xA DUP2 GT ISZERO PUSH2 0xDE5 JUMPI PUSH2 0xDE4 PUSH2 0x1C51 JUMP JUMPDEST JUMPDEST EQ JUMPDEST DUP1 PUSH2 0xE16 JUMPI POP PUSH1 0x9 PUSH1 0xA DUP2 GT ISZERO PUSH2 0xE01 JUMPI PUSH2 0xE00 PUSH2 0x1C51 JUMP JUMPDEST JUMPDEST DUP3 PUSH1 0xA DUP2 GT ISZERO PUSH2 0xE14 JUMPI PUSH2 0xE13 PUSH2 0x1C51 JUMP JUMPDEST JUMPDEST EQ JUMPDEST DUP1 PUSH2 0xE44 JUMPI POP PUSH1 0xA DUP1 DUP2 GT ISZERO PUSH2 0xE2F JUMPI PUSH2 0xE2E PUSH2 0x1C51 JUMP JUMPDEST JUMPDEST DUP3 PUSH1 0xA DUP2 GT ISZERO PUSH2 0xE42 JUMPI PUSH2 0xE41 PUSH2 0x1C51 JUMP JUMPDEST JUMPDEST EQ JUMPDEST ISZERO PUSH2 0xE8E JUMPI PUSH1 0x1 DUP2 MLOAD EQ PUSH2 0xE8D JUMPI PUSH1 0x40 MLOAD PUSH32 0x8C379A000000000000000000000000000000000000000000000000000000000 DUP2 MSTORE PUSH1 0x4 ADD PUSH2 0xE84 SWAP1 PUSH2 0x2980 JUMP JUMPDEST PUSH1 0x40 MLOAD DUP1 SWAP2 SUB SWAP1 REVERT JUMPDEST JUMPDEST JUMPDEST JUMPDEST JUMPDEST JUMPDEST JUMPDEST JUMPDEST JUMPDEST PUSH1 0x40 MLOAD DUP1 PUSH1 0x60 ADD PUSH1 0x40 MSTORE DUP1 CALLVALUE DUP2 MSTORE PUSH1 0x20 ADD DUP4 PUSH1 0xA DUP2 GT ISZERO PUSH2 0xEB9 JUMPI PUSH2 0xEB8 PUSH2 0x1C51 JUMP JUMPDEST JUMPDEST DUP2 MSTORE PUSH1 0x20 ADD DUP3 DUP2 MSTORE POP PUSH1 0x1 PUSH1 0x0 PUSH1 0x4 SLOAD DUP2 MSTORE PUSH1 0x20 ADD SWAP1 DUP2 MSTORE PUSH1 0x20 ADD PUSH1 0x0 KECCAK256 PUSH1 0x0 DUP3 ADD MLOAD DUP2 PUSH1 0x0 ADD SSTORE PUSH1 0x20 DUP3 ADD MLOAD DUP2 PUSH1 0x1 ADD PUSH1 0x0 PUSH2 0x100 EXP DUP2 SLOAD DUP2 PUSH1 0xFF MUL NOT AND SWAP1 DUP4 PUSH1 0xA DUP2 GT ISZERO PUSH2 0xF0C JUMPI PUSH2 0xF0B PUSH2 0x1C51 JUMP JUMPDEST JUMPDEST MUL OR SWAP1 SSTORE POP PUSH1 0x40 DUP3 ADD MLOAD DUP2 PUSH1 0x2 ADD SWAP1 DUP1 MLOAD SWAP1 PUSH1 0x20 ADD SWAP1 PUSH2 0xF2D SWAP3 SWAP2 SWAP1 PUSH2 0x1B07 JUMP JUMPDEST POP SWAP1 POP POP CALLVALUE PUSH1 0x0 DUP1 CALLER PUSH20 0xFFFFFFFFFFFFFFFFFFFFFFFFFFFFFFFFFFFFFFFF AND PUSH20 0xFFFFFFFFFFFFFFFFFFFFFFFFFFFFFFFFFFFFFFFF AND DUP2 MSTORE PUSH1 0x20 ADD SWAP1 DUP2 MSTORE PUSH1 0x20 ADD PUSH1 0x0 KECCAK256 PUSH1 0x1 ADD PUSH1 0x0 DUP3 DUP3 SLOAD PUSH2 0xF82 SWAP2 SWAP1 PUSH2 0x23DE JUMP JUMPDEST SWAP3 POP POP DUP2 SWAP1 SSTORE POP PUSH1 0x4 PUSH1 0x0 DUP2 SLOAD DUP1 SWAP3 SWAP2 SWAP1 PUSH2 0xF9C SWAP1 PUSH2 0x21E4 JUMP JUMPDEST SWAP2 SWAP1 POP SSTORE POP CALLER PUSH20 0xFFFFFFFFFFFFFFFFFFFFFFFFFFFFFFFFFFFFFFFF AND PUSH32 0x164CD6FDC337108B0CF964C083E27CE6C44CB29596254995FCB9E212E34003BA PUSH1 0x1 PUSH1 0x4 SLOAD PUSH2 0xFE8 SWAP2 SWAP1 PUSH2 0x222C JUMP JUMPDEST DUP5 DUP5 CALLVALUE PUSH1 0x40 MLOAD PUSH2 0xFFB SWAP5 SWAP4 SWAP3 SWAP2 SWAP1 PUSH2 0x29A0 JUMP JUMPDEST PUSH1 0x40 MLOAD DUP1 SWAP2 SUB SWAP1 LOG2 POP POP JUMP JUMPDEST PUSH1 0x4 SLOAD DUP2 JUMP JUMPDEST PUSH1 0x3 SLOAD DUP2 JUMP JUMPDEST PUSH1 0x0 PUSH1 0x20 MSTORE DUP1 PUSH1 0x0 MSTORE PUSH1 0x40 PUSH1 0x0 KECCAK256 PUSH1 0x0 SWAP2 POP SWAP1 POP DUP1 PUSH1 0x0 ADD PUSH1 0x0 SWAP1 SLOAD SWAP1 PUSH2 0x100 EXP SWAP1 DIV PUSH20 0xFFFFFFFFFFFFFFFFFFFFFFFFFFFFFFFFFFFFFFFF AND SWAP1 DUP1 PUSH1 0x1 ADD SLOAD SWAP1 POP DUP3 JUMP JUMPDEST PUSH1 0x2 PUSH1 0x20 MSTORE DUP1 PUSH1 0x0 MSTORE PUSH1 0x40 PUSH1 0x0 KECCAK256 PUSH1 0x0 SWAP2 POP SLOAD SWAP1 PUSH2 0x100 EXP SWAP1 DIV PUSH1 0xFF AND DUP2 JUMP JUMPDEST PUSH1 0x0 DUP1 PUSH1 0xA DUP2 GT ISZERO PUSH2 0x108C JUMPI PUSH2 0x108B PUSH2 0x1C51 JUMP JUMPDEST JUMPDEST DUP4 PUSH1 0x20 ADD MLOAD PUSH1 0xA DUP2 GT ISZERO PUSH2 0x10A3 JUMPI PUSH2 0x10A2 PUSH2 0x1C51 JUMP JUMPDEST JUMPDEST SUB PUSH2 0x10D7 JUMPI DUP2 PUSH1 0xFF AND DUP4 PUSH1 0x40 ADD MLOAD PUSH1 0x0 DUP2 MLOAD DUP2 LT PUSH2 0x10C4 JUMPI PUSH2 0x10C3 PUSH2 0x29EC JUMP JUMPDEST JUMPDEST PUSH1 0x20 MUL PUSH1 0x20 ADD ADD MLOAD PUSH1 0xFF AND EQ SWAP1 POP PUSH2 0x1808 JUMP JUMPDEST PUSH1 0x1 PUSH1 0xA DUP2 GT ISZERO PUSH2 0x10EB JUMPI PUSH2 0x10EA PUSH2 0x1C51 JUMP JUMPDEST JUMPDEST DUP4 PUSH1 0x20 ADD MLOAD PUSH1 0xA DUP2 GT ISZERO PUSH2 0x1102 JUMPI PUSH2 0x1101 PUSH2 0x1C51 JUMP JUMPDEST JUMPDEST SUB PUSH2 0x1165 JUMPI DUP2 PUSH1 0xFF AND DUP4 PUSH1 0x40 ADD MLOAD PUSH1 0x0 DUP2 MLOAD DUP2 LT PUSH2 0x1123 JUMPI PUSH2 0x1122 PUSH2 0x29EC JUMP JUMPDEST JUMPDEST PUSH1 0x20 MUL PUSH1 0x20 ADD ADD MLOAD PUSH1 0xFF AND EQ DUP1 PUSH2 0x115E JUMPI POP DUP2 PUSH1 0xFF AND DUP4 PUSH1 0x40 ADD MLOAD PUSH1 0x1 DUP2 MLOAD DUP2 LT PUSH2 0x1151 JUMPI PUSH2 0x1150 PUSH2 0x29EC JUMP JUMPDEST JUMPDEST PUSH1 0x20 MUL PUSH1 0x20 ADD ADD MLOAD PUSH1 0xFF AND EQ JUMPDEST SWAP1 POP PUSH2 0x1808 JUMP JUMPDEST PUSH1 0x2 PUSH1 0xA DUP2 GT ISZERO PUSH2 0x1179 JUMPI PUSH2 0x1178 PUSH2 0x1C51 JUMP JUMPDEST JUMPDEST DUP4 PUSH1 0x20 ADD MLOAD PUSH1 0xA DUP2 GT ISZERO PUSH2 0x1190 JUMPI PUSH2 0x118F PUSH2 0x1C51 JUMP JUMPDEST JUMPDEST SUB PUSH2 0x11F5 JUMPI PUSH1 0x0 JUMPDEST PUSH1 0x4 DUP2 PUSH1 0xFF AND LT ISZERO PUSH2 0x11EF JUMPI DUP3 PUSH1 0xFF AND DUP5 PUSH1 0x40 ADD MLOAD DUP3 PUSH1 0xFF AND DUP2 MLOAD DUP2 LT PUSH2 0x11C2 JUMPI PUSH2 0x11C1 PUSH2 0x29EC JUMP JUMPDEST JUMPDEST PUSH1 0x20 MUL PUSH1 0x20 ADD ADD MLOAD PUSH1 0xFF AND SUB PUSH2 0x11DC JUMPI PUSH1 0x1 SWAP2 POP POP PUSH2 0x1808 JUMP JUMPDEST DUP1 DUP1 PUSH2 0x11E7 SWAP1 PUSH2 0x2A1B JUMP JUMPDEST SWAP2 POP POP PUSH2 0x1198 JUMP JUMPDEST POP PUSH2 0x1803 JUMP JUMPDEST PUSH1 0x3 PUSH1 0xA DUP2 GT ISZERO PUSH2 0x1209 JUMPI PUSH2 0x1208 PUSH2 0x1C51 JUMP JUMPDEST JUMPDEST DUP4 PUSH1 0x20 ADD MLOAD PUSH1 0xA DUP2 GT ISZERO PUSH2 0x1220 JUMPI PUSH2 0x121F PUSH2 0x1C51 JUMP JUMPDEST JUMPDEST SUB PUSH2 0x1285 JUMPI PUSH1 0x0 JUMPDEST PUSH1 0x3 DUP2 PUSH1 0xFF AND LT ISZERO PUSH2 0x127F JUMPI DUP3 PUSH1 0xFF AND DUP5 PUSH1 0x40 ADD MLOAD DUP3 PUSH1 0xFF AND DUP2 MLOAD DUP2 LT PUSH2 0x1252 JUMPI PUSH2 0x1251 PUSH2 0x29EC JUMP JUMPDEST JUMPDEST PUSH1 0x20 MUL PUSH1 0x20 ADD ADD MLOAD PUSH1 0xFF AND SUB PUSH2 0x126C JUMPI PUSH1 0x1 SWAP2 POP POP PUSH2 0x1808 JUMP JUMPDEST DUP1 DUP1 PUSH2 0x1277 SWAP1 PUSH2 0x2A1B JUMP JUMPDEST SWAP2 POP POP PUSH2 0x1228 JUMP JUMPDEST POP PUSH2 0x1802 JUMP JUMPDEST PUSH1 0x4 PUSH1 0xA DUP2 GT ISZERO PUSH2 0x1299 JUMPI PUSH2 0x1298 PUSH2 0x1C51 JUMP JUMPDEST JUMPDEST DUP4 PUSH1 0x20 ADD MLOAD PUSH1 0xA DUP2 GT ISZERO PUSH2 0x12B0 JUMPI PUSH2 0x12AF PUSH2 0x1C51 JUMP JUMPDEST JUMPDEST SUB PUSH2 0x1315 JUMPI PUSH1 0x0 JUMPDEST PUSH1 0x6 DUP2 PUSH1 0xFF AND LT ISZERO PUSH2 0x130F JUMPI DUP3 PUSH1 0xFF AND DUP5 PUSH1 0x40 ADD MLOAD DUP3 PUSH1 0xFF AND DUP2 MLOAD DUP2 LT PUSH2 0x12E2 JUMPI PUSH2 0x12E1 PUSH2 0x29EC JUMP JUMPDEST JUMPDEST PUSH1 0x20 MUL PUSH1 0x20 ADD ADD MLOAD PUSH1 0xFF AND SUB PUSH2 0x12FC JUMPI PUSH1 0x1 SWAP2 POP POP PUSH2 0x1808 JUMP JUMPDEST DUP1 DUP1 PUSH2 0x1307 SWAP1 PUSH2 0x2A1B JUMP JUMPDEST SWAP2 POP POP PUSH2 0x12B8 JUMP JUMPDEST POP PUSH2 0x1801 JUMP JUMPDEST PUSH1 0x5 PUSH1 0xA DUP2 GT ISZERO PUSH2 0x1329 JUMPI PUSH2 0x1328 PUSH2 0x1C51 JUMP JUMPDEST JUMPDEST DUP4 PUSH1 0x20 ADD MLOAD PUSH1 0xA DUP2 GT ISZERO PUSH2 0x1340 JUMPI PUSH2 0x133F PUSH2 0x1C51 JUMP JUMPDEST JUMPDEST SUB PUSH2 0x1411 JUMPI PUSH1 0x0 DUP4 PUSH1 0x40 ADD MLOAD PUSH1 0x0 DUP2 MLOAD DUP2 LT PUSH2 0x135F JUMPI PUSH2 0x135E PUSH2 0x29EC JUMP JUMPDEST JUMPDEST PUSH1 0x20 MUL PUSH1 0x20 ADD ADD MLOAD SWAP1 POP PUSH1 0x1 DUP2 PUSH1 0xFF AND EQ DUP1 ISZERO PUSH2 0x1380 JUMPI POP PUSH1 0x1 DUP4 PUSH1 0xFF AND LT ISZERO JUMPDEST DUP1 ISZERO PUSH2 0x1390 JUMPI POP PUSH1 0xC DUP4 PUSH1 0xFF AND GT ISZERO JUMPDEST ISZERO PUSH2 0x139F JUMPI PUSH1 0x1 SWAP2 POP POP PUSH2 0x1808 JUMP JUMPDEST PUSH1 0x2 DUP2 PUSH1 0xFF AND EQ DUP1 ISZERO PUSH2 0x13B6 JUMPI POP PUSH1 0xD DUP4 PUSH1 0xFF AND LT ISZERO JUMPDEST DUP1 ISZERO PUSH2 0x13C6 JUMPI POP PUSH1 0x18 DUP4 PUSH1 0xFF AND GT ISZERO JUMPDEST ISZERO PUSH2 0x13D5 JUMPI PUSH1 0x1 SWAP2 POP POP PUSH2 0x1808 JUMP JUMPDEST PUSH1 0x3 DUP2 PUSH1 0xFF AND EQ DUP1 ISZERO PUSH2 0x13EC JUMPI POP PUSH1 0x19 DUP4 PUSH1 0xFF AND LT ISZERO JUMPDEST DUP1 ISZERO PUSH2 0x13FC JUMPI POP PUSH1 0x24 DUP4 PUSH1 0xFF AND GT ISZERO JUMPDEST ISZERO PUSH2 0x140B JUMPI PUSH1 0x1 SWAP2 POP POP PUSH2 0x1808 JUMP JUMPDEST POP PUSH2 0x1800 JUMP JUMPDEST PUSH1 0x6 PUSH1 0xA DUP2 GT ISZERO PUSH2 0x1425 JUMPI PUSH2 0x1424 PUSH2 0x1C51 JUMP JUMPDEST JUMPDEST DUP4 PUSH1 0x20 ADD MLOAD PUSH1 0xA DUP2 GT ISZERO PUSH2 0x143C JUMPI PUSH2 0x143B PUSH2 0x1C51 JUMP JUMPDEST JUMPDEST SUB PUSH2 0x14A1 JUMPI PUSH1 0x0 JUMPDEST PUSH1 0xC DUP2 PUSH1 0xFF AND LT ISZERO PUSH2 0x149B JUMPI DUP3 PUSH1 0xFF AND DUP5 PUSH1 0x40 ADD MLOAD DUP3 PUSH1 0xFF AND DUP2 MLOAD DUP2 LT PUSH2 0x146E JUMPI PUSH2 0x146D PUSH2 0x29EC JUMP JUMPDEST JUMPDEST PUSH1 0x20 MUL PUSH1 0x20 ADD ADD MLOAD PUSH1 0xFF AND SUB PUSH2 0x1488 JUMPI PUSH1 0x1 SWAP2 POP POP PUSH2 0x1808 JUMP JUMPDEST DUP1 DUP1 PUSH2 0x1493 SWAP1 PUSH2 0x2A1B JUMP JUMPDEST SWAP2 POP POP PUSH2 0x1444 JUMP JUMPDEST POP PUSH2 0x17FF JUMP JUMPDEST PUSH1 0x7 PUSH1 0xA DUP2 GT ISZERO PUSH2 0x14B5 JUMPI PUSH2 0x14B4 PUSH2 0x1C51 JUMP JUMPDEST JUMPDEST DUP4 PUSH1 0x20 ADD MLOAD PUSH1 0xA DUP2 GT ISZERO PUSH2 0x14CC JUMPI PUSH2 0x14CB PUSH2 0x1C51 JUMP JUMPDEST JUMPDEST SUB PUSH2 0x1604 JUMPI PUSH1 0x0 PUSH1 0x1 PUSH1 0x2 DUP5 PUSH2 0x14E2 SWAP2 SWAP1 PUSH2 0x2A44 JUMP JUMPDEST PUSH1 0xFF AND EQ DUP1 ISZERO PUSH2 0x14F6 JUMPI POP PUSH1 0xA DUP4 PUSH1 0xFF AND GT ISZERO JUMPDEST DUP1 PUSH2 0x1530 JUMPI POP PUSH1 0x0 PUSH1 0x2 DUP5 PUSH2 0x150B SWAP2 SWAP1 PUSH2 0x2A44 JUMP JUMPDEST PUSH1 0xFF AND EQ DUP1 ISZERO PUSH2 0x151F JUMPI POP PUSH1 0xB DUP4 PUSH1 0xFF AND LT ISZERO JUMPDEST DUP1 ISZERO PUSH2 0x152F JUMPI POP PUSH1 0x12 DUP4 PUSH1 0xFF AND GT ISZERO JUMPDEST JUMPDEST DUP1 PUSH2 0x156A JUMPI POP PUSH1 0x1 PUSH1 0x2 DUP5 PUSH2 0x1545 SWAP2 SWAP1 PUSH2 0x2A44 JUMP JUMPDEST PUSH1 0xFF AND EQ DUP1 ISZERO PUSH2 0x1559 JUMPI POP PUSH1 0x13 DUP4 PUSH1 0xFF AND LT ISZERO JUMPDEST DUP1 ISZERO PUSH2 0x1569 JUMPI POP PUSH1 0x1C DUP4 PUSH1 0xFF AND GT ISZERO JUMPDEST JUMPDEST DUP1 PUSH2 0x1594 JUMPI POP PUSH1 0x0 PUSH1 0x2 DUP5 PUSH2 0x157F SWAP2 SWAP1 PUSH2 0x2A44 JUMP JUMPDEST PUSH1 0xFF AND EQ DUP1 ISZERO PUSH2 0x1593 JUMPI POP PUSH1 0x1D DUP4 PUSH1 0xFF AND LT ISZERO JUMPDEST JUMPDEST SWAP1 POP PUSH1 0x1 DUP5 PUSH1 0x40 ADD MLOAD PUSH1 0x0 DUP2 MLOAD DUP2 LT PUSH2 0x15B0 JUMPI PUSH2 0x15AF PUSH2 0x29EC JUMP JUMPDEST JUMPDEST PUSH1 0x20 MUL PUSH1 0x20 ADD ADD MLOAD PUSH1 0xFF AND EQ DUP1 ISZERO PUSH2 0x15C5 JUMPI POP DUP1 JUMPDEST DUP1 PUSH2 0x15FC JUMPI POP PUSH1 0x0 DUP5 PUSH1 0x40 ADD MLOAD PUSH1 0x0 DUP2 MLOAD DUP2 LT PUSH2 0x15E5 JUMPI PUSH2 0x15E4 PUSH2 0x29EC JUMP JUMPDEST JUMPDEST PUSH1 0x20 MUL PUSH1 0x20 ADD ADD MLOAD PUSH1 0xFF AND EQ DUP1 ISZERO PUSH2 0x15FB JUMPI POP DUP1 ISZERO JUMPDEST JUMPDEST SWAP2 POP POP PUSH2 0x1808 JUMP JUMPDEST PUSH1 0x8 PUSH1 0xA DUP2 GT ISZERO PUSH2 0x1618 JUMPI PUSH2 0x1617 PUSH2 0x1C51 JUMP JUMPDEST JUMPDEST DUP4 PUSH1 0x20 ADD MLOAD PUSH1 0xA DUP2 GT ISZERO PUSH2 0x162F JUMPI PUSH2 0x162E PUSH2 0x1C51 JUMP JUMPDEST JUMPDEST SUB PUSH2 0x16C4 JUMPI PUSH1 0x1 DUP4 PUSH1 0x40 ADD MLOAD PUSH1 0x0 DUP2 MLOAD DUP2 LT PUSH2 0x164E JUMPI PUSH2 0x164D PUSH2 0x29EC JUMP JUMPDEST JUMPDEST PUSH1 0x20 MUL PUSH1 0x20 ADD ADD MLOAD PUSH1 0xFF AND EQ DUP1 ISZERO PUSH2 0x1675 JUMPI POP PUSH1 0x0 PUSH1 0x2 DUP4 PUSH2 0x1670 SWAP2 SWAP1 PUSH2 0x2A44 JUMP JUMPDEST PUSH1 0xFF AND EQ JUMPDEST DUP1 PUSH2 0x16BD JUMPI POP PUSH1 0x0 DUP4 PUSH1 0x40 ADD MLOAD PUSH1 0x0 DUP2 MLOAD DUP2 LT PUSH2 0x1695 JUMPI PUSH2 0x1694 PUSH2 0x29EC JUMP JUMPDEST JUMPDEST PUSH1 0x20 MUL PUSH1 0x20 ADD ADD MLOAD PUSH1 0xFF AND EQ DUP1 ISZERO PUSH2 0x16BC JUMPI POP PUSH1 0x1 PUSH1 0x2 DUP4 PUSH2 0x16B7 SWAP2 SWAP1 PUSH2 0x2A44 JUMP JUMPDEST PUSH1 0xFF AND EQ JUMPDEST JUMPDEST SWAP1 POP PUSH2 0x1808 JUMP JUMPDEST PUSH1 0x9 PUSH1 0xA DUP2 GT ISZERO PUSH2 0x16D8 JUMPI PUSH2 0x16D7 PUSH2 0x1C51 JUMP JUMPDEST JUMPDEST DUP4 PUSH1 0x20 ADD MLOAD PUSH1 0xA DUP2 GT ISZERO PUSH2 0x16EF JUMPI PUSH2 0x16EE PUSH2 0x1C51 JUMP JUMPDEST JUMPDEST SUB PUSH2 0x178E JUMPI PUSH1 0x1 DUP4 PUSH1 0x40 ADD MLOAD PUSH1 0x0 DUP2 MLOAD DUP2 LT PUSH2 0x170E JUMPI PUSH2 0x170D PUSH2 0x29EC JUMP JUMPDEST JUMPDEST PUSH1 0x20 MUL PUSH1 0x20 ADD ADD MLOAD PUSH1 0xFF AND EQ DUP1 ISZERO PUSH2 0x172A JUMPI POP PUSH1 0x1 DUP3 PUSH1 0xFF AND LT ISZERO JUMPDEST DUP1 ISZERO PUSH2 0x173A JUMPI POP PUSH1 0x12 DUP3 PUSH1 0xFF AND GT ISZERO JUMPDEST DUP1 PUSH2 0x1787 JUMPI POP PUSH1 0x0 DUP4 PUSH1 0x40 ADD MLOAD PUSH1 0x0 DUP2 MLOAD DUP2 LT PUSH2 0x175A JUMPI PUSH2 0x1759 PUSH2 0x29EC JUMP JUMPDEST JUMPDEST PUSH1 0x20 MUL PUSH1 0x20 ADD ADD MLOAD PUSH1 0xFF AND EQ DUP1 ISZERO PUSH2 0x1776 JUMPI POP PUSH1 0x13 DUP3 PUSH1 0xFF AND LT ISZERO JUMPDEST DUP1 ISZERO PUSH2 0x1786 JUMPI POP PUSH1 0x24 DUP3 PUSH1 0xFF AND GT ISZERO JUMPDEST JUMPDEST SWAP1 POP PUSH2 0x1808 JUMP JUMPDEST PUSH1 0xA DUP1 DUP2 GT ISZERO PUSH2 0x17A1 JUMPI PUSH2 0x17A0 PUSH2 0x1C51 JUMP JUMPDEST JUMPDEST DUP4 PUSH1 0x20 ADD MLOAD PUSH1 0xA DUP2 GT ISZERO PUSH2 0x17B8 JUMPI PUSH2 0x17B7 PUSH2 0x1C51 JUMP JUMPDEST JUMPDEST SUB PUSH2 0x17FE JUMPI PUSH1 0x0 PUSH1 0x3 DUP4 PUSH2 0x17CC SWAP2 SWAP1 PUSH2 0x2A44 JUMP JUMPDEST SWAP1 POP DUP1 PUSH1 0xFF AND DUP5 PUSH1 0x40 ADD MLOAD PUSH1 0x0 DUP2 MLOAD DUP2 LT PUSH2 0x17EA JUMPI PUSH2 0x17E9 PUSH2 0x29EC JUMP JUMPDEST JUMPDEST PUSH1 0x20 MUL PUSH1 0x20 ADD ADD MLOAD PUSH1 0xFF AND EQ SWAP2 POP POP PUSH2 0x1808 JUMP JUMPDEST JUMPDEST JUMPDEST JUMPDEST JUMPDEST JUMPDEST PUSH1 0x0 SWAP1 POP JUMPDEST SWAP3 SWAP2 POP POP JUMP JUMPDEST PUSH1 0x0 DUP1 PUSH1 0xA DUP2 GT ISZERO PUSH2 0x1823 JUMPI PUSH2 0x1822 PUSH2 0x1C51 JUMP JUMPDEST JUMPDEST DUP3 PUSH1 0x20 ADD MLOAD PUSH1 0xA DUP2 GT ISZERO PUSH2 0x183A JUMPI PUSH2 0x1839 PUSH2 0x1C51 JUMP JUMPDEST JUMPDEST SUB PUSH2 0x1857 JUMPI PUSH1 0x24 DUP3 PUSH1 0x0 ADD MLOAD PUSH2 0x1850 SWAP2 SWAP1 PUSH2 0x2A75 JUMP JUMPDEST SWAP1 POP PUSH2 0x1B02 JUMP JUMPDEST PUSH1 0x1 PUSH1 0xA DUP2 GT ISZERO PUSH2 0x186B JUMPI PUSH2 0x186A PUSH2 0x1C51 JUMP JUMPDEST JUMPDEST DUP3 PUSH1 0x20 ADD MLOAD PUSH1 0xA DUP2 GT ISZERO PUSH2 0x1882 JUMPI PUSH2 0x1881 PUSH2 0x1C51 JUMP JUMPDEST JUMPDEST SUB PUSH2 0x189F JUMPI PUSH1 0x12 DUP3 PUSH1 0x0 ADD MLOAD PUSH2 0x1898 SWAP2 SWAP1 PUSH2 0x2A75 JUMP JUMPDEST SWAP1 POP PUSH2 0x1B02 JUMP JUMPDEST PUSH1 0x2 PUSH1 0xA DUP2 GT ISZERO PUSH2 0x18B3 JUMPI PUSH2 0x18B2 PUSH2 0x1C51 JUMP JUMPDEST JUMPDEST DUP3 PUSH1 0x20 ADD MLOAD PUSH1 0xA DUP2 GT ISZERO PUSH2 0x18CA JUMPI PUSH2 0x18C9 PUSH2 0x1C51 JUMP JUMPDEST JUMPDEST SUB PUSH2 0x18E7 JUMPI PUSH1 0x9 DUP3 PUSH1 0x0 ADD MLOAD PUSH2 0x18E0 SWAP2 SWAP1 PUSH2 0x2A75 JUMP JUMPDEST SWAP1 POP PUSH2 0x1B02 JUMP JUMPDEST PUSH1 0x3 PUSH1 0xA DUP2 GT ISZERO PUSH2 0x18FB JUMPI PUSH2 0x18FA PUSH2 0x1C51 JUMP JUMPDEST JUMPDEST DUP3 PUSH1 0x20 ADD MLOAD PUSH1 0xA DUP2 GT ISZERO PUSH2 0x1912 JUMPI PUSH2 0x1911 PUSH2 0x1C51 JUMP JUMPDEST JUMPDEST SUB PUSH2 0x192F JUMPI PUSH1 0xC DUP3 PUSH1 0x0 ADD MLOAD PUSH2 0x1928 SWAP2 SWAP1 PUSH2 0x2A75 JUMP JUMPDEST SWAP1 POP PUSH2 0x1B02 JUMP JUMPDEST PUSH1 0x4 PUSH1 0xA DUP2 GT ISZERO PUSH2 0x1943 JUMPI PUSH2 0x1942 PUSH2 0x1C51 JUMP JUMPDEST JUMPDEST DUP3 PUSH1 0x20 ADD MLOAD PUSH1 0xA DUP2 GT ISZERO PUSH2 0x195A JUMPI PUSH2 0x1959 PUSH2 0x1C51 JUMP JUMPDEST JUMPDEST SUB PUSH2 0x1977 JUMPI PUSH1 0x6 DUP3 PUSH1 0x0 ADD MLOAD PUSH2 0x1970 SWAP2 SWAP1 PUSH2 0x2A75 JUMP JUMPDEST SWAP1 POP PUSH2 0x1B02 JUMP JUMPDEST PUSH1 0x5 PUSH1 0xA DUP2 GT ISZERO PUSH2 0x198B JUMPI PUSH2 0x198A PUSH2 0x1C51 JUMP JUMPDEST JUMPDEST DUP3 PUSH1 0x20 ADD MLOAD PUSH1 0xA DUP2 GT ISZERO PUSH2 0x19A2 JUMPI PUSH2 0x19A1 PUSH2 0x1C51 JUMP JUMPDEST JUMPDEST SUB PUSH2 0x19BF JUMPI PUSH1 0x3 DUP3 PUSH1 0x0 ADD MLOAD PUSH2 0x19B8 SWAP2 SWAP1 PUSH2 0x2A75 JUMP JUMPDEST SWAP1 POP PUSH2 0x1B02 JUMP JUMPDEST PUSH1 0x6 PUSH1 0xA DUP2 GT ISZERO PUSH2 0x19D3 JUMPI PUSH2 0x19D2 PUSH2 0x1C51 JUMP JUMPDEST JUMPDEST DUP3 PUSH1 0x20 ADD MLOAD PUSH1 0xA DUP2 GT ISZERO PUSH2 0x19EA JUMPI PUSH2 0x19E9 PUSH2 0x1C51 JUMP JUMPDEST JUMPDEST SUB PUSH2 0x1A07 JUMPI PUSH1 0x3 DUP3 PUSH1 0x0 ADD MLOAD PUSH2 0x1A00 SWAP2 SWAP1 PUSH2 0x2A75 JUMP JUMPDEST SWAP1 POP PUSH2 0x1B02 JUMP JUMPDEST PUSH1 0x7 PUSH1 0xA DUP2 GT ISZERO PUSH2 0x1A1B JUMPI PUSH2 0x1A1A PUSH2 0x1C51 JUMP JUMPDEST JUMPDEST DUP3 PUSH1 0x20 ADD MLOAD PUSH1 0xA DUP2 GT ISZERO PUSH2 0x1A32 JUMPI PUSH2 0x1A31 PUSH2 0x1C51 JUMP JUMPDEST JUMPDEST EQ DUP1 PUSH2 0x1A66 JUMPI POP PUSH1 0x8 PUSH1 0xA DUP2 GT ISZERO PUSH2 0x1A4D JUMPI PUSH2 0x1A4C PUSH2 0x1C51 JUMP JUMPDEST JUMPDEST DUP3 PUSH1 0x20 ADD MLOAD PUSH1 0xA DUP2 GT ISZERO PUSH2 0x1A64 JUMPI PUSH2 0x1A63 PUSH2 0x1C51 JUMP JUMPDEST JUMPDEST EQ JUMPDEST DUP1 PUSH2 0x1A99 JUMPI POP PUSH1 0x9 PUSH1 0xA DUP2 GT ISZERO PUSH2 0x1A80 JUMPI PUSH2 0x1A7F PUSH2 0x1C51 JUMP JUMPDEST JUMPDEST DUP3 PUSH1 0x20 ADD MLOAD PUSH1 0xA DUP2 GT ISZERO PUSH2 0x1A97 JUMPI PUSH2 0x1A96 PUSH2 0x1C51 JUMP JUMPDEST JUMPDEST EQ JUMPDEST ISZERO PUSH2 0x1AB6 JUMPI PUSH1 0x2 DUP3 PUSH1 0x0 ADD MLOAD PUSH2 0x1AAF SWAP2 SWAP1 PUSH2 0x2A75 JUMP JUMPDEST SWAP1 POP PUSH2 0x1B02 JUMP JUMPDEST PUSH1 0xA DUP1 DUP2 GT ISZERO PUSH2 0x1AC9 JUMPI PUSH2 0x1AC8 PUSH2 0x1C51 JUMP JUMPDEST JUMPDEST DUP3 PUSH1 0x20 ADD MLOAD PUSH1 0xA DUP2 GT ISZERO PUSH2 0x1AE0 JUMPI PUSH2 0x1ADF PUSH2 0x1C51 JUMP JUMPDEST JUMPDEST SUB PUSH2 0x1AFD JUMPI PUSH1 0x3 DUP3 PUSH1 0x0 ADD MLOAD PUSH2 0x1AF6 SWAP2 SWAP1 PUSH2 0x2A75 JUMP JUMPDEST SWAP1 POP PUSH2 0x1B02 JUMP JUMPDEST PUSH1 0x0 SWAP1 POP JUMPDEST SWAP2 SWAP1 POP JUMP JUMPDEST DUP3 DUP1 SLOAD DUP3 DUP3 SSTORE SWAP1 PUSH1 0x0 MSTORE PUSH1 0x20 PUSH1 0x0 KECCAK256 SWAP1 PUSH1 0x1F ADD PUSH1 0x20 SWAP1 DIV DUP2 ADD SWAP3 DUP3 ISZERO PUSH2 0x1B9D JUMPI SWAP2 PUSH1 0x20 MUL DUP3 ADD PUSH1 0x0 JUMPDEST DUP4 DUP3 GT ISZERO PUSH2 0x1B6E JUMPI DUP4 MLOAD DUP4 DUP3 PUSH2 0x100 EXP DUP2 SLOAD DUP2 PUSH1 0xFF MUL NOT AND SWAP1 DUP4 PUSH1 0xFF AND MUL OR SWAP1 SSTORE POP SWAP3 PUSH1 0x20 ADD SWAP3 PUSH1 0x1 ADD PUSH1 0x20 DUP2 PUSH1 0x0 ADD DIV SWAP3 DUP4 ADD SWAP3 PUSH1 0x1 SUB MUL PUSH2 0x1B30 JUMP JUMPDEST DUP1 ISZERO PUSH2 0x1B9B JUMPI DUP3 DUP2 PUSH2 0x100 EXP DUP2 SLOAD SWAP1 PUSH1 0xFF MUL NOT AND SWAP1 SSTORE PUSH1 0x1 ADD PUSH1 0x20 DUP2 PUSH1 0x0 ADD DIV SWAP3 DUP4 ADD SWAP3 PUSH1 0x1 SUB MUL PUSH2 0x1B6E JUMP JUMPDEST POP JUMPDEST POP SWAP1 POP PUSH2 0x1BAA SWAP2 SWAP1 PUSH2 0x1BAE JUMP JUMPDEST POP SWAP1 JUMP JUMPDEST JUMPDEST DUP1 DUP3 GT ISZERO PUSH2 0x1BC7 JUMPI PUSH1 0x0 DUP2 PUSH1 0x0 SWAP1 SSTORE POP PUSH1 0x1 ADD PUSH2 0x1BAF JUMP JUMPDEST POP SWAP1 JUMP JUMPDEST PUSH1 0x0 PUSH1 0x40 MLOAD SWAP1 POP SWAP1 JUMP JUMPDEST PUSH1 0x0 DUP1 REVERT JUMPDEST PUSH1 0x0 DUP1 REVERT JUMPDEST PUSH1 0x0 DUP2 SWAP1 POP SWAP2 SWAP1 POP JUMP JUMPDEST PUSH2 0x1BF2 DUP2 PUSH2 0x1BDF JUMP JUMPDEST DUP2 EQ PUSH2 0x1BFD JUMPI PUSH1 0x0 DUP1 REVERT JUMPDEST POP JUMP JUMPDEST PUSH1 0x0 DUP2 CALLDATALOAD SWAP1 POP PUSH2 0x1C0F DUP2 PUSH2 0x1BE9 JUMP JUMPDEST SWAP3 SWAP2 POP POP JUMP JUMPDEST PUSH1 0x0 PUSH1 0x20 DUP3 DUP5 SUB SLT ISZERO PUSH2 0x1C2B JUMPI PUSH2 0x1C2A PUSH2 0x1BD5 JUMP JUMPDEST JUMPDEST PUSH1 0x0 PUSH2 0x1C39 DUP5 DUP3 DUP6 ADD PUSH2 0x1C00 JUMP JUMPDEST SWAP2 POP POP SWAP3 SWAP2 POP POP JUMP JUMPDEST PUSH2 0x1C4B DUP2 PUSH2 0x1BDF JUMP JUMPDEST DUP3 MSTORE POP POP JUMP JUMPDEST PUSH32 0x4E487B7100000000000000000000000000000000000000000000000000000000 PUSH1 0x0 MSTORE PUSH1 0x21 PUSH1 0x4 MSTORE PUSH1 0x24 PUSH1 0x0 REVERT JUMPDEST PUSH1 0xB DUP2 LT PUSH2 0x1C91 JUMPI PUSH2 0x1C90 PUSH2 0x1C51 JUMP JUMPDEST JUMPDEST POP JUMP JUMPDEST PUSH1 0x0 DUP2 SWAP1 POP PUSH2 0x1CA2 DUP3 PUSH2 0x1C80 JUMP JUMPDEST SWAP2 SWAP1 POP JUMP JUMPDEST PUSH1 0x0 PUSH2 0x1CB2 DUP3 PUSH2 0x1C94 JUMP JUMPDEST SWAP1 POP SWAP2 SWAP1 POP JUMP JUMPDEST PUSH2 0x1CC2 DUP2 PUSH2 0x1CA7 JUMP JUMPDEST DUP3 MSTORE POP POP JUMP JUMPDEST PUSH1 0x0 DUP2 MLOAD SWAP1 POP SWAP2 SWAP1 POP JUMP JUMPDEST PUSH1 0x0 DUP3 DUP3 MSTORE PUSH1 0x20 DUP3 ADD SWAP1 POP SWAP3 SWAP2 POP POP JUMP JUMPDEST PUSH1 0x0 DUP2 SWAP1 POP PUSH1 0x20 DUP3 ADD SWAP1 POP SWAP2 SWAP1 POP JUMP JUMPDEST PUSH1 0x0 PUSH1 0xFF DUP3 AND SWAP1 POP SWAP2 SWAP1 POP JUMP JUMPDEST PUSH2 0x1D0A DUP2 PUSH2 0x1CF4 JUMP JUMPDEST DUP3 MSTORE POP POP JUMP JUMPDEST PUSH1 0x0 PUSH2 0x1D1C DUP4 DUP4 PUSH2 0x1D01 JUMP JUMPDEST PUSH1 0x20 DUP4 ADD SWAP1 POP SWAP3 SWAP2 POP POP JUMP JUMPDEST PUSH1 0x0 PUSH1 0x20 DUP3 ADD SWAP1 POP SWAP2 SWAP1 POP JUMP JUMPDEST PUSH1 0x0 PUSH2 0x1D40 DUP3 PUSH2 0x1CC8 JUMP JUMPDEST PUSH2 0x1D4A DUP2 DUP6 PUSH2 0x1CD3 JUMP JUMPDEST SWAP4 POP PUSH2 0x1D55 DUP4 PUSH2 0x1CE4 JUMP JUMPDEST DUP1 PUSH1 0x0 JUMPDEST DUP4 DUP2 LT ISZERO PUSH2 0x1D86 JUMPI DUP2 MLOAD PUSH2 0x1D6D DUP9 DUP3 PUSH2 0x1D10 JUMP JUMPDEST SWAP8 POP PUSH2 0x1D78 DUP4 PUSH2 0x1D28 JUMP JUMPDEST SWAP3 POP POP PUSH1 0x1 DUP2 ADD SWAP1 POP PUSH2 0x1D59 JUMP JUMPDEST POP DUP6 SWAP4 POP POP POP POP SWAP3 SWAP2 POP POP JUMP JUMPDEST PUSH1 0x0 PUSH1 0x60 DUP3 ADD SWAP1 POP PUSH2 0x1DA8 PUSH1 0x0 DUP4 ADD DUP7 PUSH2 0x1C42 JUMP JUMPDEST PUSH2 0x1DB5 PUSH1 0x20 DUP4 ADD DUP6 PUSH2 0x1CB9 JUMP JUMPDEST DUP2 DUP2 SUB PUSH1 0x40 DUP4 ADD MSTORE PUSH2 0x1DC7 DUP2 DUP5 PUSH2 0x1D35 JUMP JUMPDEST SWAP1 POP SWAP5 SWAP4 POP POP POP POP JUMP JUMPDEST PUSH1 0x0 PUSH1 0x40 DUP3 ADD SWAP1 POP PUSH2 0x1DE6 PUSH1 0x0 DUP4 ADD DUP6 PUSH2 0x1C42 JUMP JUMPDEST PUSH2 0x1DF3 PUSH1 0x20 DUP4 ADD DUP5 PUSH2 0x1CB9 JUMP JUMPDEST SWAP4 SWAP3 POP POP POP JUMP JUMPDEST PUSH1 0xB DUP2 LT PUSH2 0x1E07 JUMPI PUSH1 0x0 DUP1 REVERT JUMPDEST POP JUMP JUMPDEST PUSH1 0x0 DUP2 CALLDATALOAD SWAP1 POP PUSH2 0x1E19 DUP2 PUSH2 0x1DFA JUMP JUMPDEST SWAP3 SWAP2 POP POP JUMP JUMPDEST PUSH1 0x0 DUP1 REVERT JUMPDEST PUSH1 0x0 PUSH1 0x1F NOT PUSH1 0x1F DUP4 ADD AND SWAP1 POP SWAP2 SWAP1 POP JUMP JUMPDEST PUSH32 0x4E487B7100000000000000000000000000000000000000000000000000000000 PUSH1 0x0 MSTORE PUSH1 0x41 PUSH1 0x4 MSTORE PUSH1 0x24 PUSH1 0x0 REVERT JUMPDEST PUSH2 0x1E6D DUP3 PUSH2 0x1E24 JUMP JUMPDEST DUP2 ADD DUP2 DUP2 LT PUSH8 0xFFFFFFFFFFFFFFFF DUP3 GT OR ISZERO PUSH2 0x1E8C JUMPI PUSH2 0x1E8B PUSH2 0x1E35 JUMP JUMPDEST JUMPDEST DUP1 PUSH1 0x40 MSTORE POP POP POP JUMP JUMPDEST PUSH1 0x0 PUSH2 0x1E9F PUSH2 0x1BCB JUMP JUMPDEST SWAP1 POP PUSH2 0x1EAB DUP3 DUP3 PUSH2 0x1E64 JUMP JUMPDEST SWAP2 SWAP1 POP JUMP JUMPDEST PUSH1 0x0 PUSH8 0xFFFFFFFFFFFFFFFF DUP3 GT ISZERO PUSH2 0x1ECB JUMPI PUSH2 0x1ECA PUSH2 0x1E35 JUMP JUMPDEST JUMPDEST PUSH1 0x20 DUP3 MUL SWAP1 POP PUSH1 0x20 DUP2 ADD SWAP1 POP SWAP2 SWAP1 POP JUMP JUMPDEST PUSH1 0x0 DUP1 REVERT JUMPDEST PUSH2 0x1EEA DUP2 PUSH2 0x1CF4 JUMP JUMPDEST DUP2 EQ PUSH2 0x1EF5 JUMPI PUSH1 0x0 DUP1 REVERT JUMPDEST POP JUMP JUMPDEST PUSH1 0x0 DUP2 CALLDATALOAD SWAP1 POP PUSH2 0x1F07 DUP2 PUSH2 0x1EE1 JUMP JUMPDEST SWAP3 SWAP2 POP POP JUMP JUMPDEST PUSH1 0x0 PUSH2 0x1F20 PUSH2 0x1F1B DUP5 PUSH2 0x1EB0 JUMP JUMPDEST PUSH2 0x1E95 JUMP JUMPDEST SWAP1 POP DUP1 DUP4 DUP3 MSTORE PUSH1 0x20 DUP3 ADD SWAP1 POP PUSH1 0x20 DUP5 MUL DUP4 ADD DUP6 DUP2 GT ISZERO PUSH2 0x1F43 JUMPI PUSH2 0x1F42 PUSH2 0x1EDC JUMP JUMPDEST JUMPDEST DUP4 JUMPDEST DUP2 DUP2 LT ISZERO PUSH2 0x1F6C JUMPI DUP1 PUSH2 0x1F58 DUP9 DUP3 PUSH2 0x1EF8 JUMP JUMPDEST DUP5 MSTORE PUSH1 0x20 DUP5 ADD SWAP4 POP POP PUSH1 0x20 DUP2 ADD SWAP1 POP PUSH2 0x1F45 JUMP JUMPDEST POP POP POP SWAP4 SWAP3 POP POP POP JUMP JUMPDEST PUSH1 0x0 DUP3 PUSH1 0x1F DUP4 ADD SLT PUSH2 0x1F8B JUMPI PUSH2 0x1F8A PUSH2 0x1E1F JUMP JUMPDEST JUMPDEST DUP2 CALLDATALOAD PUSH2 0x1F9B DUP5 DUP3 PUSH1 0x20 DUP7 ADD PUSH2 0x1F0D JUMP JUMPDEST SWAP2 POP POP SWAP3 SWAP2 POP POP JUMP JUMPDEST PUSH1 0x0 DUP1 PUSH1 0x40 DUP4 DUP6 SUB SLT ISZERO PUSH2 0x1FBB JUMPI PUSH2 0x1FBA PUSH2 0x1BD5 JUMP JUMPDEST JUMPDEST PUSH1 0x0 PUSH2 0x1FC9 DUP6 DUP3 DUP7 ADD PUSH2 0x1E0A JUMP JUMPDEST SWAP3 POP POP PUSH1 0x20 DUP4 ADD CALLDATALOAD PUSH8 0xFFFFFFFFFFFFFFFF DUP2 GT ISZERO PUSH2 0x1FEA JUMPI PUSH2 0x1FE9 PUSH2 0x1BDA JUMP JUMPDEST JUMPDEST PUSH2 0x1FF6 DUP6 DUP3 DUP7 ADD PUSH2 0x1F76 JUMP JUMPDEST SWAP2 POP POP SWAP3 POP SWAP3 SWAP1 POP JUMP JUMPDEST PUSH1 0x0 PUSH1 0x20 DUP3 ADD SWAP1 POP PUSH2 0x2015 PUSH1 0x0 DUP4 ADD DUP5 PUSH2 0x1C42 JUMP JUMPDEST SWAP3 SWAP2 POP POP JUMP JUMPDEST PUSH1 0x0 PUSH20 0xFFFFFFFFFFFFFFFFFFFFFFFFFFFFFFFFFFFFFFFF DUP3 AND SWAP1 POP SWAP2 SWAP1 POP JUMP JUMPDEST PUSH1 0x0 PUSH2 0x2046 DUP3 PUSH2 0x201B JUMP JUMPDEST SWAP1 POP SWAP2 SWAP1 POP JUMP JUMPDEST PUSH2 0x2056 DUP2 PUSH2 0x203B JUMP JUMPDEST DUP2 EQ PUSH2 0x2061 JUMPI PUSH1 0x0 DUP1 REVERT JUMPDEST POP JUMP JUMPDEST PUSH1 0x0 DUP2 CALLDATALOAD SWAP1 POP PUSH2 0x2073 DUP2 PUSH2 0x204D JUMP JUMPDEST SWAP3 SWAP2 POP POP JUMP JUMPDEST PUSH1 0x0 PUSH1 0x20 DUP3 DUP5 SUB SLT ISZERO PUSH2 0x208F JUMPI PUSH2 0x208E PUSH2 0x1BD5 JUMP JUMPDEST JUMPDEST PUSH1 0x0 PUSH2 0x209D DUP5 DUP3 DUP6 ADD PUSH2 0x2064 JUMP JUMPDEST SWAP2 POP POP SWAP3 SWAP2 POP POP JUMP JUMPDEST PUSH2 0x20AF DUP2 PUSH2 0x203B JUMP JUMPDEST DUP3 MSTORE POP POP JUMP JUMPDEST PUSH1 0x0 PUSH1 0x40 DUP3 ADD SWAP1 POP PUSH2 0x20CA PUSH1 0x0 DUP4 ADD DUP6 PUSH2 0x20A6 JUMP JUMPDEST PUSH2 0x20D7 PUSH1 0x20 DUP4 ADD DUP5 PUSH2 0x1C42 JUMP JUMPDEST SWAP4 SWAP3 POP POP POP JUMP JUMPDEST PUSH2 0x20E7 DUP2 PUSH2 0x1CF4 JUMP JUMPDEST DUP3 MSTORE POP POP JUMP JUMPDEST PUSH1 0x0 PUSH1 0x20 DUP3 ADD SWAP1 POP PUSH2 0x2102 PUSH1 0x0 DUP4 ADD DUP5 PUSH2 0x20DE JUMP JUMPDEST SWAP3 SWAP2 POP POP JUMP JUMPDEST PUSH1 0x0 DUP2 SWAP1 POP SWAP2 SWAP1 POP JUMP JUMPDEST PUSH2 0x2123 PUSH2 0x211E DUP3 PUSH2 0x1BDF JUMP JUMPDEST PUSH2 0x2108 JUMP JUMPDEST DUP3 MSTORE POP POP JUMP JUMPDEST PUSH1 0x0 PUSH2 0x2135 DUP3 DUP6 PUSH2 0x2112 JUMP JUMPDEST PUSH1 0x20 DUP3 ADD SWAP2 POP PUSH2 0x2145 DUP3 DUP5 PUSH2 0x2112 JUMP JUMPDEST PUSH1 0x20 DUP3 ADD SWAP2 POP DUP2 SWAP1 POP SWAP4 SWAP3 POP POP POP JUMP JUMPDEST PUSH32 0x4E487B7100000000000000000000000000000000000000000000000000000000 PUSH1 0x0 MSTORE PUSH1 0x12 PUSH1 0x4 MSTORE PUSH1 0x24 PUSH1 0x0 REVERT JUMPDEST PUSH1 0x0 PUSH2 0x218F DUP3 PUSH2 0x1BDF JUMP JUMPDEST SWAP2 POP PUSH2 0x219A DUP4 PUSH2 0x1BDF JUMP JUMPDEST SWAP3 POP DUP3 PUSH2 0x21AA JUMPI PUSH2 0x21A9 PUSH2 0x2155 JUMP JUMPDEST JUMPDEST DUP3 DUP3 MOD SWAP1 POP SWAP3 SWAP2 POP POP JUMP JUMPDEST PUSH32 0x4E487B7100000000000000000000000000000000000000000000000000000000 PUSH1 0x0 MSTORE PUSH1 0x11 PUSH1 0x4 MSTORE PUSH1 0x24 PUSH1 0x0 REVERT JUMPDEST PUSH1 0x0 PUSH2 0x21EF DUP3 PUSH2 0x1BDF JUMP JUMPDEST SWAP2 POP PUSH32 0xFFFFFFFFFFFFFFFFFFFFFFFFFFFFFFFFFFFFFFFFFFFFFFFFFFFFFFFFFFFFFFFF DUP3 SUB PUSH2 0x2221 JUMPI PUSH2 0x2220 PUSH2 0x21B5 JUMP JUMPDEST JUMPDEST PUSH1 0x1 DUP3 ADD SWAP1 POP SWAP2 SWAP1 POP JUMP JUMPDEST PUSH1 0x0 PUSH2 0x2237 DUP3 PUSH2 0x1BDF JUMP JUMPDEST SWAP2 POP PUSH2 0x2242 DUP4 PUSH2 0x1BDF JUMP JUMPDEST SWAP3 POP DUP3 DUP3 SUB SWAP1 POP DUP2 DUP2 GT ISZERO PUSH2 0x225A JUMPI PUSH2 0x2259 PUSH2 0x21B5 JUMP JUMPDEST JUMPDEST SWAP3 SWAP2 POP POP JUMP JUMPDEST PUSH1 0x0 PUSH1 0x40 DUP3 ADD SWAP1 POP PUSH2 0x2275 PUSH1 0x0 DUP4 ADD DUP6 PUSH2 0x1C42 JUMP JUMPDEST PUSH2 0x2282 PUSH1 0x20 DUP4 ADD DUP5 PUSH2 0x20DE JUMP JUMPDEST SWAP4 SWAP3 POP POP POP JUMP JUMPDEST PUSH1 0x0 DUP3 DUP3 MSTORE PUSH1 0x20 DUP3 ADD SWAP1 POP SWAP3 SWAP2 POP POP JUMP JUMPDEST PUSH32 0x57616C6C657420616C726561647920636F6E6E65637465640000000000000000 PUSH1 0x0 DUP3 ADD MSTORE POP JUMP JUMPDEST PUSH1 0x0 PUSH2 0x22D0 PUSH1 0x18 DUP4 PUSH2 0x2289 JUMP JUMPDEST SWAP2 POP PUSH2 0x22DB DUP3 PUSH2 0x229A JUMP JUMPDEST PUSH1 0x20 DUP3 ADD SWAP1 POP SWAP2 SWAP1 POP JUMP JUMPDEST PUSH1 0x0 PUSH1 0x20 DUP3 ADD SWAP1 POP DUP2 DUP2 SUB PUSH1 0x0 DUP4 ADD MSTORE PUSH2 0x22FF DUP2 PUSH2 0x22C3 JUMP JUMPDEST SWAP1 POP SWAP2 SWAP1 POP JUMP JUMPDEST PUSH32 0x496E73756666696369656E742062616C616E6365000000000000000000000000 PUSH1 0x0 DUP3 ADD MSTORE POP JUMP JUMPDEST PUSH1 0x0 PUSH2 0x233C PUSH1 0x14 DUP4 PUSH2 0x2289 JUMP JUMPDEST SWAP2 POP PUSH2 0x2347 DUP3 PUSH2 0x2306 JUMP JUMPDEST PUSH1 0x20 DUP3 ADD SWAP1 POP SWAP2 SWAP1 POP JUMP JUMPDEST PUSH1 0x0 PUSH1 0x20 DUP3 ADD SWAP1 POP DUP2 DUP2 SUB PUSH1 0x0 DUP4 ADD MSTORE PUSH2 0x236B DUP2 PUSH2 0x232F JUMP JUMPDEST SWAP1 POP SWAP2 SWAP1 POP JUMP JUMPDEST PUSH32 0x496E76616C6964207370696E2049440000000000000000000000000000000000 PUSH1 0x0 DUP3 ADD MSTORE POP JUMP JUMPDEST PUSH1 0x0 PUSH2 0x23A8 PUSH1 0xF DUP4 PUSH2 0x2289 JUMP JUMPDEST SWAP2 POP PUSH2 0x23B3 DUP3 PUSH2 0x2372 JUMP JUMPDEST PUSH1 0x20 DUP3 ADD SWAP1 POP SWAP2 SWAP1 POP JUMP JUMPDEST PUSH1 0x0 PUSH1 0x20 DUP3 ADD SWAP1 POP DUP2 DUP2 SUB PUSH1 0x0 DUP4 ADD MSTORE PUSH2 0x23D7 DUP2 PUSH2 0x239B JUMP JUMPDEST SWAP1 POP SWAP2 SWAP1 POP JUMP JUMPDEST PUSH1 0x0 PUSH2 0x23E9 DUP3 PUSH2 0x1BDF JUMP JUMPDEST SWAP2 POP PUSH2 0x23F4 DUP4 PUSH2 0x1BDF JUMP JUMPDEST SWAP3 POP DUP3 DUP3 ADD SWAP1 POP DUP1 DUP3 GT ISZERO PUSH2 0x240C JUMPI PUSH2 0x240B PUSH2 0x21B5 JUMP JUMPDEST JUMPDEST SWAP3 SWAP2 POP POP JUMP JUMPDEST PUSH32 0x57616C6C6574206E6F7420636F6E6E6563746564000000000000000000000000 PUSH1 0x0 DUP3 ADD MSTORE POP JUMP JUMPDEST PUSH1 0x0 PUSH2 0x2448 PUSH1 0x14 DUP4 PUSH2 0x2289 JUMP JUMPDEST SWAP2 POP PUSH2 0x2453 DUP3 PUSH2 0x2412 JUMP JUMPDEST PUSH1 0x20 DUP3 ADD SWAP1 POP SWAP2 SWAP1 POP JUMP JUMPDEST PUSH1 0x0 PUSH1 0x20 DUP3 ADD SWAP1 POP DUP2 DUP2 SUB PUSH1 0x0 DUP4 ADD MSTORE PUSH2 0x2477 DUP2 PUSH2 0x243B JUMP JUMPDEST SWAP1 POP SWAP2 SWAP1 POP JUMP JUMPDEST PUSH32 0x42657420616D6F756E74206D7573742062652067726561746572207468616E20 PUSH1 0x0 DUP3 ADD MSTORE PUSH32 0x3000000000000000000000000000000000000000000000000000000000000000 PUSH1 0x20 DUP3 ADD MSTORE POP JUMP JUMPDEST PUSH1 0x0 PUSH2 0x24DA PUSH1 0x21 DUP4 PUSH2 0x2289 JUMP JUMPDEST SWAP2 POP PUSH2 0x24E5 DUP3 PUSH2 0x247E JUMP JUMPDEST PUSH1 0x40 DUP3 ADD SWAP1 POP SWAP2 SWAP1 POP JUMP JUMPDEST PUSH1 0x0 PUSH1 0x20 DUP3 ADD SWAP1 POP DUP2 DUP2 SUB PUSH1 0x0 DUP4 ADD MSTORE PUSH2 0x2509 DUP2 PUSH2 0x24CD JUMP JUMPDEST SWAP1 POP SWAP2 SWAP1 POP JUMP JUMPDEST PUSH32 0x53696E676C65206265742072657175697265732065786163746C792031206368 PUSH1 0x0 DUP3 ADD MSTORE PUSH32 0x6F69636500000000000000000000000000000000000000000000000000000000 PUSH1 0x20 DUP3 ADD MSTORE POP JUMP JUMPDEST PUSH1 0x0 PUSH2 0x256C PUSH1 0x24 DUP4 PUSH2 0x2289 JUMP JUMPDEST SWAP2 POP PUSH2 0x2577 DUP3 PUSH2 0x2510 JUMP JUMPDEST PUSH1 0x40 DUP3 ADD SWAP1 POP SWAP2 SWAP1 POP JUMP JUMPDEST PUSH1 0x0 PUSH1 0x20 DUP3 ADD SWAP1 POP DUP2 DUP2 SUB PUSH1 0x0 DUP4 ADD MSTORE PUSH2 0x259B DUP2 PUSH2 0x255F JUMP JUMPDEST SWAP1 POP SWAP2 SWAP1 POP JUMP JUMPDEST PUSH32 0x446F75626C65206265742072657175697265732065786163746C792032206368 PUSH1 0x0 DUP3 ADD MSTORE PUSH32 0x6F69636573000000000000000000000000000000000000000000000000000000 PUSH1 0x20 DUP3 ADD MSTORE POP JUMP JUMPDEST PUSH1 0x0 PUSH2 0x25FE PUSH1 0x25 DUP4 PUSH2 0x2289 JUMP JUMPDEST SWAP2 POP PUSH2 0x2609 DUP3 PUSH2 0x25A2 JUMP JUMPDEST PUSH1 0x40 DUP3 ADD SWAP1 POP SWAP2 SWAP1 POP JUMP JUMPDEST PUSH1 0x0 PUSH1 0x20 DUP3 ADD SWAP1 POP DUP2 DUP2 SUB PUSH1 0x0 DUP4 ADD MSTORE PUSH2 0x262D DUP2 PUSH2 0x25F1 JUMP JUMPDEST SWAP1 POP SWAP2 SWAP1 POP JUMP JUMPDEST PUSH32 0x537175617265206265742072657175697265732065786163746C792034206368 PUSH1 0x0 DUP3 ADD MSTORE PUSH32 0x6F69636573000000000000000000000000000000000000000000000000000000 PUSH1 0x20 DUP3 ADD MSTORE POP JUMP JUMPDEST PUSH1 0x0 PUSH2 0x2690 PUSH1 0x25 DUP4 PUSH2 0x2289 JUMP JUMPDEST SWAP2 POP PUSH2 0x269B DUP3 PUSH2 0x2634 JUMP JUMPDEST PUSH1 0x40 DUP3 ADD SWAP1 POP SWAP2 SWAP1 POP JUMP JUMPDEST PUSH1 0x0 PUSH1 0x20 DUP3 ADD SWAP1 POP DUP2 DUP2 SUB PUSH1 0x0 DUP4 ADD MSTORE PUSH2 0x26BF DUP2 PUSH2 0x2683 JUMP JUMPDEST SWAP1 POP SWAP2 SWAP1 POP JUMP JUMPDEST PUSH32 0x526F77206265742072657175697265732065786163746C7920332063686F6963 PUSH1 0x0 DUP3 ADD MSTORE PUSH32 0x6573000000000000000000000000000000000000000000000000000000000000 PUSH1 0x20 DUP3 ADD MSTORE POP JUMP JUMPDEST PUSH1 0x0 PUSH2 0x2722 PUSH1 0x22 DUP4 PUSH2 0x2289 JUMP JUMPDEST SWAP2 POP PUSH2 0x272D DUP3 PUSH2 0x26C6 JUMP JUMPDEST PUSH1 0x40 DUP3 ADD SWAP1 POP SWAP2 SWAP1 POP JUMP JUMPDEST PUSH1 0x0 PUSH1 0x20 DUP3 ADD SWAP1 POP DUP2 DUP2 SUB PUSH1 0x0 DUP4 ADD MSTORE PUSH2 0x2751 DUP2 PUSH2 0x2715 JUMP JUMPDEST SWAP1 POP SWAP2 SWAP1 POP JUMP JUMPDEST PUSH32 0x446F75626C6520726F77206265742072657175697265732065786163746C7920 PUSH1 0x0 DUP3 ADD MSTORE PUSH32 0x362063686F696365730000000000000000000000000000000000000000000000 PUSH1 0x20 DUP3 ADD MSTORE POP JUMP JUMPDEST PUSH1 0x0 PUSH2 0x27B4 PUSH1 0x29 DUP4 PUSH2 0x2289 JUMP JUMPDEST SWAP2 POP PUSH2 0x27BF DUP3 PUSH2 0x2758 JUMP JUMPDEST PUSH1 0x40 DUP3 ADD SWAP1 POP SWAP2 SWAP1 POP JUMP JUMPDEST PUSH1 0x0 PUSH1 0x20 DUP3 ADD SWAP1 POP DUP2 DUP2 SUB PUSH1 0x0 DUP4 ADD MSTORE PUSH2 0x27E3 DUP2 PUSH2 0x27A7 JUMP JUMPDEST SWAP1 POP SWAP2 SWAP1 POP JUMP JUMPDEST PUSH32 0x41726561206265742072657175697265732065786163746C7920312063686F69 PUSH1 0x0 DUP3 ADD MSTORE PUSH32 0x6365000000000000000000000000000000000000000000000000000000000000 PUSH1 0x20 DUP3 ADD MSTORE POP JUMP JUMPDEST PUSH1 0x0 PUSH2 0x2846 PUSH1 0x22 DUP4 PUSH2 0x2289 JUMP JUMPDEST SWAP2 POP PUSH2 0x2851 DUP3 PUSH2 0x27EA JUMP JUMPDEST PUSH1 0x40 DUP3 ADD SWAP1 POP SWAP2 SWAP1 POP JUMP JUMPDEST PUSH1 0x0 PUSH1 0x20 DUP3 ADD SWAP1 POP DUP2 DUP2 SUB PUSH1 0x0 DUP4 ADD MSTORE PUSH2 0x2875 DUP2 PUSH2 0x2839 JUMP JUMPDEST SWAP1 POP SWAP2 SWAP1 POP JUMP JUMPDEST PUSH32 0x436F6C756D6E206265742072657175697265732065786163746C792031322063 PUSH1 0x0 DUP3 ADD MSTORE PUSH32 0x686F696365730000000000000000000000000000000000000000000000000000 PUSH1 0x20 DUP3 ADD MSTORE POP JUMP JUMPDEST PUSH1 0x0 PUSH2 0x28D8 PUSH1 0x26 DUP4 PUSH2 0x2289 JUMP JUMPDEST SWAP2 POP PUSH2 0x28E3 DUP3 PUSH2 0x287C JUMP JUMPDEST PUSH1 0x40 DUP3 ADD SWAP1 POP SWAP2 SWAP1 POP JUMP JUMPDEST PUSH1 0x0 PUSH1 0x20 DUP3 ADD SWAP1 POP DUP2 DUP2 SUB PUSH1 0x0 DUP4 ADD MSTORE PUSH2 0x2907 DUP2 PUSH2 0x28CB JUMP JUMPDEST SWAP1 POP SWAP2 SWAP1 POP JUMP JUMPDEST PUSH32 0x5370656369616C206265742072657175697265732065786163746C7920312063 PUSH1 0x0 DUP3 ADD MSTORE PUSH32 0x686F696365000000000000000000000000000000000000000000000000000000 PUSH1 0x20 DUP3 ADD MSTORE POP JUMP JUMPDEST PUSH1 0x0 PUSH2 0x296A PUSH1 0x25 DUP4 PUSH2 0x2289 JUMP JUMPDEST SWAP2 POP PUSH2 0x2975 DUP3 PUSH2 0x290E JUMP JUMPDEST PUSH1 0x40 DUP3 ADD SWAP1 POP SWAP2 SWAP1 POP JUMP JUMPDEST PUSH1 0x0 PUSH1 0x20 DUP3 ADD SWAP1 POP DUP2 DUP2 SUB PUSH1 0x0 DUP4 ADD MSTORE PUSH2 0x2999 DUP2 PUSH2 0x295D JUMP JUMPDEST SWAP1 POP SWAP2 SWAP1 POP JUMP JUMPDEST PUSH1 0x0 PUSH1 0x80 DUP3 ADD SWAP1 POP PUSH2 0x29B5 PUSH1 0x0 DUP4 ADD DUP8 PUSH2 0x1C42 JUMP JUMPDEST PUSH2 0x29C2 PUSH1 0x20 DUP4 ADD DUP7 PUSH2 0x1CB9 JUMP JUMPDEST DUP2 DUP2 SUB PUSH1 0x40 DUP4 ADD MSTORE PUSH2 0x29D4 DUP2 DUP6 PUSH2 0x1D35 JUMP JUMPDEST SWAP1 POP PUSH2 0x29E3 PUSH1 0x60 DUP4 ADD DUP5 PUSH2 0x1C42 JUMP JUMPDEST SWAP6 SWAP5 POP POP POP POP POP JUMP JUMPDEST PUSH32 0x4E487B7100000000000000000000000000000000000000000000000000000000 PUSH1 0x0 MSTORE PUSH1 0x32 PUSH1 0x4 MSTORE PUSH1 0x24 PUSH1 0x0 REVERT JUMPDEST PUSH1 0x0 PUSH2 0x2A26 DUP3 PUSH2 0x1CF4 JUMP JUMPDEST SWAP2 POP PUSH1 0xFF DUP3 SUB PUSH2 0x2A39 JUMPI PUSH2 0x2A38 PUSH2 0x21B5 JUMP JUMPDEST JUMPDEST PUSH1 0x1 DUP3 ADD SWAP1 POP SWAP2 SWAP1 POP JUMP JUMPDEST PUSH1 0x0 PUSH2 0x2A4F DUP3 PUSH2 0x1CF4 JUMP JUMPDEST SWAP2 POP PUSH2 0x2A5A DUP4 PUSH2 0x1CF4 JUMP JUMPDEST SWAP3 POP DUP3 PUSH2 0x2A6A JUMPI PUSH2 0x2A69 PUSH2 0x2155 JUMP JUMPDEST JUMPDEST DUP3 DUP3 MOD SWAP1 POP SWAP3 SWAP2 POP POP JUMP JUMPDEST PUSH1 0x0 PUSH2 0x2A80 DUP3 PUSH2 0x1BDF JUMP JUMPDEST SWAP2 POP PUSH2 0x2A8B DUP4 PUSH2 0x1BDF JUMP JUMPDEST SWAP3 POP DUP3 DUP3 MUL PUSH2 0x2A99 DUP2 PUSH2 0x1BDF JUMP JUMPDEST SWAP2 POP DUP3 DUP3 DIV DUP5 EQ DUP4 ISZERO OR PUSH2 0x2AB0 JUMPI PUSH2 0x2AAF PUSH2 0x21B5 JUMP JUMPDEST JUMPDEST POP SWAP3 SWAP2 POP POP JUMP INVALID LOG2 PUSH5 0x6970667358 0x22 SLT KECCAK256 0xAA AND 0xCE 0x4A SUB 0xE 0xEE 0xE8 XOR MOD 0x23 DUP9 SWAP7 SWAP15 0xC9 0xD7 0xDD REVERT CALLCODE LOG1 0xA9 PUSH22 0x25497ECEB6286DDA144A64736F6C6343000813003300 "},"methodIdentifiers":{"betCounter()":"a416f5ab","bets(uint256)":"22af00fa","calculatePayout(uint256)":"3bb91c77","connectWallet()":"2d66f063","getBet(uint256)":"061e494f","placeBet(uint8,uint8[])":"72e52a9a","players(address)":"e2eb41ff","spinCounter()":"d4bcc0e1","spinResults(uint256)":"e4f32206","spinWheel()":"15ecef92","withdraw(uint256)":"2e1a7d4d"}}}}}