{
  "_format": "hh-sol-artifact-1",
  "contractName": "AccountManager",
  "sourceName": "src/AccountManager.sol",
  "abi": [
    {
      "inputs": [
        {
          "internalType": "address payable",
          "name": "_rouletteAddress",
          "type": "address"
        }
      ],
      "stateMutability": "nonpayable",
      "type": "constructor"
    },
    {
      "anonymous": false,
      "inputs": [
        {
          "indexed": true,
          "internalType": "address",
          "name": "user",
          "type": "address"
        },
        {
          "indexed": false,
          "internalType": "uint256",
          "name": "timestamp",
          "type": "uint256"
        }
      ],
      "name": "AccountActivated",
      "type": "event"
    },
    {
      "anonymous": false,
      "inputs": [
        {
          "indexed": true,
          "internalType": "address",
          "name": "user",
          "type": "address"
        },
        {
          "indexed": false,
          "internalType": "uint256",
          "name": "timestamp",
          "type": "uint256"
        }
      ],
      "name": "AccountDeactivated",
      "type": "event"
    },
    {
      "anonymous": false,
      "inputs": [
        {
          "indexed": true,
          "internalType": "address",
          "name": "player",
          "type": "address"
        },
        {
          "indexed": false,
          "internalType": "uint256",
          "name": "amount",
          "type": "uint256"
        }
      ],
      "name": "BetPlaced",
      "type": "event"
    },
    {
      "anonymous": false,
      "inputs": [
        {
          "indexed": false,
          "internalType": "string",
          "name": "message",
          "type": "string"
        },
        {
          "indexed": false,
          "internalType": "uint256",
          "name": "value",
          "type": "uint256"
        }
      ],
      "name": "Debug",
      "type": "event"
    },
    {
      "anonymous": false,
      "inputs": [
        {
          "indexed": true,
          "internalType": "address",
          "name": "user",
          "type": "address"
        },
        {
          "indexed": false,
          "internalType": "uint256",
          "name": "amount",
          "type": "uint256"
        },
        {
          "indexed": false,
          "internalType": "uint256",
          "name": "timestamp",
          "type": "uint256"
        }
      ],
      "name": "Deposit",
      "type": "event"
    },
    {
      "anonymous": false,
      "inputs": [
        {
          "indexed": true,
          "internalType": "address",
          "name": "player",
          "type": "address"
        },
        {
          "indexed": false,
          "internalType": "uint256",
          "name": "amount",
          "type": "uint256"
        }
      ],
      "name": "Payout",
      "type": "event"
    },
    {
      "anonymous": false,
      "inputs": [
        {
          "indexed": true,
          "internalType": "address",
          "name": "player",
          "type": "address"
        },
        {
          "indexed": false,
          "internalType": "uint256",
          "name": "amount",
          "type": "uint256"
        }
      ],
      "name": "WinningPaid",
      "type": "event"
    },
    {
      "anonymous": false,
      "inputs": [
        {
          "indexed": true,
          "internalType": "address",
          "name": "user",
          "type": "address"
        },
        {
          "indexed": false,
          "internalType": "uint256",
          "name": "amount",
          "type": "uint256"
        },
        {
          "indexed": false,
          "internalType": "uint256",
          "name": "timestamp",
          "type": "uint256"
        }
      ],
      "name": "Withdraw",
      "type": "event"
    },
    {
      "stateMutability": "payable",
      "type": "fallback"
    },
    {
      "inputs": [
        {
          "internalType": "address",
          "name": "",
          "type": "address"
        }
      ],
      "name": "accounts",
      "outputs": [
        {
          "internalType": "uint256",
          "name": "balance",
          "type": "uint256"
        },
        {
          "internalType": "uint256",
          "name": "totalDeposit",
          "type": "uint256"
        },
        {
          "internalType": "uint256",
          "name": "totalWithdraw",
          "type": "uint256"
        },
        {
          "internalType": "uint256",
          "name": "lastUpdate",
          "type": "uint256"
        },
        {
          "internalType": "bool",
          "name": "isActive",
          "type": "bool"
        }
      ],
      "stateMutability": "view",
      "type": "function"
    },
    {
      "inputs": [],
      "name": "activateAccount",
      "outputs": [],
      "stateMutability": "nonpayable",
      "type": "function"
    },
    {
      "inputs": [
        {
          "internalType": "address",
          "name": "player",
          "type": "address"
        },
        {
          "internalType": "uint256",
          "name": "amount",
          "type": "uint256"
        }
      ],
      "name": "addBalance",
      "outputs": [],
      "stateMutability": "nonpayable",
      "type": "function"
    },
    {
      "inputs": [],
      "name": "deactivateAccount",
      "outputs": [],
      "stateMutability": "nonpayable",
      "type": "function"
    },
    {
      "inputs": [],
      "name": "deposit",
      "outputs": [],
      "stateMutability": "payable",
      "type": "function"
    },
    {
      "inputs": [
        {
          "internalType": "address",
          "name": "user",
          "type": "address"
        }
      ],
      "name": "getAccountInfo",
      "outputs": [
        {
          "internalType": "uint256",
          "name": "balance",
          "type": "uint256"
        },
        {
          "internalType": "uint256",
          "name": "totalDeposit",
          "type": "uint256"
        },
        {
          "internalType": "uint256",
          "name": "totalWithdraw",
          "type": "uint256"
        },
        {
          "internalType": "uint256",
          "name": "lastUpdate",
          "type": "uint256"
        },
        {
          "internalType": "bool",
          "name": "isActive",
          "type": "bool"
        }
      ],
      "stateMutability": "view",
      "type": "function"
    },
    {
      "inputs": [],
      "name": "getContractBalance",
      "outputs": [
        {
          "internalType": "uint256",
          "name": "",
          "type": "uint256"
        }
      ],
      "stateMutability": "view",
      "type": "function"
    },
    {
      "inputs": [
        {
          "internalType": "address",
          "name": "player",
          "type": "address"
        }
      ],
      "name": "getDetailedBalance",
      "outputs": [
        {
          "internalType": "uint256",
          "name": "currentBalance",
          "type": "uint256"
        },
        {
          "internalType": "uint256",
          "name": "totalDeposited",
          "type": "uint256"
        },
        {
          "internalType": "uint256",
          "name": "totalWithdrawn",
          "type": "uint256"
        },
        {
          "internalType": "uint256",
          "name": "lastUpdateTime",
          "type": "uint256"
        }
      ],
      "stateMutability": "view",
      "type": "function"
    },
    {
      "inputs": [
        {
          "internalType": "address",
          "name": "player",
          "type": "address"
        },
        {
          "internalType": "uint256",
          "name": "amount",
          "type": "uint256"
        }
      ],
      "name": "handleInitialBet",
      "outputs": [],
      "stateMutability": "payable",
      "type": "function"
    },
    {
      "inputs": [
        {
          "internalType": "address",
          "name": "player",
          "type": "address"
        },
        {
          "internalType": "uint256",
          "name": "amount",
          "type": "uint256"
        }
      ],
      "name": "handleWinning",
      "outputs": [],
      "stateMutability": "nonpayable",
      "type": "function"
    },
    {
      "inputs": [],
      "name": "roulette",
      "outputs": [
        {
          "internalType": "contract Roulette",
          "name": "",
          "type": "address"
        }
      ],
      "stateMutability": "view",
      "type": "function"
    },
    {
      "inputs": [
        {
          "internalType": "address",
          "name": "player",
          "type": "address"
        },
        {
          "internalType": "uint256",
          "name": "amount",
          "type": "uint256"
        }
      ],
      "name": "subtractBalance",
      "outputs": [],
      "stateMutability": "nonpayable",
      "type": "function"
    },
    {
      "inputs": [
        {
          "internalType": "uint256",
          "name": "amount",
          "type": "uint256"
        }
      ],
      "name": "withdraw",
      "outputs": [],
      "stateMutability": "nonpayable",
      "type": "function"
    },
    {
      "stateMutability": "payable",
      "type": "receive"
    }
  ],
  "bytecode": "0x60806040523480156200001157600080fd5b5060405162002379380380620023798339818101604052810190620000379190620000e9565b80600160006101000a81548173ffffffffffffffffffffffffffffffffffffffff021916908373ffffffffffffffffffffffffffffffffffffffff160217905550506200011b565b600080fd5b600073ffffffffffffffffffffffffffffffffffffffff82169050919050565b6000620000b18262000084565b9050919050565b620000c381620000a4565b8114620000cf57600080fd5b50565b600081519050620000e381620000b8565b92915050565b6000602082840312156200010257620001016200007f565b5b60006200011284828501620000d2565b91505092915050565b61224e806200012b6000396000f3fe6080604052600436106100c65760003560e01c80636f9fb98a1161007f578063cfd4f18a11610059578063cfd4f18a146102d8578063d0e30db014610301578063e040e9a01461030b578063e713f1271461032257610104565b80636f9fb98a146102505780637b510fe81461027b57806391bb0a3b146102bc57610104565b806321e5383a1461013d5780632dc11759146101665780632e1a7d4d146101a65780633285d9e6146101cf5780635e5c06e2146101f85780636f26f7d81461023957610104565b36610104577f3c5ad147104e56be34a9176a6692f7df8d2f4b29a5af06bc6b98970d329d6577346040516100fa9190611473565b60405180910390a1005b7f3c5ad147104e56be34a9176a6692f7df8d2f4b29a5af06bc6b98970d329d65773460405161013391906114ed565b60405180910390a1005b34801561014957600080fd5b50610164600480360381019061015f91906115aa565b61034d565b005b34801561017257600080fd5b5061018d600480360381019061018891906115ea565b610594565b60405161019d9493929190611617565b60405180910390f35b3480156101b257600080fd5b506101cd60048036038101906101c8919061165c565b610600565b005b3480156101db57600080fd5b506101f660048036038101906101f191906115aa565b6107f1565b005b34801561020457600080fd5b5061021f600480360381019061021a91906115ea565b610ab2565b6040516102309594939291906116a4565b60405180910390f35b34801561024557600080fd5b5061024e610af5565b005b34801561025c57600080fd5b50610265610c74565b60405161027291906116f7565b60405180910390f35b34801561028757600080fd5b506102a2600480360381019061029d91906115ea565b610c7c565b6040516102b39594939291906116a4565b60405180910390f35b6102d660048036038101906102d191906115aa565b610cff565b005b3480156102e457600080fd5b506102ff60048036038101906102fa91906115aa565b610efe565b005b6103096110fa565b005b34801561031757600080fd5b5061032061129f565b005b34801561032e57600080fd5b506103376113d7565b6040516103449190611771565b60405180910390f35b600160009054906101000a900473ffffffffffffffffffffffffffffffffffffffff1673ffffffffffffffffffffffffffffffffffffffff163373ffffffffffffffffffffffffffffffffffffffff16146103dd576040517f08c379a00000000000000000000000000000000000000000000000000000000081526004016103d4906117d8565b60405180910390fd5b60008060008473ffffffffffffffffffffffffffffffffffffffff1673ffffffffffffffffffffffffffffffffffffffff16815260200190815260200160002090508060040160009054906101000a900460ff16610470576040517f08c379a000000000000000000000000000000000000000000000000000000000815260040161046790611844565b60405180910390fd5b7f3c5ad147104e56be34a9176a6692f7df8d2f4b29a5af06bc6b98970d329d657781600001546040516104a391906118b0565b60405180910390a17f3c5ad147104e56be34a9176a6692f7df8d2f4b29a5af06bc6b98970d329d6577826040516104da919061192a565b60405180910390a1818160000160008282546104f69190611987565b925050819055504281600301819055507f3c5ad147104e56be34a9176a6692f7df8d2f4b29a5af06bc6b98970d329d657781600001546040516105399190611a07565b60405180910390a18273ffffffffffffffffffffffffffffffffffffffff167f39d5cc279dd78c119512e8872d36c907ff7cf02c32de331a7decc406f0677b948360405161058791906116f7565b60405180910390a2505050565b60008060008060008060008773ffffffffffffffffffffffffffffffffffffffff1673ffffffffffffffffffffffffffffffffffffffff168152602001908152602001600020905080600001548160010154826002015483600301549450945094509450509193509193565b6000803373ffffffffffffffffffffffffffffffffffffffff1673ffffffffffffffffffffffffffffffffffffffff16815260200190815260200160002060040160009054906101000a900460ff1661068e576040517f08c379a000000000000000000000000000000000000000000000000000000000815260040161068590611a81565b60405180910390fd5b60008060003373ffffffffffffffffffffffffffffffffffffffff1673ffffffffffffffffffffffffffffffffffffffff16815260200190815260200160002090508181600001541015610717576040517f08c379a000000000000000000000000000000000000000000000000000000000815260040161070e90611aed565b60405180910390fd5b8181600001600082825461072b9190611b0d565b92505081905550818160020160008282546107469190611987565b925050819055504281600301819055503373ffffffffffffffffffffffffffffffffffffffff166108fc839081150290604051600060405180830381858888f1935050505015801561079c573d6000803e3d6000fd5b503373ffffffffffffffffffffffffffffffffffffffff167ff279e6a1f5e320cca91135676d9cb6e44ca8a08c0b88342bcdb1144f6511b56883426040516107e5929190611b41565b60405180910390a25050565b600160009054906101000a900473ffffffffffffffffffffffffffffffffffffffff1673ffffffffffffffffffffffffffffffffffffffff163373ffffffffffffffffffffffffffffffffffffffff1614610881576040517f08c379a000000000000000000000000000000000000000000000000000000000815260040161087890611bdc565b60405180910390fd5b60008060008473ffffffffffffffffffffffffffffffffffffffff1673ffffffffffffffffffffffffffffffffffffffff16815260200190815260200160002090508060040160009054906101000a900460ff16610914576040517f08c379a000000000000000000000000000000000000000000000000000000000815260040161090b90611844565b60405180910390fd5b7f3c5ad147104e56be34a9176a6692f7df8d2f4b29a5af06bc6b98970d329d657781600001546040516109479190611c48565b60405180910390a1818160000160008282546109639190611987565b925050819055504281600301819055507f3c5ad147104e56be34a9176a6692f7df8d2f4b29a5af06bc6b98970d329d657781600001546040516109a69190611cc2565b60405180910390a17f3c5ad147104e56be34a9176a6692f7df8d2f4b29a5af06bc6b98970d329d6577826040516109dd9190611d3c565b60405180910390a181471015610a28576040517f08c379a0000000000000000000000000000000000000000000000000000000008152600401610a1f90611ddc565b60405180910390fd5b8273ffffffffffffffffffffffffffffffffffffffff167f39d5cc279dd78c119512e8872d36c907ff7cf02c32de331a7decc406f0677b9483604051610a6e91906116f7565b60405180910390a27f3c5ad147104e56be34a9176a6692f7df8d2f4b29a5af06bc6b98970d329d657782604051610aa59190611e48565b60405180910390a1505050565b60006020528060005260406000206000915090508060000154908060010154908060020154908060030154908060040160009054906101000a900460ff16905085565b6000803373ffffffffffffffffffffffffffffffffffffffff1673ffffffffffffffffffffffffffffffffffffffff16815260200190815260200160002060040160009054906101000a900460ff1615610b84576040517f08c379a0000000000000000000000000000000000000000000000000000000008152600401610b7b90611ec2565b60405180910390fd5b60016000803373ffffffffffffffffffffffffffffffffffffffff1673ffffffffffffffffffffffffffffffffffffffff16815260200190815260200160002060040160006101000a81548160ff021916908315150217905550426000803373ffffffffffffffffffffffffffffffffffffffff1673ffffffffffffffffffffffffffffffffffffffff168152602001908152602001600020600301819055503373ffffffffffffffffffffffffffffffffffffffff167fefd7c9549e30eec7d102080b57d7549ea48deaeefd22065d6a803a43c9347d4742604051610c6a91906116f7565b60405180910390a2565b600047905090565b6000806000806000806000808873ffffffffffffffffffffffffffffffffffffffff1673ffffffffffffffffffffffffffffffffffffffff168152602001908152602001600020905080600001548160010154826002015483600301548460040160009054906101000a900460ff16955095509550955095505091939590929450565b600160009054906101000a900473ffffffffffffffffffffffffffffffffffffffff1673ffffffffffffffffffffffffffffffffffffffff163373ffffffffffffffffffffffffffffffffffffffff1614610d8f576040517f08c379a0000000000000000000000000000000000000000000000000000000008152600401610d8690611f2e565b60405180910390fd5b803414610dd1576040517f08c379a0000000000000000000000000000000000000000000000000000000008152600401610dc890611f9a565b60405180910390fd5b60008060008473ffffffffffffffffffffffffffffffffffffffff1673ffffffffffffffffffffffffffffffffffffffff16815260200190815260200160002090508060040160009054906101000a900460ff16610e64576040517f08c379a0000000000000000000000000000000000000000000000000000000008152600401610e5b90611844565b60405180910390fd5b8181600001541015610eab576040517f08c379a0000000000000000000000000000000000000000000000000000000008152600401610ea290612006565b60405180910390fd5b8273ffffffffffffffffffffffffffffffffffffffff167f43e08d78302cdf9c94e1ffd293c2a3696139ee41cf3199b6f5eed9c7f6cc609083604051610ef191906116f7565b60405180910390a2505050565b600160009054906101000a900473ffffffffffffffffffffffffffffffffffffffff1673ffffffffffffffffffffffffffffffffffffffff163373ffffffffffffffffffffffffffffffffffffffff1614610f8e576040517f08c379a0000000000000000000000000000000000000000000000000000000008152600401610f8590612098565b60405180910390fd5b60008060008473ffffffffffffffffffffffffffffffffffffffff1673ffffffffffffffffffffffffffffffffffffffff16815260200190815260200160002090508060040160009054906101000a900460ff16611021576040517f08c379a000000000000000000000000000000000000000000000000000000000815260040161101890611844565b60405180910390fd5b8181600001541015611068576040517f08c379a000000000000000000000000000000000000000000000000000000000815260040161105f90611aed565b60405180910390fd5b8181600001600082825461107c9190611b0d565b925050819055507f3c5ad147104e56be34a9176a6692f7df8d2f4b29a5af06bc6b98970d329d6577826040516110b29190612104565b60405180910390a17f3c5ad147104e56be34a9176a6692f7df8d2f4b29a5af06bc6b98970d329d657781600001546040516110ed919061217e565b60405180910390a1505050565b6000803373ffffffffffffffffffffffffffffffffffffffff1673ffffffffffffffffffffffffffffffffffffffff16815260200190815260200160002060040160009054906101000a900460ff16611188576040517f08c379a000000000000000000000000000000000000000000000000000000000815260040161117f90611a81565b60405180910390fd5b600034116111cb576040517f08c379a00000000000000000000000000000000000000000000000000000000081526004016111c2906121f8565b60405180910390fd5b60008060003373ffffffffffffffffffffffffffffffffffffffff1673ffffffffffffffffffffffffffffffffffffffff1681526020019081526020016000209050348160000160008282546112219190611987565b925050819055503481600101600082825461123c9190611987565b925050819055504281600301819055503373ffffffffffffffffffffffffffffffffffffffff167f90890809c654f11d6e72a28fa60149770a0d11ec6c92319d6ceb2bb0a4ea1a153442604051611294929190611b41565b60405180910390a250565b6000803373ffffffffffffffffffffffffffffffffffffffff1673ffffffffffffffffffffffffffffffffffffffff16815260200190815260200160002060040160009054906101000a900460ff1661132d576040517f08c379a000000000000000000000000000000000000000000000000000000000815260040161132490611a81565b60405180910390fd5b60008060003373ffffffffffffffffffffffffffffffffffffffff1673ffffffffffffffffffffffffffffffffffffffff16815260200190815260200160002060040160006101000a81548160ff0219169083151502179055503373ffffffffffffffffffffffffffffffffffffffff167f037c93b54f4f694be0d62d0f1918434becd1f83c438dc16045122f52e43da7e7426040516113cd91906116f7565b60405180910390a2565b600160009054906101000a900473ffffffffffffffffffffffffffffffffffffffff1681565b600082825260208201905092915050565b7f5265636569766564204554480000000000000000000000000000000000000000600082015250565b6000611444600c836113fd565b915061144f8261140e565b602082019050919050565b6000819050919050565b61146d8161145a565b82525050565b6000604082019050818103600083015261148c81611437565b905061149b6020830184611464565b92915050565b7f46616c6c6261636b2063616c6c65642077697468204554480000000000000000600082015250565b60006114d76018836113fd565b91506114e2826114a1565b602082019050919050565b60006040820190508181036000830152611506816114ca565b90506115156020830184611464565b92915050565b600080fd5b600073ffffffffffffffffffffffffffffffffffffffff82169050919050565b600061154b82611520565b9050919050565b61155b81611540565b811461156657600080fd5b50565b60008135905061157881611552565b92915050565b6115878161145a565b811461159257600080fd5b50565b6000813590506115a48161157e565b92915050565b600080604083850312156115c1576115c061151b565b5b60006115cf85828601611569565b92505060206115e085828601611595565b9150509250929050565b600060208284031215611600576115ff61151b565b5b600061160e84828501611569565b91505092915050565b600060808201905061162c6000830187611464565b6116396020830186611464565b6116466040830185611464565b6116536060830184611464565b95945050505050565b6000602082840312156116725761167161151b565b5b600061168084828501611595565b91505092915050565b60008115159050919050565b61169e81611689565b82525050565b600060a0820190506116b96000830188611464565b6116c66020830187611464565b6116d36040830186611464565b6116e06060830185611464565b6116ed6080830184611695565b9695505050505050565b600060208201905061170c6000830184611464565b92915050565b6000819050919050565b600061173761173261172d84611520565b611712565b611520565b9050919050565b60006117498261171c565b9050919050565b600061175b8261173e565b9050919050565b61176b81611750565b82525050565b60006020820190506117866000830184611762565b92915050565b7f4f6e6c7920526f756c657474652063616e206164642062616c616e6365000000600082015250565b60006117c2601d836113fd565b91506117cd8261178c565b602082019050919050565b600060208201905081810360008301526117f1816117b5565b9050919050565b7f4163636f756e74206e6f74206163746976650000000000000000000000000000600082015250565b600061182e6012836113fd565b9150611839826117f8565b602082019050919050565b6000602082019050818103600083015261185d81611821565b9050919050565b7f43757272656e742062616c616e63650000000000000000000000000000000000600082015250565b600061189a600f836113fd565b91506118a582611864565b602082019050919050565b600060408201905081810360008301526118c98161188d565b90506118d86020830184611464565b92915050565b7f416464696e6720616d6f756e7400000000000000000000000000000000000000600082015250565b6000611914600d836113fd565b915061191f826118de565b602082019050919050565b6000604082019050818103600083015261194381611907565b90506119526020830184611464565b92915050565b7f4e487b7100000000000000000000000000000000000000000000000000000000600052601160045260246000fd5b60006119928261145a565b915061199d8361145a565b92508282019050808211156119b5576119b4611958565b5b92915050565b7f46696e616c2062616c616e636500000000000000000000000000000000000000600082015250565b60006119f1600d836113fd565b91506119fc826119bb565b602082019050919050565b60006040820190508181036000830152611a20816119e4565b9050611a2f6020830184611464565b92915050565b7f4163636f756e74206973206e6f74206163746976650000000000000000000000600082015250565b6000611a6b6015836113fd565b9150611a7682611a35565b602082019050919050565b60006020820190508181036000830152611a9a81611a5e565b9050919050565b7f496e73756666696369656e742062616c616e6365000000000000000000000000600082015250565b6000611ad76014836113fd565b9150611ae282611aa1565b602082019050919050565b60006020820190508181036000830152611b0681611aca565b9050919050565b6000611b188261145a565b9150611b238361145a565b9250828203905081811115611b3b57611b3a611958565b5b92915050565b6000604082019050611b566000830185611464565b611b636020830184611464565b9392505050565b7f4f6e6c7920526f756c657474652063616e2068616e646c652077696e6e696e6760008201527f7300000000000000000000000000000000000000000000000000000000000000602082015250565b6000611bc66021836113fd565b9150611bd182611b6a565b604082019050919050565b60006020820190508181036000830152611bf581611bb9565b9050919050565b7f42616c616e6365206265666f72652077696e0000000000000000000000000000600082015250565b6000611c326012836113fd565b9150611c3d82611bfc565b602082019050919050565b60006040820190508181036000830152611c6181611c25565b9050611c706020830184611464565b92915050565b7f42616c616e63652061667465722077696e000000000000000000000000000000600082015250565b6000611cac6011836113fd565b9150611cb782611c76565b602082019050919050565b60006040820190508181036000830152611cdb81611c9f565b9050611cea6020830184611464565b92915050565b7f57696e20616d6f756e7400000000000000000000000000000000000000000000600082015250565b6000611d26600a836113fd565b9150611d3182611cf0565b602082019050919050565b60006040820190508181036000830152611d5581611d19565b9050611d646020830184611464565b92915050565b7f496e73756666696369656e7420636f6e74726163742062616c616e636520666f60008201527f72207061796f7574000000000000000000000000000000000000000000000000602082015250565b6000611dc66028836113fd565b9150611dd182611d6a565b604082019050919050565b60006020820190508181036000830152611df581611db9565b9050919050565b7f57696e6e696e672070726f636573736564207375636365737366756c6c790000600082015250565b6000611e32601e836113fd565b9150611e3d82611dfc565b602082019050919050565b60006040820190508181036000830152611e6181611e25565b9050611e706020830184611464565b92915050565b7f4163636f756e7420616c72656164792061637469766500000000000000000000600082015250565b6000611eac6016836113fd565b9150611eb782611e76565b602082019050919050565b60006020820190508181036000830152611edb81611e9f565b9050919050565b7f4f6e6c7920526f756c657474652063616e2068616e646c652062657473000000600082015250565b6000611f18601d836113fd565b9150611f2382611ee2565b602082019050919050565b60006020820190508181036000830152611f4781611f0b565b9050919050565b7f416d6f756e74206d69736d617463680000000000000000000000000000000000600082015250565b6000611f84600f836113fd565b9150611f8f82611f4e565b602082019050919050565b60006020820190508181036000830152611fb381611f77565b9050919050565b7f496e73756666696369656e742062616c616e636520666f722062657400000000600082015250565b6000611ff0601c836113fd565b9150611ffb82611fba565b602082019050919050565b6000602082019050818103600083015261201f81611fe3565b9050919050565b7f4f6e6c7920526f756c657474652063616e2073756274726163742062616c616e60008201527f6365000000000000000000000000000000000000000000000000000000000000602082015250565b60006120826022836113fd565b915061208d82612026565b604082019050919050565b600060208201905081810360008301526120b181612075565b9050919050565b7f42616c616e63652073756274726163746564206166746572206c6f7373000000600082015250565b60006120ee601d836113fd565b91506120f9826120b8565b602082019050919050565b6000604082019050818103600083015261211d816120e1565b905061212c6020830184611464565b92915050565b7f4e65772062616c616e6365000000000000000000000000000000000000000000600082015250565b6000612168600b836113fd565b915061217382612132565b602082019050919050565b600060408201905081810360008301526121978161215b565b90506121a66020830184611464565b92915050565b7f416d6f756e74206d7573742062652067726561746572207468616e2030000000600082015250565b60006121e2601d836113fd565b91506121ed826121ac565b602082019050919050565b60006020820190508181036000830152612211816121d5565b905091905056fea26469706673582212202ad40f656698273a3ecad808308f22748cec832ef0adac537ceb7b6d1d140c1564736f6c63430008130033",
  "linkReferences": {},
  "deployedLinkReferences": {}
}