{
  "_format": "hh-sol-artifact-1",
  "contractName": "Roulette",
  "sourceName": "src/Roulette.sol",
  "abi": [
    {
      "inputs": [
        {
          "internalType": "address",
          "name": "_accountManagerAddress",
          "type": "address"
        }
      ],
      "stateMutability": "nonpayable",
      "type": "constructor"
    },
    {
      "anonymous": false,
      "inputs": [
        {
          "indexed": true,
          "internalType": "address",
          "name": "player",
          "type": "address"
        },
        {
          "indexed": false,
          "internalType": "uint256",
          "name": "betId",
          "type": "uint256"
        },
        {
          "indexed": false,
          "internalType": "enum Roulette.BetType",
          "name": "betType",
          "type": "uint8"
        },
        {
          "indexed": false,
          "internalType": "uint8[]",
          "name": "choices",
          "type": "uint8[]"
        },
        {
          "indexed": false,
          "internalType": "uint256",
          "name": "amount",
          "type": "uint256"
        }
      ],
      "name": "BetPlaced",
      "type": "event"
    },
    {
      "anonymous": false,
      "inputs": [
        {
          "indexed": false,
          "internalType": "string",
          "name": "message",
          "type": "string"
        },
        {
          "indexed": false,
          "internalType": "uint256",
          "name": "value",
          "type": "uint256"
        }
      ],
      "name": "Debug",
      "type": "event"
    },
    {
      "anonymous": false,
      "inputs": [
        {
          "indexed": false,
          "internalType": "string",
          "name": "message",
          "type": "string"
        },
        {
          "indexed": false,
          "internalType": "bool",
          "name": "value",
          "type": "bool"
        }
      ],
      "name": "DebugBool",
      "type": "event"
    },
    {
      "anonymous": false,
      "inputs": [
        {
          "indexed": true,
          "internalType": "address",
          "name": "player",
          "type": "address"
        },
        {
          "indexed": false,
          "internalType": "uint8",
          "name": "result",
          "type": "uint8"
        },
        {
          "indexed": false,
          "internalType": "uint256",
          "name": "betAmount",
          "type": "uint256"
        },
        {
          "indexed": false,
          "internalType": "uint256",
          "name": "winAmount",
          "type": "uint256"
        },
        {
          "indexed": false,
          "internalType": "bool",
          "name": "isWin",
          "type": "bool"
        },
        {
          "indexed": false,
          "internalType": "uint8[]",
          "name": "choices",
          "type": "uint8[]"
        }
      ],
      "name": "GameResult",
      "type": "event"
    },
    {
      "anonymous": false,
      "inputs": [
        {
          "indexed": true,
          "internalType": "address",
          "name": "player",
          "type": "address"
        },
        {
          "indexed": false,
          "internalType": "uint256",
          "name": "amount",
          "type": "uint256"
        }
      ],
      "name": "Payout",
      "type": "event"
    },
    {
      "anonymous": false,
      "inputs": [
        {
          "indexed": false,
          "internalType": "uint256",
          "name": "spinId",
          "type": "uint256"
        },
        {
          "indexed": false,
          "internalType": "uint8",
          "name": "result",
          "type": "uint8"
        }
      ],
      "name": "SpinResult",
      "type": "event"
    },
    {
      "stateMutability": "payable",
      "type": "fallback"
    },
    {
      "inputs": [],
      "name": "accountManagerAddress",
      "outputs": [
        {
          "internalType": "address",
          "name": "",
          "type": "address"
        }
      ],
      "stateMutability": "view",
      "type": "function"
    },
    {
      "inputs": [],
      "name": "betCounter",
      "outputs": [
        {
          "internalType": "uint256",
          "name": "",
          "type": "uint256"
        }
      ],
      "stateMutability": "view",
      "type": "function"
    },
    {
      "inputs": [
        {
          "internalType": "uint256",
          "name": "",
          "type": "uint256"
        }
      ],
      "name": "bets",
      "outputs": [
        {
          "internalType": "address",
          "name": "player",
          "type": "address"
        },
        {
          "internalType": "uint256",
          "name": "amount",
          "type": "uint256"
        },
        {
          "internalType": "enum Roulette.BetType",
          "name": "betType",
          "type": "uint8"
        }
      ],
      "stateMutability": "view",
      "type": "function"
    },
    {
      "inputs": [
        {
          "internalType": "uint256",
          "name": "betId",
          "type": "uint256"
        },
        {
          "internalType": "uint256",
          "name": "spinId",
          "type": "uint256"
        }
      ],
      "name": "calculatePayout",
      "outputs": [],
      "stateMutability": "nonpayable",
      "type": "function"
    },
    {
      "inputs": [],
      "name": "connectWallet",
      "outputs": [],
      "stateMutability": "nonpayable",
      "type": "function"
    },
    {
      "inputs": [
        {
          "internalType": "uint256",
          "name": "betId",
          "type": "uint256"
        }
      ],
      "name": "getBet",
      "outputs": [
        {
          "internalType": "uint256",
          "name": "amount",
          "type": "uint256"
        },
        {
          "internalType": "enum Roulette.BetType",
          "name": "betType",
          "type": "uint8"
        },
        {
          "internalType": "uint8[]",
          "name": "choices",
          "type": "uint8[]"
        }
      ],
      "stateMutability": "view",
      "type": "function"
    },
    {
      "inputs": [
        {
          "components": [
            {
              "internalType": "address",
              "name": "player",
              "type": "address"
            },
            {
              "internalType": "uint256",
              "name": "amount",
              "type": "uint256"
            },
            {
              "internalType": "enum Roulette.BetType",
              "name": "betType",
              "type": "uint8"
            },
            {
              "internalType": "uint8[]",
              "name": "choices",
              "type": "uint8[]"
            }
          ],
          "internalType": "struct Roulette.Bet",
          "name": "bet",
          "type": "tuple"
        },
        {
          "internalType": "uint8",
          "name": "result",
          "type": "uint8"
        }
      ],
      "name": "isWinningBet",
      "outputs": [
        {
          "internalType": "bool",
          "name": "",
          "type": "bool"
        }
      ],
      "stateMutability": "nonpayable",
      "type": "function"
    },
    {
      "inputs": [
        {
          "internalType": "uint8[]",
          "name": "choices",
          "type": "uint8[]"
        }
      ],
      "name": "placeBetAndSpin",
      "outputs": [
        {
          "internalType": "uint8",
          "name": "",
          "type": "uint8"
        }
      ],
      "stateMutability": "payable",
      "type": "function"
    },
    {
      "inputs": [
        {
          "internalType": "address",
          "name": "",
          "type": "address"
        }
      ],
      "name": "players",
      "outputs": [
        {
          "internalType": "address",
          "name": "wallet",
          "type": "address"
        },
        {
          "internalType": "uint256",
          "name": "balance",
          "type": "uint256"
        }
      ],
      "stateMutability": "view",
      "type": "function"
    },
    {
      "inputs": [
        {
          "internalType": "address",
          "name": "_accountManagerAddress",
          "type": "address"
        }
      ],
      "name": "setAccountManager",
      "outputs": [],
      "stateMutability": "nonpayable",
      "type": "function"
    },
    {
      "inputs": [
        {
          "internalType": "address",
          "name": "",
          "type": "address"
        }
      ],
      "name": "specialBetTypes",
      "outputs": [
        {
          "internalType": "enum Roulette.BetType",
          "name": "",
          "type": "uint8"
        }
      ],
      "stateMutability": "view",
      "type": "function"
    },
    {
      "inputs": [],
      "name": "spinCounter",
      "outputs": [
        {
          "internalType": "uint256",
          "name": "",
          "type": "uint256"
        }
      ],
      "stateMutability": "view",
      "type": "function"
    },
    {
      "inputs": [
        {
          "internalType": "uint256",
          "name": "",
          "type": "uint256"
        }
      ],
      "name": "spinResults",
      "outputs": [
        {
          "internalType": "uint8",
          "name": "",
          "type": "uint8"
        }
      ],
      "stateMutability": "view",
      "type": "function"
    },
    {
      "inputs": [
        {
          "internalType": "uint256",
          "name": "amount",
          "type": "uint256"
        }
      ],
      "name": "withdraw",
      "outputs": [],
      "stateMutability": "nonpayable",
      "type": "function"
    },
    {
      "stateMutability": "payable",
      "type": "receive"
    }
  ],
  "bytecode": "0x60806040523480156200001157600080fd5b50604051620050a1380380620050a18339818101604052810190620000379190620000e9565b80600560006101000a81548173ffffffffffffffffffffffffffffffffffffffff021916908373ffffffffffffffffffffffffffffffffffffffff160217905550506200011b565b600080fd5b600073ffffffffffffffffffffffffffffffffffffffff82169050919050565b6000620000b18262000084565b9050919050565b620000c381620000a4565b8114620000cf57600080fd5b50565b600081519050620000e381620000b8565b92915050565b6000602082840312156200010257620001016200007f565b5b60006200011284828501620000d2565b91505092915050565b614f76806200012b6000396000f3fe6080604052600436106100e15760003560e01c806383f4cb3b1161007f578063a416f5ab11610059578063a416f5ab1461033d578063d4bcc0e114610368578063e2eb41ff14610393578063e4f32206146103d15761011f565b806383f4cb3b146102ae5780638e4586af146102eb5780639dce5ff0146103145761011f565b80632d66f063116100bb5780632d66f063146102015780632e1a7d4d14610218578063608a84f4146102415780636dcd441a146102715761011f565b8063061e494f1461015857806322af00fa146101975780632c2fac12146101d65761011f565b3661011f577f3c5ad147104e56be34a9176a6692f7df8d2f4b29a5af06bc6b98970d329d6577346040516101159190612aeb565b60405180910390a1005b7f3c5ad147104e56be34a9176a6692f7df8d2f4b29a5af06bc6b98970d329d65773460405161014e9190612b65565b60405180910390a1005b34801561016457600080fd5b5061017f600480360381019061017a9190612bd3565b61040e565b60405161018e93929190612d42565b60405180910390f35b3480156101a357600080fd5b506101be60048036038101906101b99190612bd3565b6104cb565b6040516101cd93929190612dc1565b60405180910390f35b3480156101e257600080fd5b506101eb610522565b6040516101f89190612df8565b60405180910390f35b34801561020d57600080fd5b50610216610548565b005b34801561022457600080fd5b5061023f600480360381019061023a9190612bd3565b6106d8565b005b61025b60048036038101906102569190612f98565b6107fe565b6040516102689190612ff0565b60405180910390f35b34801561027d57600080fd5b50610298600480360381019061029391906130fa565b611603565b6040516102a59190613171565b60405180910390f35b3480156102ba57600080fd5b506102d560048036038101906102d0919061318c565b611d25565b6040516102e291906131b9565b60405180910390f35b3480156102f757600080fd5b50610312600480360381019061030d919061318c565b611d45565b005b34801561032057600080fd5b5061033b600480360381019061033691906131d4565b611e1a565b005b34801561034957600080fd5b50610352612432565b60405161035f9190613214565b60405180910390f35b34801561037457600080fd5b5061037d612438565b60405161038a9190613214565b60405180910390f35b34801561039f57600080fd5b506103ba60048036038101906103b5919061318c565b61243e565b6040516103c892919061322f565b60405180910390f35b3480156103dd57600080fd5b506103f860048036038101906103f39190612bd3565b612482565b6040516104059190612ff0565b60405180910390f35b6000806060600060016000868152602001908152602001600020905080600101548160020160009054906101000a900460ff1682600301808054806020026020016040519081016040528092919081815260200182805480156104b657602002820191906000526020600020906000905b82829054906101000a900460ff1660ff168152602001906001019060208260000104928301926001038202915080841161047f5790505b50505050509050935093509350509193909250565b60016020528060005260406000206000915090508060000160009054906101000a900473ffffffffffffffffffffffffffffffffffffffff16908060010154908060020160009054906101000a900460ff16905083565b600560009054906101000a900473ffffffffffffffffffffffffffffffffffffffff1681565b600073ffffffffffffffffffffffffffffffffffffffff166000803373ffffffffffffffffffffffffffffffffffffffff1673ffffffffffffffffffffffffffffffffffffffff16815260200190815260200160002060000160009054906101000a900473ffffffffffffffffffffffffffffffffffffffff1673ffffffffffffffffffffffffffffffffffffffff1614610618576040517f08c379a000000000000000000000000000000000000000000000000000000000815260040161060f906132a4565b60405180910390fd5b60405180604001604052803373ffffffffffffffffffffffffffffffffffffffff16815260200160008152506000803373ffffffffffffffffffffffffffffffffffffffff1673ffffffffffffffffffffffffffffffffffffffff16815260200190815260200160002060008201518160000160006101000a81548173ffffffffffffffffffffffffffffffffffffffff021916908373ffffffffffffffffffffffffffffffffffffffff16021790555060208201518160010155905050565b806000803373ffffffffffffffffffffffffffffffffffffffff1673ffffffffffffffffffffffffffffffffffffffff16815260200190815260200160002060010154101561075c576040517f08c379a000000000000000000000000000000000000000000000000000000000815260040161075390613310565b60405180910390fd5b806000803373ffffffffffffffffffffffffffffffffffffffff1673ffffffffffffffffffffffffffffffffffffffff16815260200190815260200160002060010160008282546107ad919061335f565b925050819055503373ffffffffffffffffffffffffffffffffffffffff166108fc829081150290604051600060405180830381858888f193505050501580156107fa573d6000803e3d6000fd5b5050565b6000803411610842576040517f08c379a000000000000000000000000000000000000000000000000000000000815260040161083990613405565b60405180910390fd5b6000825111610886576040517f08c379a000000000000000000000000000000000000000000000000000000000815260040161087d90613471565b60405180910390fd5b60006001835103610bcc577f3c5ad147104e56be34a9176a6692f7df8d2f4b29a5af06bc6b98970d329d6577836000815181106108c6576108c5613491565b5b60200260200101516040516108db9190613547565b60405180910390a16024836000815181106108f9576108f8613491565b5b602002602001015160ff161161095b57600090507f3c5ad147104e56be34a9176a6692f7df8d2f4b29a5af06bc6b98970d329d657781600a81111561094157610940612c00565b5b60405161094e91906135c1565b60405180910390a1610bc7565b60258360008151811061097157610970613491565b5b602002602001015160ff16036109c257600790507f3c5ad147104e56be34a9176a6692f7df8d2f4b29a5af06bc6b98970d329d657760016040516109b59190613676565b60405180910390a1610bc6565b6026836000815181106109d8576109d7613491565b5b602002602001015160ff1603610a2957600790507f3c5ad147104e56be34a9176a6692f7df8d2f4b29a5af06bc6b98970d329d65776000604051610a1c919061372b565b60405180910390a1610bc5565b602783600081518110610a3f57610a3e613491565b5b602002602001015160ff1603610a9057600890507f3c5ad147104e56be34a9176a6692f7df8d2f4b29a5af06bc6b98970d329d65776001604051610a8391906137a5565b60405180910390a1610bc4565b602883600081518110610aa657610aa5613491565b5b602002602001015160ff1603610af757600890507f3c5ad147104e56be34a9176a6692f7df8d2f4b29a5af06bc6b98970d329d65776000604051610aea919061381f565b60405180910390a1610bc3565b602983600081518110610b0d57610b0c613491565b5b602002602001015160ff1603610b5e57600990507f3c5ad147104e56be34a9176a6692f7df8d2f4b29a5af06bc6b98970d329d65776001604051610b519190613899565b60405180910390a1610bc2565b602a83600081518110610b7457610b73613491565b5b602002602001015160ff1603610bc157600990507f3c5ad147104e56be34a9176a6692f7df8d2f4b29a5af06bc6b98970d329d65776000604051610bb89190613913565b60405180910390a15b5b5b5b5b5b5b610c2d565b6002835103610bde5760019050610c2c565b6004835103610bf05760029050610c2b565b6040517f08c379a0000000000000000000000000000000000000000000000000000000008152600401610c229061398d565b60405180910390fd5b5b5b80600660003373ffffffffffffffffffffffffffffffffffffffff1673ffffffffffffffffffffffffffffffffffffffff16815260200190815260200160002060006101000a81548160ff0219169083600a811115610c8f57610c8e612c00565b5b02179055506000600560009054906101000a900473ffffffffffffffffffffffffffffffffffffffff1673ffffffffffffffffffffffffffffffffffffffff16343334604051602401610ce392919061322f565b6040516020818303038152906040527f91bb0a3b000000000000000000000000000000000000000000000000000000007bffffffffffffffffffffffffffffffffffffffffffffffffffffffff19166020820180517bffffffffffffffffffffffffffffffffffffffffffffffffffffffff8381831617835250505050604051610d6d9190613a1e565b60006040518083038185875af1925050503d8060008114610daa576040519150601f19603f3d011682016040523d82523d6000602084013e610daf565b606091505b5050905080610df3576040517f08c379a0000000000000000000000000000000000000000000000000000000008152600401610dea90613aa7565b60405180910390fd5b60405180608001604052803373ffffffffffffffffffffffffffffffffffffffff16815260200134815260200183600a811115610e3357610e32612c00565b5b81526020018581525060016000600454815260200190815260200160002060008201518160000160006101000a81548173ffffffffffffffffffffffffffffffffffffffff021916908373ffffffffffffffffffffffffffffffffffffffff1602179055506020820151816001015560408201518160020160006101000a81548160ff0219169083600a811115610ecd57610ecc612c00565b5b02179055506060820151816003019080519060200190610eee9291906129b1565b509050506000610efc6124a2565b90508060026000600354815260200190815260200160002060006101000a81548160ff021916908360ff16021790555060006110706001600060045481526020019081526020016000206040518060800160405290816000820160009054906101000a900473ffffffffffffffffffffffffffffffffffffffff1673ffffffffffffffffffffffffffffffffffffffff1673ffffffffffffffffffffffffffffffffffffffff168152602001600182015481526020016002820160009054906101000a900460ff16600a811115610fd657610fd5612c00565b5b600a811115610fe857610fe7612c00565b5b81526020016003820180548060200260200160405190810160405280929190818152602001828054801561106157602002820191906000526020600020906000905b82829054906101000a900460ff1660ff168152602001906001019060208260000104928301926001038202915080841161102a5790505b50505050508152505083611603565b90506000811561130e576111bb6001600060045481526020019081526020016000206040518060800160405290816000820160009054906101000a900473ffffffffffffffffffffffffffffffffffffffff1673ffffffffffffffffffffffffffffffffffffffff1673ffffffffffffffffffffffffffffffffffffffff168152602001600182015481526020016002820160009054906101000a900460ff16600a81111561112257611121612c00565b5b600a81111561113457611133612c00565b5b8152602001600382018054806020026020016040519081016040528092919081815260200182805480156111ad57602002820191906000526020600020906000905b82829054906101000a900460ff1660ff16815260200190600101906020826000010492830192600103820291508084116111765790505b5050505050815250506124fb565b9050600560009054906101000a900473ffffffffffffffffffffffffffffffffffffffff1673ffffffffffffffffffffffffffffffffffffffff166321e5383a33836040518363ffffffff1660e01b815260040161121a92919061322f565b600060405180830381600087803b15801561123457600080fd5b505af1925050508015611245575060015b611284576040517f08c379a000000000000000000000000000000000000000000000000000000000815260040161127b90613b13565b60405180910390fd5b7f3c5ad147104e56be34a9176a6692f7df8d2f4b29a5af06bc6b98970d329d6577816040516112b39190613b7f565b60405180910390a13373ffffffffffffffffffffffffffffffffffffffff167f5afeca38b2064c23a692c4cf353015d80ab3ecc417b4f893f372690c11fbd9a6826040516113019190613214565b60405180910390a261140d565b600560009054906101000a900473ffffffffffffffffffffffffffffffffffffffff1673ffffffffffffffffffffffffffffffffffffffff1663cfd4f18a33346040518363ffffffff1660e01b815260040161136b92919061322f565b600060405180830381600087803b15801561138557600080fd5b505af1925050508015611396575060015b6113d5576040517f08c379a00000000000000000000000000000000000000000000000000000000081526004016113cc90613bf9565b60405180910390fd5b7f3c5ad147104e56be34a9176a6692f7df8d2f4b29a5af06bc6b98970d329d6577346040516114049190613c65565b60405180910390a15b7f3c5ad147104e56be34a9176a6692f7df8d2f4b29a5af06bc6b98970d329d65778360405161143c9190613cdf565b60405180910390a17f3c5ad147104e56be34a9176a6692f7df8d2f4b29a5af06bc6b98970d329d657785600a81111561147857611477612c00565b5b6040516114859190613d59565b60405180910390a17f3c5ad147104e56be34a9176a6692f7df8d2f4b29a5af06bc6b98970d329d6577876000815181106114c2576114c1613491565b5b60200260200101516040516114d79190613dd3565b60405180910390a13373ffffffffffffffffffffffffffffffffffffffff167f164cd6fdc337108b0cf964c083e27ce6c44cb29596254995fcb9e212e34003ba600454878a3460405161152d9493929190613e01565b60405180910390a27f67aca3205b35c43df87036f2dc8e31c60461b3d7194a864b2a9c2ac724a0cd0260035484604051611568929190613e4d565b60405180910390a13373ffffffffffffffffffffffffffffffffffffffff167f95fb5d8fa6440389673bd6d8bda8fa944d2d764e1e1075502285085bd5158cef843484868c6040516115be959493929190613e76565b60405180910390a2600460008154809291906115d990613ed0565b9190505550600360008154809291906115f190613ed0565b91905055508295505050505050919050565b60007f3c5ad147104e56be34a9176a6692f7df8d2f4b29a5af06bc6b98970d329d657760006040516116359190613f64565b60405180910390a17f3c5ad147104e56be34a9176a6692f7df8d2f4b29a5af06bc6b98970d329d65778360400151600a81111561167557611674612c00565b5b6040516116829190613fde565b60405180910390a17f3c5ad147104e56be34a9176a6692f7df8d2f4b29a5af06bc6b98970d329d6577826040516116b99190614058565b60405180910390a160005b836060015151811015611739577f3c5ad147104e56be34a9176a6692f7df8d2f4b29a5af06bc6b98970d329d65778460600151828151811061170957611708613491565b5b602002602001015160405161171e9190613dd3565b60405180910390a1808061173190613ed0565b9150506116c4565b506007600a81111561174e5761174d612c00565b5b8360400151600a81111561176557611764612c00565b5b03611902576000611775836127e9565b905060006025856060015160008151811061179357611792613491565b5b602002602001015160ff161490507f3c5ad147104e56be34a9176a6692f7df8d2f4b29a5af06bc6b98970d329d6577846040516117d091906140d2565b60405180910390a17f3c5ad147104e56be34a9176a6692f7df8d2f4b29a5af06bc6b98970d329d657782611805576000611808565b60015b604051611815919061414c565b60405180910390a17f3c5ad147104e56be34a9176a6692f7df8d2f4b29a5af06bc6b98970d329d65778161184a57600061184d565b60015b60405161185a91906141c6565b60405180910390a160008215158215151490507f3c5ad147104e56be34a9176a6692f7df8d2f4b29a5af06bc6b98970d329d65778161189a57600061189d565b60015b6040516118aa9190614240565b60405180910390a17f3c5ad147104e56be34a9176a6692f7df8d2f4b29a5af06bc6b98970d329d6577816118df5760006118e2565b60015b6040516118ef91906142ba565b60405180910390a1809350505050611d1f565b6000600a81111561191657611915612c00565b5b8360400151600a81111561192d5761192c612c00565b5b036119ac5760008260ff1684606001516000815181106119505761194f613491565b5b602002602001015160ff161490507f3c5ad147104e56be34a9176a6692f7df8d2f4b29a5af06bc6b98970d329d65778161198b57600061198e565b60015b60405161199b9190614334565b60405180910390a180915050611d1f565b6008600a8111156119c0576119bf612c00565b5b8360400151600a8111156119d7576119d6612c00565b5b03611b4c5760008260ff16036119f05760009050611d1f565b600080600284611a009190614391565b60ff16149050600060278560600151600081518110611a2257611a21613491565b5b602002602001015160ff161490507f3c5ad147104e56be34a9176a6692f7df8d2f4b29a5af06bc6b98970d329d657784604051611a5f91906140d2565b60405180910390a17f3c5ad147104e56be34a9176a6692f7df8d2f4b29a5af06bc6b98970d329d657782611a94576000611a97565b60015b604051611aa4919061440e565b60405180910390a17f3c5ad147104e56be34a9176a6692f7df8d2f4b29a5af06bc6b98970d329d657781611ad9576000611adc565b60015b604051611ae99190614488565b60405180910390a160008215158215151490507f3c5ad147104e56be34a9176a6692f7df8d2f4b29a5af06bc6b98970d329d657781611b29576000611b2c565b60015b604051611b399190614502565b60405180910390a1809350505050611d1f565b6009600a811115611b6057611b5f612c00565b5b8360400151600a811115611b7757611b76612c00565b5b03611ce25760008260ff1603611b905760009050611d1f565b600060128360ff1611159050600060298560600151600081518110611bb857611bb7613491565b5b602002602001015160ff161490507f3c5ad147104e56be34a9176a6692f7df8d2f4b29a5af06bc6b98970d329d657784604051611bf591906140d2565b60405180910390a17f3c5ad147104e56be34a9176a6692f7df8d2f4b29a5af06bc6b98970d329d657782611c2a576000611c2d565b60015b604051611c3a919061457c565b60405180910390a17f3c5ad147104e56be34a9176a6692f7df8d2f4b29a5af06bc6b98970d329d657781611c6f576000611c72565b60015b604051611c7f91906145f6565b60405180910390a160008215158215151490507f3c5ad147104e56be34a9176a6692f7df8d2f4b29a5af06bc6b98970d329d657781611cbf576000611cc2565b60015b604051611ccf9190614670565b60405180910390a1809350505050611d1f565b7f3c5ad147104e56be34a9176a6692f7df8d2f4b29a5af06bc6b98970d329d65776000604051611d129190614710565b60405180910390a1600090505b92915050565b60066020528060005260406000206000915054906101000a900460ff1681565b600073ffffffffffffffffffffffffffffffffffffffff16600560009054906101000a900473ffffffffffffffffffffffffffffffffffffffff1673ffffffffffffffffffffffffffffffffffffffff1614611dd6576040517f08c379a0000000000000000000000000000000000000000000000000000000008152600401611dcd9061478a565b60405180910390fd5b80600560006101000a81548173ffffffffffffffffffffffffffffffffffffffff021916908373ffffffffffffffffffffffffffffffffffffffff16021790555050565b60006002600083815260200190815260200160002060009054906101000a900460ff169050600080600160008681526020019081526020016000206040518060800160405290816000820160009054906101000a900473ffffffffffffffffffffffffffffffffffffffff1673ffffffffffffffffffffffffffffffffffffffff1673ffffffffffffffffffffffffffffffffffffffff168152602001600182015481526020016002820160009054906101000a900460ff16600a811115611ee557611ee4612c00565b5b600a811115611ef757611ef6612c00565b5b815260200160038201805480602002602001604051908101604052809291908181526020018280548015611f7057602002820191906000526020600020906000905b82829054906101000a900460ff1660ff1681526020019060010190602082600001049283019260010382029150808411611f395790505b50505050508152505090507f3c5ad147104e56be34a9176a6692f7df8d2f4b29a5af06bc6b98970d329d657785604051611faa91906147f6565b60405180910390a17f3c5ad147104e56be34a9176a6692f7df8d2f4b29a5af06bc6b98970d329d657784604051611fe19190614870565b60405180910390a17f3c5ad147104e56be34a9176a6692f7df8d2f4b29a5af06bc6b98970d329d6577836040516120189190614058565b60405180910390a17f3c5ad147104e56be34a9176a6692f7df8d2f4b29a5af06bc6b98970d329d6577816020015160405161205391906148ea565b60405180910390a160008160200151116120a2576040517f08c379a000000000000000000000000000000000000000000000000000000000815260040161209990614964565b60405180910390fd5b3373ffffffffffffffffffffffffffffffffffffffff16816000015173ffffffffffffffffffffffffffffffffffffffff1614612114576040517f08c379a000000000000000000000000000000000000000000000000000000000815260040161210b906149d0565b60405180910390fd5b61211e8184611603565b1561242b5761212c816124fb565b91507f3c5ad147104e56be34a9176a6692f7df8d2f4b29a5af06bc6b98970d329d65778260405161215d9190614a3c565b60405180910390a1600082111561242a576000600560009054906101000a900473ffffffffffffffffffffffffffffffffffffffff1673ffffffffffffffffffffffffffffffffffffffff16836040516121b690614a90565b60006040518083038185875af1925050503d80600081146121f3576040519150601f19603f3d011682016040523d82523d6000602084013e6121f8565b606091505b505090508061223c576040517f08c379a000000000000000000000000000000000000000000000000000000000815260040161223390614b17565b60405180910390fd5b6000600560009054906101000a900473ffffffffffffffffffffffffffffffffffffffff1673ffffffffffffffffffffffffffffffffffffffff1683600001518560405160240161228e92919061322f565b6040516020818303038152906040527f3285d9e6000000000000000000000000000000000000000000000000000000007bffffffffffffffffffffffffffffffffffffffffffffffffffffffff19166020820180517bffffffffffffffffffffffffffffffffffffffffffffffffffffffff83818316178352505050506040516123189190613a1e565b6000604051808303816000865af19150503d8060008114612355576040519150601f19603f3d011682016040523d82523d6000602084013e61235a565b606091505b505090508061239e576040517f08c379a000000000000000000000000000000000000000000000000000000000815260040161239590614ba9565b60405180910390fd5b826000015173ffffffffffffffffffffffffffffffffffffffff167f5afeca38b2064c23a692c4cf353015d80ab3ecc417b4f893f372690c11fbd9a6856040516123e89190613214565b60405180910390a27f3c5ad147104e56be34a9176a6692f7df8d2f4b29a5af06bc6b98970d329d65778460405161241f9190614c15565b60405180910390a150505b5b5050505050565b60045481565b60035481565b60006020528060005260406000206000915090508060000160009054906101000a900473ffffffffffffffffffffffffffffffffffffffff16908060010154905082565b60026020528060005260406000206000915054906101000a900460ff1681565b6000806001436124b2919061335f565b404233306003546040516020016124cd959493929190614cd7565b6040516020818303038152906040528051906020012060001c90506025816124f59190614d36565b91505090565b60006007600a81111561251157612510612c00565b5b8260400151600a81111561252857612527612c00565b5b148061255c57506008600a81111561254357612542612c00565b5b8260400151600a81111561255a57612559612c00565b5b145b8061258f57506009600a81111561257657612575612c00565b5b8260400151600a81111561258d5761258c612c00565b5b145b156125a057816020015190506127e4565b6000600a8111156125b4576125b3612c00565b5b8260400151600a8111156125cb576125ca612c00565b5b036125e857602382602001516125e19190614d67565b90506127e4565b6001600a8111156125fc576125fb612c00565b5b8260400151600a81111561261357612612612c00565b5b0361263057601182602001516126299190614d67565b90506127e4565b6002600a81111561264457612643612c00565b5b8260400151600a81111561265b5761265a612c00565b5b0361267857600882602001516126719190614d67565b90506127e4565b6003600a81111561268c5761268b612c00565b5b8260400151600a8111156126a3576126a2612c00565b5b036126c057600b82602001516126b99190614d67565b90506127e4565b6004600a8111156126d4576126d3612c00565b5b8260400151600a8111156126eb576126ea612c00565b5b0361270857600582602001516127019190614d67565b90506127e4565b6005600a81111561271c5761271b612c00565b5b8260400151600a81111561273357612732612c00565b5b0361275057600282602001516127499190614d67565b90506127e4565b6006600a81111561276457612763612c00565b5b8260400151600a81111561277b5761277a612c00565b5b0361279857600282602001516127919190614d67565b90506127e4565b600a808111156127ab576127aa612c00565b5b8260400151600a8111156127c2576127c1612c00565b5b036127df57600282602001516127d89190614d67565b90506127e4565b600090505b919050565b600080604051806102400160405280600160ff168152602001600360ff168152602001600560ff168152602001600760ff168152602001600960ff168152602001600c60ff168152602001600e60ff168152602001601060ff168152602001601260ff168152602001601360ff168152602001601560ff168152602001601760ff168152602001601960ff168152602001601b60ff168152602001601e60ff168152602001602060ff168152602001602260ff168152602001602460ff1681525090507f3c5ad147104e56be34a9176a6692f7df8d2f4b29a5af06bc6b98970d329d6577836040516128db9190614df5565b60405180910390a160005b60128160ff16101561296e578360ff16828260ff166012811061290c5761290b613491565b5b602002015160ff160361295b577f3c5ad147104e56be34a9176a6692f7df8d2f4b29a5af06bc6b98970d329d6577846040516129489190614e6f565b60405180910390a16001925050506129ac565b808061296690614e9d565b9150506128e6565b507f3c5ad147104e56be34a9176a6692f7df8d2f4b29a5af06bc6b98970d329d65778360405161299e9190614f12565b60405180910390a160009150505b919050565b82805482825590600052602060002090601f01602090048101928215612a475791602002820160005b83821115612a1857835183826101000a81548160ff021916908360ff16021790555092602001926001016020816000010492830192600103026129da565b8015612a455782816101000a81549060ff0219169055600101602081600001049283019260010302612a18565b505b509050612a549190612a58565b5090565b5b80821115612a71576000816000905550600101612a59565b5090565b600082825260208201905092915050565b7f5265636569766564204554480000000000000000000000000000000000000000600082015250565b6000612abc600c83612a75565b9150612ac782612a86565b602082019050919050565b6000819050919050565b612ae581612ad2565b82525050565b60006040820190508181036000830152612b0481612aaf565b9050612b136020830184612adc565b92915050565b7f46616c6c6261636b2063616c6c65642077697468204554480000000000000000600082015250565b6000612b4f601883612a75565b9150612b5a82612b19565b602082019050919050565b60006040820190508181036000830152612b7e81612b42565b9050612b8d6020830184612adc565b92915050565b6000604051905090565b600080fd5b600080fd5b612bb081612ad2565b8114612bbb57600080fd5b50565b600081359050612bcd81612ba7565b92915050565b600060208284031215612be957612be8612b9d565b5b6000612bf784828501612bbe565b91505092915050565b7f4e487b7100000000000000000000000000000000000000000000000000000000600052602160045260246000fd5b600b8110612c4057612c3f612c00565b5b50565b6000819050612c5182612c2f565b919050565b6000612c6182612c43565b9050919050565b612c7181612c56565b82525050565b600081519050919050565b600082825260208201905092915050565b6000819050602082019050919050565b600060ff82169050919050565b612cb981612ca3565b82525050565b6000612ccb8383612cb0565b60208301905092915050565b6000602082019050919050565b6000612cef82612c77565b612cf98185612c82565b9350612d0483612c93565b8060005b83811015612d35578151612d1c8882612cbf565b9750612d2783612cd7565b925050600181019050612d08565b5085935050505092915050565b6000606082019050612d576000830186612adc565b612d646020830185612c68565b8181036040830152612d768184612ce4565b9050949350505050565b600073ffffffffffffffffffffffffffffffffffffffff82169050919050565b6000612dab82612d80565b9050919050565b612dbb81612da0565b82525050565b6000606082019050612dd66000830186612db2565b612de36020830185612adc565b612df06040830184612c68565b949350505050565b6000602082019050612e0d6000830184612db2565b92915050565b600080fd5b6000601f19601f8301169050919050565b7f4e487b7100000000000000000000000000000000000000000000000000000000600052604160045260246000fd5b612e6182612e18565b810181811067ffffffffffffffff82111715612e8057612e7f612e29565b5b80604052505050565b6000612e93612b93565b9050612e9f8282612e58565b919050565b600067ffffffffffffffff821115612ebf57612ebe612e29565b5b602082029050602081019050919050565b600080fd5b612ede81612ca3565b8114612ee957600080fd5b50565b600081359050612efb81612ed5565b92915050565b6000612f14612f0f84612ea4565b612e89565b90508083825260208201905060208402830185811115612f3757612f36612ed0565b5b835b81811015612f605780612f4c8882612eec565b845260208401935050602081019050612f39565b5050509392505050565b600082601f830112612f7f57612f7e612e13565b5b8135612f8f848260208601612f01565b91505092915050565b600060208284031215612fae57612fad612b9d565b5b600082013567ffffffffffffffff811115612fcc57612fcb612ba2565b5b612fd884828501612f6a565b91505092915050565b612fea81612ca3565b82525050565b60006020820190506130056000830184612fe1565b92915050565b600080fd5b600080fd5b61301e81612da0565b811461302957600080fd5b50565b60008135905061303b81613015565b92915050565b600b811061304e57600080fd5b50565b60008135905061306081613041565b92915050565b60006080828403121561307c5761307b61300b565b5b6130866080612e89565b905060006130968482850161302c565b60008301525060206130aa84828501612bbe565b60208301525060406130be84828501613051565b604083015250606082013567ffffffffffffffff8111156130e2576130e1613010565b5b6130ee84828501612f6a565b60608301525092915050565b6000806040838503121561311157613110612b9d565b5b600083013567ffffffffffffffff81111561312f5761312e612ba2565b5b61313b85828601613066565b925050602061314c85828601612eec565b9150509250929050565b60008115159050919050565b61316b81613156565b82525050565b60006020820190506131866000830184613162565b92915050565b6000602082840312156131a2576131a1612b9d565b5b60006131b08482850161302c565b91505092915050565b60006020820190506131ce6000830184612c68565b92915050565b600080604083850312156131eb576131ea612b9d565b5b60006131f985828601612bbe565b925050602061320a85828601612bbe565b9150509250929050565b60006020820190506132296000830184612adc565b92915050565b60006040820190506132446000830185612db2565b6132516020830184612adc565b9392505050565b7f57616c6c657420616c726561647920636f6e6e65637465640000000000000000600082015250565b600061328e601883612a75565b915061329982613258565b602082019050919050565b600060208201905081810360008301526132bd81613281565b9050919050565b7f496e73756666696369656e742062616c616e6365000000000000000000000000600082015250565b60006132fa601483612a75565b9150613305826132c4565b602082019050919050565b60006020820190508181036000830152613329816132ed565b9050919050565b7f4e487b7100000000000000000000000000000000000000000000000000000000600052601160045260246000fd5b600061336a82612ad2565b915061337583612ad2565b925082820390508181111561338d5761338c613330565b5b92915050565b7f42657420616d6f756e74206d7573742062652067726561746572207468616e2060008201527f3000000000000000000000000000000000000000000000000000000000000000602082015250565b60006133ef602183612a75565b91506133fa82613393565b604082019050919050565b6000602082019050818103600083015261341e816133e2565b9050919050565b7f4d7573742073706563696679206265742063686f696365730000000000000000600082015250565b600061345b601883612a75565b915061346682613425565b602082019050919050565b6000602082019050818103600083015261348a8161344e565b9050919050565b7f4e487b7100000000000000000000000000000000000000000000000000000000600052603260045260246000fd5b7f53696e676c652063686f6963652076616c756500000000000000000000000000600082015250565b60006134f6601383612a75565b9150613501826134c0565b602082019050919050565b6000819050919050565b600061353161352c61352784612ca3565b61350c565b612ad2565b9050919050565b61354181613516565b82525050565b60006040820190508181036000830152613560816134e9565b905061356f6020830184613538565b92915050565b7f53657420626574207479706520746f2053696e676c6500000000000000000000600082015250565b60006135ab601683612a75565b91506135b682613575565b602082019050919050565b600060408201905081810360008301526135da8161359e565b90506135e96020830184612adc565b92915050565b7f53657420626574207479706520746f20526564426c61636b2028526564290000600082015250565b6000613625601e83612a75565b9150613630826135ef565b602082019050919050565b6000819050919050565b600061366061365b6136568461363b565b61350c565b612ad2565b9050919050565b61367081613645565b82525050565b6000604082019050818103600083015261368f81613618565b905061369e6020830184613667565b92915050565b7f53657420626574207479706520746f20526564426c61636b2028426c61636b29600082015250565b60006136da602083612a75565b91506136e5826136a4565b602082019050919050565b6000819050919050565b600061371561371061370b846136f0565b61350c565b612ad2565b9050919050565b613725816136fa565b82525050565b60006040820190508181036000830152613744816136cd565b9050613753602083018461371c565b92915050565b7f53657420626574207479706520746f204576656e4f646420284576656e290000600082015250565b600061378f601e83612a75565b915061379a82613759565b602082019050919050565b600060408201905081810360008301526137be81613782565b90506137cd6020830184613667565b92915050565b7f53657420626574207479706520746f204576656e4f646420284f646429000000600082015250565b6000613809601d83612a75565b9150613814826137d3565b602082019050919050565b60006040820190508181036000830152613838816137fc565b9050613847602083018461371c565b92915050565b7f53657420626574207479706520746f204c6f774869676820284c6f7729000000600082015250565b6000613883601d83612a75565b915061388e8261384d565b602082019050919050565b600060408201905081810360008301526138b281613876565b90506138c16020830184613667565b92915050565b7f53657420626574207479706520746f204c6f7748696768202848696768290000600082015250565b60006138fd601e83612a75565b9150613908826138c7565b602082019050919050565b6000604082019050818103600083015261392c816138f0565b905061393b602083018461371c565b92915050565b7f496e76616c6964206e756d626572206f662063686f6963657300000000000000600082015250565b6000613977601983612a75565b915061398282613941565b602082019050919050565b600060208201905081810360008301526139a68161396a565b9050919050565b600081519050919050565b600081905092915050565b60005b838110156139e15780820151818401526020810190506139c6565b60008484015250505050565b60006139f8826139ad565b613a0281856139b8565b9350613a128185602086016139c3565b80840191505092915050565b6000613a2a82846139ed565b915081905092915050565b7f4661696c656420746f2068616e646c65206265742077697468204163636f756e60008201527f744d616e61676572000000000000000000000000000000000000000000000000602082015250565b6000613a91602883612a75565b9150613a9c82613a35565b604082019050919050565b60006020820190508181036000830152613ac081613a84565b9050919050565b7f4661696c656420746f207570646174652077696e6e65722062616c616e636500600082015250565b6000613afd601f83612a75565b9150613b0882613ac7565b602082019050919050565b60006020820190508181036000830152613b2c81613af0565b9050919050565b7f57696e20616d6f756e7420616464656400000000000000000000000000000000600082015250565b6000613b69601083612a75565b9150613b7482613b33565b602082019050919050565b60006040820190508181036000830152613b9881613b5c565b9050613ba76020830184612adc565b92915050565b7f4661696c656420746f2073756274726163742062657420616d6f756e74000000600082015250565b6000613be3601d83612a75565b9150613bee82613bad565b602082019050919050565b60006020820190508181036000830152613c1281613bd6565b9050919050565b7f42657420616d6f756e7420737562747261637465640000000000000000000000600082015250565b6000613c4f601583612a75565b9150613c5a82613c19565b602082019050919050565b60006040820190508181036000830152613c7e81613c42565b9050613c8d6020830184612adc565b92915050565b7f47656e65726174656420726573756c7400000000000000000000000000000000600082015250565b6000613cc9601083612a75565b9150613cd482613c93565b602082019050919050565b60006040820190508181036000830152613cf881613cbc565b9050613d076020830184613538565b92915050565b7f46696e616c206265742074797065000000000000000000000000000000000000600082015250565b6000613d43600e83612a75565b9150613d4e82613d0d565b602082019050919050565b60006040820190508181036000830152613d7281613d36565b9050613d816020830184612adc565b92915050565b7f506c617965722063686f69636500000000000000000000000000000000000000600082015250565b6000613dbd600d83612a75565b9150613dc882613d87565b602082019050919050565b60006040820190508181036000830152613dec81613db0565b9050613dfb6020830184613538565b92915050565b6000608082019050613e166000830187612adc565b613e236020830186612c68565b8181036040830152613e358185612ce4565b9050613e446060830184612adc565b95945050505050565b6000604082019050613e626000830185612adc565b613e6f6020830184612fe1565b9392505050565b600060a082019050613e8b6000830188612fe1565b613e986020830187612adc565b613ea56040830186612adc565b613eb26060830185613162565b8181036080830152613ec48184612ce4565b90509695505050505050565b6000613edb82612ad2565b91507fffffffffffffffffffffffffffffffffffffffffffffffffffffffffffffffff8203613f0d57613f0c613330565b5b600182019050919050565b7f3d3d3d2057494e20434845434b205354415254203d3d3d000000000000000000600082015250565b6000613f4e601783612a75565b9150613f5982613f18565b602082019050919050565b60006040820190508181036000830152613f7d81613f41565b9050613f8c602083018461371c565b92915050565b7f4265742074797065000000000000000000000000000000000000000000000000600082015250565b6000613fc8600883612a75565b9150613fd382613f92565b602082019050919050565b60006040820190508181036000830152613ff781613fbb565b90506140066020830184612adc565b92915050565b7f5370696e20726573756c74000000000000000000000000000000000000000000600082015250565b6000614042600b83612a75565b915061404d8261400c565b602082019050919050565b6000604082019050818103600083015261407181614035565b90506140806020830184613538565b92915050565b7f526573756c74206e756d62657200000000000000000000000000000000000000600082015250565b60006140bc600d83612a75565b91506140c782614086565b602082019050919050565b600060408201905081810360008301526140eb816140af565b90506140fa6020830184613538565b92915050565b7f497320726573756c74207265643f000000000000000000000000000000000000600082015250565b6000614136600e83612a75565b915061414182614100565b602082019050919050565b6000604082019050818103600083015261416581614129565b90506141746020830184613538565b92915050565b7f44696420706c617965722063686f6f7365207265643f00000000000000000000600082015250565b60006141b0601683612a75565b91506141bb8261417a565b602082019050919050565b600060408201905081810360008301526141df816141a3565b90506141ee6020830184613538565b92915050565b7f5265642f426c61636b2077696e20636865636b00000000000000000000000000600082015250565b600061422a601383612a75565b9150614235826141f4565b602082019050919050565b600060408201905081810360008301526142598161421d565b90506142686020830184613538565b92915050565b7f3d3d3d2057494e20434845434b20454e44203d3d3d0000000000000000000000600082015250565b60006142a4601583612a75565b91506142af8261426e565b602082019050919050565b600060408201905081810360008301526142d381614297565b90506142e26020830184613538565b92915050565b7f53696e676c65206e756d62657220636f6d70617269736f6e0000000000000000600082015250565b600061431e601883612a75565b9150614329826142e8565b602082019050919050565b6000604082019050818103600083015261434d81614311565b905061435c6020830184613538565b92915050565b7f4e487b7100000000000000000000000000000000000000000000000000000000600052601260045260246000fd5b600061439c82612ca3565b91506143a783612ca3565b9250826143b7576143b6614362565b5b828206905092915050565b7f497320726573756c74206576656e3f0000000000000000000000000000000000600082015250565b60006143f8600f83612a75565b9150614403826143c2565b602082019050919050565b60006040820190508181036000830152614427816143eb565b90506144366020830184613538565b92915050565b7f44696420706c617965722063686f6f7365206576656e3f000000000000000000600082015250565b6000614472601783612a75565b915061447d8261443c565b602082019050919050565b600060408201905081810360008301526144a181614465565b90506144b06020830184613538565b92915050565b7f4576656e2f4f64642077696e20636865636b0000000000000000000000000000600082015250565b60006144ec601283612a75565b91506144f7826144b6565b602082019050919050565b6000604082019050818103600083015261451b816144df565b905061452a6020830184613538565b92915050565b7f497320726573756c74206c6f772028312d3138293f0000000000000000000000600082015250565b6000614566601583612a75565b915061457182614530565b602082019050919050565b6000604082019050818103600083015261459581614559565b90506145a46020830184613538565b92915050565b7f44696420706c617965722063686f6f7365206c6f773f00000000000000000000600082015250565b60006145e0601683612a75565b91506145eb826145aa565b602082019050919050565b6000604082019050818103600083015261460f816145d3565b905061461e6020830184613538565b92915050565b7f486967682f4c6f772077696e20636865636b0000000000000000000000000000600082015250565b600061465a601283612a75565b915061466582614624565b602082019050919050565b600060408201905081810360008301526146898161464d565b90506146986020830184613538565b92915050565b7f3d3d3d2057494e20434845434b20454e442028556e6b6e6f776e20626574207460008201527f79706529203d3d3d000000000000000000000000000000000000000000000000602082015250565b60006146fa602883612a75565b91506147058261469e565b604082019050919050565b60006040820190508181036000830152614729816146ed565b9050614738602083018461371c565b92915050565b7f4163636f756e744d616e6167657220616c726561647920736574000000000000600082015250565b6000614774601a83612a75565b915061477f8261473e565b602082019050919050565b600060208201905081810360008301526147a381614767565b9050919050565b7f50726f63657373696e6720626574204944000000000000000000000000000000600082015250565b60006147e0601183612a75565b91506147eb826147aa565b602082019050919050565b6000604082019050818103600083015261480f816147d3565b905061481e6020830184612adc565b92915050565b7f50726f63657373696e67207370696e2049440000000000000000000000000000600082015250565b600061485a601283612a75565b915061486582614824565b602082019050919050565b600060408201905081810360008301526148898161484d565b90506148986020830184612adc565b92915050565b7f42657420616d6f756e7400000000000000000000000000000000000000000000600082015250565b60006148d4600a83612a75565b91506148df8261489e565b602082019050919050565b60006040820190508181036000830152614903816148c7565b90506149126020830184612adc565b92915050565b7f4e6f2062657420666f756e6420666f7220746869732049440000000000000000600082015250565b600061494e601883612a75565b915061495982614918565b602082019050919050565b6000602082019050818103600083015261497d81614941565b9050919050565b7f4e6f7420796f7572206265740000000000000000000000000000000000000000600082015250565b60006149ba600c83612a75565b91506149c582614984565b602082019050919050565b600060208201905081810360008301526149e9816149ad565b9050919050565b7f57696e20616d6f756e742063616c63756c617465640000000000000000000000600082015250565b6000614a26601583612a75565b9150614a31826149f0565b602082019050919050565b60006040820190508181036000830152614a5581614a19565b9050614a646020830184612adc565b92915050565b50565b6000614a7a6000836139b8565b9150614a8582614a6a565b600082019050919050565b6000614a9b82614a6d565b9150819050919050565b7f4661696c656420746f207472616e736665722045544820746f204163636f756e60008201527f744d616e61676572000000000000000000000000000000000000000000000000602082015250565b6000614b01602883612a75565b9150614b0c82614aa5565b604082019050919050565b60006020820190508181036000830152614b3081614af4565b9050919050565b7f4661696c656420746f2070726f636573732077696e6e696e672077697468204160008201527f63636f756e744d616e6167657200000000000000000000000000000000000000602082015250565b6000614b93602d83612a75565b9150614b9e82614b37565b604082019050919050565b60006020820190508181036000830152614bc281614b86565b9050919050565b7f546f74616c207061796f75742070726f63657373656400000000000000000000600082015250565b6000614bff601683612a75565b9150614c0a82614bc9565b602082019050919050565b60006040820190508181036000830152614c2e81614bf2565b9050614c3d6020830184612adc565b92915050565b6000819050919050565b6000819050919050565b614c68614c6382614c43565b614c4d565b82525050565b6000819050919050565b614c89614c8482612ad2565b614c6e565b82525050565b60008160601b9050919050565b6000614ca782614c8f565b9050919050565b6000614cb982614c9c565b9050919050565b614cd1614ccc82612da0565b614cae565b82525050565b6000614ce38288614c57565b602082019150614cf38287614c78565b602082019150614d038286614cc0565b601482019150614d138285614cc0565b601482019150614d238284614c78565b6020820191508190509695505050505050565b6000614d4182612ad2565b9150614d4c83612ad2565b925082614d5c57614d5b614362565b5b828206905092915050565b6000614d7282612ad2565b9150614d7d83612ad2565b9250828202614d8b81612ad2565b91508282048414831517614da257614da1613330565b5b5092915050565b7f436865636b696e67206966206e756d6265722069732072656400000000000000600082015250565b6000614ddf601983612a75565b9150614dea82614da9565b602082019050919050565b60006040820190508181036000830152614e0e81614dd2565b9050614e1d6020830184613538565b92915050565b7f466f756e64206e756d62657220696e20726564206e756d626572730000000000600082015250565b6000614e59601b83612a75565b9150614e6482614e23565b602082019050919050565b60006040820190508181036000830152614e8881614e4c565b9050614e976020830184613538565b92915050565b6000614ea882612ca3565b915060ff8203614ebb57614eba613330565b5b600182019050919050565b7f4e756d626572206973206e6f7420726564000000000000000000000000000000600082015250565b6000614efc601183612a75565b9150614f0782614ec6565b602082019050919050565b60006040820190508181036000830152614f2b81614eef565b9050614f3a6020830184613538565b9291505056fea2646970667358221220c0558f92e4d32c4c1e4ce894177be48d99d5838a6c638c3be6c947c4da2e866764736f6c63430008130033",
  "linkReferences": {},
  "deployedLinkReferences": {}
}